:100000000C94D8020C9409030C9409030C94090372
:100010000C9409030C9409030C9409030C94090330
:100020000C9409030C9409030C9409030C94090320
:100030000C9409030C9409030C9409030C94090310
:100040000C9409030C9409030C9409030C94090300
:100050000C9409030C9409030C9409030C949F3B22
:100060000C9409030C94693B0C943F3B0C940903DA
:100070000C9409030C9409030C9409030C940903D0
:100080000C9409030C9409030C9409030C940903C0
:100090000C9409030C9409030C9409030C94E93B98
:1000A0000C9409030C9409030C9409030C940903A0
:1000B0000C9409030C9409030C9409030C94090390
:1000C0000C9409030C9409030C9409030C94090380
:1000D0000C9409030C9409030C94093B0C94DF3A2B
:1000E0000C9409030C9441060C94A8060C940E067B
:1000F0000C9446030C949B140C9467060C9489038F
:100100000C949E060C9453060C94DB040C949406F9
:100110000C9444030C94ED030C94410B0C942506B1
:100120000C94DE040C94D3040C949D030C94800670
:100130000C94C9040C94D7040C941A0A0C94EE0481
:100140000C941B060C94C20E0C9449060C948A065F
:100150000C940A050C94F2040C94E4040C9400052D
:100160000C940D3D0C949F0A0C94BB0E0C94160637
:100170000C94E8040C94190A0C9409050C94FC04E2
:100180000C9440030C94A50D0C941A3D0C94A20DF4
:100190000C94AB030C943C0A0C940E050C94430A8B
:1001A0000C9443030C94A70D0C945D060C94F60478
:1001B0000C947A030C94030E0C94700A0C94290A84
:1001C0000C9439060C94CF040C9404050C94BE0EC8
:1001D0000C9476060C945E040C942F062E76616CBB
:1001E000002E00676574200046696C7472652047B4
:1001F00072697065722069C3A765726973696E65FB
:1002000020766572696C656D6564692E2E2E2100FD
:1002100046696C747265204772697065722069C3A3
:10022000A765726973696E6520766572696C646929
:1002300000546865726520697320612074696D657A
:100240006F7574206572726F7220696E20506973C9
:10025000746F6E20372E2E2E21002D2D6D6561734B
:1002600075726520746F626163636F2074696D6578
:100270006F75742D2D004D65617375726564205620
:10028000616C75653A20004D656173757265642017
:1002900056616C75653A2000546F706C616D206317
:1002A00079636C65207375726573693A20004669DD
:1002B0006E616C206379636C652073757265736918
:1002C0003A2000416C6C2050726F63657373206933
:1002D0007320446F6E65200054C3BC74C3BC6E2091
:1002E0006265736C656E656D6564692E2E200052C3
:1002F0006F6C6C6572206B61676964692079616BF2
:10030000616C6179616D6164692E2E2E0046696CA5
:1003100074726520766572696C6D65646900466902
:100320006C747265204772697065722069C3A76535
:10033000726973696E6520766572696C6469004DD7
:10034000656173757265642056616C75653A20004D
:100350004D656173757265642056616C75653A20F0
:1003600000416C6C2050726F636573733A200054C7
:100370006F626163636F206379636C65207375726C
:100380006573693A20002D2D6D6561737572652066
:10039000746F626163636F2074696D656F75742D2E
:1003A0002D004D656173757265642056616C7565CD
:1003B0003A200000002100240027002A002D0030F0
:1003C00000330001010000040107010A01000022BE
:1003D00000250028002B002E00310034000201000F
:1003E00000050108010B012D2D2D2D2D2D2D2D2D5D
:1003F0002D2D2D2D2D2D2D2D2D2D2D2D2D2D2D2D2D
:100400002D2D2D2D2D2D2D2D2D2D2D2D2D2D2D2D1C
:100410002D2D2D2D2D2D2D2D2D2D2D0054484520EC
:100420004E554D424552204F462043494741524583
:100430005454453A20004D656173757265642056C9
:10044000616C75653A20002D2D2D2D2D2D2D2D2D16
:100450002D2D2D2D2D2D2D2D2D2D2D2D2D2D2D2DCC
:100460002D2D2D2D2D2D2D2D2D2D2D2D2D2D2D2DBC
:100470002D2D2D2D2D2D2D2D2D2D2D004369676119
:1004800072657474652054696D653A200046696C24
:10049000746572202B20546F626163636F207469EE
:1004A0006D653A2000544845204E554D4245522036
:1004B0004F46204349474152455454453A20000095
:1004C0000020002300260029002C002F003200000D
:1004D00001000003010601090105050505070508DE
:1004E000080808020202020A0A08080404040401B7
:1004F00001010101010101030303030303030304D9
:100500000707070C0C0C0C0C0C0C0C020202020668
:10051000060606060606060B0B0B0B0B0B0B0B0158
:100520000210202008081020401020408002010204
:1005300001080402010102040810204080804020CC
:100540001008040201800402018040201008040207
:100550000108040201010204081020408001020485
:10056000081020408000000A0B02090C0D0E08073D
:100570000304010000000000000000000000000073
:10058000000000000000000000000000000000006B
:100590000012111000000000000000000000000028
:1005A0000000000000000000000000001A3D0D3DAA
:1005B00011241FBECFEFD1E2DEBFCDBF00E00CBFE4
:1005C0001AE0A0E0B2E0E0E8F5EA00E00BBF02C00C
:1005D00007900D92A837B107D9F726E1A8E7BAE04E
:1005E00001C01D92A931B207E1F712E0C7EDD2E0D8
:1005F00000E006C021970109802FFE010E945350A0
:10060000C63DD10780E00807A9F70E94913D0C94F0
:10061000AE520C940000FC01A089B18982E08C9359
:10062000A485B5851C92A685B7858FEC8C93108E1A
:10063000A489B58986E08C93A289B3898C91806165
:100640008C93A289B3898C9188608C93A289B38999
:100650008C9180688C930288F389E02D80818F7D56
:1006600080830895E5E7F4E1DC012D913D914C9103
:10067000219331934193B4E1E13BFB07A9F708953E
:1006800080E991E00895089508950895AF92BF928A
:10069000CF92DF92EF92FF920F931F93CF93DF934E
:1006A0006C017B018B01040F151FEB015E01AE187D
:1006B000BF08C017D10759F06991D601ED91FC919F
:1006C0000190F081E02DC6011995892B79F7C501BC
:1006D000DF91CF911F910F91FF90EF90DF90CF901E
:1006E000BF90AF900895FB01448155816081718175
:1006F0000C944603FC01538D448D252F30E0842F4C
:1007000090E0821B930B541710F0CF960895019739
:100710000895FC01918D828D981761F0A28DAE0F26
:10072000BF2FB11D5D968C91928D9F5F9F73928FAD
:1007300090E008958FEF9FEF0895FC01918D828DD9
:10074000981731F0828DE80FF11D858D90E00895A6
:100750008FEF9FEF0895FC01918D228D892F90E0FE
:10076000805C9F4F821B91098F73992708958DEBB1
:1007700094E10E94AB0321E0892B09F420E0822F51
:1007800008958AE595E10E94AB0321E0892B09F4E5
:1007900020E0822F0895FC01A48DA80FB92FB11D70
:1007A000A35ABF4F2C91848D90E001968F739927A7
:1007B000848FA689B7892C93A089B1898C91837085
:1007C00080648C93938D848D981306C00288F3897E
:1007D000E02D80818F7D80830895EF92FF920F93AB
:1007E0001F93CF93DF93EC0181E0888F9B8D8C8DDD
:1007F00098131AC0E889F989808185FF15C09FB7D1
:10080000F894EE89FF896083E889F9898081837093
:10081000806480839FBF81E090E0DF91CF911F9142
:100820000F91FF90EF900895F62E0B8D10E00F5F63
:100830001F4F0F731127E02E8C8D8E110CC00FB639
:1008400007FCFACFE889F989808185FFF5CFCE01D1
:100850000E94CB03F1CFEB8DEC0FFD2FF11DE35A7E
:10086000FF4FF0829FB7F8940B8FEA89FB89808154
:100870008062CFCF6FEF8DEB94E10C94ED03EF929C
:10088000FF920F931F93CF93DF938C017B01D0E0F6
:10089000C0E0F701EC0FFD1F6491662339F0C80139
:1008A0000E94ED03892B11F02196F3CFCE01DF9149
:1008B000CF911F910F91FF90EF900895CF93DF9309
:1008C000EC01888D8823B9F0AA89BB89E889F98968
:1008D0008C9185FD03C0808186FD0DC00FB607FC9D
:1008E000F7CF8C9185FFF2CF808185FFEDCFCE01D0
:1008F0000E94CB03E9CFDF91CF91089580E090E093
:10090000892B29F00E94C10381110E94000080E020
:1009100090E0892B49F080E090E0892B29F00E943B
:10092000000081110E94000080E090E0892B49F0D6
:1009300080E090E0892B29F00E94000081110E9444
:10094000000080E090E0892B29F00E94B70381111C
:100950000C94000008958150823108F05AC0E82FAD
:10096000F0E08827E954FB4F8F4F0C945350D70485
:10097000DB04C904CF04D3040905DE04E404E8045D
:10098000EE04F204F604FC040005090504050A055A
:100990000E05809180008F7780938000089580916C
:1009A00080008F7DF9CF80918000877FF5CF84B55F
:1009B0008F7784BD089584B58F7DFBCF8091B00083
:1009C0008F778093B00008958091B0008F7DF9CF2C
:1009D000809190008F77809390000895809190008F
:1009E0008F7DF9CF80919000877FF5CF8091A00017
:1009F0008F778093A00008958091A0008F7DF9CF1C
:100A00008091A000877FF5CF809120018F77809320
:100A100020010895809120018F7DF9CF80912001E0
:100A2000877FF5CFCF93DF93E5E9F5E08491EFE49D
:100A3000F5E0D491E9E0F5E0C491CC23A1F0811177
:100A40000E94AB04EC2FF0E0EE0FFF1FE154FB4FD0
:100A5000A591B491EC91ED2381E090E009F480E060
:100A6000DF91CF91089580E090E0FACF1F93CF936C
:100A7000DF93282F30E0F901EB59FA4F8491F90107
:100A8000E15EFA4FD491F901E752FB4FC491CC23B8
:100A9000A9F0162F81110E94AB04EC2FF0E0EE0FAD
:100AA000FF1FE353FC4FA591B4918FB7F894EC91DD
:100AB000111108C0D095DE23DC938FBFDF91CF9159
:100AC0001F910895DE2BF8CFCF92DF92EF92FF9225
:100AD000CF930E9412050197E1F761E080E30E9445
:100AE000360560E085E30E9436050E941205892BD9
:100AF000E1F7C8E1C12CD12C760161E085E30E94C9
:100B00003605CC0CDD1CEE1CFF1C60E085E30E946A
:100B100036050E941205892B29F02FEFC21AD20A3E
:100B2000E20AF20AC15049F761E085E30E94360506
:100B300060E085E30E943605C701B6018058CF9179
:100B4000FF90EF90DF90CF900895CF93DF9390E0E8
:100B5000FC01E15EFA4F249187529B4FFC01849186
:100B60008823D1F090E0880F991FFC01ED54FC4FD1
:100B7000A591B491FC01E353FC4FC591D49161114F
:100B80000EC09FB7F8948C91E22FE0958E238C9342
:100B90002881E223E8839FBFDF91CF9108958FB72B
:100BA000F894EC91E22BEC938FBFF6CF1F93CF9389
:100BB000DF93182FEB0161E00E94A505209739F41F
:100BC00060E0812FDF91CF911F910C943605CF3FCC
:100BD000D10511F461E0F5CFE12FF0E0EB59FA4FC8
:100BE000E491E150E23108F0B3C0F0E08827E4502E
:100BF000FA4F8F4F0C9453500E0616061B0625060F
:100C00002F06A80639064106490653065D06670603
:100C100076068006A8068A0694069E0684B5806835
:100C200084BDC7BDDF91CF911F91089584B58062C7
:100C300084BDC8BDF7CF809180008068809380001C
:100C4000D0938900C0938800EDCF809180008062AE
:100C500080938000D0938B00C0938A00E3CF809173
:100C60008000886080938000D0938D00C0938C00BA
:100C7000D9CF8091B00080688093B000C093B3005A
:100C8000D1CF8091B00080628093B000C093B40057
:100C9000C9CF80919000806880939000D093990094
:100CA000C0939800BFCF80919000806280939000A5
:100CB000D0939B00C0939A00B5CF8091900088603C
:100CC00080939000D0939D00C0939C00ABCF809107
:100CD000A00080688093A0008091A0008F7B80930B
:100CE000A000D093A900C093A8009CCF8091A00041
:100CF00080628093A000D093AB00C093AA0092CFF3
:100D00008091A00088608093A000D093AD00C09334
:100D1000AC0088CF80912001806880932001D0931F
:100D20002901C09328017ECF8091200180628093A9
:100D30002001D0932B01C0932A0174CF8091200110
:100D4000886080932001D0932D01C0932C016ACF3D
:100D5000C038D1050CF03ECF33CF865320917B00B5
:100D6000982F987F277F922B90937B0087708064C9
:100D700080937C0080917A00806480937A008091D7
:100D80007A0086FDFCCF80917800909179000895DB
:100D90003FB7F8948091D70A9091D80AA091D90AC8
:100DA000B091DA0A26B5A89B05C02F3F19F001962D
:100DB000A11DB11D3FBFBA2FA92F982F8827BC01B5
:100DC000CD01620F711D811D911D42E0660F771FDD
:100DD000881F991F4A95D1F708958F929F92AF92DD
:100DE000BF92CF92DF92EF92FF926B017C010E9443
:100DF000C8064B015C01C114D104E104F104B9F04F
:100E00000E94C806681979098A099B09683E7340DF
:100E10008105910580F321E0C21AD108E108F108AB
:100E200088EE880E83E0981EA11CB11CE4CFFF90D1
:100E3000EF90DF90CF90BF90AF909F908F900895EC
:100E40002FB7F8946091D30A7091D40A8091D50A93
:100E50009091D60A2FBF08950F931F930E942007E9
:100E60006093C5147093C6148093C7149093C814EC
:100E70008DEB94E10E94890397FF1DC00E9420071B
:100E80000091C5141091C6142091C7143091C81454
:100E9000601B710B820B930B0091C1141091C21453
:100EA0002091C3143091C41460177107820793070F
:100EB000F8F28FEF9FEF1F910F9108954F925F927D
:100EC0006F927F929F92AF92BF92CF92DF92EF92FA
:100ED000FF920F931F93CF93DF9300D0CDB7DEB770
:100EE000D090F7158091FA159091FB15A091FC1503
:100EF000B091FD15892B8A2B8B2BD9F00E94C80647
:100F00000091B9141091BA142091BB143091BC1403
:100F1000601B710B820B930B0091FA151091FB155E
:100F20002091FC153091FD1560177107820793071A
:100F3000C8F20E94C8066093B9147093BA148093E3
:100F4000BB149093BC14E0910216F09103163097F5
:100F500059F04091FE155091FF1560910016709167
:100F600001168D2D1995D82EE090B714F090B81475
:100F70004D2C512C712C612CE114F10409F459C051
:100F8000D7011C96CC901C978091F8159091F9157B
:100F90008436910510F41C961C92D701ED91FC91BA
:100FA000A280B38019821A821B82DD2079F1F701B9
:100FB000369610E000E02191222319F192809920C9
:100FC00001F130E050E040E02F5F3F4F4F4F5F4F67
:100FD000C301B2010E942F509B01AC01892D90E00A
:100FE000B0E0A0E0BC01CD016F5F7F4F8F4F9F4FFE
:100FF0000E942F50A1E0B0E0AC0FBD1FA00FB11FA9
:101000008C930F5F1F4F03301105A9F609811A81D8
:101010002B81F7014585568562817381C701F501F2
:101020001995D7011C96CC921C971496ED90FC90C4
:10103000A3CF8091B5149091B6148C010F5F1F4F10
:101040001093B6140093B5144997B4F10E94200789
:10105000C090B114D090B214E090B314F090B414D6
:101060009B01AC012C193D094E095F0921F421E0D7
:1010700030E040E050E088EE93E0089FB001099F27
:10108000700D189F700D1124072E000C880B990B02
:101090000E94514F3093F9152093F8151092B61411
:1010A0001092B5140E9420076093B1147093B2148B
:1010B0008093B3149093B4140F900F900F90DF911E
:1010C000CF911F910F91FF90EF90DF90CF90BF9045
:1010D000AF909F907F906F905F904F900895209178
:1010E000AF0A260F3327331F21323105ECF420914C
:1010F0004B14FC0190E080E0243069F082E0089518
:10110000A091AF0A2191AC014157554FA40FB52FC3
:10111000B11D2C930196861798F38091AF0A680F42
:101120006093AF0A80E0089581E0089510924B1417
:1011300081E080934A141092251461E084E10E94BA
:10114000360561E085E10E943605E9EBF0E080813B
:101150008E7F808380818D7F808388E48093B80038
:1011600085E48093BC000895CF93DF9391E0909342
:101170008E0A8823B9F0C091B800D091BA0080914E
:10118000BC008A7B8093BC0060E084E10E9436054D
:1011900060E085E10E9436050E949608D093BA006F
:1011A000C093B800DF91CF9108958F929F92AF9234
:1011B000BF92CF92DF92EF92FF920F931F93CF9344
:1011C000DF93D0917414D13208F0D7C0182FC0919A
:1011D00073140E94C8066B017C0180914B1481112D
:1011E0006BC082E080934B1410934A148FEF80936E
:1011F000491410924814D0934714A3E5B4E1E7E2F0
:10120000F4E180E0D81391C0109226148091261446
:10121000CC0FC82BC093261480912514813009F07F
:1012200088C0109225140E94C8066B017C01809131
:1012300026148093BB0080914D1490914E14A09180
:101240004F14B0915014892B8A2B8B2BA1F00E9444
:10125000C80600914D1410914E1420914F143091F6
:1012600050146C197D098E099F0906171707280766
:10127000390708F442C08091BC0083FDD8CF85ECCB
:101280008093BC000E94C8066B017C0180914B14C6
:10129000823009F450C0809149148F3F09F46FC027
:1012A00080914914803209F46CC0809149148033D4
:1012B00009F469C084E026C080914D1490914E14C9
:1012C000A0914F14B0915014892B8A2B8B2B09F4C9
:1012D00084CF0E94C80680904D1490904E14A09028
:1012E0004F14B09050146C197D098E099F09861611
:1012F0009706A806B90608F070CF80914C140E949A
:10130000B40885E010925214109274141092511483
:10131000DF91CF911F910F91FF90EF90DF90CF90D1
:10132000BF90AF909F908F9008959D9191938F5F04
:1013300069CF85EEA5CF80914D1490914E14A09168
:101340004F14B0915014892B8A2B8B2B09F49ECF0C
:101350000E94C80600914D1410914E1420914F1414
:10136000309150146C197D098E099F0906171707D3
:101370002807390708F08ACFC0CF81E0C3CF80E0CB
:10138000C1CF82E0BFCF83E0BDCFCF93DF93EA012F
:10139000DC0111968D919C91DC01ED91FC91028014
:1013A000F381E02D1995C817D90729F481E00E942F
:1013B000D50891E0811190E0892FDF91CF910895B8
:1013C000CF93DF93EC018B818823A1F0888191E09A
:1013D00090935114809373141092521410927414B9
:1013E00081E00E94D50891E0811190E0892FDF9182
:1013F000CF91089510920414109203141092521475
:10140000109274140E94960883E493E09093DC0A8F
:101410008093DB0A84E493E09093DE0A8093DD0AF4
:1014200081E08B83CE010E94E009982F8111CECFFD
:10143000DDCF0895E091041480910314E81730F48F
:10144000F0E0EB5FFB4E808190E008958FEF9FEF1F
:10145000089590910414809103142FEF3FEF981793
:1014600048F4E92FF0E0EB5FFB4E208130E09F5F16
:1014700090930414C9010895809103149091041469
:10148000891B990B0895CF92DF92EF92FF920F93F1
:101490001F93CF93DF937C01CB018A0120915114DC
:1014A000222389F0EB016B01C40ED51ECC15DD059E
:1014B00069F06991D701ED91FC910190F081E02DE7
:1014C000C7011995F3CF642F0E946F08C801DF91FF
:1014D000CF911F910F91FF90EF90DF90CF900895E3
:1014E000CF93DF931F92CDB7DEB76983209151145C
:1014F0002223F9F020917414203258F021E030E0DA
:10150000FC013383228390E080E00F90DF91CF9144
:10151000089580915214E82FF0E0ED5AFB4E998126
:1015200090838F5F809352148093741481E090E0D5
:10153000ECCF61E0CE0101960E946F08F7CF90E0FA
:1015400080E00895CF92DF92EF92FF920F931F9366
:10155000CF93DF93C82FC12CD12C7601D0E003E2CA
:1015600010E00E946405C60ED71EE81EF91EC801D1
:101570000197F1F7DF5FCD13F4CF2C2F30E050E06F
:1015800040E0C701B6010E941F4FCA01B9010E9485
:10159000024E60938A0A70938B0A80938C0A909310
:1015A0008D0ADF91CF911F910F91FF90EF90DF9007
:1015B000CF900895CF92DF92EF92FF9260918A0AC6
:1015C00070918B0A80918C0A90918D0A0E94F44F41
:1015D0006B017C010E9464056C197D098E099F09CD
:1015E0000E94024E2DEC3CEC4CE251E40E94824FF2
:1015F0000E94F44F97FF03C060E070E0CB01FF90C2
:10160000EF90DF90CF9008950F931F93CF93DF93C8
:101610002091890A2F5F322F37703093890A20FF7B
:101620002BC020E831FD2064347009F02062205F77
:10163000FC01EC01239600E011E06485662329F0AB
:1016400070E0C8010E943F506F5F6187322F369F64
:10165000030E30E0311D1124311110C016826623B3
:1016600011F0615061873196EC17FD0731F7DF917A
:10167000CF911F910F91089520E0D4CF3150368340
:10168000EECF4F925F927F928F929F92AF92BF92D6
:10169000CF92DF92EF92FF920F931F93CF93DF933E
:1016A0002C01EB010E94C806F20127853089621BDC
:1016B000730B6A307105B0F3F8948A819B81181618
:1016C00019060CF0CDC1E881F98164B3862E6894C7
:1016D00085F834B33F7D34BBD9848E812D2D281BF2
:1016E000822F2E834F85042E000C550BAA81BB81BF
:1016F0007C85FD84EE847F5FF394E3949F819884DE
:10170000BA84AB841081C12C6C2D0C2D2C2D208122
:10171000112788942111280F08F42FEF81958894C0
:1017200070FD120F1795889471FD120F179588940C
:1017300072FD120F1795889473FD120F17958894F8
:1017400074FD120F1795889475FD120F17958894E4
:1017500076FD120F1795889477FD120F17958894D0
:10176000622F7111612F8D0D162F002C84BA00C0CD
:1017700017FF34BB21816627889400C000C0002C6D
:1017800034BB2111290F00C0002C84BA00C016FF01
:1017900034BB08F42FEF9195889400C000C0002C52
:1017A00034BBF0FC620F00C0002C84BA00C015FFEF
:1017B00034BB67958894F1FC620F00C000C0002C18
:1017C00034BB6795889400C0002C84BA00C014FF15
:1017D00034BBF2FC620F6795889400C000C0002CF7
:1017E00034BBF3FC620F00C0002C84BA00C013FFAE
:1017F00034BB67958894F4FC620F00C000C0002CD5
:1018000034BB6795889400C0002C84BA00C012FFD6
:1018100034BBF5FC620F6795889400C000C0002CB3
:1018200034BBF6FC620F00C0002C84BA00C011FF6C
:1018300034BB67958894F7FC620F00C000C0002C91
:1018400034BB6795889400C0002C84BA00C010FF98
:1018500034BB122FF110162F9B0D00C000C0002CBE
:1018600034BB00C000C0002C84BA00C017FF34BBDA
:1018700022816627889400C000C0002C34BB21114F
:10188000290D00C0002C84BA00C016FF34BB08F438
:101890002FEFE40FF51F00C000C0002C34BBE0FCAC
:1018A000620F00C0002C84BA00C015FF34BB6795DE
:1018B0008894E1FC620F00C000C0002C34BB679527
:1018C000889400C0002C84BA00C014FF34BBE2FC32
:1018D000620F6795889400C000C0002C34BBE3FC05
:1018E000620F00C0002C84BA00C013FF34BB6795A0
:1018F0008894E4FC620F00C000C0002C34BB6795E4
:10190000889400C0002C84BA00C012FF34BBE5FCF0
:10191000620F6795889400C000C0002C34BBE6FCC1
:10192000620F00C0002C84BA00C011FF34BB679561
:101930008894E7FC620F00C000C0002C34BB6795A0
:10194000889400C0002C84BA00C010FF34BB122F52
:10195000E110162F919400C000C0002C34BB9A0CEB
:1019600000C000C084BA00C017FF34BB20816627C6
:10197000889400C000C0002C34BB2111280F00C087
:10198000002C84BA00C016FF34BB08F42FEF8195F9
:10199000889400C000C0002C34BB70FD620F00C0F2
:1019A000002C84BA00C015FF34BB6795889471FD84
:1019B000620F00C000C0002C34BB6795889400C043
:1019C000002C84BA00C014FF34BB72FD620F67950F
:1019D000889400C000C0002C34BB73FD620F00C0AF
:1019E000002C84BA00C013FF34BB6795889474FD43
:1019F000620F00C000C0002C34BB6795889400C003
:101A0000002C84BA00C012FF34BB75FD620F6795CD
:101A1000889400C000C0002C34BB76FD620F00C06B
:101A2000002C84BA00C011FF34BB6795889477FD01
:101A3000620F00C000C0002C34BB6795889400C0C2
:101A4000002C84BA00C010FF34BB122F7111162F66
:101A50008D0D00C000C0002C34BB119709F086CE5C
:101A60004A815B8120EE31E0DA010E945B50DC01AB
:101A7000CB01F4E0B695A79597958795FA95D1F7A0
:101A800030E020E0B901EAE94E9F040E611D5E9F3F
:101A9000600D711D1124650F711D860F971FA11D0B
:101AA000B11D893E43E09407A105B10508F434C097
:101AB000885E9340A109B10942E0B695A795979534
:101AC00087954A95D1F747E0849F080E211D949F82
:101AD000200D311D1124290F311D6091880A70E0FD
:101AE000860F971F820F931F4091D30A5091D40AFB
:101AF0006091D50A7091D60A292F3327420F531FC0
:101B0000611D711D4093D30A5093D40A6093D50A86
:101B10007093D60A8093880A78940E94C806F201CE
:101B2000708B6787DF91CF911F910F91FF90EF909E
:101B3000DF90CF90BF90AF909F908F907F905F90FD
:101B40004F90089581E090E008959D9A08956F92D6
:101B50007F928F92CF92DF92EF92FF920F931F931B
:101B6000CF93DF93CDB7DEB762970FB6F894DEBFA1
:101B70000FBECDBF6C017A013801822EDC011C96AC
:101B80002C91CA0157FF04C088279927841B950B05
:101B90007A8369839C838B839E838D836D867E8607
:101BA0008F86213049F5CE0101960E94040B83E017
:101BB000888B1A8A198AF7FE02C08DEF888BD601AE
:101BC000ED91FC910684F785E02DBE016F5F7F4F9C
:101BD000C601199562960FB6F894DEBF0FBECDBF51
:101BE000DF91CF911F910F91FF90EF90DF90CF90F9
:101BF0008F907F906F9008951C861B861A86198699
:101C000018861F82D4CFEF92FF920F931F93CF932A
:101C1000DF93CDB7DEB762970FB6F894DEBF0FBE85
:101C2000CDBF7C01DC011C968C917A8369835C8337
:101C30004B835E834D830D871E872F878130F9F498
:101C4000CE0101960E94040B188A1A8A198AD701BC
:101C5000ED91FC910684F785E02DBE016F5F7F4F0B
:101C6000C701199562960FB6F894DEBF0FBECDBFBF
:101C7000DF91CF911F910F91FF90EF9008951C86F7
:101C80001B861A86198618861F82DECFCF93DF93B4
:101C900000D0CDB7DEB719821A821B82CE01019621
:101CA0000E9432030E945E070F900F900F90DF9109
:101CB000CF910895CF93DF9300D0CDB7DEB769837E
:101CC0008A834B83CE0101960E9432030E945E07F5
:101CD0000F900F900F90DF91CF910895BF92CF9208
:101CE000DF92EF92FF920F931F93CF93DF9300D079
:101CF000CDB7DEB7C82EB62ED42EE22E19821A82A8
:101D00001B82CE0101960E9432030E945E0710E002
:101D100000E0F12C0E151F050CF5B982CA82DB829A
:101D2000CE0101960E9432030E945E0764E670E0D5
:101D300080E090E00E94ED0619821A821B82CE019B
:101D400001960E9432030E945E0764E670E080E024
:101D500090E00E94ED060F5F1F4FDCCF0F900F90B9
:101D60000F90DF91CF911F910F91FF90EF90DF9037
:101D7000CF90BF90089590E080E00895FC018585A4
:101D8000968508950F931F93CF93DF9300D0CDB71F
:101D9000DEB7AB0119821A821B82DC01ED91FC9146
:101DA0000190F081E02D00E010E020E0BE016F5FC7
:101DB0007F4F19950F900F900F90DF91CF911F914A
:101DC0000F91089510920214109201141092E713CB
:101DD0001092FA0A0895CF93DF93C8E3D2E060E04F
:101DE00089910E94360582E0C134D807C1F7DF919E
:101DF000CF910895BC018DEB94E10E9473030E9482
:101E00003A040E943A040C943A04CF93DF93EC0115
:101E100088819981009711F00E94125119821882CD
:101E20001D821C821B821A82DF91CF910895FC01D2
:101E300080819181009711F00C9412510895CF93F5
:101E4000DF93EC010C960E94170FCE0106960E94BC
:101E5000170FCE01DF91CF910C94170FFC01019069
:101E60000020E9F73197AF01481B590BBC018AE507
:101E700095E10C9446038F929F92AF92BF920F937D
:101E80001F93CF93DF93CDB7DEB7A1970FB6F8942A
:101E9000DEBF0FBECDBF19A2423008F44AE08E016A
:101EA0000F5D1F4F842E912CB12CA12CA501940104
:101EB0000E94514FE62FB901CA01EA30F4F4E05D07
:101EC000D801EE938D01232B242B252B79F790E05D
:101ED00080E0109719F0CD010E942E0FA1960FB649
:101EE000F894DEBF0FBECDBFDF91CF911F910F9150
:101EF000BF90AF909F908F900895E95CE1CFCF9213
:101F0000DF92EF92FF92CF93DF936B017C016DE242
:101F10008AE595E10E94ED03EC0166277727CB0166
:101F20006C197D098E099F094AE00E943B0F8C0FB6
:101F30009D1FDF91CF91FF90EF90DF90CF9008959C
:101F40000C942E0FCF93DF930E942E0FEC018FE99C
:101F500092E00E942E0F8C0F9D1FDF91CF9108956C
:101F6000CF93DF93EC01FC01E05CFD4F61E08081E9
:101F70000E943605639719F481E08093790ADF9116
:101F8000CF910895CF93DF93EC01FC01E05CFD4F0E
:101F900060E080810E943605639711F41092790AFF
:101FA000DF91CF910895CF93DF93C1E0D0E0CE01D0
:101FB0000E94C20F2196C531D105C9F7DF91CF919B
:101FC0000895CF93DF938091021481115CC08091BA
:101FD0000114811158C08FE30E94AD06853691052A
:101FE00024F083E190E00E94C20F82E090E00E9422
:101FF000C20F83E090E00E94C20F84E090E00E9454
:10200000C20F68EC70E080E090E00E94ED068DE089
:1020100090E00E94B00FC5EFD1E088E30E94AD06CA
:10202000843F9140D4F464E670E080E090E00E9448
:10203000ED0682E190E00E94C20F64E670E080E06D
:1020400090E00E94ED0683E090E00E94B00F84E0F3
:1020500090E0DF91CF910C94B00F219769F481E06B
:10206000809302140E94EB0E0E94D30F82EA92E04A
:10207000DF91CF910C94A20F61E070E080E090E0DE
:102080000E94ED06CACFDF91CF910895895C9D4FE4
:1020900060E0FC0180810C9436051F93CF93DF93A1
:1020A000C62FD0E00197FC01E85CFD4F108186301F
:1020B000910538F4642F8E5C9D4FFC0180810E9455
:1020C0003605BE01812FDF91CF911F910C94D6056B
:1020D00080910214811166C080910114811162C047
:1020E00088E090E00E94B00F6EE071E080E090E048
:1020F0000E94ED0641E050E06FEF82E090E00E9428
:102100004D1082E090E00E94B00F81E090E00E94CC
:10211000B00F66E970E080E090E00E94ED0685E097
:1021200090E00E94C20F66E970E080E090E00E94BB
:10213000ED0682E090E00E94461088E090E00E9468
:10214000C20F82E090E00E94C20F81E090E00E9406
:10215000C20F8091E713813029F583E090E00E945F
:10216000C20F84E090E00E94C20F81E090E00E94E4
:10217000C20F87E090E00E94B00F6CEB72E080E04D
:1021800090E00E94ED0687E090E00E94C20F68EEAA
:1021900073E080E090E00E94ED0682E00E94A20AD7
:1021A0001092E7130895CF93DF93BC018AE595E180
:1021B0000E947303EC018FE992E00E942E0F8C0FB6
:1021C0009D1FDF91CF910895CF93DF93BC018AE5E6
:1021D00095E10E943F04EC018FE992E00E942E0FEE
:1021E0008C0F9D1FDF91CF910895CF93DF93809146
:1021F00002148111D0C0809101148111CCC088E3F8
:102200000E94AD06843F91400CF0BFC08DE090E08D
:102210000E94C20F82E190E00E94C20F8FE30E94F1
:10222000AD06853691050CF49DC08091790A813008
:1022300051F483E190E00E94C20F68E077E080E013
:1022400090E00E94ED0683E190E00E94B00F66E905
:1022500070E080E090E00E94ED0683E190E00E9453
:10226000C20F6AEF70E080E090E00E94ED0683E12B
:1022700090E00E94B00FC5EFD1E088E30E94AD0668
:10228000853F914064F080E192E00E94E41068ECA8
:1022900070E080E090E0DF91CF910C94ED06219703
:1022A00009F059C088EE91E00E94E41081E080932B
:1022B000021440E060E08FEF0E945A0E83E190E04C
:1022C0000E94C20F8DE090E00E94B00F68EE73E0B4
:1022D00080E090E00E94ED068BE090E00E94B00F5D
:1022E00064EF71E080E090E00E94ED068DE090E008
:1022F0000E94C20F8BE090E00E94C20F64EF71E079
:1023000080E090E00E94ED068DE090E00E94B00F2A
:102310008BE090E00E94B00F64EF71E080E090E00D
:102320000E94ED068BE090E00E94C20F64EF71E026
:1023300080E090E00E94ED068DE090E00E94C20FE8
:102340004FEF6FEF8FEF0E945A0E0E94EB0EDF915E
:10235000CF910C94D30F61E070E080E090E00E9498
:10236000ED068BCF82ED92E00E94A20F81E0809378
:1023700002140E94EB0E0E94D30F23E040E060E0C5
:102380008FEFDF91CF910C946E0E8BEE92E0DF9188
:10239000CF910C94A20FDF91CF910895CF93DF934B
:1023A00097FF0CC00E947F0FEC018FE992E00E9422
:1023B0002E0F8C0F9D1FDF91CF9108954AE00E9450
:1023C0003B0FF2CFBC01990F880B990B97FD0C9432
:1023D0007F0F4AE00C943B0FCF93DF930E94E211F2
:1023E000EC018FE992E00E942E0F8C0F9D1FDF9170
:1023F000CF9108950F931F93CF93DF938091021491
:102400008111C6C0809101148111C2C050E040E02A
:102410006FEF85E090E00E944D10C1E0D0E002E354
:1024200010E08DE30E94AD0690930E0B80930D0B90
:102430008B3F9105F4F5609100027091010280914B
:102440000202909103020E94ED068FE090E00E944C
:10245000C20F82E090E00E94461064E670E080E0E7
:1024600090E00E94ED068EE090E00E94C20F60E9CD
:1024700071E080E090E00E94ED0685E090E00E942F
:10248000B00F60E971E080E090E00E94ED0683E625
:1024900099E00E94A00F80910D0B90910E0B0E946D
:1024A000EC1185E090E0DF91CF911F910F910C949A
:1024B0004610CA3FD10509F443C0CE01B8010E94BD
:1024C0003F50892B71F588E090E00E94B00F82E0C8
:1024D00090E00E94461081E090E00E94C20F68ECFC
:1024E00070E080E090E00E94ED0688E090E00E94BD
:1024F000C20F83E090E00E94C20F68EC70E080E0C1
:1025000090E00E94ED0683E090E00E94B00F64E648
:1025100070E080E090E00E94ED0681E090E00E9493
:10252000B00F41E050E062E882E090E00E944D1080
:1025300064E170E080E090E00E94ED06219671CFAA
:1025400089E090E00E94C20F82E090E00E94461075
:1025500068EC70E080E090E00E94ED0689E090E099
:102560000E94B00F8EE090E00E94C20F68EE73E010
:1025700080E090E00E94ED068FE090E00E94C20FA4
:1025800081E0809302148CE093E00E94A20F89CF37
:10259000DF91CF911F910F910895CF93DF9300D0DA
:1025A000CDB7DEB799838A836B83809110169091A3
:1025B0001116FC01248135812330310588F02081FA
:1025C00031E03093511420937314109252141092EE
:1025D000741443E050E0BE016F5F7F4F0E94C50955
:1025E0000F900F900F90DF91CF9108953F924F92EF
:1025F0005F926F927F928F929F92AF92BF92CF9293
:10260000DF92EF92FF920F931F93CF93DF931F926E
:102610001F92CDB7DEB719828A83809110169091F0
:102620001116DC0114962D913C911597223031053D
:1026300088F02C9131E03093511420937314109250
:1026400052141092741442E050E0BE016F5F7F4F4D
:102650000E94C509E0901016F0901116DD24D39465
:10266000AA24AA9485EEC82E95ECB92E01E0F701B4
:1026700084819581892B09F400E0802E912CD7016B
:102680003C900E94C8062B013C0180914B148111A3
:1026900064C0102FD0924B1400934A14A092491496
:1026A000109248148FEF800F80934714D092261415
:1026B00080912614330C382A3092261480912514E8
:1026C000813009F08CC0109225140E94C8062B019D
:1026D0003C01809126148093BB0080914D14909111
:1026E0004E14A0914F14B0915014892B8A2B8B2B30
:1026F000A1F00E94C80620914D1430914E144091D3
:102700004F145091501464197509860997092617BA
:1027100037074807590708F441C08091BC0083FD82
:10272000D8CFB092BC000E94C8062B013C0180911A
:102730004B14813009F456C080914814801710F46E
:1027400010914814E7E2F4E1A5E0B4E180E08117DC
:1027500051F191919D938F5FFACF80914D1490919B
:102760004E14A0914F14B0915014892B8A2B8B2BAF
:1027700009F48BCF0E94C80620914D1430914E145D
:1027800040914F14509150146419750986099709A6
:10279000261737074807590708F077CF80914C1460
:1027A0000E94B40810E01092041410930314012F37
:1027B00010E008151905D9F590E080E08017910721
:1027C00098F5F70181819281DC01ED91FC91028401
:1027D000F385E02D1995898381E090E0EFCFC092D9
:1027E000BC00A1CF80914D1490914E14A0914F1434
:1027F000B0915014892B8A2B8B2B09F498CF0E940F
:10280000C80620914D1430914E1440914F145091B0
:102810005014641975098609970926173707480760
:10282000590708F084CFBACF012B09F41FCF898153
:102830000F900F90DF91CF911F910F91FF90EF902C
:10284000DF90CF90BF90AF909F908F907F906F90D0
:102850005F904F903F900895CF938DE490E00E9459
:10286000F61280FFFACF61E088E190E00E94CD127D
:102870008FE490E00E94F61282FFFACF82E690E0A9
:102880000E94F612C82F67E085E190E00E94CD1209
:102890008C2FCF910895CF93DF934AE00E943B0F96
:1028A000EC018FE992E00E942E0F8C0F9D1FDF91AB
:1028B000CF910895CF93DF93682F70E090E080E090
:1028C0004AE00E943B0FEC018FE992E00E942E0F3C
:1028D0008C0F9D1FDF91CF910895CF93DF93DC0183
:1028E0001496ED91FC916E177F0710F59F01261B42
:1028F000370B4217530708F49A01DB01EC0188817A
:102900009981E21BF30BFD83EC83AF01461B570B50
:10291000260F371FBC01620F731F8A0F9B1F0E9477
:102920009F52E881F9818C819D81E80FF91F108207
:10293000DF91CF9108950E947C52FB014481558123
:10294000FC01248135812417350778F0808191813D
:10295000009759F0FB01608171816115710529F0C3
:102960000E94915221E0892B09F020E0822F0895E6
:102970000F931F93CF93DF938C01EB01FC018081B8
:1029800091810097E1F06881798161157105A9F065
:10299000428153812C813D814217530770F00E9480
:1029A0008A528C819D81F801958384831D821C82CB
:1029B000DF91CF911F910F9108950E94125188814C
:1029C0009981F801918380838A819B81938382839B
:1029D0008C819D8195838483198218821B821A823F
:1029E000E5CF0F931F93CF93DF93EC0188819981FB
:1029F000009759F02A813B812617370730F081E094
:102A0000DF91CF911F910F9108958B016F5F7F4FE1
:102A10000E949B51009759F0998388831B830A83F6
:102A20002C813D81232B59F7FC011082E8CF80E0F7
:102A3000E7CFEF92FF920F931F93CF93DF93611530
:102A4000710541F480E0DF91CF911F910F91FF90CC
:102A5000EF90089541155105B1F07B01EC010C8117
:102A60001D81040F151FB8010E94F114882351F332
:102A7000288139818C819D81B701820F931F0E942B
:102A80008A521D830C8381E0DECFCF93DF93EC016C
:102A9000FB0101900020E9F73197AF01461B570B6E
:102AA0000E941915811103C0CE010E94050FCE01AD
:102AB000DF91CF910895CF93DF93EC01FB01448127
:102AC0005581608171810E941915811103C0CE0169
:102AD0000E94050FCE01DF91CF910895EF92FF92F2
:102AE0000F931F93CF93DF93EC017B018A01BA010F
:102AF0000E94F11481110BC0CE010E94050FCE017E
:102B0000DF91CF911F910F91FF90EF9008951D835A
:102B10000C83B701888199810E948A52F0CFFB0112
:102B200001900020E9F73197AF01461B570B0C9439
:102B30006E150F931F93CF93DF93CDB7DEB7A19799
:102B40000FB6F894DEBF0FBECDBF8C01CB01BA012A
:102B5000F8011182108213821282158214822AE0F7
:102B6000AE014F5F5F4F0E94AF4DBE016F5F7F4F61
:102B7000C8010E948F15A1960FB6F894DEBF0FBE54
:102B8000CDBFDF91CF911F910F9108950F931F93A8
:102B9000CF93DF93CDB7DEB762970FB6F894DEBF61
:102BA0000FBECDBF8C01CB01F801118210821382C0
:102BB0001282158214824AE0BE016F5F7F4F0E942D
:102BC000A44DBE016F5F7F4FC8010E948F156296B2
:102BD0000FB6F894DEBF0FBECDBFDF91CF911F912E
:102BE0000F9108950F931F93CF93DF9300D000D0E0
:102BF00000D0CDB7DEB78C01862FF801118210828C
:102C000013821282158214824AE0BE016F5F7F4FE9
:102C100090E00E94D14DBE016F5F7F4FC8010E94BE
:102C20008F1529960FB6F894DEBF0FBECDBFDF918A
:102C3000CF911F910F910895CF93DF93EC01FB018A
:102C40008617970749F0608171816115710541F020
:102C5000448155810E946E15CE01DF91CF91089578
:102C60000E94050FF9CF0F931F93CF93DF93CDB73A
:102C7000DEB72C970FB6F894DEBF0FBECDBF8C0128
:102C800040E050E0BA01CE0101960E9499151886E5
:102C90001F821A8619861C861B86B801CE010796EC
:102CA0000E941C166DE179E0CE0107960E94451541
:102CB000B8016A5F7F4F0E945B1560E273E00E947B
:102CC0004515BE016F5F7F4F0E945B15BC018DEB08
:102CD00094E10E947303CE0107960E94170FCE0164
:102CE00001960E94170F0E943A040E943A040E9423
:102CF0003A042C960FB6F894DEBF0FBECDBFDF911D
:102D0000CF911F910F9108950F931F93CF93DF934E
:102D1000CDB7DEB72C970FB6F894DEBF0FBECDBF90
:102D20008C01CE0107960E94C6151A8219821C8258
:102D30001B821E821D82B801CE0101960E941C16C4
:102D40006DE179E0CE0101960E944515B8016A5FF8
:102D50007F4F0E945B1560E273E00E944515BE0143
:102D6000695F7F4F0E945B15BC018DEB94E10E946F
:102D70007303CE0101960E94170FCE0107960E94A1
:102D8000170F0E943A040E943A040E943A042C96BB
:102D90000FB6F894DEBF0FBECDBFDF91CF911F916C
:102DA0000F910895FC011182108213821282158204
:102DB0001482FB0101900020E9F73197AF01461B17
:102DC000570B0C946E15EF92FF920F931F93CF93B6
:102DD000DF931F921F92CDB7DEB78C01E62E61EA1A
:102DE00072E00E94D2160E942C070E2C000CFF08E5
:102DF00097FD10C08E159F0569F089831A8241E006
:102E000050E0BE016F5F7F4FC8010E9419150E94FC
:102E10002C07EECFC8010F900F90DF91CF911F913B
:102E20000F91FF90EF9008956F927F928F929F92F3
:102E3000AF92BF92CF92DF92EF92FF920F931F93C8
:102E4000CF93DF93CDB7DEB7A6970FB6F894DEBF6A
:102E50000FBECDBF8C013B01FC01128A138A148A7C
:102E6000158A6C01FCE0CF0ED11C61EA72E0C6014C
:102E70000E948F1563EE71E08DEB94E10E943F0498
:102E8000B8018DEB94E10E94730361EE71E08DEB6C
:102E900094E10E943F04B8016A5F7F4F8DEB94E19B
:102EA0000E9473036CED71E08DEB94E10E943F048E
:102EB0000E943A040E943A040E943A0488EC90E08E
:102EC000A0E0B0E08093C1149093C214A093C31407
:102ED000B093C414CE0101965C01F12CE12C4C019D
:102EE0000E942C0797FD0AC0F50181935F01FFEF57
:102EF000EF1AFF0A20E2E216F10491F7F401EE0D59
:102F0000FF1D81EA92E08083B401CE0181960E9488
:102F1000D216BE016F5D7F4FC6010E94B814CE016C
:102F200081960E94170F66E273E0CE0181960E949F
:102F3000D216BE016F5D7F4FC6010E949D14F82E10
:102F4000CE0181960E94170FFF20F1F1F801408910
:102F50005189D801529690E080E001968417950738
:102F600040F4F80124853585F901E80FF91F232B7A
:102F700021F41092780AE8E7FAE020812D9384305A
:102F8000910559F7F80182899389A489B589B7FD1C
:102F90003BC0F30180839183A283B38381E0A69633
:102FA0000FB6F894DEBF0FBECDBFDF91CF911F915A
:102FB0000F91FF90EF90DF90CF90BF90AF909F90D8
:102FC0008F907F906F9008950E9420076B017C0185
:102FD00088E293E00E94A00F0E9420076C197D09EF
:102FE0008E099F09683E73408105910568F58DEB58
:102FF00094E10E94AB03892B79F38DEB94E10E945D
:1030000089030E94E211E8CF0E9420076B017C0136
:103010008DE493E00E94A00F0E9420076C197D09A7
:103020008E099F09683E73408105910568F48DEB18
:1030300094E10E94AB03892B79F38DEB94E10E941C
:1030400089030E94E211E8CF80E0A9CF64E172E039
:1030500080E993E10E94141764E272E08AE793E149
:103060000E94141760E172E084E693E10E94141755
:1030700060E272E08EE493E10E9414176CE172E06A
:1030800088E393E10E9414176CE072E082E293E11E
:103090000E94141768E072E08CE093E10E9414171C
:1030A00068E172E086EF92E10E94141764E072E03A
:1030B0008AEC92E10E94141760E072E080EE92E1E7
:1030C0000E9414178091140290911502A09116028B
:1030D000B091170281159440A105B10509F4B6CF4E
:1030E0008091240290912502A0912602B09127029E
:1030F00081159440A105B10509F4A8CF8091100273
:1031000090911102A0911202B09113028115944086
:10311000A105B10509F49ACF809120029091210276
:10312000A0912202B091230281159440A105B1051E
:1031300009F48CCF80911C0290911D02A0911E0277
:10314000B0911F0281159440A105B10509F47ECF0D
:1031500080910C0290910D02A0910E02B0910F028D
:1031600081159440A105B10509F470CF8091080242
:1031700090910902A0910A02B0910B02811594402E
:10318000A105B10509F462CF80911802909119024E
:10319000A0911A02B0911B0281159440A105B105BE
:1031A00009F454CF8091040290910502A091060287
:1031B000B091070281159440A105B10509F446CFED
:1031C0008091000290910102A0910202B09103024D
:1031D00081159440A105B10509F438CF08950F93E6
:1031E0001F93CF93DF93EC018A01198218821B820F
:1031F0001A821D821C820E941C161F821E82198642
:1032000018861B861A86B801CE0106960E941C16E7
:103210002C9661EA72E0CE010E94D21661EA72E059
:10322000CE01DF91CF911F910F910C948F15CF9309
:10323000DF93CDB7DEB72C970FB6F894DEBF0FBE85
:10324000CDBF019711F00C94D42461EA72E08CEAAE
:1032500093E10E94D21661EA72E086EA93E10E944D
:10326000D21661E773E0CE0101960E94D21665E79F
:1032700073E0CE0107960E94D216AE014F5F5F4FFA
:10328000BE01695F7F4F80E993E10E94EF18CE0194
:1032900007960E94170FCE0101960E94170F6BE749
:1032A00073E0CE0101960E94D21665E773E0CE016D
:1032B00007960E94D216AE014F5F5F4FBE01695F55
:1032C0007F4F8AE793E10E94EF18CE0107960E9494
:1032D000170FCE0101960E94170F6FE773E0CE0122
:1032E00001960E94D21665E773E0CE0107960E9410
:1032F000D216AE014F5F5F4FBE01695F7F4F84E61C
:1033000093E10E94EF18CE0107960E94170FCE019D
:1033100001960E94170F63E873E0CE0101960E94A8
:10332000D21665E773E0CE0107960E94D216AE0171
:103330004F5F5F4FBE01695F7F4F8EE493E10E9454
:10334000EF18CE0107960E94170FCE0101960E943A
:10335000170F67E873E0CE0101960E94D21665E769
:1033600073E0CE0107960E94D216AE014F5F5F4F09
:10337000BE01695F7F4F88E393E10E94EF18CE01A1
:1033800007960E94170FCE0101960E94170F6BE857
:1033900073E0CE0101960E94D21665E773E0CE017C
:1033A00007960E94D216AE014F5F5F4FBE01695F64
:1033B0007F4F82E293E10E94EF18CE0107960E94B0
:1033C000170FCE0101960E94170F6FE873E0CE0130
:1033D00001960E94D21665E773E0CE0107960E941F
:1033E000D216AE014F5F5F4FBE01695F7F4F8CE029
:1033F00093E10E94EF18CE0107960E94170FCE01AD
:1034000001960E94170F63E973E0CE0101960E94B6
:10341000D21665E773E0CE0107960E94D216AE0180
:103420004F5F5F4FBE01695F7F4F86EF92E10E9461
:10343000EF18CE0107960E94170FCE0101960E9449
:10344000170F67E973E0CE0101960E94D21665E777
:1034500073E0CE0107960E94D216AE014F5F5F4F18
:10346000BE01695F7F4F80EE92E10E94EF18CE01AE
:1034700007960E94170FCE0101960E94170F6BE965
:1034800073E0CE0101960E94D21665E773E0CE018B
:1034900007960E94D216AE014F5F5F4FBE01695F73
:1034A0007F4F8AEC92E10E94EF18CE0107960E94AE
:1034B000170FCE0101960E94170F61EA73E0CE014B
:1034C00001960E94D21665E773E0CE0107960E942E
:1034D000D216AE014F5F5F4FBE01695F7F4F84EB35
:1034E00092E10E94EF18CE0107960E94170FCE01BD
:1034F00001960E94170F6DEA73E0CE0101960E94BB
:10350000D21665E773E0CE0107960E94D216AE018F
:103510004F5F5F4FBE01695F7F4F8EE992E10E946E
:10352000EF18CE0107960E94170FCE0101960E9458
:10353000170F63EB73E0CE0101960E94D21665E788
:1035400073E0CE0107960E94D216AE014F5F5F4F27
:10355000BE01695F7F4F88E892E10E94EF18CE01BB
:1035600007960E94170FCE0101960E94170F6CEB71
:1035700073E0CE0101960E94D21665E773E0CE019A
:1035800007960E94D216AE014F5F5F4FBE01695F82
:103590007F4F82E792E10E94EF18CE0107960E94CA
:1035A000170FCE0101960E94170F63EC73E0CE0156
:1035B00001960E94D21665E773E0CE0107960E943D
:1035C000D216AE014F5F5F4FBE01695F7F4F8CE542
:1035D00092E10E94EF18CE0107960E94170FCE01CC
:1035E00001960E94170F6BEC73E0CE0101960E94CA
:1035F000D21665E773E0CE0107960E94D216AE019F
:103600004F5F5F4FBE01695F7F4F81ED93E10E9485
:10361000EF18CE0107960E94170FCE0101960E9467
:10362000170F65ED73E0CE0101960E94D21665E793
:1036300073E0CE0107960E94D216AE014F5F5F4F36
:10364000BE01695F7F4F86E492E10E94EF18CE01D0
:1036500007960E94170FCE0101960E94170F6DED7D
:1036600073E0CE0101960E94D21665E773E0CE01A9
:1036700007960E94D216AE014F5F5F4FBE01695F91
:103680007F4F88EE93E10E94EF18CE0107960E94CB
:10369000170FCE0101960E94170F64EE73E0CE0162
:1036A00001960E94D21665E773E0CE0107960E944C
:1036B000D216AE014F5F5F4FBE01695F7F4F80E35F
:1036C00092E10E94EF18CE0107960E94170FCE01DB
:1036D00001960E94170F6CEE73E0CE0101960E94D6
:1036E000D2166BEB78E0CE0107960E94D216AE019F
:1036F0004F5F5F4FBE01695F7F4F8AE192E10E9499
:10370000EF18CE0107960E94170FCE0101960E9476
:10371000170F64EF73E0CE0101960E94D2166BEB97
:1037200078E0CE0107960E94D216AE014F5F5F4F40
:10373000BE01695F7F4F84E092E10E94EF18CE01E5
:1037400007960E94170FCE0101960E94170F6BEF8C
:1037500073E0CE0101960E94D21665EC78E0CE01AE
:1037600007960E94D216AE014F5F5F4FBE01695FA0
:103770007F4F8EEE91E10E94EF18CE0107960E94D6
:10378000170FCE0101960E94170F67E074E0CE017B
:1037900001960E94D21665EC78E0CE0107960E9451
:1037A000D216AE014F5F5F4FBE01695F7F4F88ED5C
:1037B00091E10E94EF18CE0107960E94170FCE01EB
:1037C00001960E94170F63E174E0CE0101960E94FA
:1037D000D21665EC78E0CE0107960E94D216AE01B3
:1037E0004F5F5F4FBE01695F7F4F82EC91E10E94A6
:1037F000EF18CE0107960E94170FCE0101960E9486
:10380000170F6FE174E0CE0101960E94D21665ECAD
:1038100078E0CE0107960E94D216AE014F5F5F4F4F
:10382000BE01695F7F4F8CEA91E10E94EF18CE01E3
:1038300007960E94170FCE0101960E94170F6BE2A8
:1038400074E0CE0101960E94D21665EC78E0CE01BC
:1038500007960E94D216AE014F5F5F4FBE01695FAF
:103860007F4F86E991E10E94EF18CE0107960E94F2
:10387000170FCE0101960E94170F6AE374E0CE0184
:1038800001960E94D21665EC78E0CE0107960E9460
:10389000D216AE014F5F5F4FBE01695F7F4F80E878
:1038A00091E10E94EF18CE0107960E94170FCE01FA
:1038B00001960E94170F65E474E0CE0101960E9404
:1038C000D21665EC78E0CE0107960E94D216AE01C2
:1038D0004F5F5F4FBE01695F7F4F8AE691E10E94B3
:1038E000EF18CE0107960E94170FCE0101960E9495
:1038F000170F60E574E0CE0101960E94D21665ECC8
:1039000078E0CE0107960E94D216AE014F5F5F4F5E
:10391000BE01695F7F4F84E591E10E94EF18CE01FF
:1039200007960E94170FCE0101960E94170F6BE5B4
:1039300074E0CE0101960E94D21665EC78E0CE01CB
:1039400007960E94D216AE014F5F5F4FBE01695FBE
:103950007F4F8EE391E10E94EF18CE0107960E94FF
:10396000170FCE0101960E94170F66E674E0CE0194
:1039700001960E94D21665EC78E0CE0107960E946F
:10398000D216AE014F5F5F4FBE01695F7F4F88E285
:1039900091E10E94EF18CE0107960E94170FCE0109
:1039A00001960E94170F61E774E0CE0101960E9414
:1039B000D21665EC78E0CE0107960E94D216AE01D1
:1039C0004F5F5F4FBE01695F7F4F82E191E10E94CF
:1039D000EF18CE0107960E94170FCE0101960E94A4
:1039E000170F6CE774E0CE0101960E94D21665ECC9
:1039F00078E0CE0107960E94D216AE014F5F5F4F6E
:103A0000BE01695F7F4F8CEF90E10E94EF18CE01FD
:103A100007960E94170FCE0101960E94170F67E8C4
:103A200074E0CE0101960E94D21665EC78E0CE01DA
:103A300007960E94D216AE014F5F5F4FBE01695FCD
:103A40007F4F86EE90E10E94EF18CE0107960E940C
:103A5000170FCE0101960E94170F62E974E0CE01A4
:103A600001960E94D21665EC78E0CE0107960E947E
:103A7000D216AE014F5F5F4FBE01695F7F4F80ED91
:103A800090E10E94EF18CE0107960E94170FCE0119
:103A900001960E94170F6DE974E0CE0101960E9415
:103AA000D21665EC78E0CE0107960E94D216AE01E0
:103AB0004F5F5F4FBE01695F7F4F8AEB90E10E94CD
:103AC000EF18CE0107960E94170FCE0101960E94B3
:103AD000170F64EF73E0CE0101960E94D21665ECD9
:103AE00078E0CE0107960E94D216AE014F5F5F4F7D
:103AF000BE01695F7F4F84EA90E10E94EF18CE011A
:103B000007960E94170FCE0101960E94170F68EAD0
:103B100074E0CE0101960E94D21665EC78E0CE01E9
:103B200007960E94D216AE014F5F5F4FBE01695FDC
:103B30007F4F8EE890E10E94EF18CE0107960E9419
:103B4000170FCE0101960E94170F62EB74E0CE01B1
:103B500001960E94D21665EC78E0CE0107960E948D
:103B6000D216AE014F5F5F4FBE01695F7F4F88E79E
:103B700090E10E94EF18CE0107960E94170FCE0128
:103B800001960E94170F6DEB74E0CE0101960E9422
:103B9000D21665EC78E0CE0107960E94D216AE01EF
:103BA0004F5F5F4FBE01695F7F4F8AEB93E10E94D9
:103BB000EF18CE0107960E94170FCE0101960E94C2
:103BC000170F64EC74E0CE0101960E94D2166EECE1
:103BD00078E0CE0107960E94D216AE014F5F5F4F8C
:103BE000BE01695F7F4F82E690E10E94EF18CE012F
:103BF00007960E94170FCE0101960E94170F68ECDE
:103C000074E0CE0101960E94D2166EEC78E0CE01EF
:103C100007960E94D216AE014F5F5F4FBE01695FEB
:103C20007F4F8CE490E10E94EF18CE0107960E942E
:103C3000170FCE0101960E94170F6CEC74E0CE01B5
:103C400001960E94D2166EEC78E0CE0107960E9493
:103C5000D216AE014F5F5F4FBE01695F7F4F86E3B3
:103C600090E10E94EF18CE0107960E94170FCE0137
:103C700001960E94170F60ED74E0CE0101960E943C
:103C8000D2166EEC78E0CE0107960E94D216AE01F5
:103C90004F5F5F4FBE01695F7F4F80E290E10E94FE
:103CA000EF18CE0107960E94170FCE0101960E94D1
:103CB000170F64ED74E0CE0101960E94D2166EECEF
:103CC00078E0CE0107960E94D216AE014F5F5F4F9B
:103CD000BE01695F7F4F8AE090E10E94EF18CE013C
:103CE00007960E94170FCE0101960E94170F68EDEC
:103CF00074E0CE0101960E94D2166EEC78E0CE01FF
:103D000007960E94D216AE014F5F5F4FBE01695FFA
:103D10007F4F84EF9FE00E94EF18CE0107960E942C
:103D2000170FCE0101960E94170F6CED74E0CE01C3
:103D300001960E94D2166EEC78E0CE0107960E94A2
:103D4000D216AE014F5F5F4FBE01695F7F4F8EEDB0
:103D50009FE00E94EF18CE0107960E94170FCE0138
:103D600001960E94170F60EE74E0CE0101960E944A
:103D7000D2166EEC78E0CE0107960E94D216AE0104
:103D80004F5F5F4FBE01695F7F4F88EC9FE00E94ED
:103D9000EF18CE0107960E94170FCE0101960E94E0
:103DA000170F64EE74E0CE0101960E94D2166EECFD
:103DB00078E0CE0107960E94D216AE014F5F5F4FAA
:103DC000BE01695F7F4F82EB9FE00E94EF18CE013A
:103DD00007960E94170FCE0101960E94170F68EEFA
:103DE00074E0CE0101960E94D2166EEC78E0CE010E
:103DF00007960E94D216AE014F5F5F4FBE01695F0A
:103E00007F4F8CE99FE00E94EF18CE0107960E9439
:103E1000170FCE0101960E94170F6DEE74E0CE01D0
:103E200001960E94D2166EEC78E0CE0107960E94B1
:103E3000D216AE014F5F5F4FBE01695F7F4F86E8CC
:103E40009FE00E94EF18CE0107960E94170FCE0147
:103E500001960E94170F62EF74E0CE0101960E9456
:103E6000D2166EEC78E0CE0107960E94D216AE0113
:103E70004F5F5F4FBE01695F7F4F80E79FE00E9409
:103E8000EF18CE0107960E94170FCE0101960E94EF
:103E9000170F67EF74E0CE0101960E94D2166EEC08
:103EA00078E0CE0107960E94D216AE014F5F5F4FB9
:103EB000BE01695F7F4F8AE59FE00E94EF18CE0147
:103EC00007960E94170FCE0101960E94170F6CEF04
:103ED00074E0CE0101960E94D2166EEC78E0CE011D
:103EE00007960E94D216AE014F5F5F4FBE01695F19
:103EF0007F4F84E49FE00E94EF18CE0107960E9456
:103F0000170FCE0101960E94170F61E075E0CE01F8
:103F100001960E94D2166EEC78E0CE0107960E94C0
:103F2000D216AE014F5F5F4FBE01695F7F4F8EE2D9
:103F30009FE00E94EF18CE0107960E94170FCE0156
:103F400001960E94170F66E075E0CE0101960E946F
:103F5000D2166EEC78E0CE0107960E94D216AE0122
:103F60004F5F5F4FBE01695F7F4F88E19FE00E9416
:103F7000EF18CE0107960E94170FCE0101960E94FE
:103F8000170F6BE075E0CE0101960E94D2166EEC21
:103F900078E0CE0107960E94D216AE014F5F5F4FC8
:103FA000BE01695F7F4F82E09FE00E94EF18CE0163
:103FB00007960E94170FCE0101960E94170F60E12D
:103FC00075E0CE0101960E94D2166EEC78E0CE012B
:103FD00007960E94D216AE014F5F5F4FBE01695F28
:103FE0007F4F8CEE9EE00E94EF18CE0107960E9454
:103FF000170FCE0101960E94170F65E175E0CE0103
:1040000001960E94D2166EEC78E0CE0107960E94CF
:10401000D216AE014F5F5F4FBE01695F7F4F86EDE5
:104020009EE00E94EF18CE0107960E94170FCE0166
:1040300001960E94170F6AE175E0CE0101960E9479
:10404000D2166EEC78E0CE0107960E94D216AE0131
:104050004F5F5F4FBE01695F7F4F80EC9EE00E9423
:10406000EF18CE0107960E94170FCE0101960E940D
:10407000170F6FE175E0CE0101960E94D2166EEC2B
:1040800078E0CE0107960E94D216AE014F5F5F4FD7
:10409000BE01695F7F4F8AEA9EE00E94EF18CE0161
:1040A00007960E94170FCE0101960E94170F64E237
:1040B00075E0CE0101960E94D2166EEC78E0CE013A
:1040C00007960E94D216AE014F5F5F4FBE01695F37
:1040D0007F4F84E99EE00E94EF18CE0107960E9470
:1040E000170FCE0101960E94170F69E275E0CE010D
:1040F00001960E94D2166EEC78E0CE0107960E94DF
:10410000D216AE014F5F5F4FBE01695F7F4F8EE7F2
:104110009EE00E94EF18CE0107960E94170FCE0175
:1041200001960E94170F6EE275E0CE0101960E9483
:10413000D2166EEC78E0CE0107960E94D216AE0140
:104140004F5F5F4FBE01695F7F4F88E69EE00E9430
:10415000EF18CE0107960E94170FCE0101960E941C
:10416000170F63E375E0CE0101960E94D2166EEC44
:1041700078E0CE0107960E94D216AE014F5F5F4FE6
:10418000BE01695F7F4F82E59EE00E94EF18CE017D
:1041900007960E94170FCE0101960E94170F68E341
:1041A00075E0CE0101960E94D2166EEC78E0CE0149
:1041B00007960E94D216AE014F5F5F4FBE01695F46
:1041C0007F4F8CE39EE00E94EF18CE0107960E947D
:1041D000170FCE0101960E94170F6DE375E0CE0117
:1041E00001960E94D2166EEC78E0CE0107960E94EE
:1041F000D216AE014F5F5F4FBE01695F7F4F86E20F
:104200009EE00E94EF18CE0107960E94170FCE0184
:1042100001960E94170F62E475E0CE0101960E949C
:10422000D2166EEC78E0CE0107960E94D216AE014F
:104230004F5F5F4FBE01695F7F4F80E19EE00E944C
:10424000EF18CE0107960E94170FCE0101960E942B
:10425000170F67E475E0CE0101960E94D2166EEC4E
:1042600078E0CE0107960E94D216AE014F5F5F4FF5
:10427000BE01695F7F4F8AEF9DE00E94EF18CE017B
:1042800007960E94170FCE0101960E94170F64EF48
:1042900073E0CE0101960E94D2166EEC78E0CE015A
:1042A00007960E94D216AE014F5F5F4FBE01695F55
:1042B0007F4F84EE9DE00E94EF18CE0107960E948A
:1042C000170FCE0101960E94170F6CE475E0CE0126
:1042D00001960E94D21668ED78E0CE0107960E9402
:1042E000D216AE014F5F5F4FBE01695F7F4F8EEC0C
:1042F0009DE00E94EF18CE0107960E94170FCE0195
:1043000001960E94170F65E575E0CE0101960E94A7
:10431000D21668ED78E0CE0107960E94D216AE0163
:104320004F5F5F4FBE01695F7F4F88EB9DE00E944A
:10433000EF18CE0107960E94170FCE0101960E943A
:10434000170F6EE575E0CE0101960E94D21668ED5A
:1043500078E0CE0107960E94D216AE014F5F5F4F04
:10436000BE01695F7F4F82EA9DE00E94EF18CE0197
:1043700007960E94170FCE0101960E94170F67E65D
:1043800075E0CE0101960E94D21668ED78E0CE016C
:1043900007960E94D216AE014F5F5F4FBE01695F64
:1043A0007F4F8CE89DE00E94EF18CE0107960E9497
:1043B000170FCE0101960E94170F60E775E0CE013E
:1043C00001960E94D21668ED78E0CE0107960E9411
:1043D000D216AE014F5F5F4FBE01695F7F4F86E728
:1043E0009DE00E94EF18CE0107960E94170FCE01A4
:1043F00001960E94170F69E775E0CE0101960E94B1
:10440000D21668ED78E0CE0107960E94D216AE0172
:104410004F5F5F4FBE01695F7F4F80E69DE00E9466
:10442000EF18CE0107960E94170FCE0101960E9449
:10443000170F62E875E0CE0101960E94D21668ED72
:1044400078E0CE0107960E94D216AE014F5F5F4F13
:10445000BE01695F7F4F8AE49DE00E94EF18CE01A4
:1044600007960E94170FCE0101960E94170F6BE866
:1044700075E0CE0101960E94D21668ED78E0CE017B
:1044800007960E94D216AE014F5F5F4FBE01695F73
:104490007F4F84E39DE00E94EF18CE0107960E94B3
:1044A000170FCE0101960E94170F64E975E0CE0147
:1044B00001960E94D21668ED78E0CE0107960E9420
:1044C000D216AE014F5F5F4FBE01695F7F4F8EE135
:1044D0009DE00E94EF18CE0107960E94170FCE01B3
:1044E00001960E94170F6DE975E0CE0101960E94BA
:1044F000D21668ED78E0CE0107960E94D216AE0182
:104500004F5F5F4FBE01695F7F4F88E09DE00E9473
:10451000EF18CE0107960E94170FCE0101960E9458
:10452000170F67EA75E0CE0101960E94D21668ED7A
:1045300078E0CE0107960E94D216AE014F5F5F4F22
:10454000BE01695F7F4F82EF9CE00E94EF18CE01B1
:1045500007960E94170FCE0101960E94170F61EB7C
:1045600075E0CE0101960E94D21668ED78E0CE018A
:1045700007960E94D216AE014F5F5F4FBE01695F82
:104580007F4F8CED9CE00E94EF18CE0107960E94B1
:10459000170FCE0101960E94170F6BEB75E0CE014D
:1045A00001960E94D21668ED78E0CE0107960E942F
:1045B000D216AE014F5F5F4FBE01695F7F4F86EC41
:1045C0009CE00E94EF18CE0107960E94170FCE01C3
:1045D00001960E94170F65EC75E0CE0101960E94CE
:1045E000D21668ED78E0CE0107960E94D216AE0191
:1045F0004F5F5F4FBE01695F7F4F80EB9CE00E9481
:10460000EF18CE0107960E94170FCE0101960E9467
:10461000170F6FEC75E0CE0101960E94D21668ED7F
:1046200078E0CE0107960E94D216AE014F5F5F4F31
:10463000BE01695F7F4F8AE99CE00E94EF18CE01BE
:1046400007960E94170FCE0101960E94170F69ED81
:1046500075E0CE0101960E94D21668ED78E0CE0199
:1046600007960E94D216AE014F5F5F4FBE01695F91
:104670007F4F84E89CE00E94EF18CE0107960E94CD
:10468000170FCE0101960E94170F63EE75E0CE0161
:1046900001960E94D2166FEE75E0CE0107960E9439
:1046A000D216AE014F5F5F4FBE01695F7F4F8EE64E
:1046B0009CE00E94EF18CE0107960E94170FCE01D2
:1046C00001960E94170F65EF75E0CE0101960E94DA
:1046D000D2166CEE78E0CE0107960E94D216AE019B
:1046E0004F5F5F4FBE01695F7F4F88E59CE00E948E
:1046F000EF18CE0107960E94170FCE0101960E9477
:10470000170F6EEF75E0CE0101960E94D2166CEE87
:1047100078E0CE0107960E94D216AE014F5F5F4F40
:10472000BE01695F7F4F82E49CE00E94EF18CE01DA
:1047300007960E94170FCE0101960E94170F67E09F
:1047400076E0CE0101960E94D2166CEE78E0CE01A2
:1047500007960E94D216AE014F5F5F4FBE01695FA0
:104760007F4F8CE29CE00E94EF18CE0107960E94DA
:10477000170FCE0101960E94170F60E176E0CE017F
:1047800001960E94D2166CEE78E0CE0107960E9448
:10479000D216AE014F5F5F4FBE01695F7F4F86E16A
:1047A0009CE00E94EF18CE0107960E94170FCE01E1
:1047B00001960E94170F69E176E0CE0101960E94F2
:1047C000D2166CEE78E0CE0107960E94D216AE01AA
:1047D0004F5F5F4FBE01695F7F4F80E09CE00E94AA
:1047E000EF18CE0107960E94170FCE0101960E9486
:1047F000170F62E276E0CE0101960E94D2166CEEAF
:1048000078E0CE0107960E94D216AE014F5F5F4F4F
:10481000BE01695F7F4F8AEE9BE00E94EF18CE01D8
:1048200007960E94170FCE0101960E94170F64ECA5
:1048300074E0CE0101960E94D2166CEE78E0CE01B3
:1048400007960E94D216AE014F5F5F4FBE01695FAF
:104850007F4F84ED9BE00E94EF18CE0107960E94E7
:10486000170FCE0101960E94170F68EC74E0CE017D
:1048700001960E94D2166CEE78E0CE0107960E9457
:10488000D216AE014F5F5F4FBE01695F7F4F8EEB67
:104890009BE00E94EF18CE0107960E94170FCE01F1
:1048A00001960E94170F6CEC74E0CE0101960E94F5
:1048B000D2166CEE78E0CE0107960E94D216AE01B9
:1048C0004F5F5F4FBE01695F7F4F88EA9BE00E94A8
:1048D000EF18CE0107960E94170FCE0101960E9495
:1048E000170F60ED74E0CE0101960E94D2166CEEB7
:1048F00078E0CE0107960E94D216AE014F5F5F4F5F
:10490000BE01695F7F4F82E99BE00E94EF18CE01F4
:1049100007960E94170FCE0101960E94170F64EDB3
:1049200074E0CE0101960E94D2166CEE78E0CE01C2
:1049300007960E94D216AE014F5F5F4FBE01695FBE
:104940007F4F8CE79BE00E94EF18CE0107960E94F4
:10495000170FCE0101960E94170F68ED74E0CE018B
:1049600001960E94D2166CEE78E0CE0107960E9466
:10497000D216AE014F5F5F4FBE01695F7F4F86E683
:104980009BE00E94EF18CE0107960E94170FCE0100
:1049900001960E94170F2C960FB6F894DEBF0FBE3B
:1049A000CDBFDF91CF91089586E69BE00E941F0F57
:1049B0008CE79BE00E941F0F82E99BE00E941F0F83
:1049C00088EA9BE00E941F0F8EEB9BE00E941F0F66
:1049D00084ED9BE00E941F0F8AEE9BE00E941F0F58
:1049E00080E09CE00E941F0F86E19CE00E941F0F68
:1049F0008CE29CE00E941F0F82E49CE00E941F0F4B
:104A000088E59CE00E941F0F8EE69CE00E941F0F2D
:104A100084E89CE00E941F0F8AE99CE00E941F0F1F
:104A200080EB9CE00E941F0F86EC9CE00E941F0F11
:104A30008CED9CE00E941F0F82EF9CE00E941F0FF4
:104A400088E09DE00E941F0F8EE19DE00E941F0FF5
:104A500084E39DE00E941F0F8AE49DE00E941F0FE7
:104A600080E69DE00E941F0F86E79DE00E941F0FD9
:104A70008CE89DE00E941F0F82EA9DE00E941F0FBC
:104A800088EB9DE00E941F0F8EEC9DE00E941F0F9F
:104A900084EE9DE00E941F0F8AEF9DE00E941F0F91
:104AA00080E19EE00E941F0F86E29EE00E941F0FA1
:104AB0008CE39EE00E941F0F82E59EE00E941F0F84
:104AC00088E69EE00E941F0F8EE79EE00E941F0F67
:104AD00084E99EE00E941F0F8AEA9EE00E941F0F59
:104AE00080EC9EE00E941F0F86ED9EE00E941F0F4B
:104AF0008CEE9EE00E941F0F82E09FE00E941F0F3D
:104B000088E19FE00E941F0F8EE29FE00E941F0F2E
:104B100084E49FE00E941F0F8AE59FE00E941F0F20
:104B200080E79FE00E941F0F86E89FE00E941F0F12
:104B30008CE99FE00E941F0F82EB9FE00E941F0FF5
:104B400088EC9FE00E941F0F8EED9FE00E941F0FD8
:104B500084EF9FE00E941F0F8AE090E10E941F0FE8
:104B600080E290E10E941F0F86E390E10E941F0FF8
:104B70008CE490E10E941F0F82E690E10E941F0FDB
:104B80008AEB93E10E941F0F88E790E10E941F0FBC
:104B90008EE890E10E941F0F84EA90E10E941F0FAF
:104BA0008AEB90E10E941F0F80ED90E10E941F0FA1
:104BB00086EE90E10E941F0F8CEF90E10E941F0F84
:104BC00082E191E10E941F0F88E291E10E941F0F94
:104BD0008EE391E10E941F0F84E591E10E941F0F77
:104BE0008AE691E10E941F0F80E891E10E941F0F69
:104BF00086E991E10E941F0F8CEA91E10E941F0F4C
:104C000082EC91E10E941F0F88ED91E10E941F0F3D
:104C10008EEE91E10E941F0F84E092E10E941F0F2F
:104C20008AE192E10E941F0F80E392E10E941F0F30
:104C300088EE93E10E941F0F86E492E10E941F0F0D
:104C400081ED93E10E941F0F8CE592E10E941F0FFE
:104C500082E792E10E941F0F88E892E10E941F0FF5
:104C60008EE992E10E941F0F84EB92E10E941F0FD8
:104C70008AEC92E10E941F0F80EE92E10E941F0FCA
:104C800086EF92E10E941F0F8CE093E10E941F0FBC
:104C900082E293E10E941F0F88E393E10E941F0FBD
:104CA0008EE493E10E941F0F84E693E10E941F0FA0
:104CB0008AE793E10E941F0F80E993E10E941F0F92
:104CC00086EA93E10E94170F8CEA93E162CE8F92FD
:104CD0009F92AF92BF92FF920F931F93CF93DF9358
:104CE000CDB7DEB72C970FB6F894DEBF0FBECDBFA1
:104CF00080910214811163C18091011481115FC1FF
:104D00008AE30E94AD068935924074F083E090E01A
:104D10000E94B00F84E090E00E94B00F68E572E05E
:104D200080E090E00E94ED0601E010E0FF24F394A3
:104D30000E94DA0A6093D01389E30E94AD06909333
:104D4000B3138093B213092E000CAA0BBB0B409136
:104D50002002509121026091220270912302481793
:104D600059076A077B0790F08091E71381110EC005
:104D700050E040E06FEF81E090E00E944D1041E094
:104D800050E06CE887E090E00E944D108091B213F3
:104D90009091B313092E000CAA0BBB0B409120027B
:104DA0005091210260912202709123024817590705
:104DB0006A077B0740F481E090E00E94461087E09C
:104DC00090E00E9446108091D01390E0B0E0A0E007
:104DD0004091B6135091B7136091B8137091B91305
:104DE00084179507A607B70708F440C08091E7131A
:104DF00081113CC083E090E00E94461081E090E089
:104E00000E94461087E090E00E94461088E090E003
:104E10000E9446106AE070E080E090E00E94ED069B
:104E2000F092E7136091D01370E08AEB93E10E9457
:104E300084166091D013CE0107960E94F2156BE2A2
:104E400076E0CE0101960E94D216BE01695F7F4FC7
:104E5000CE0101960E945B150E94D310CE010196EF
:104E60000E94170FCE0107960E94170F8091D01352
:104E700090E0B0E0A0E04091B6135091B71360917C
:104E8000B8137091B91384179507A607B70758F49C
:104E90008091E713811107C050E040E06FEF83E09D
:104EA00090E00E944D106091D01370E090E080E09F
:104EB0000E94024E4B015C016091B6137091B713D2
:104EC0008091B8139091B9130E94004E26E636E601
:104ED00046E65FE30E94614E9B01AC01C501B4014F
:104EE0000E94FB4D18165CF08091E713811107C0FA
:104EF00050E040E06FEF88E090E00E944D1060913C
:104F0000D01370E090E080E00E94024E4B015C0103
:104F10006091B6137091B7138091B8139091B91343
:104F20000E94004E23E333E343E75FE30E94614EB8
:104F30009B01AC01C501B4010E942A5087FD04C049
:104F400088E090E00E9446100130110509F047C04A
:104F500041E050E06FEF82E090E00E944D108FE062
:104F600090E00E94B00F84E090E00A30110509F053
:104F700047C00E94461064E670E080E090E00E9426
:104F8000ED060F5F1F4F0531110509F0D1CE81E00D
:104F900090E00E94461083E090E00E94461087E077
:104FA00090E00E94461088E090E00E94461082E067
:104FB00090E00E94461085E090E00E9446102C96FA
:104FC0000FB6F894DEBF0FBECDBFDF91CF911F911A
:104FD0000F91FF90BF90AF909F908F9008950230F7
:104FE000110539F48FE090E00E94C20F81E090E05B
:104FF000B8CF0330110561F48FE090E00E94B00F4C
:105000000F301105C1F48EE090E00E94B00FB3CFD5
:1050100004301105F1F481E190E00E94B00F8FE3BC
:105020000E94AD06C3973CF450E040E06FEF85E08E
:1050300090E00E944D100031110509F581E190E0EA
:105040000E94C20F82E090E00E94C20F82E090E0D6
:1050500090CF0930110509F086CF82E090E00E94E0
:10506000B00F50E040E064EB84E090E00E944D100F
:105070000331110509F07FCF83E090E0C6CF013105
:105080001105B1F783E090E00E94C20F74CF8F92B8
:105090009F92AF92BF92DF92EF92FF920F931F9376
:1050A000CF93DF93CDB7DEB72C970FB6F894DEBF62
:1050B0000FBECDBF80910214811196C08091011462
:1050C000811192C081E08093E71301E010E0DD24BC
:1050D000D394083011050CF499C00E94DA0A609349
:1050E000D0138DE30E94AD067C0190930E0B80934C
:1050F0000D0B89E30E94AD069093B3138093B21316
:10510000A701FF0C660B770B80901C0290901D028C
:10511000A0901E02B0901F02481559056A057B0534
:1051200008F47FC08CE090E00E94C20F8AE090E01B
:105130000E94C20F609118027091190280911A02A8
:1051400090911B020E94ED0684E090E00E944610C0
:1051500083E090E00E94461081E090E00E944610BB
:1051600087E090E00E94461088E090E00E944610A0
:1051700082E090E00E94461082E090E00E94C20F20
:1051800089E496E00E94A00FC8010E94E2118FE519
:1051900099E00E94A00F80910D0B90910E0B0E9440
:1051A000EC1181E080930C0B81E090E00E944610AE
:1051B00083E090E00E94461087E090E00E94461055
:1051C00088E090E00E94461084E090E00E94461043
:1051D00082E090E00E94461080910C0B813021F417
:1051E00082E190E00E94B00F2C960FB6F894DEBFDB
:1051F0000FBECDBFDF91CF911F910F91FF90EF9028
:10520000DF90BF90AF909F908F9008950730110569
:1052100009F467CF62E870E080E090E00E94ED065C
:1052200060CF092E000CAA0BBB0B409120025091BD
:1052300021026091220270912302481759076A07E0
:105240007B0790F08091E71381110EC050E040E0A1
:105250006FEF81E090E00E944D1041E050E06CE87B
:1052600087E090E00E944D108091B2139091B313AB
:10527000092E000CAA0BBB0B409120025091210279
:105280006091220270912302481759076A077B0731
:1052900040F481E090E00E94461087E090E00E9498
:1052A00046108091D01390E0B0E0A0E04091B6139A
:1052B0005091B7136091B8137091B9138417950783
:1052C000A607B707E8F18091E713811139C00830CC
:1052D0001105B4F183E090E00E94461081E090E077
:1052E0000E94461087E090E00E94461088E090E01F
:1052F0000E944610D092E7136091D013CE0107961A
:105300000E94F21564E676E0CE0101960E94D21664
:10531000BE01695F7F4FCE0101960E945B150E941E
:10532000D310CE0101960E94170FCE0107960E945E
:10533000170F6091D01370E08AEB93E10E948416FE
:105340008091D01390E0B0E0A0E04091B61350916E
:10535000B7136091B8137091B91384179507A60716
:10536000B70770F48091E71381110AC00830110566
:105370003CF050E040E06FEF83E090E00E944D1081
:105380006091D01370E090E080E00E94024E4B01EB
:105390005C016091B6137091B7138091B81390912E
:1053A000B9130E94004E26E636E646E65FE30E9409
:1053B000614E9B01AC01C501B4010E94FB4D87FF0A
:1053C00015C08091E713811111C00830110574F0E8
:1053D00050E040E06FEF88E090E00E944D1041E027
:1053E00050E06CE887E090E00E944D106091D0138F
:1053F00070E090E080E00E94024E4B015C01609101
:10540000B6137091B7138091B8139091B9130E949D
:10541000004E23E333E343E75FE30E94614E9B01C9
:10542000AC01C501B4010E942A5087FD17C00830A5
:105430001105A4F088E090E00E94461087E090E01B
:105440000E9446100330110509F06EC041E050E0A3
:105450006FEF82E090E00E944D105EC001301105B8
:1054600009F052C083E090E00E94B00F84E090E029
:105470000E94B00F87E090E00E94C20F41E050E030
:105480006FEF84E090E00E944D108AE090E00E946F
:10549000B00F8CE090E00E94B00F0A301105E1F5EA
:1054A00081E090E00E94B00F82E090E00E94C20F85
:1054B0000233110509F047C081E090E00E944610D8
:1054C00083E090E00E94461087E090E00E94461042
:1054D00088E090E00E94461084E090E00E94461030
:1054E00082E090E00E94461086E996E00E94A20FBA
:1054F0000E94D30F81E08093021425E040E060E039
:105500008FEF0E946E0E50CE0230110509F09ACF37
:1055100082E090E00E94B00F82E090E00D30110533
:1055200051F40E94B00F0FC00430110579F482E0ED
:1055300090E00E94C20F0F30110509F06AC081E0AF
:1055400090E00E94C20F0F5F1F4FC3CD07301105BF
:1055500009F0A3CF82E090E00E94B00F1092E71311
:1055600082E00E94A20A0631110509F0A1CF89EE5E
:10557000E82E83E0F82E8DE30E94AD0690930E0B8B
:1055800080930D0B092E000CAA0BBB0B40911C0243
:1055900050911D0260911E0270911F0284179507A1
:1055A000A607B707E8F18CE090E00E94C20F8AE0FE
:1055B00090E00E94C20F60911802709119028091D0
:1055C0001A0290911B020E94ED0684E090E00E9476
:1055D000461083E090E00E94461081E090E00E9437
:1055E000461087E090E00E94461088E090E00E941C
:1055F000461082E090E00E94461082E090E00E9417
:10560000C20FD0920C0B80910C0B813009F09BCF14
:10561000CBCD0431110509F0A6CF81E090E081CF18
:1056200081E0E81AF10839F483E896E00E94A20FBD
:10563000D0920214E8CF61E070E080E090E00E9438
:10564000ED0699CF8F929F92AF92BF92CF92DF9249
:10565000EF92FF920F931F93CF93DF93CDB7DEB7F7
:10566000A6970FB6F894DEBF0FBECDBF8C016B01BD
:10567000FC01128A138A148A158A5C01FCE0AF0EC1
:10568000B11C61EA72E0C5010E948F1564EB76E0FF
:10569000CE0101960E94D216B801CE0101960E9459
:1056A0005B156DE179E00E944515B8016A5F7F4F97
:1056B0000E945B1569EB76E00E944515BC018DEBFD
:1056C00094E10E947303CE0101960E94170F0E947D
:1056D0003A040E943A040E943A0486E990E0A0E06D
:1056E000B0E08093C1149093C214A093C314B093FC
:1056F000C414CE0101964C01F12CE12C0E942C0720
:1057000097FD0AC0F40181934F01FFEFEF1AFF0AE2
:1057100020E2E216F10491F7E1E0F0E0EC0FFD1F6A
:10572000EE0DFF1D81EA92E08083BE016F5F7F4F27
:10573000CE0181960E94D216BE016F5D7F4FC501DA
:105740000E94B814CE0181960E94170F66E273E0A2
:10575000CE0181960E94D216BE016F5D7F4FC501BA
:105760000E949D14F82ECE0181960E94170FFF20F3
:10577000E1F0F80140895189D801529690E080E02B
:1057800001968417950740F4F80124853585F901C1
:10579000E80FF91F232B21F41092780AE8E7FAE0CA
:1057A00020812D938430910559F7F801428953895E
:1057B000648975894230510561057105E4F481E021
:1057C000452B462B472B09F480E0F601808381E0CE
:1057D000A6960FB6F894DEBF0FBECDBFDF91CF9176
:1057E0001F910F91FF90EF90DF90CF90BF90AF90FF
:1057F0009F908F9008950E9420076B017C018EEB93
:1058000096E00E94A00F0E9420076C197D098E0966
:105810009F09683E73408105910568F48DEB94E122
:105820000E94AB03892B79F38DEB94E10E948903ED
:105830000E94E211E8CF80E0CBCF8091620B909183
:10584000630BA091640BB091650B85369105A105A2
:10585000B10549F460E67BE084E092E10E94222BEE
:105860008091600B089586369105A105B10549F434
:105870006CE47BE084EA90E10E94222B80914C0B47
:10588000089587369105A105B10549F46EE27BE0E4
:1058900084EE9DE00E94222B80912E0B089580E0E3
:1058A0000895CF92DF92EF92FF92CF93DF930E9401
:1058B00020076093840A7093850A8093860A9093E8
:1058C000870A80910214811160C0809101148111B6
:1058D0005CC08091E713811158C0CAEFD0E00E94EC
:1058E000DA0AF62E6093D01362EA73E08AE595E156
:1058F0000E943F048F2D0E945A1489E30E94AD0636
:105900009093B3138093B2138091D01390E0B0E0E2
:10591000A0E04091B6135091B7136091B813709105
:10592000B91384179507A607B70708F458C083E092
:1059300090E00E94461081E090E00E94461087E0CF
:1059400090E00E94461088E090E00E94461084E0BB
:1059500090E00E94461081E08093E7136091D0139D
:1059600070E08AEB93E10E94841681E090E00E944F
:10597000461083E090E00E94461087E090E00E948D
:10598000461088E090E00E9446100E942007C090D8
:10599000840AD090850AE090860AF090870A9B01DD
:1059A000AC012C193D094E095F0969017A01C092C9
:1059B000800AD092810AE092820AF092830A6FE60E
:1059C00073E08AE595E10E943F04C701B601DF91CB
:1059D000CF91FF90EF90DF90CF900C94CE118091FB
:1059E000E713811107C050E040E06FEF83E090E0E3
:1059F0000E944D106091D01370E090E080E00E9412
:105A0000024E6B017C016091B6137091B7138091C7
:105A1000B8139091B9130E94004E23E333E343E798
:105A20005FE30E94614E9B01AC01C701B6010E9479
:105A30002A5087FD08C088E090E00E94461087E069
:105A400090E00E9446106091D01370E090E080E0FA
:105A50000E94024E6B017C016091B6137091B713E6
:105A60008091B8139091B9130E94004E23E333E361
:105A700043E75FE30E94614E9B01AC01C701B601A1
:105A80000E94FB4D87FF12C08091E71381110EC069
:105A900050E040E06FEF88E090E00E944D1041E060
:105AA00050E06CE887E090E00E944D108091B213C6
:105AB0009091B313092E000CAA0BBB0B409120024E
:105AC00050912102609122027091230248175907D8
:105AD0006A077B0790F08091E71381110EC050E0B8
