:100000000C94C6020C94F7020C94F7020C94F702BD
:100010000C94F7020C94F7020C94F7020C94F7027C
:100020000C94F7020C94F7020C94F7020C94F7026C
:100030000C94F7020C94F7020C94F7020C94F7025C
:100040000C94F7020C94F7020C94F7020C94F7024C
:100050000C94F7020C94F7020C94F7020C943B3BBF
:100060000C94F7020C94053B0C94DB3A0C94F702C9
:100070000C94F7020C94F7020C94F7020C94F7021C
:100080000C94F7020C94F7020C94F7020C94F7020C
:100090000C94F7020C94F7020C94F7020C94853B35
:1000A0000C94F7020C94F7020C94F7020C94F702EC
:1000B0000C94F7020C94F7020C94F7020C94F702DC
:1000C0000C94F7020C94F7020C94F7020C94F702CC
:1000D0000C94F7020C94F7020C94A53A0C947B3A1A
:1000E0000C94F7020C941B060C94DE040C942D0661
:1000F0000C945E0E0C94D9030C9402060C94C70465
:100100000C9497030C94CA040C94BF040C946603DB
:100110000C94F5040C943F060C94D4040C9425061E
:100120000C9432030C949F0D0C9411060C945A0EEF
:100130000C9407060C94E2040C94DD0A0C949406CB
:100140000C94EC040C94430D0C943E0D0C94DA04C6
:100150000C9475030C94A53C0C94570E0C94FA0562
:100160000C94D0040C9437140C942E030C94B23CD1
:100170000C9449060C948A060C94B5040C9453060E
:100180000C94C3040C94FA040C94410D0C94E804F0
:100190000C946C060C94F0040C9489030C94620685
:1001A0000C9476060C944A040C94F6040C94800685
:1001B0000C9435060C94BB042E76616C002E0067FF
:1001C0006574200046696C747265204772697065B9
:1001D000722069C3A765726973696E65207665725E
:1001E000696C656D6564692E2E2E210046696C74FC
:1001F0007265204772697065722069C3A76572696C
:1002000073696E6520766572696C6469005468650F
:10021000726520697320612074696D656F75742043
:100220006572726F7220696E20506973746F6E20F0
:10023000372E2E2E21002D2D6D6561737572652070
:10024000746F626163636F2074696D656F75742D7F
:100250002D004D656173757265642056616C75651E
:100260003A20004D656173757265642056616C7546
:10027000653A2000546F706C616D206379636C6522
:10028000207375726573693A200046696E616C204F
:100290006379636C65207375726573693A200041F8
:1002A0006C6C2050726F6365737320697320446FA8
:1002B0006E65200054C3BC74C3BC6E206265736C51
:1002C000656E656D6564692E2E2000526F6C6C65DD
:1002D00072206B61676964692079616B616C617917
:1002E000616D6164692E2E2E0046696C7472652002
:1002F000766572696C6D6564690046696C747265D7
:10030000204772697065722069C3A7657269736955
:100310006E6520766572696C6469004D6561737500
:100320007265642056616C75653A20004D65617395
:10033000757265642056616C75653A2000416C6C7D
:100340002050726F636573733A2000546F6261636B
:10035000636F206379636C65207375726573693AA6
:1003600020002D2D6D65617375726520746F62615B
:1003700063636F2074696D656F75742D2D004D6515
:100380006173757265642056616C75653A20000072
:10039000002100240027002A002D00300033000136
:1003A000010000040107010A0100002200250028C5
:1003B000002B002E0031003400020100000501086E
:1003C000010B012D2D2D2D2D2D2D2D2D2D2D2D2DD7
:1003D0002D2D2D2D2D2D2D2D2D2D2D2D2D2D2D2D4D
:1003E0002D2D2D2D2D2D2D2D2D2D2D2D2D2D2D2D3D
:1003F0002D2D2D2D2D2D2D00544845204E554D428F
:100400004552204F46204349474152455454453AAE
:1004100020004D656173757265642056616C756569
:100420003A20002D2D2D2D2D2D2D2D2D2D2D2D2D29
:100430002D2D2D2D2D2D2D2D2D2D2D2D2D2D2D2DEC
:100440002D2D2D2D2D2D2D2D2D2D2D2D2D2D2D2DDC
:100450002D2D2D2D2D2D2D0043696761726574742E
:10046000652054696D653A200046696C7465722098
:100470002B20546F626163636F2074696D653A204D
:1004800000544845204E554D424552204F4620438A
:1004900049474152455454453A200000002000236A
:1004A00000260029002C002F00320000010000036C
:1004B00001060109010505050507050808080802E8
:1004C0000202020A0A0808040404040101010101ED
:1004D0000101010303030303030303040707070CDC
:1004E0000C0C0C0C0C0C0C02020202060606060692
:1004F0000606060B0B0B0B0B0B0B0B01021020203F
:100500000808102040102040800201020108040267
:1005100001010204081020408080402010080402DD
:100520000180040201804020100804020108040236
:10053000010102040810204080010204081020403C
:100540008000000A0B02090C0D0E080703040100CD
:10055000000000000000000000000000000000009B
:100560000000000000000000000000000012111058
:10057000000000000000000000000000000000007B
:100580000000000000000000B23CA53C11241FBE8A
:10059000CFEFD1E2DEBFCDBF00E00CBF1AE0A0E09C
:1005A000B2E0EAE3F2EA00E00BBF02C007900D926E
:1005B000A830B107D9F725E1A8E0BAE001C01D9243
:1005C000A939B207E1F712E0C5ECD2E000E006C0BD
:1005D00021970109802FFE010E94B04EC43CD10733
:1005E00080E00807A9F70E941D3D0C940B510C9464
:1005F0000000FC01A089B18982E08C93A485B585B7
:100600001C92A685B7858FEC8C93108EA489B58932
:1006100086E08C93A289B3898C9180618C93A289A6
:10062000B3898C9188608C93A289B3898C918068FE
:100630008C930288F389E02D80818F7D80830895DB
:10064000E1E0F4E1DC012D913D914C912193319356
:100650004193B4E1ED33FB07A9F7089580E991E0F8
:1006600008950895AF92BF92CF92DF92EF92FF92DA
:100670000F931F93CF93DF936C017B018B01040FCA
:10068000151FEB015E01AE18BF08C017D10759F066
:100690006991D601ED91FC910190F081E02DC601A8
:1006A0001995892B79F7C501DF91CF911F910F9192
:1006B000FF90EF90DF90CF90BF90AF900895FB0137
:1006C00044815581608171810C943203FC01538D0A
:1006D000448D252F30E0842F90E0821B930B54171C
:1006E00010F0CF96089501970895FC01918D828DA9
:1006F000981761F0A28DAE0FBF2FB11D5D968C9142
:10070000928D9F5F9F73928F90E008958FEF9FEF80
:100710000895FC01918D828D981731F0828DE80F3C
:10072000F11D858D90E008958FEF9FEF0895FC01F6
:10073000918D228D892F90E0805C9F4F821B9109C3
:100740008F739927089589E494E10E94970321E02B
:10075000892B09F420E0822F089586EE94E10E940F
:10076000970321E0892B09F420E0822F0895FC01F2
:10077000A48DA80FB92FB11DA35ABF4F2C91848D02
:1007800090E001968F739927848FA689B7892C935F
:10079000A089B1898C91837080648C93938D848DB2
:1007A000981306C00288F389E02D80818F7D8083B5
:1007B0000895EF92FF920F931F93CF93DF93EC0175
:1007C00081E0888F9B8D8C8D98131AC0E889F989F8
:1007D000808185FF15C09FB7F894EE89FF896083FB
:1007E000E889F98980818370806480839FBF81E07C
:1007F00090E0DF91CF911F910F91FF90EF900895BE
:10080000F62E0B8D10E00F5F1F4F0F731127E02E98
:100810008C8D8E110CC00FB607FCFACFE889F989D0
:10082000808185FFF5CFCE010E94B703F1CFEB8D1C
:10083000EC0FFD2FF11DE35AFF4FF0829FB7F894A4
:100840000B8FEA89FB8980818062CFCF6FEF89E4CB
:1008500094E10C94D903EF92FF920F931F93CF93DF
:10086000DF938C017B01D0E0C0E0F701EC0FFD1FAE
:100870006491662339F0C8010E94D903892B11F0D5
:100880002196F3CFCE01DF91CF911F910F91FF9071
:10089000EF900895CF93DF93EC01888D8823B9F012
:1008A000AA89BB89E889F9898C9185FD03C080817B
:1008B00086FD0DC00FB607FCF7CF8C9185FFF2CFF8
:1008C000808185FFEDCFCE010E94B703E9CFDF9194
:1008D000CF91089580E090E0892B29F00E94AD032C
:1008E00081110E94000080E090E0892B49F080E0B7
:1008F00090E0892B29F00E94000081110E940000E5
:1009000080E090E0892B49F080E090E0892B29F08D
:100910000E94000081110E94000080E090E0892B7D
:1009200029F00E94A30381110C94000008958150C6
:10093000823108F05AC0E82FF0E08827ED55FB4FD0
:100940008F4F0C94B04EC304C704B504BB04BF045E
:10095000F504CA04D004D404DA04DE04E204E80492
:10096000EC04F504F004F604FA04809180008F771B
:10097000809380000895809180008F7DF9CF8091D1
:100980008000877FF5CF84B58F7784BD089584B5C7
:100990008F7DFBCF8091B0008F778093B00008955A
:1009A0008091B0008F7DF9CF809190008F778093F8
:1009B00090000895809190008F7DF9CF80919000F4
:1009C000877FF5CF8091A0008F778093A000089556
:1009D0008091A0008F7DF9CF8091A000877FF5CF17
:1009E000809120018F7780932001089580912001CC
:1009F0008F7DF9CF80912001877FF5CFCF93DF9353
:100A0000E1E7F5E08491EBE2F5E0D491E5EEF4E086
:100A1000C491CC23A1F081110E949704EC2FF0E047
:100A2000EE0FFF1FE556FB4FA591B491EC91ED231E
:100A300081E090E009F480E0DF91CF91089580E0BB
:100A400090E0FACF1F93CF93DF93282F30E0F90186
:100A5000EF5BFA4F8491F901E550FB4FD491F90116
:100A6000EB54FB4FC491CC23A9F0162F81110E94A7
:100A70009704EC2FF0E0EE0FFF1FE755FC4FA59118
:100A8000B4918FB7F894EC91111108C0D095DE2382
:100A9000DC938FBFDF91CF911F910895DE2BF8CFAC
:100AA000CF92DF92EF92FF92CF930E94FE040197C4
:100AB000E1F761E080E30E94220560E085E30E94A7
:100AC00022050E94FE04892BE1F7C8E1C12CD12C3C
:100AD000760161E085E30E942205CC0CDD1CEE1C52
:100AE000FF1C60E085E30E9422050E94FE04892B22
:100AF00029F02FEFC21AD20AE20AF20AC15049F7CE
:100B000061E085E30E94220560E085E30E94220502
:100B1000C701B6018058CF91FF90EF90DF90CF9042
:100B20000895CF93DF9390E0FC01E550FB4F2491B3
:100B30008B549B4FFC0184918823D1F090E0880F67
:100B4000991FFC01E157FC4FA591B491FC01E755B9
:100B5000FC4FC591D49161110EC09FB7F8948C9150
:100B6000E22FE0958E238C932881E223E8839FBFB8
:100B7000DF91CF9108958FB7F894EC91E22BEC932D
:100B80008FBFF6CF1F93CF93DF93182FEB0161E058
:100B90000E949105209739F460E0812FDF91CF9179
:100BA0001F910C942205CF3FD10511F461E0F5CFE0
:100BB000E12FF0E0EF5BFA4FE491E150E23108F011
:100BC000B3C0F0E08827E851FA4F8F4F0C94B04E35
:100BD000FA050206070611061B06940625062D06D1
:100BE00035063F064906530662066C0694067606ED
:100BF00080068A0684B5806884BDC7BDDF91CF9129
:100C00001F91089584B5806284BDC8BDF7CF8091DF
:100C10008000806880938000D0938900C093880012
:100C2000EDCF80918000806280938000D0938B0014
:100C3000C0938A00E3CF8091800088608093800019
:100C4000D0938D00C0938C00D9CF8091B000806884
:100C50008093B000C093B300D1CF8091B000806288
:100C60008093B000C093B400C9CF80919000806899
:100C700080939000D0939900C0939800BFCF80914B
:100C80009000806280939000D0939B00C0939A0064
:100C9000B5CF80919000886080939000D0939D00A4
:100CA000C0939C00ABCF8091A00080688093A0008F
:100CB0008091A0008F7B8093A000D093A900C09367
:100CC000A8009CCF8091A00080628093A000D09368
:100CD000AB00C093AA0092CF8091A000886080935F
:100CE000A000D093AD00C093AC0088CF80912001CC
:100CF000806880932001D0932901C09328017ECF82
:100D000080912001806280932001D0932B01C093B9
:100D10002A0174CF80912001886080932001D093B4
:100D20002D01C0932C016ACFC038D1050CF03ECF05
:100D300033CF865320917B00982F987F277F922B6B
:100D400090937B008770806480937C0080917A0010
:100D5000806480937A0080917A0086FDFCCF809138
:100D600078009091790008953FB7F8948091670AD0
:100D70009091680AA091690AB0916A0A26B5A89B69
:100D800005C02F3F19F00196A11DB11D3FBFBA2F1D
:100D9000A92F982F8827BC01CD01620F711D811DDD
:100DA000911D42E0660F771F881F991F4A95D1F762
:100DB00008958F929F92AF92BF92CF92DF92EF925F
:100DC000FF926B017C010E94B4064B015C01C114CF
:100DD000D104E104F104B9F00E94B406681979095C
:100DE0008A099B09683E73408105910580F321E0E3
:100DF000C21AD108E108F10888EE880E83E0981E37
:100E0000A11CB11CE4CFFF90EF90DF90CF90BF907A
:100E1000AF909F908F9008952FB7F8946091630AD8
:100E20007091640A8091650A9091660A2FBF0895B7
:100E30000F931F930E940C076093511470935214E8
:100E4000809353149093541489E494E10E947503A1
:100E500097FF1DC00E940C0700915114109152146D
:100E60002091531430915414601B710B820B930B1F
:100E700000914D1410914E1420914F143091501444
:100E80006017710782079307F8F28FEF9FEF1F91AA
:100E90000F9108954F925F926F927F929F92AF92BF
:100EA000BF92CF92DF92EF92FF920F931F93CF9357
:100EB000DF9300D0CDB7DEB7D09083158091861533
:100EC00090918715A0918815B0918915892B8A2B4F
:100ED0008B2BD9F00E94B406009145141091461452
:100EE0002091471430914814601B710B820B930BB7
:100EF00000918615109187152091881530918915DC
:100F00006017710782079307C8F20E94B4066093C6
:100F10004514709346148093471490934814E091BD
:100F20008E15F0918F15309759F040918A15509198
:100F30008B1560918C1570918D158D2D1995D82E6E
:100F4000E0904314F09044144D2C512C712C612CE2
:100F5000E114F10409F459C0D7011C96CC901C97F8
:100F600080918415909185158436910510F41C9616
:100F70001C92D701ED91FC91A280B38019821A8254
:100F80001B82DD2079F1F701369610E000E0219117
:100F9000222319F19280992001F130E050E040E0E5
:100FA0002F5F3F4F4F4F5F4FC301B2010E948C4EE6
:100FB0009B01AC01892D90E0B0E0A0E0BC01CD0127
:100FC0006F5F7F4F8F4F9F4F0E948C4EA1E0B0E02C
:100FD000AC0FBD1FA00FB11F8C930F5F1F4F0330CD
:100FE0001105A9F609811A812B81F70145855685DE
:100FF00062817381C701F5011995D7011C96CC92C6
:101000001C971496ED90FC90A3CF80914114909181
:1010100042148C010F5F1F4F109342140093411430
:101020004997B4F10E940C07C0903D14D0903E1433
:10103000E0903F14F09040149B01AC012C193D0945
:101040004E095F0921F421E030E040E050E088EEF5
:1010500093E0089FB001099F700D189F700D112437
:10106000072E000C880B990B0E94AE4D309385150E
:101070002093841510924214109241140E940C0780
:1010800060933D1470933E1480933F1490934014EA
:101090000F900F900F90DF91CF911F910F91FF90C4
:1010A000EF90DF90CF90BF90AF909F907F906F9028
:1010B0005F904F9008951F93CF93DF93C1E0C0934B
:1010C0001E0A882399F1D091B8001091BA0080913E
:1010D000BC008A7B8093BC0060E084E10E94220512
:1010E00060E085E10E9422051092D713C093D613C9
:1010F0001092B11361E084E10E94220561E085E174
:101100000E9422058091B9008E7F8093B900809162
:10111000B9008D7F8093B90088E48093B80085E49E
:101120008093BC001093BA00D093B800DF91CF91A8
:101130001F910895CF92DF92EF92FF920F931F932A
:10114000CF93DF93EA01DC0111968D919C91DC0134
:10115000ED91FC910280F381E02D1995C817D90714
:1011600009F0AAC0D091001491E0D13208F09CC0DF
:10117000C091FF130E94B4066B017C018091D713CC
:1011800081116CC082E08093D71381E08093D613E5
:101190008FEF8093D5131092D413D093D313AFED68
:1011A000B3E1E3EBF3E180E0D81390C01092B21307
:1011B0008091B213CC0FC82BC093B2138091B1139E
:1011C000813009F087C01092B1130E94B4066B0100
:1011D0007C018091B2138093BB008091D9139091D0
:1011E000DA13A091DB13B091DC13892B8A2B8B2BA4
:1011F000A1F00E94B4060091D9131091DA13209146
:10120000DB133091DC136C197D098E099F090617D9
:1012100017072807390708F442C08091BC0083FDF6
:10122000D8CF85EC8093BC000E94B4066B017C0192
:101230008091D713823009F44FC08091D51390E08C
:101240008F3F91F18091D51392E0803269F18091C6
:10125000D51394E0803341F593E026C08091D913F3
:101260009091DA13A091DB13B091DC13892B8A2BB8
:101270008B2B09F483CF0E94B4060091D9131091EF
:10128000DA132091DB133091DC136C197D098E0980
:101290009F09061717072807390708F06FCF8091B5
:1012A000D8130E945B0895E01092DE131092001490
:1012B0001092DD1381E0911180E0DF91CF911F91B9
:1012C0000F91FF90EF90DF90CF9008959D919193B3
:1012D0008F5F6ACF85EEA6CF8091D9139091DA13F4
:1012E000A091DB13B091DC13892B8A2B8B2B09F493
:1012F0009FCF0E94B4060091D9131091DA13209168
:10130000DB133091DC136C197D098E099F090617D8
:1013100017072807390708F08BCFC1CF20913F0A64
:10132000260F3327331F21323105ECF42091D713D8
:10133000FC0190E080E0243069F082E00895A09103
:101340003F0A2191AC01415E554FA40FB52FB11D4D
:101350002C930196861798F380913F0A680F60934B
:101360003F0A80E0089581E008950895E091901388
:1013700080918F13E81730F4F0E0EF56FC4E808137
:1013800090E008958FEF9FEF0895909190138091D2
:101390008F132FEF3FEF981748F4E92FF0E0EF5647
:1013A000FC4E208130E09F5F90939013C901089517
:1013B00080918F1390919013891B990B0895CF9270
:1013C000DF92EF92FF920F931F93CF93DF937C01F5
:1013D000CB018A012091DD13222389F0EB016B01FF
:1013E000C40ED51ECC15DD0569F06991D701ED91CC
:1013F000FC910190F081E02DC7011995F3CF642F86
:101400000E948E09C801DF91CF911F910F91FF902B
:10141000EF90DF90CF900895CF93DF931F92CDB7D9
:10142000DEB769832091DD132223F9F020910014A7
:10143000203258F021E030E0FC013383228390E039
:1014400080E00F90DF91CF9108958091DE13E82F17
:10145000F0E0E152FC4E998190838F5F8093DE1320
:101460008093001481E090E0ECCF61E0CE01019622
:101470000E948E09F7CF90E080E00895CF92DF922E
:10148000EF92FF920F931F93CF93DF93C82FC12C3E
:10149000D12C7601D0E003E210E00E945005C60E88
:1014A000D71EE81EF91EC8010197F1F7DF5FCD13C3
:1014B000F4CF2C2F30E050E040E0C701B6010E948D
:1014C0007C4DCA01B9010E945F4C60931A0A709367
:1014D0001B0A80931C0A90931D0ADF91CF911F91E4
:1014E0000F91FF90EF90DF90CF900895CF92DF9211
:1014F000EF92FF9260911A0A70911B0A80911C0A68
:1015000090911D0A0E94514E6B017C010E94500572
:101510006C197D098E099F090E945F4C2DEC3CECF3
:101520004CE251E40E94DF4D0E94514E97FF03C0F0
:1015300060E070E0CB01FF90EF90DF90CF900895D6
:101540000F931F93CF93DF932091190A2F5F322FB0
:1015500037703093190A20FF2BC020E831FD20643A
:10156000347009F02062205FFC01EC01239600E05A
:1015700011E06485662329F070E0C8010E949C4E4A
:101580006F5F6187322F369F030E30E0311D1124CB
:10159000311110C01682662311F0615061873196B7
:1015A000EC17FD0731F7DF91CF911F910F9108954F
:1015B00020E0D4CF31503683EECF4F925F927F92AE
:1015C0008F929F92AF92BF92CF92DF92EF92FF9253
:1015D0000F931F93CF93DF932C01EB010E94B4066E
:1015E000F20127853089621B730B6A307105B0F3F5
:1015F000F8948A819B81181619060CF0CDC1E881F8
:10160000F98164B3862E689485F834B33F7D34BB8A
:10161000D9848E812D2D281B822F2E834F85042E59
:10162000000C550BAA81BB817C85FD84EE847F5F15
:10163000F394E3949F819884BA84AB841081C12C85
:101640006C2D0C2D2C2D2081112788942111280F11
:1016500008F42FEF8195889470FD120F17958894E8
:1016600071FD120F1795889472FD120F17958894CB
:1016700073FD120F1795889474FD120F17958894B7
:1016800075FD120F1795889476FD120F17958894A3
:1016900077FD120F17958894622F7111612F8D0DB0
:1016A000162F002C84BA00C017FF34BB2181662797
:1016B000889400C000C0002C34BB2111290F00C049
:1016C000002C84BA00C016FF34BB08F42FEF9195AC
:1016D000889400C000C0002C34BBF0FC620F00C036
:1016E000002C84BA00C015FF34BB67958894F1FCC8
:1016F000620F00C000C0002C34BB6795889400C006
:10170000002C84BA00C014FF34BBF2FC620F679552
:10171000889400C000C0002C34BBF3FC620F00C0F2
:10172000002C84BA00C013FF34BB67958894F4FC86
:10173000620F00C000C0002C34BB6795889400C0C5
:10174000002C84BA00C012FF34BBF5FC620F679511
:10175000889400C000C0002C34BBF6FC620F00C0AF
:10176000002C84BA00C011FF34BB67958894F7FC45
:10177000620F00C000C0002C34BB6795889400C085
:10178000002C84BA00C010FF34BB122FF110162FAA
:101790009B0D00C000C0002C34BB00C000C0002C5A
:1017A00084BA00C017FF34BB22816627889400C02A
:1017B00000C0002C34BB2111290D00C0002C84BABC
:1017C00000C016FF34BB08F42FEFE40FF51F00C074
:1017D00000C0002C34BBE0FC620F00C0002C84BAB7
:1017E00000C015FF34BB67958894E1FC620F00C010
:1017F00000C0002C34BB6795889400C0002C84BACC
:1018000000C014FF34BBE2FC620F6795889400C0EF
:1018100000C0002C34BBE3FC620F00C0002C84BA73
:1018200000C013FF34BB67958894E4FC620F00C0CE
:1018300000C0002C34BB6795889400C0002C84BA8B
:1018400000C012FF34BBE5FC620F6795889400C0AE
:1018500000C0002C34BBE6FC620F00C0002C84BA30
:1018600000C011FF34BB67958894E7FC620F00C08D
:1018700000C0002C34BB6795889400C0002C84BA4B
:1018800000C010FF34BB122FE110162F919400C03E
:1018900000C0002C34BB9A0C00C000C084BA00C049
:1018A00017FF34BB20816627889400C000C0002C3D
:1018B00034BB2111280F00C0002C84BA00C016FFD1
:1018C00034BB08F42FEF8195889400C000C0002C31
:1018D00034BB70FD620F00C0002C84BA00C015FF3D
:1018E00034BB6795889471FD620F00C000C0002C66
:1018F00034BB6795889400C0002C84BA00C014FFE4
:1019000034BB72FD620F6795889400C000C0002C44
:1019100034BB73FD620F00C0002C84BA00C013FFFB
:1019200034BB6795889474FD620F00C000C0002C22
:1019300034BB6795889400C0002C84BA00C012FFA5
:1019400034BB75FD620F6795889400C000C0002C01
:1019500034BB76FD620F00C0002C84BA00C011FFBA
:1019600034BB6795889477FD620F00C000C0002CDF
:1019700034BB6795889400C0002C84BA00C010FF67
:1019800034BB122F7111162F8D0D00C000C0002C1A
:1019900034BB119709F086CE4A815B8120EE31E09D
:1019A000DA010E94B84EDC01CB01F4E0B695A795B0
:1019B00097958795FA95D1F730E020E0B901EAE9EB
:1019C0004E9F040E611D5E9F600D711D1124650FF9
:1019D000711D860F971FA11DB11D893E43E094071D
:1019E000A105B10508F434C0885E9340A109B1098E
:1019F00042E0B695A795979587954A95D1F747E028
:101A0000849F080E211D949F200D311D1124290F44
:101A1000311D6091180A70E0860F971F820F931F87
:101A20004091630A5091640A6091650A7091660A58
:101A3000292F3327420F531F611D711D4093630AE5
:101A40005093640A6093650A7093660A8093180A3B
:101A500078940E94B406F201708B6787DF91CF9172
:101A60001F910F91FF90EF90DF90CF90BF90AF90BC
:101A70009F908F907F905F904F90089581E090E0CD
:101A800008959D9A08956F927F928F92CF92DF92E0
:101A9000EF92FF920F931F93CF93DF93CDB7DEB7F3
:101AA00062970FB6F894DEBF0FBECDBF6C017A010E
:101AB0003801822EDC011C962C91CA0157FF04C00C
:101AC00088279927841B950B7A8369839C838B8352
:101AD0009E838D836D867E868F86213049F5CE016B
:101AE00001960E94A00A83E0888B1A8A198AF7FE61
:101AF00002C08DEF888BD601ED91FC910684F785AD
:101B0000E02DBE016F5F7F4FC601199562960FB63B
:101B1000F894DEBF0FBECDBFDF91CF911F910F9123
:101B2000FF90EF90DF90CF908F907F906F9008950F
:101B30001C861B861A86198618861F82D4CFEF92C0
:101B4000FF920F931F93CF93DF93CDB7DEB76297CA
:101B50000FB6F894DEBF0FBECDBF7C01DC011C9632
:101B60008C917A8369835C834B835E834D830D877D
:101B70001E872F878130F9F4CE0101960E94A00ABA
:101B8000188A1A8A198AD701ED91FC910684F78583
:101B9000E02DBE016F5F7F4FC701199562960FB6AA
:101BA000F894DEBF0FBECDBFDF91CF911F910F9193
:101BB000FF90EF9008951C861B861A86198618865A
:101BC0001F82DECFCF93DF9300D0CDB7DEB719826F
:101BD0001A821B82CE0101960E9420030E944A07AE
:101BE0000F900F900F90DF91CF910895CF93DF93D7
:101BF00000D0CDB7DEB769838A834B83CE010196CF
:101C00000E9420030E944A070F900F900F90DF91CF
:101C1000CF910895BF92CF92DF92EF92FF920F93F0
:101C20001F93CF93DF9300D0CDB7DEB7C82EB62E6B
:101C3000D42EE22E19821A821B82CE0101960E94B6
:101C400020030E944A0710E000E0F12C0E151F054A
:101C50000CF5B982CA82DB82CE0101960E94200374
:101C60000E944A0764E670E080E090E00E94D90696
:101C700019821A821B82CE0101960E9420030E94C3
:101C80004A0764E670E080E090E00E94D9060F5FAA
:101C90001F4FDCCF0F900F900F90DF91CF911F91CE
:101CA0000F91FF90EF90DF90CF90BF90089590E05C
:101CB00080E00895FC018585968508950F931F9314
:101CC000CF93DF9300D0CDB7DEB7AB0119821A8274
:101CD0001B82DC01ED91FC910190F081E02D00E090
:101CE00010E020E0BE016F5F7F4F19950F900F90BD
:101CF0000F90DF91CF911F910F91089510928E1345
:101D000010928D13109273131092860A0895CF9338
:101D1000DF93C8E3D2E060E089910E94220582E06F
:101D2000C134D807C1F7DF91CF910895BC0189E490
:101D300094E10E945F030E9426040E9426040C94F2
:101D40002604CF93DF93EC0188819981009711F0ED
:101D50000E946F4F198218821D821C821B821A8278
:101D6000DF91CF910895FC0180819181009711F05E
:101D70000C946F4F0895CF93DF93EC010C960E9463
:101D8000B30ECE0106960E94B30ECE01DF91CF9125
:101D90000C94B30EFC0101900020E9F73197AF01DC
:101DA000481B590BBC0186EE94E10C9432038F92D0
:101DB0009F92AF92BF920F931F93CF93DF93CDB7B4
:101DC000DEB7A1970FB6F894DEBF0FBECDBF19A244
:101DD000423008F44AE08E010F5D1F4F842E912C93
:101DE000B12CA12CA50194010E94AE4DE62FB901A2
:101DF000CA01EA30F4F4E05DD801EE938D01232BA3
:101E0000242B252B79F790E080E0109719F0CD0175
:101E10000E94CA0EA1960FB6F894DEBF0FBECDBFCA
:101E2000DF91CF911F910F91BF90AF909F908F90B6
:101E30000895E95CE1CFCF92DF92EF92FF92CF93CA
:101E4000DF936B017C016DE286EE94E10E94D90381
:101E5000EC0166277727CB016C197D098E099F0954
:101E60004AE00E94D70E8C0F9D1FDF91CF91FF900B
:101E7000EF90DF90CF9008950C94CA0ECF93DF932C
:101E80000E94CA0EEC018DE892E00E94CA0E8C0FEF
:101E90009D1FDF91CF910895CF93DF93EC01FC015B
:101EA000E05CFD4F61E080810E942205639719F498
:101EB00081E08093090ADF91CF910895CF93DF935A
:101EC000EC01FC01E05CFD4F60E080810E94220596
:101ED000639711F41092090ADF91CF910895CF937F
:101EE000DF93C1E0D0E0CE010E945E0F2196C531A4
:101EF000D105C9F7DF91CF910895CF93DF938091FA
:101F00008E1381115CC080918D13811158C08FE3B5
:101F10000E9499068536910524F083E190E00E94A5
:101F20005E0F82E090E00E945E0F83E090E00E94EE
:101F30005E0F84E090E00E945E0F68EC70E080E04D
:101F400090E00E94D9068DE090E00E944C0FC5EF12
:101F5000D1E088E30E949906843F9140D4F464E67E
:101F600070E080E090E00E94D90682E190E00E945B
:101F70005E0F64E670E080E090E00E94D90683E0A6
:101F800090E00E944C0F84E090E0DF91CF910C94A0
:101F90004C0F219769F481E080938E130E94870E85
:101FA0000E946F0F80E992E0DF91CF910C943E0F79
:101FB00061E070E080E090E00E94D906CACFDF9136
:101FC000CF910895895C9D4F60E0FC0180810C9465
:101FD00022051F93CF93DF93C62FD0E00197FC011A
:101FE000E85CFD4F10818630910538F4642F8E5CDB
:101FF0009D4FFC0180810E942205BE01812FDF914F
:10200000CF911F910C94C20580918E13811166C0EF
:1020100080918D13811162C088E090E00E944C0F86
:102020006EE071E080E090E00E94D90641E050E06F
:102030006FEF82E090E00E94E90F82E090E00E9462
:102040004C0F81E090E00E944C0F66E970E080E068
:1020500090E00E94D90685E090E00E945E0F66E95C
:1020600070E080E090E00E94D90682E090E00E945B
:10207000E20F88E090E00E945E0F82E090E00E9414
:102080005E0F81E090E00E945E0F809173138130BB
:1020900029F583E090E00E945E0F84E090E00E94CA
:1020A0005E0F81E090E00E945E0F87E090E00E946A
:1020B0004C0F6CEB72E080E090E00E94D90687E064
:1020C00090E00E945E0F68EE73E080E090E00E9476
:1020D000D90682E00E943E0A109273130895CF93AE
:1020E000DF93BC0186EE94E10E945F03EC018DE872
:1020F00092E00E94CA0E8C0F9D1FDF91CF91089530
:10210000CF93DF93BC0186EE94E10E942B04EC0197
:102110008DE892E00E94CA0E8C0F9D1FDF91CF9137
:102120000895CF93DF9380918E138111D0C0809159
:102130008D138111CCC088E30E949906843F9140A1
:102140000CF0BFC08DE090E00E945E0F82E190E055
:102150000E945E0F8FE30E949906853691050CF46C
:102160009DC08091090A813051F483E190E00E9482
:102170005E0F68E077E080E090E00E94D90683E19E
:1021800090E00E944C0F66E970E080E090E00E94D1
:10219000D90683E190E00E945E0F6AEF70E080E074
:1021A00090E00E94D90683E190E00E944C0FC5EFB9
:1021B000D1E088E30E949906853F914064F08CEE5F
:1021C00091E00E94801068EC70E080E090E0DF9188
:1021D000CF910C94D906219709F059C084EC91E075
:1021E0000E94801081E080938E1340E060E08FEFCA
:1021F0000E94F60D83E190E00E945E0F8DE090E07A
:102200000E944C0F68EE73E080E090E00E94D906D7
:102210008BE090E00E944C0F64EF71E080E090E072
:102220000E94D9068DE090E00E945E0F8BE090E066
:102230000E945E0F64EF71E080E090E00E94D9069A
:102240008DE090E00E944C0F8BE090E00E944C0FDC
:1022500064EF71E080E090E00E94D9068BE090E0AE
:102260000E945E0F64EF71E080E090E00E94D9066A
:102270008DE090E00E945E0F4FEF6FEF8FEF0E94B6
:10228000F60D0E94870EDF91CF910C946F0F61E0E5
:1022900070E080E090E00E94D9068BCF80EC92E065
:1022A0000E943E0F81E080938E130E94870E0E9451
:1022B0006F0F23E040E060E08FEFDF91CF910C944F
:1022C0000A0E89ED92E0DF91CF910C943E0FDF91E1
:1022D000CF910895CF93DF9397FF0CC00E941B0FFF
:1022E000EC018DE892E00E94CA0E8C0F9D1FDF91D9
:1022F000CF9108954AE00E94D70EF2CFBC01990F0A
:10230000880B990B97FD0C941B0F4AE00C94D70E89
:10231000CF93DF930E947E11EC018DE892E00E9442
:10232000CA0E8C0F9D1FDF91CF9108950F931F93BD
:10233000CF93DF9380918E138111C6C080918D134E
:102340008111C2C050E040E06FEF85E090E00E9454
:10235000E90FC1E0D0E002E310E08DE30E949906AE
:1023600090939A0A8093990A8B3F9105F4F56091B6
:1023700000027091010280910202909103020E947A
:10238000D9068FE090E00E945E0F82E090E00E940C
:10239000E20F64E670E080E090E00E94D9068EE0F3
:1023A00090E00E945E0F60E971E080E090E00E94A2
:1023B000D90685E090E00E944C0F60E971E080E072
:1023C00090E00E94D90683EF98E00E943C0F809134
:1023D000990A90919A0A0E94881185E090E0DF9115
:1023E000CF911F910F910C94E20FCA3FD10509F4D0
:1023F00043C0CE01B8010E949C4E892B71F588E044
:1024000090E00E944C0F82E090E00E94E20F81E099
:1024100090E00E945E0F68EC70E080E090E00E9427
:10242000D90688E090E00E945E0F83E090E00E9471
:102430005E0F68EC70E080E090E00E94D90683E0D7
:1024400090E00E944C0F64E670E080E090E00E9413
:10245000D90681E090E00E944C0F41E050E062E834
:1024600082E090E00E94E90F64E170E080E090E09B
:102470000E94D906219671CF89E090E00E945E0FFC
:1024800082E090E00E94E20F68EC70E080E090E073
:102490000E94D90689E090E00E944C0F8EE090E007
:1024A0000E945E0F68EE73E080E090E00E94D90623
:1024B0008FE090E00E945E0F81E080938E138AEFA0
:1024C00092E00E943E0F89CFDF91CF911F910F9133
:1024D0000895CF93DF9300D0CDB7DEB719828A83FA
:1024E0006B838091901590919115FC012481358129
:1024F0002330310588F0208131E03093DD132093C3
:10250000FF131092DE131092001443E050E0BE015E
:102510006F5F7F4F0E949A080F900F900F90DF918E
:10252000CF9108953F924F925F926F927F928F92D8
:102530009F92AF92BF92CF92DF92EF92FF920F9352
:102540001F93CF93DF931F921F92CDB7DEB71982EF
:102550008A838091901590919115DC0114962D91AC
:102560003C9115972230310588F02C9131E0309361
:10257000DD132093FF131092DE131092001442E03B
:1025800050E0BE016F5F7F4F0E949A08E090901567
:10259000F0909115DD24D394AA24AA9485EEC82E38
:1025A00095ECB92E01E0F70184819581892B09F41E
:1025B00000E0802E912CD7013C900E94B4062B01A4
:1025C0003C018091D713811164C0102FD092D71392
:1025D0000093D613A092D5131092D4138FEF800FCF
:1025E0008093D313D092B2138091B213330C382A54
:1025F0003092B2138091B113813009F08CC01092E7
:10260000B1130E94B4062B013C018091B213809358
:10261000BB008091D9139091DA13A091DB13B09194
:10262000DC13892B8A2B8B2BA1F00E94B4062091FE
:10263000D9133091DA134091DB135091DC136419F4
:10264000750986099709261737074807590708F4B7
:1026500041C08091BC0083FDD8CFB092BC000E94E5
:10266000B4062B013C018091D713813009F456C088
:102670008091D413801710F41091D413E3EBF3E19D
:10268000A1E9B3E180E0811751F191919D938F5FB2
:10269000FACF8091D9139091DA13A091DB13B09106
:1026A000DC13892B8A2B8B2B09F48BCF0E94B40669
:1026B0002091D9133091DA134091DB135091DC1340
:1026C00064197509860997092617370748075907B6
:1026D00008F077CF8091D8130E945B0810E0109229
:1026E000901310938F13012F10E008151905D9F5D9
:1026F00090E080E08017910798F5F7018181928141
:10270000DC01ED91FC910284F385E02D199589831C
:1027100081E090E0EFCFC092BC00A1CF8091D913AF
:102720009091DA13A091DB13B091DC13892B8A2BE3
:102730008B2B09F498CF0E94B4062091D9133091C5
:10274000DA134091DB135091DC1364197509860983
:102750009709261737074807590708F084CFBACFDB
:10276000012B09F41FCF89810F900F90DF91CF913A
:102770001F910F91FF90EF90DF90CF90BF90AF909F
:102780009F908F907F906F905F904F903F900895B3
:10279000CF938DE490E00E94921280FFFACF61E027
:1027A00088E190E00E9469128FE490E00E9492120A
:1027B00082FFFACF82E690E00E949212C82F67E073
:1027C00085E190E00E9469128C2FCF910895CF93FC
:1027D000DF93682F70E090E080E04AE00E94D70E1F
:1027E000EC018DE892E00E94CA0E8C0F9D1FDF91D4
:1027F000CF910895CF93DF934AE00E94D70EEC016A
:102800008DE892E00E94CA0E8C0F9D1FDF91CF9140
:102810000895CF93DF93DC011496ED91FC916E1730
:102820007F0710F59F01261B370B4217530708F44B
:102830009A01DB01EC0188819981E21BF30BFD8396
:10284000EC83AF01461B570B260F371FBC01620FED
:10285000731F8A0F9B1F0E94FC50E881F9818C81B5
:102860009D81E80FF91F1082DF91CF9108950E949A
:10287000D950FB0144815581FC0124813581241705
:10288000350778F080819181009759F0FB016081D4
:1028900071816115710529F00E94EE5021E0892BAC
:1028A00009F020E0822F08950F931F93CF93DF93B9
:1028B0008C01EB01FC01808191810097E1F068813E
:1028C000798161157105A9F0428153812C813D8187
:1028D0004217530770F00E94E7508C819D81F801E8
:1028E000958384831D821C82DF91CF911F910F916C
:1028F00008950E946F4F88819981F80191838083A8
:102900008A819B81938382838C819D81958384833B
:10291000198218821B821A82E5CF0F931F93CF93DF
:10292000DF93EC0188819981009759F02A813B81DE
:102930002617370730F081E0DF91CF911F910F917B
:1029400008958B016F5F7F4F0E94F84F009759F0F9
:10295000998388831B830A832C813D81232B59F71C
:10296000FC011082E8CF80E0E7CFEF92FF920F9357
:102970001F93CF93DF936115710541F480E0DF91E0
:10298000CF911F910F91FF90EF9008954115510540
:10299000B1F07B01EC010C811D81040F151FB80102
:1029A0000E948D14882351F3288139818C819D8167
:1029B000B701820F931F0E94E7501D830C8381E0B3
:1029C000DECFCF93DF93EC01FB0101900020E9F70C
:1029D0003197AF01461B570B0E94B514811103C0FC
:1029E000CE010E94A10ECE01DF91CF910895CF9329
:1029F000DF93EC01FB0144815581608171810E946C
:102A0000B514811103C0CE010E94A10ECE01DF9149
:102A1000CF910895EF92FF920F931F93CF93DF937F
:102A2000EC017B018A01BA010E948D1481110BC057
:102A3000CE010E94A10ECE01DF91CF911F910F9187
:102A4000FF90EF9008951D830C83B70188819981D1
:102A50000E94E750F0CFFB0101900020E9F7319789
:102A6000AF01461B570B0C940A150F931F93CF937E
:102A7000DF93CDB7DEB7A1970FB6F894DEBF0FBED8
:102A8000CDBF8C01CB01BA01F801118210821382F3
:102A90001282158214822AE0AE014F5F5F4F0E94BE
:102AA0000C4CBE016F5F7F4FC8010E942B15A19691
:102AB0000FB6F894DEBF0FBECDBFDF91CF911F914F
:102AC0000F9108950F931F93CF93DF93CDB7DEB788
:102AD00062970FB6F894DEBF0FBECDBF8C01CB015D
:102AE000F8011182108213821282158214824AE048
:102AF000BE016F5F7F4F0E94014CBE016F5F7F4F31
:102B0000C8010E942B1562960FB6F894DEBF0FBE67
:102B1000CDBFDF91CF911F910F9108950F931F9318
:102B2000CF93DF9300D000D000D0CDB7DEB78C01BB
:102B3000862FF8011182108213821282158214826C
:102B40004AE0BE016F5F7F4F90E00E942E4CBE01B5
:102B50006F5F7F4FC8010E942B1529960FB6F8941E
:102B6000DEBF0FBECDBFDF91CF911F910F910895B2
:102B7000CF93DF93EC01FB018617970749F0608143
:102B800071816115710541F0448155810E940A15DA
:102B9000CE01DF91CF9108950E94A10EF9CF0F933E
:102BA0001F93CF93DF93CDB7DEB72C970FB6F89472
:102BB000DEBF0FBECDBF8C0140E050E0BA01CE01B8
:102BC00001960E94351518861F821A8619861C8662
:102BD0001B86B801CE0107960E94B8156DEA78E011
:102BE000CE0107960E94E114B8016A5F7F4F0E94F0
:102BF000F7146EE073E00E94E114BE016F5F7F4F37
:102C00000E94F714BC0189E494E10E945F03CE01A5
:102C100007960E94B30ECE0101960E94B30E0E9449
:102C200026040E9426040E9426042C960FB6F894CF
:102C3000DEBF0FBECDBFDF91CF911F910F910895E1
:102C40000F931F93CF93DF93CDB7DEB72C970FB6BB
:102C5000F894DEBF0FBECDBF8C01CE0107960E9457
:102C600062151A8219821C821B821E821D82B80183
:102C7000CE0101960E94B8156DEA78E0CE0101966A
:102C80000E94E114B8016A5F7F4F0E94F7146EE062
:102C900073E00E94E114BE01695F7F4F0E94F71448
:102CA000BC0189E494E10E945F03CE0101960E9479
:102CB000B30ECE0107960E94B30E0E9426040E9416
:102CC00026040E9426042C960FB6F894DEBF0FBE91
:102CD000CDBFDF91CF911F910F910895FC0111821B
:102CE00010821382128215821482FB01019000204F
:102CF000E9F73197AF01461B570B0C940A15EF9279
:102D0000FF920F931F93CF93DF931F921F92CDB724
:102D1000DEB78C01E62E6FE872E00E946E160E940C
:102D200018070E2C000CFF0897FD10C08E159F058C
:102D300069F089831A8241E050E0BE016F5F7F4FE6
:102D4000C8010E94B5140E941807EECFC8010F9069
:102D50000F90DF91CF911F910F91FF90EF90089509
:102D60006F927F928F929F92AF92BF92CF92DF929B
:102D7000EF92FF920F931F93CF93DF93CDB7DEB700
:102D8000A6970FB6F894DEBF0FBECDBF8C013B01F6
:102D9000FC01128A138A148A158A6C01FCE0CF0E9A
:102DA000D11C6FE872E0C6010E942B156FEB71E039
:102DB00089E494E10E942B04B80189E494E10E9423
:102DC0005F036DEB71E089E494E10E942B04B8018C
:102DD0006A5F7F4F89E494E10E945F0368EB71E0D2
:102DE00089E494E10E942B040E9426040E94260498
:102DF0000E94260488EC90E0A0E0B0E080934D149F
:102E000090934E14A0934F14B0935014CE0101969A
:102E10005C01F12CE12C4C010E94180797FD0AC0BF
:102E2000F50181935F01FFEFEF1AFF0A20E2E2163E
:102E3000F10491F7F401EE0DFF1D8FE892E080831D
:102E4000B401CE0181960E946E16BE016F5D7F4F68
:102E5000C6010E945414CE0181960E94B30E64E113
:102E600073E0CE0181960E946E16BE016F5D7F4FAA
:102E7000C6010E943914F82ECE0181960E94B30E2D
:102E8000FF20F1F1F80140895189D801529690E074
:102E900080E001968417950740F4F8012485358574
:102EA000F901E80FF91F232B21F41092080AE8E03A
:102EB000FAE020812D938430910559F7F801828939
:102EC0009389A489B589B7FD3BC0F30180839183C1
:102ED000A283B38381E0A6960FB6F894DEBF0FBE3F
:102EE000CDBFDF91CF911F910F91FF90EF90DF90B9
:102EF000CF90BF90AF909F908F907F906F900895EC
:102F00000E940C076B017C0186E193E00E943C0F5C
:102F10000E940C076C197D098E099F09683E734059
:102F20008105910568F589E494E10E949703892B56
:102F300079F389E494E10E9475030E947E11E8CF41
:102F40000E940C076B017C018BE393E00E943C0F15
:102F50000E940C076C197D098E099F09683E734019
:102F60008105910568F489E494E10E949703892B17
:102F700079F389E494E10E9475030E947E11E8CF01
:102F800080E0A9CF64E172E08CE193E10E94B01689
:102F900064E272E086E093E10E94B01660E172E0C4
:102FA00080EF92E10E94B01660E272E08AED92E159
:102FB0000E94B0166CE172E084EC92E10E94B016BF
:102FC0006CE072E08EEA92E10E94B01668E072E076
:102FD00088E992E10E94B01668E172E082E892E12D
:102FE0000E94B01664E072E086E592E10E94B0169D
:102FF00060E072E08CE692E10E94B01680911402CB
:1030000090911502A0911602B0911702811594407B
:10301000A105B10509F4B6CF809124029091250253
:10302000A0912602B091270281159440A105B10517
:1030300009F4A8CF8091100290911102A091120280
:10304000B091130281159440A105B10509F49ACFFE
:103050008091200290912102A0912202B09123023E
:1030600081159440A105B10509F48CCF80911C0213
:1030700090911D02A0911E02B0911F0281159440F3
:10308000A105B10509F47ECF80910C0290910D024B
:10309000A0910E02B0910F0281159440A105B105D7
:1030A00009F470CF8091080290910902A0910A0260
:1030B000B0910B0281159440A105B10509F462CFCE
:1030C0008091180290911902A0911A02B0911B02EE
:1030D00081159440A105B10509F454CF80910402F3
:1030E00090910502A0910602B091070281159440CB
:1030F000A105B10509F446CF80910002909101022B
:10310000A0910202B091030281159440A105B1057E
:1031100009F438CF08950F931F93CF93DF93EC01F9
:103120008A01198218821B821A821D821C820E94C7
:10313000B8151F821E82198618861B861A86B8014A
:10314000CE0106960E94B8152C966FE872E0CE016B
:103150000E946E166FE872E0CE01DF91CF911F9151
:103160000F910C942B15CF93DF93CDB7DEB72C972F
:103170000FB6F894DEBF0FBECDBF019711F00C94CF
:1031800070246FE872E088E393E10E946E166FE8A6
:1031900072E082E393E10E946E166FE573E0CE0168
:1031A00001960E946E1663E673E0CE0107960E94B8
:1031B0006E16AE014F5F5F4FBE01695F7F4F8CE1BE
:1031C00093E10E948B18CE0107960E94B30ECE01A8
:1031D00001960E94B30E69E673E0CE0101960E944B
:1031E0006E1663E673E0CE0107960E946E16AE017E
:1031F0004F5F5F4FBE01695F7F4F86E093E10E94A2
:103200008B18CE0107960E94B30ECE0101960E9444
:10321000B30E6DE673E0CE0101960E946E1663E672
:1032200073E0CE0107960E946E16AE014F5F5F4FAE
:10323000BE01695F7F4F80EF92E10E948B18CE0143
:1032400007960E94B30ECE0101960E94B30E61E76D
:1032500073E0CE0101960E946E1663E673E0CE0124
:1032600007960E946E16AE014F5F5F4FBE01695F09
:103270007F4F8AED92E10E948B18CE0107960E9443
:10328000B30ECE0101960E94B30E65E773E0CE0146
:1032900001960E946E1663E673E0CE0107960E94C7
:1032A0006E16AE014F5F5F4FBE01695F7F4F84ECCA
:1032B00092E10E948B18CE0107960E94B30ECE01B8
:1032C00001960E94B30E69E773E0CE0101960E9459
:1032D0006E1663E673E0CE0107960E946E16AE018D
:1032E0004F5F5F4FBE01695F7F4F8EEA92E10E94A0
:1032F0008B18CE0107960E94B30ECE0101960E9454
:10330000B30E6DE773E0CE0101960E946E1663E680
:1033100073E0CE0107960E946E16AE014F5F5F4FBD
:10332000BE01695F7F4F88E992E10E948B18CE0150
:1033300007960E94B30ECE0101960E94B30E61E87B
:1033400073E0CE0101960E946E1663E673E0CE0133
:1033500007960E946E16AE014F5F5F4FBE01695F18
:103360007F4F82E892E10E948B18CE0107960E945F
:10337000B30ECE0101960E94B30E65E873E0CE0154
:1033800001960E946E1663E673E0CE0107960E94D6
:103390006E16AE014F5F5F4FBE01695F7F4F8CE6D7
:1033A00092E10E948B18CE0107960E94B30ECE01C7
:1033B00001960E94B30E69E873E0CE0101960E9467
:1033C0006E1663E673E0CE0107960E946E16AE019C
:1033D0004F5F5F4FBE01695F7F4F86E592E10E94BC
:1033E0008B18CE0107960E94B30ECE0101960E9463
:1033F000B30E6FE873E0CE0101960E946E1663E68D
:1034000073E0CE0107960E946E16AE014F5F5F4FCC
:10341000BE01695F7F4F80E492E10E948B18CE016C
:1034200007960E94B30ECE0101960E94B30E6BE97F
:1034300073E0CE0101960E946E1663E673E0CE0142
:1034400007960E946E16AE014F5F5F4FBE01695F27
:103450007F4F8AE292E10E948B18CE0107960E946C
:10346000B30ECE0101960E94B30E61EA73E0CE0165
:1034700001960E946E1663E673E0CE0107960E94E5
:103480006E16AE014F5F5F4FBE01695F7F4F84E1F3
:1034900092E10E948B18CE0107960E94B30ECE01D6
:1034A00001960E94B30E6AEA73E0CE0101960E9473
:1034B0006E1663E673E0CE0107960E946E16AE01AB
:1034C0004F5F5F4FBE01695F7F4F8EEF91E10E94BA
:1034D0008B18CE0107960E94B30ECE0101960E9472
:1034E000B30E61EB73E0CE0101960E946E1663E6A7
:1034F00073E0CE0107960E946E16AE014F5F5F4FDC
:10350000BE01695F7F4F88EE91E10E948B18CE016A
:1035100007960E94B30ECE0101960E94B30E69EB8E
:1035200073E0CE0101960E946E1663E673E0CE0151
:1035300007960E946E16AE014F5F5F4FBE01695F36
:103540007F4F8DE593E10E948B18CE0107960E9474
:10355000B30ECE0101960E94B30E63EC73E0CE0170
:1035600001960E946E1663E673E0CE0107960E94F4
:103570006E16AE014F5F5F4FBE01695F7F4F82EDF8
:1035800091E10E948B18CE0107960E94B30ECE01E6
:1035900001960E94B30E6BEC73E0CE0101960E947F
:1035A0006E1663E673E0CE0107960E946E16AE01BA
:1035B0004F5F5F4FBE01695F7F4F84E793E10E94D9
:1035C0008B18CE0107960E94B30ECE0101960E9481
:1035D000B30E62ED73E0CE0101960E946E1663E6B3
:1035E00073E0CE0107960E946E16AE014F5F5F4FEB
:1035F000BE01695F7F4F8CEB91E10E948B18CE0179
:1036000007960E94B30ECE0101960E94B30E6AED9A
:1036100073E0CE0101960E946E166BE478E0CE0155
:1036200007960E946E16AE014F5F5F4FBE01695F45
:103630007F4F86EA91E10E948B18CE0107960E9487
:10364000B30ECE0101960E94B30E62EE73E0CE017E
:1036500001960E946E166BE478E0CE0107960E94F8
:103660006E16AE014F5F5F4FBE01695F7F4F80E90D
:1036700091E10E948B18CE0107960E94B30ECE01F5
:1036800001960E94B30E69EE73E0CE0101960E948E
:103690006E1665E578E0CE0107960E946E16AE01C3
:1036A0004F5F5F4FBE01695F7F4F8AE791E10E94E4
:1036B0008B18CE0107960E94B30ECE0101960E9490
:1036C000B30E65EF73E0CE0101960E946E1665E5BC
:1036D00078E0CE0107960E946E16AE014F5F5F4FF5
:1036E000BE01695F7F4F84E691E10E948B18CE0195
:1036F00007960E94B30ECE0101960E94B30E61E0C0
:1037000074E0CE0101960E946E1665E578E0CE0168
:1037100007960E946E16AE014F5F5F4FBE01695F54
:103720007F4F8EE491E10E948B18CE0107960E9494
:10373000B30ECE0101960E94B30E6DE074E0CE018F
:1037400001960E946E1665E578E0CE0107960E940C
:103750006E16AE014F5F5F4FBE01695F7F4F88E31A
:1037600091E10E948B18CE0107960E94B30ECE0104
:1037700001960E94B30E69E174E0CE0101960E94A9
:103780006E1665E578E0CE0107960E946E16AE01D2
:103790004F5F5F4FBE01695F7F4F82E291E10E9400
:1037A0008B18CE0107960E94B30ECE0101960E949F
:1037B000B30E68E274E0CE0101960E946E1665E5D4
:1037C00078E0CE0107960E946E16AE014F5F5F4F04
:1037D000BE01695F7F4F8CE091E10E948B18CE01A2
:1037E00007960E94B30ECE0101960E94B30E63E3CA
:1037F00074E0CE0101960E946E1665E578E0CE0178
:1038000007960E946E16AE014F5F5F4FBE01695F63
:103810007F4F86EF90E10E948B18CE0107960E94A1
:10382000B30ECE0101960E94B30E6EE374E0CE019A
:1038300001960E946E1665E578E0CE0107960E941B
:103840006E16AE014F5F5F4FBE01695F7F4F80EE26
:1038500090E10E948B18CE0107960E94B30ECE0114
:1038600001960E94B30E69E474E0CE0101960E94B5
:103870006E1665E578E0CE0107960E946E16AE01E1
:103880004F5F5F4FBE01695F7F4F8AEC90E10E94FE
:103890008B18CE0107960E94B30ECE0101960E94AE
:1038A000B30E64E574E0CE0101960E946E1665E5E4
:1038B00078E0CE0107960E946E16AE014F5F5F4F13
:1038C000BE01695F7F4F84EB90E10E948B18CE01AF
:1038D00007960E94B30ECE0101960E94B30E6FE5CB
:1038E00074E0CE0101960E946E1665E578E0CE0187
:1038F00007960E946E16AE014F5F5F4FBE01695F73
:103900007F4F8EE990E10E948B18CE0107960E94AE
:10391000B30ECE0101960E94B30E6AE674E0CE01AA
:1039200001960E946E1665E578E0CE0107960E942A
:103930006E16AE014F5F5F4FBE01695F7F4F88E833
:1039400090E10E948B18CE0107960E94B30ECE0123
:1039500001960E94B30E65E774E0CE0101960E94C5
:103960006E1665E578E0CE0107960E946E16AE01F0
:103970004F5F5F4FBE01695F7F4F82E790E10E941A
:103980008B18CE0107960E94B30ECE0101960E94BD
:10399000B30E60E874E0CE0101960E946E1665E5F4
:1039A00078E0CE0107960E946E16AE014F5F5F4F22
:1039B000BE01695F7F4F8CE590E10E948B18CE01BC
:1039C00007960E94B30ECE0101960E94B30E6BE8DB
:1039D00074E0CE0101960E946E1665E578E0CE0196
:1039E00007960E946E16AE014F5F5F4FBE01695F82
:1039F0007F4F86E490E10E948B18CE0107960E94CB
:103A0000B30ECE0101960E94B30E62EE73E0CE01BA
:103A100001960E946E1665E578E0CE0107960E9439
:103A20006E16AE014F5F5F4FBE01695F7F4F80E34F
:103A300090E10E948B18CE0107960E94B30ECE0132
:103A400001960E94B30E66E974E0CE0101960E94D1
:103A50006E1665E578E0CE0107960E946E16AE01FF
:103A60004F5F5F4FBE01695F7F4F8AE190E10E9427
:103A70008B18CE0107960E94B30ECE0101960E94CC
:103A8000B30E60EA74E0CE0101960E946E1665E501
:103A900078E0CE0107960E946E16AE014F5F5F4F31
:103AA000BE01695F7F4F84E090E10E948B18CE01D8
:103AB00007960E94B30ECE0101960E94B30E6BEAE8
:103AC00074E0CE0101960E946E1665E578E0CE01A5
:103AD00007960E946E16AE014F5F5F4FBE01695F91
:103AE0007F4F86E493E10E948B18CE0107960E94D7
:103AF000B30ECE0101960E94B30E62EB74E0CE01CC
:103B000001960E946E166EE578E0CE0107960E943F
:103B10006E16AE014F5F5F4FBE01695F7F4F8EEE45
:103B20009FE00E948B18CE0107960E94B30ECE0133
:103B300001960E94B30E66EB74E0CE0101960E94DE
:103B40006E166EE578E0CE0107960E946E16AE0105
:103B50004F5F5F4FBE01695F7F4F88ED9FE00E941E
:103B60008B18CE0107960E94B30ECE0101960E94DB
:103B7000B30E6AEB74E0CE0101960E946E166EE5FC
:103B800078E0CE0107960E946E16AE014F5F5F4F40
:103B9000BE01695F7F4F82EC9FE00E948B18CE01CF
:103BA00007960E94B30ECE0101960E94B30E6EEBF3
:103BB00074E0CE0101960E946E166EE578E0CE01AB
:103BC00007960E946E16AE014F5F5F4FBE01695FA0
:103BD0007F4F8CEA9FE00E948B18CE0107960E94CF
:103BE000B30ECE0101960E94B30E62EC74E0CE01DA
:103BF00001960E946E166EE578E0CE0107960E944F
:103C00006E16AE014F5F5F4FBE01695F7F4F86E961
:103C10009FE00E948B18CE0107960E94B30ECE0142
:103C200001960E94B30E66EC74E0CE0101960E94EC
:103C30006E166EE578E0CE0107960E946E16AE0114
:103C40004F5F5F4FBE01695F7F4F80E89FE00E943A
:103C50008B18CE0107960E94B30ECE0101960E94EA
:103C6000B30E6AEC74E0CE0101960E946E166EE50A
:103C700078E0CE0107960E946E16AE014F5F5F4F4F
:103C8000BE01695F7F4F8AE69FE00E948B18CE01DC
:103C900007960E94B30ECE0101960E94B30E6EEC01
:103CA00074E0CE0101960E946E166EE578E0CE01BA
:103CB00007960E946E16AE014F5F5F4FBE01695FAF
:103CC0007F4F84E59FE00E948B18CE0107960E94EB
:103CD000B30ECE0101960E94B30E62ED74E0CE01E8
:103CE00001960E946E166EE578E0CE0107960E945E
:103CF0006E16AE014F5F5F4FBE01695F7F4F8EE36F
:103D00009FE00E948B18CE0107960E94B30ECE0151
:103D100001960E94B30E66ED74E0CE0101960E94FA
:103D20006E166EE578E0CE0107960E946E16AE0123
:103D30004F5F5F4FBE01695F7F4F88E29FE00E9447
:103D40008B18CE0107960E94B30ECE0101960E94F9
:103D5000B30E6BED74E0CE0101960E946E166EE517
:103D600078E0CE0107960E946E16AE014F5F5F4F5E
:103D7000BE01695F7F4F82E19FE00E948B18CE01F8
:103D800007960E94B30ECE0101960E94B30E60EE1C
:103D900074E0CE0101960E946E166EE578E0CE01C9
:103DA00007960E946E16AE014F5F5F4FBE01695FBE
:103DB0007F4F8CEF9EE00E948B18CE0107960E94E9
:103DC000B30ECE0101960E94B30E65EE74E0CE01F3
:103DD00001960E946E166EE578E0CE0107960E946D
:103DE0006E16AE014F5F5F4FBE01695F7F4F86EE7B
:103DF0009EE00E948B18CE0107960E94B30ECE0162
:103E000001960E94B30E6AEE74E0CE0101960E9404
:103E10006E166EE578E0CE0107960E946E16AE0132
:103E20004F5F5F4FBE01695F7F4F80ED9EE00E9454
:103E30008B18CE0107960E94B30ECE0101960E9408
:103E4000B30E6FEE74E0CE0101960E946E166EE521
:103E500078E0CE0107960E946E16AE014F5F5F4F6D
:103E6000BE01695F7F4F8AEB9EE00E948B18CE01F6
:103E700007960E94B30ECE0101960E94B30E64EF26
:103E800074E0CE0101960E946E166EE578E0CE01D8
:103E900007960E946E16AE014F5F5F4FBE01695FCD
:103EA0007F4F84EA9EE00E948B18CE0107960E9405
:103EB000B30ECE0101960E94B30E69EF74E0CE01FD
:103EC00001960E946E166EE578E0CE0107960E947C
:103ED0006E16AE014F5F5F4FBE01695F7F4F8EE888
:103EE0009EE00E948B18CE0107960E94B30ECE0171
:103EF00001960E94B30E6EEF74E0CE0101960E940F
:103F00006E166EE578E0CE0107960E946E16AE0141
:103F10004F5F5F4FBE01695F7F4F88E79EE00E9461
:103F20008B18CE0107960E94B30ECE0101960E9417
:103F3000B30E63E075E0CE0101960E946E166EE549
:103F400078E0CE0107960E946E16AE014F5F5F4F7C
:103F5000BE01695F7F4F82E69EE00E948B18CE0112
:103F600007960E94B30ECE0101960E94B30E68E040
:103F700075E0CE0101960E946E166EE578E0CE01E6
:103F800007960E946E16AE014F5F5F4FBE01695FDC
:103F90007F4F8CE49EE00E948B18CE0107960E9412
:103FA000B30ECE0101960E94B30E6DE075E0CE0116
:103FB00001960E946E166EE578E0CE0107960E948B
:103FC0006E16AE014F5F5F4FBE01695F7F4F86E3A4
:103FD0009EE00E948B18CE0107960E94B30ECE0180
:103FE00001960E94B30E62E175E0CE0101960E9437
:103FF0006E166EE578E0CE0107960E946E16AE0151
:104000004F5F5F4FBE01695F7F4F80E29EE00E947D
:104010008B18CE0107960E94B30ECE0101960E9426
:10402000B30E67E175E0CE0101960E946E166EE553
:1040300078E0CE0107960E946E16AE014F5F5F4F8B
:10404000BE01695F7F4F8AE09EE00E948B18CE011F
:1040500007960E94B30ECE0101960E94B30E6CE14A
:1040600075E0CE0101960E946E166EE578E0CE01F5
:1040700007960E946E16AE014F5F5F4FBE01695FEB
:104080007F4F84EF9DE00E948B18CE0107960E941F
:10409000B30ECE0101960E94B30E61E275E0CE012F
:1040A00001960E946E166EE578E0CE0107960E949A
:1040B0006E16AE014F5F5F4FBE01695F7F4F8EEDA1
:1040C0009DE00E948B18CE0107960E94B30ECE0190
:1040D00001960E94B30E66E275E0CE0101960E9441
:1040E0006E166EE578E0CE0107960E946E16AE0160
:1040F0004F5F5F4FBE01695F7F4F88EC9DE00E947C
:104100008B18CE0107960E94B30ECE0101960E9435
:10411000B30E6BE275E0CE0101960E946E166EE55D
:1041200078E0CE0107960E946E16AE014F5F5F4F9A
:10413000BE01695F7F4F82EB9DE00E948B18CE012C
:1041400007960E94B30ECE0101960E94B30E60E363
:1041500075E0CE0101960E946E166EE578E0CE0104
:1041600007960E946E16AE014F5F5F4FBE01695FFA
:104170007F4F8CE99DE00E948B18CE0107960E942C
:10418000B30ECE0101960E94B30E65E375E0CE0139
:1041900001960E946E166EE578E0CE0107960E94A9
:1041A0006E16AE014F5F5F4FBE01695F7F4F86E8BD
:1041B0009DE00E948B18CE0107960E94B30ECE019F
:1041C00001960E94B30E62EE73E0CE0101960E944A
:1041D0006E166EE578E0CE0107960E946E16AE016F
:1041E0004F5F5F4FBE01695F7F4F80E79DE00E9498
:1041F0008B18CE0107960E94B30ECE0101960E9445
:10420000B30E6AE375E0CE0101960E946E1668E671
:1042100078E0CE0107960E946E16AE014F5F5F4FA9
:10422000BE01695F7F4F8AE59DE00E948B18CE0139
:1042300007960E94B30ECE0101960E94B30E63E46E
:1042400075E0CE0101960E946E1668E678E0CE0118
:1042500007960E946E16AE014F5F5F4FBE01695F09
:104260007F4F84E49DE00E948B18CE0107960E9448
:10427000B30ECE0101960E94B30E6CE475E0CE0140
:1042800001960E946E1668E678E0CE0107960E94BD
:104290006E16AE014F5F5F4FBE01695F7F4F8EE2CA
:1042A0009DE00E948B18CE0107960E94B30ECE01AE
:1042B00001960E94B30E65E575E0CE0101960E945D
:1042C0006E1668E678E0CE0107960E946E16AE0183
:1042D0004F5F5F4FBE01695F7F4F88E19DE00E94A5
:1042E0008B18CE0107960E94B30ECE0101960E9454
:1042F000B30E6EE575E0CE0101960E946E1668E67B
:1043000078E0CE0107960E946E16AE014F5F5F4FB8
:10431000BE01695F7F4F82E09DE00E948B18CE0155
:1043200007960E94B30ECE0101960E94B30E67E677
:1043300075E0CE0101960E946E1668E678E0CE0127
:1043400007960E946E16AE014F5F5F4FBE01695F18
:104350007F4F8CEE9CE00E948B18CE0107960E9446
:10436000B30ECE0101960E94B30E60E775E0CE0158
:1043700001960E946E1668E678E0CE0107960E94CC
:104380006E16AE014F5F5F4FBE01695F7F4F86EDD6
:104390009CE00E948B18CE0107960E94B30ECE01BE
:1043A00001960E94B30E69E775E0CE0101960E9466
:1043B0006E1668E678E0CE0107960E946E16AE0192
:1043C0004F5F5F4FBE01695F7F4F80EC9CE00E94B2
:1043D0008B18CE0107960E94B30ECE0101960E9463
:1043E000B30E62E875E0CE0101960E946E1668E693
:1043F00078E0CE0107960E946E16AE014F5F5F4FC8
:10440000BE01695F7F4F8AEA9CE00E948B18CE0153
:1044100007960E94B30ECE0101960E94B30E6BE880
:1044200075E0CE0101960E946E1668E678E0CE0136
:1044300007960E946E16AE014F5F5F4FBE01695F27
:104440007F4F84E99CE00E948B18CE0107960E9462
:10445000B30ECE0101960E94B30E65E975E0CE0160
:1044600001960E946E1668E678E0CE0107960E94DB
:104470006E16AE014F5F5F4FBE01695F7F4F8EE7E3
:104480009CE00E948B18CE0107960E94B30ECE01CD
:1044900001960E94B30E6FE975E0CE0101960E946D
:1044A0006E1668E678E0CE0107960E946E16AE01A1
:1044B0004F5F5F4FBE01695F7F4F88E69CE00E94BF
:1044C0008B18CE0107960E94B30ECE0101960E9472
:1044D000B30E69EA75E0CE0101960E946E1668E699
:1044E00078E0CE0107960E946E16AE014F5F5F4FD7
:1044F000BE01695F7F4F82E59CE00E948B18CE0170
:1045000007960E94B30ECE0101960E94B30E63EB94
:1045100075E0CE0101960E946E1668E678E0CE0145
:1045200007960E946E16AE014F5F5F4FBE01695F36
:104530007F4F8CE39CE00E948B18CE0107960E946F
:10454000B30ECE0101960E94B30E6DEB75E0CE0165
:1045500001960E946E1668E678E0CE0107960E94EA
:104560006E16AE014F5F5F4FBE01695F7F4F86E2FF
:104570009CE00E948B18CE0107960E94B30ECE01DC
:1045800001960E94B30E67EC75E0CE0101960E9481
:104590006E1668E678E0CE0107960E946E16AE01B0
:1045A0004F5F5F4FBE01695F7F4F80E19CE00E94DB
:1045B0008B18CE0107960E94B30ECE0101960E9481
:1045C000B30E61ED75E0CE0101960E946E166DEDA1
:1045D00075E0CE0107960E946E16AE014F5F5F4FE9
:1045E000BE01695F7F4F8AEF9BE00E948B18CE016E
:1045F00007960E94B30ECE0101960E94B30E63EEA1
:1046000075E0CE0101960E946E166CE778E0CE014F
:1046100007960E946E16AE014F5F5F4FBE01695F45
:104620007F4F84EE9BE00E948B18CE0107960E947C
:10463000B30ECE0101960E94B30E6CEE75E0CE0172
:1046400001960E946E166CE778E0CE0107960E94F4
:104650006E16AE014F5F5F4FBE01695F7F4F8EECFC
:104660009BE00E948B18CE0107960E94B30ECE01EC
:1046700001960E94B30E65EF75E0CE0101960E948F
:104680006E166CE778E0CE0107960E946E16AE01BA
:104690004F5F5F4FBE01695F7F4F88EB9BE00E94D9
:1046A0008B18CE0107960E94B30ECE0101960E9490
:1046B000B30E6EEF75E0CE0101960E946E166CE7A8
:1046C00078E0CE0107960E946E16AE014F5F5F4FF5
:1046D000BE01695F7F4F82EA9BE00E948B18CE018A
:1046E00007960E94B30ECE0101960E94B30E67E0BA
:1046F00076E0CE0101960E946E166CE778E0CE015E
:1047000007960E946E16AE014F5F5F4FBE01695F54
:104710007F4F8CE89BE00E948B18CE0107960E9489
:10472000B30ECE0101960E94B30E60E176E0CE0199
:1047300001960E946E166CE778E0CE0107960E9403
:104740006E16AE014F5F5F4FBE01695F7F4F86E718
:104750009BE00E948B18CE0107960E94B30ECE01FB
:1047600001960E94B30E62EB74E0CE0101960E94A6
:104770006E166CE778E0CE0107960E946E16AE01C9
:104780004F5F5F4FBE01695F7F4F80E69BE00E94F5
:104790008B18CE0107960E94B30ECE0101960E949F
:1047A000B30E66EB74E0CE0101960E946E166CE7C4
:1047B00078E0CE0107960E946E16AE014F5F5F4F04
:1047C000BE01695F7F4F8AE49BE00E948B18CE0197
:1047D00007960E94B30ECE0101960E94B30E6AEBBB
:1047E00074E0CE0101960E946E166CE778E0CE016F
:1047F00007960E946E16AE014F5F5F4FBE01695F64
:104800007F4F84E39BE00E948B18CE0107960E94A5
:10481000B30ECE0101960E94B30E6EEB74E0CE0192
:1048200001960E946E166CE778E0CE0107960E9412
:104830006E16AE014F5F5F4FBE01695F7F4F8EE125
:104840009BE00E948B18CE0107960E94B30ECE010A
:1048500001960E94B30E62EC74E0CE0101960E94B4
:104860006E166CE778E0CE0107960E946E16AE01D8
:104870004F5F5F4FBE01695F7F4F88E09BE00E9402
:104880008B18CE0107960E94B30ECE0101960E94AE
:10489000B30E66EC74E0CE0101960E946E166CE7D2
:1048A00078E0CE0107960E946E16AE014F5F5F4F13
:1048B000BE01695F7F4F82EF9AE00E948B18CE01A4
:1048C00007960E94B30ECE0101960E94B30E2C965D
:1048D0000FB6F894DEBF0FBECDBFDF91CF91089524
:1048E00082EF9AE00E94BB0E88E09BE00E94BB0E24
:1048F0008EE19BE00E94BB0E84E39BE00E94BB0E16
:104900008AE49BE00E94BB0E80E69BE00E94BB0E07
:1049100086E79BE00E94BB0E8CE89BE00E94BB0EEA
:1049200082EA9BE00E94BB0E88EB9BE00E94BB0EDC
:104930008EEC9BE00E94BB0E84EE9BE00E94BB0EBF
:104940008AEF9BE00E94BB0E80E19CE00E94BB0EC0
:1049500086E29CE00E94BB0E8CE39CE00E94BB0EB2
:1049600082E59CE00E94BB0E88E69CE00E94BB0EA4
:104970008EE79CE00E94BB0E84E99CE00E94BB0E87
:104980008AEA9CE00E94BB0E80EC9CE00E94BB0E79
:1049900086ED9CE00E94BB0E8CEE9CE00E94BB0E5C
:1049A00082E09DE00E94BB0E88E19DE00E94BB0E6C
:1049B0008EE29DE00E94BB0E84E49DE00E94BB0E4F
:1049C0008AE59DE00E94BB0E80E79DE00E94BB0E41
:1049D00086E89DE00E94BB0E8CE99DE00E94BB0E24
:1049E00082EB9DE00E94BB0E88EC9DE00E94BB0E16
:1049F0008EED9DE00E94BB0E84EF9DE00E94BB0EF9
:104A00008AE09EE00E94BB0E80E29EE00E94BB0E08
:104A100086E39EE00E94BB0E8CE49EE00E94BB0EEB
:104A200082E69EE00E94BB0E88E79EE00E94BB0EDD
:104A30008EE89EE00E94BB0E84EA9EE00E94BB0EC0
:104A40008AEB9EE00E94BB0E80ED9EE00E94BB0EB2
:104A500086EE9EE00E94BB0E8CEF9EE00E94BB0E95
:104A600082E19FE00E94BB0E88E29FE00E94BB0EA5
:104A70008EE39FE00E94BB0E84E59FE00E94BB0E88
:104A80008AE69FE00E94BB0E80E89FE00E94BB0E7A
:104A900086E99FE00E94BB0E8CEA9FE00E94BB0E5D
:104AA00082EC9FE00E94BB0E88ED9FE00E94BB0E4F
:104AB0008EEE9FE00E94BB0E86E493E10E94BB0E47
:104AC00084E090E10E94BB0E8AE190E10E94BB0E5F
:104AD00080E390E10E94BB0E86E490E10E94BB0E51
:104AE0008CE590E10E94BB0E82E790E10E94BB0E34
:104AF00088E890E10E94BB0E8EE990E10E94BB0E17
:104B000084EB90E10E94BB0E8AEC90E10E94BB0E08
:104B100080EE90E10E94BB0E86EF90E10E94BB0EFA
:104B20008CE091E10E94BB0E82E291E10E94BB0EFB
:104B300088E391E10E94BB0E8EE491E10E94BB0EDE
:104B400084E691E10E94BB0E8AE791E10E94BB0ED0
:104B500080E991E10E94BB0E86EA91E10E94BB0EC2
:104B60008CEB91E10E94BB0E84E793E10E94BB0EA7
:104B700082ED91E10E94BB0E8DE593E10E94BB0E98
:104B800088EE91E10E94BB0E8EEF91E10E94BB0E78
:104B900084E192E10E94BB0E8AE292E10E94BB0E88
:104BA00080E492E10E94BB0E86E592E10E94BB0E7A
:104BB0008CE692E10E94BB0E82E892E10E94BB0E5D
:104BC00088E992E10E94BB0E8EEA92E10E94BB0E40
:104BD00084EC92E10E94BB0E8AED92E10E94BB0E32
:104BE00080EF92E10E94BB0E86E093E10E94BB0E33
:104BF0008CE193E10E94BB0E82E393E10E94B30E2D
:104C000088E393E162CE8F929F92AF92BF92FF9220
:104C10000F931F93CF93DF93CDB7DEB72C970FB6CB
:104C2000F894DEBF0FBECDBF80918E13811163C19A
:104C300080918D1381115FC18AE30E9499068935A5
:104C4000924074F083E090E00E944C0F84E090E08A
:104C50000E944C0F68E572E080E090E00E94D90667
:104C600001E010E0FF24F3940E94760A60935C1345
:104C700089E30E94990690933F1380933E13092E77
:104C8000000CAA0BBB0B40912002509121026091B5
:104C9000220270912302481759076A077B0790F098
:104CA0008091731381110EC050E040E06FEF81E0FE
:104CB00090E00E94E90F41E050E06CE887E090E06E
:104CC0000E94E90F80913E1390913F13092E000C32
:104CD000AA0BBB0B4091200250912102609122024D
:104CE00070912302481759076A077B0740F481E057
:104CF00090E00E94E20F87E090E00E94E20F809136
:104D00005C1390E0B0E0A0E0409142135091431357
:104D1000609144137091451384179507A607B70750
:104D200008F440C08091731381113CC083E090E08F
:104D30000E94E20F81E090E00E94E20F87E090E0A5
:104D40000E94E20F88E090E00E94E20F6AE070E0CB
:104D500080E090E00E94D906F092731360915C139A
:104D600070E086E493E10E94201660915C13CE010E
:104D700007960E948E1569E176E0CE0101960E94A9
:104D80006E16BE01695F7F4FCE0101960E94F71437
:104D90000E946F10CE0101960E94B30ECE010796BD
:104DA0000E94B30E80915C1390E0B0E0A0E04091CF
:104DB000421350914313609144137091451384172B
:104DC0009507A607B70758F480917313811107C0A0
:104DD00050E040E06FEF83E090E00E94E90F6091C7
:104DE0005C1370E090E080E00E945F4C4B015C013E
:104DF0006091421370914313809144139091451335
:104E00000E945D4C26E636E646E65FE30E94BE4C15
:104E10009B01AC01C501B4010E94584C18165CF00E
:104E200080917313811107C050E040E06FEF88E07C
:104E300090E00E94E90F60915C1370E090E080E0E8
:104E40000E945F4C4B015C016091421370914313CF
:104E500080914413909145130E945D4C23E333E30A
:104E600043E75FE30E94BE4C9B01AC01C501B40166
:104E70000E94874E87FD04C088E090E00E94E20F08
:104E80000130110509F047C041E050E06FEF82E0CA
:104E900090E00E94E90F8FE090E00E944C0F84E0C8
:104EA00090E00A30110509F047C00E94E20F64E665
:104EB00070E080E090E00E94D9060F5F1F4F05313F
:104EC000110509F0D1CE81E090E00E94E20F83E06D
:104ED00090E00E94E20F87E090E00E94E20F88E0FD
:104EE00090E00E94E20F82E090E00E94E20F85E0F5
:104EF00090E00E94E20F2C960FB6F894DEBF0FBE32
:104F0000CDBFDF91CF911F910F91FF90BF90AF90D8
:104F10009F908F9008950230110539F48FE090E052
:104F20000E945E0F81E090E0B8CF0330110561F47C
:104F30008FE090E00E944C0F0F301105C1F48EE01D
:104F400090E00E944C0FB3CF04301105F1F481E1E1
:104F500090E00E944C0F8FE30E949906C3973CF4A7
:104F600050E040E06FEF85E090E00E94E90F0031F3
:104F7000110509F581E190E00E945E0F82E090E06A
:104F80000E945E0F82E090E090CF0930110509F099
:104F900086CF82E090E00E944C0F50E040E064EB4E
:104FA00084E090E00E94E90F0331110509F07FCF02
:104FB00083E090E0C6CF01311105B1F783E090E0C6
:104FC0000E945E0F74CF8F929F92AF92BF92DF923A
:104FD000EF92FF920F931F93CF93DF93CDB7DEB77E
:104FE0002C970FB6F894DEBF0FBECDBF80918E1305
:104FF000811196C080918D13811192C081E08093C0
:10500000731301E010E0DD24D394083011050CF493
:1050100099C00E94760A60935C138DE30E94990602
:105020007C0190939A0A8093990A89E30E949906D9
:1050300090933F1380933E13A701FF0C660B770BF1
:1050400080901C0290901D02A0901E02B0901F0242
:10505000481559056A057B0508F47FC08CE090E08F
:105060000E945E0F8AE090E00E945E0F609118023D
:105070007091190280911A0290911B020E94D90628
:1050800084E090E00E94E20F83E090E00E94E20F53
:1050900081E090E00E94E20F87E090E00E94E20F42
:1050A00088E090E00E94E20F82E090E00E94E20F30
:1050B00082E090E00E945E0F87E396E00E943C0F42
:1050C000C8010E947E118FEE98E00E943C0F8091F3
:1050D000990A90919A0A0E94881181E08093980A17
:1050E00081E090E00E94E20F83E090E00E94E20FF6
:1050F00087E090E00E94E20F88E090E00E94E20FDB
:1051000084E090E00E94E20F82E090E00E94E20FD3
:105110008091980A813021F482E190E00E944C0F46
:105120002C960FB6F894DEBF0FBECDBFDF91CF91A6
:105130001F910F91FF90EF90DF90BF90AF909F90E5
:105140008F9008950730110509F467CF62E870E089
:1051500080E090E00E94D90660CF092E000CAA0BD7
:10516000BB0B40912002509121026091220270916C
:105170002302481759076A077B0790F08091731341
:1051800081110EC050E040E06FEF81E090E00E949E
:10519000E90F41E050E06CE887E090E00E94E90F01
:1051A00080913E1390913F13092E000CAA0BBB0B6C
:1051B00040912002509121026091220270912302BD
:1051C000481759076A077B0740F481E090E00E9486
:1051D000E20F87E090E00E94E20F80915C1390E084
:1051E000B0E0A0E04091421350914313609144130A
:1051F0007091451384179507A607B707E8F18091CA
:105200007313811139C008301105B4F183E090E0C7
:105210000E94E20F81E090E00E94E20F87E090E0C0
:105220000E94E20F88E090E00E94E20FD092731398
:1052300060915C13CE0107960E948E1562E576E0C0
:10524000CE0101960E946E16BE01695F7F4FCE01AE
:1052500001960E94F7140E946F10CE0101960E94E1
:10526000B30ECE0107960E94B30E60915C1370E0FE
:1052700086E493E10E94201680915C1390E0B0E0F8
:10528000A0E04091421350914313609144137091F8
:10529000451384179507A607B70770F48091731319
:1052A00081110AC0083011053CF050E040E06FEF7A
:1052B00083E090E00E94E90F60915C1370E090E061
:1052C00080E00E945F4C4B015C0160914213709141
:1052D000431380914413909145130E945D4C26E640
:1052E00036E646E65FE30E94BE4C9B01AC01C50179
:1052F000B4010E94584C87FF15C08091731381112F
:1053000011C00830110574F050E040E06FEF88E004
:1053100090E00E94E90F41E050E06CE887E090E007
:105320000E94E90F60915C1370E090E080E00E94C1
:105330005F4C4B015C01609142137091431380916B
:105340004413909145130E945D4C23E333E343E7FC
:105350005FE30E94BE4C9B01AC01C501B4010E94F9
:10536000874E87FD17C008301105A4F088E090E053
:105370000E94E20F87E090E00E94E20F03301105E7
:1053800009F06EC041E050E06FEF82E090E00E94D3
:10539000E90F5EC00130110509F052C083E090E0D2
:1053A0000E944C0F84E090E00E944C0F87E090E058
:1053B0000E945E0F41E050E06FEF84E090E00E94B9
:1053C000E90F8AE090E00E944C0F8CE090E00E9490
:1053D0004C0F0A301105E1F581E090E00E944C0F7E
:1053E00082E090E00E945E0F0233110509F047C091
:1053F00081E090E00E94E20F83E090E00E94E20FE3
:1054000087E090E00E94E20F88E090E00E94E20FC7
:1054100084E090E00E94E20F82E090E00E94E20FC0
:1054200084E896E00E943E0F0E946F0F81E0809317
:105430008E1325E040E060E08FEF0E940A0E50CE10
:105440000230110509F09ACF82E090E00E944C0FE3
:1054500082E090E00D30110551F40E944C0F0FC016
:105460000430110579F482E090E00E945E0F0F3065
:10547000110509F06AC081E090E00E945E0F0F5FA5
:105480001F4FC3CD0730110509F0A3CF82E090E094
:105490000E944C0F1092731382E00E943E0A063164
:1054A000110509F0A1CF89EEE82E83E0F82E8DE3F7
:1054B0000E94990690939A0A8093990A092E000CEB
:1054C000AA0BBB0B40911C0250911D0260911E0261
:1054D00070911F0284179507A607B707E8F18CE0C3
:1054E00090E00E945E0F8AE090E00E945E0F609163
:1054F00018027091190280911A0290911B020E9469
:10550000D90684E090E00E94E20F83E090E00E94E0
:10551000E20F81E090E00E94E20F87E090E00E94BD
:10552000E20F88E090E00E94E20F82E090E00E94AB
:10553000E20F82E090E00E945E0FD092980A809184
:10554000980A813009F09BCFCBCD0431110509F0C9
:10555000A6CF81E090E081CF81E0E81AF10839F42C
:1055600081E796E00E943E0FD0928E13E8CF61E073
:1055700070E080E090E00E94D90699CF8F929F92D0
:10558000AF92BF92CF92DF92EF92FF920F931F9351
:10559000CF93DF93CDB7DEB7A6970FB6F894DEBFF3
:1055A0000FBECDBF8C016B01FC01128A138A148AD5
:1055B000158A5C01FCE0AF0EB11C6FE872E0C5011A
:1055C0000E942B1562EA76E0CE0101960E946E16CB
:1055D000B801CE0101960E94F7146DEA78E00E94AE
:1055E000E114B8016A5F7F4F0E94F71467EA76E022
:1055F0000E94E114BC0189E494E10E945F03CE01A2
:1056000001960E94B30E0E9426040E9426040E9466
:10561000260486E990E0A0E0B0E080934D149093DA
:105620004E14A0934F14B0935014CE0101964C0128
:10563000F12CE12C0E94180797FD0AC0F401819318
:105640004F01FFEFEF1AFF0A20E2E216F10491F793
:10565000E1E0F0E0EC0FFD1FEE0DFF1D8FE892E0A2
:105660008083BE016F5F7F4FCE0181960E946E16D0
:10567000BE016F5D7F4FC5010E945414CE0181961B
:105680000E94B30E64E173E0CE0181960E946E1613
:10569000BE016F5D7F4FC5010E943914F82ECE0107
:1056A00081960E94B30EFF20E1F0F80140895189F4
:1056B000D801529690E080E001968417950740F457
:1056C000F80124853585F901E80FF91F232B21F412
:1056D0001092080AE8E0FAE020812D9384309105C9
:1056E00059F7F80142895389648975894230510517
:1056F00061057105E4F481E0452B462B472B09F445
:1057000080E0F601808381E0A6960FB6F894DEBFB4
:105710000FBECDBFDF91CF911F910F91FF90EF9002
:10572000DF90CF90BF90AF909F908F9008950E9490
:105730000C076B017C018CEA96E00E943C0F0E94F2
:105740000C076C197D098E099F09683E734081051D
:10575000910568F489E494E10E949703892B79F319
:1057600089E494E10E9475030E947E11E8CF80E0F5
:10577000CBCF8091EE0A9091EF0AA091F00AB09100
:10578000F10A85369105A105B10549F46CEE7AE080
:1057900080E991E10E94BE2A8091EC0A0895863644
:1057A0009105A105B10549F468ED7AE080E390E147
:1057B0000E94BE2A8091D80A089587369105A105D6
:1057C000B10549F46AEB7AE080E79DE00E94BE2AC9
:1057D0008091BA0A089580E00895CF92DF92EF9207
:1057E000FF92CF93DF930E940C076093140A70938B
:1057F000150A8093160A9093170A80918E138111CF
:1058000060C080918D1381115CC0809173138111F0
:1058100058C0CAEFD0E00E94760AF62E60935C135F
:105820006EE773E086EE94E10E942B048F2D0E94B8
:10583000E71389E30E94990690933F1380933E13E8
:1058400080915C1390E0B0E0A0E040914213509151
:105850004313609144137091451384179507A6076D
:10586000B70708F458C083E090E00E94E20F81E09F
:1058700090E00E94E20F87E090E00E94E20F88E053
:1058800090E00E94E20F84E090E00E94E20F81E04D
:105890008093731360915C1370E086E493E10E943F
:1058A000201681E090E00E94E20F83E090E00E94E9
:1058B000E20F87E090E00E94E20F88E090E00E9413
:1058C000E20F0E940C07C090140AD090150AE090D5
:1058D000160AF090170A9B01AC012C193D094E09DC
:1058E0005F0969017A01C092100AD092110AE09210
:1058F000120AF092130A6BE473E086EE94E10E94C0
:105900002B04C701B601DF91CF91FF90EF90DF909C
:10591000CF900C946A1180917313811107C050E0ED
:1059200040E06FEF83E090E00E94E90F60915C132C
:1059300070E090E080E00E945F4C6B017C01609120
:1059400042137091431380914413909145130E9428
:105950005D4C23E333E343E75FE30E94BE4C9B01CE
:10596000AC01C701B6010E94874E87FD08C088E0E0
:1059700090E00E94E20F87E090E00E94E20F6091C9
:105980005C1370E090E080E00E945F4C6B017C0152
:105990006091421370914313809144139091451389
:1059A0000E945D4C23E333E343E75FE30E94BE4C78
:1059B0009B01AC01C701B6010E94584C87FF12C081
:1059C0008091731381110EC050E040E06FEF88E0CA
:1059D00090E00E94E90F41E050E06CE887E090E041
:1059E0000E94E90F80913E1390913F13092E000C05
:1059F000AA0BBB0B40912002509121026091220220
:105A000070912302481759076A077B0790F080912D
:105A1000731381110EC050E040E06FEF81E090E021
:105A20000E94E90F41E050E06CE887E090E00E94BE
:105A3000E90F80913E1390913F13092E000CAA0BA1
:105A4000BB0B409120025091210260912202709183
:105A50002302481759076A077B0740F481E090E06A
:105A60000E94E20F87E090E00E94E20F219791F4FC
:105A700082E693E00E94801081E080938E1325E0FF
:105A800040E060E08FEF0E940A0E0E94870E0E94A5
:105A90006F0F07CF6CEE7AE080E991E10E94BE2A99
:105AA0008091EC0A882309F4B6CE81E080938D13AF
:105AB0002AE040E060E08FEF0E940A0E80E991E169
:105AC0000E94CF15EECE8F929F92AF92BF92CF924F
:105AD000DF92EF92FF920F931F93CF93DF93CDB797
