:100000000C9460010C9491010C9491010C94910159
:100010000C9491010C9491010C9491010C94910118
:100020000C9491010C9491010C9491010C94910108
:100030000C9491010C9491010C9491010C949101F8
:100040000C9491010C9491010C9491010C949101E8
:100050000C9491010C9491010C9491010C94133126
:100060000C9491010C94E9300C94BF300C949101E4
:100070000C9491010C9491010C9491010C949101B8
:100080000C9491010C9491010C9491010C949101A8
:100090000C9495300C946B300C9491010C945D3160
:1000A0000C9491010C9491010C9491010C94910188
:1000B0000C9491010C9491010C9491010C94910178
:1000C0000C9491010C9491010C9491010C94910168
:1000D0000C9491010C9491010C9441300C941730C4
:1000E0000C9491010C9431050C94BB030C94A30364
:1000F0000C949F030C94A9030C9463050C94920335
:100100000C9418050C94C9040C9442020C94B70387
:100110000C94D1040C9496030C94B1030C944505F3
:100120000C94C9030C94D6040C947D320C944F05A6
:100130000C943B050C94C4030C9456020C94E004FC
:100140000C9499030C9433020C948A030C94B0021F
:100150000C94AA320C94EA040C948E030C940405BB
:100160000C94BF030C941D030C94E6010C94AD0396
:100170000C9422050C940E050C9484030C94F40446
:100180000C94C5030C94FC040C9464020C94590563
:100190002E76616C002E006765742000000021003F
:1001A000240027002A002D00300033000101000048
:1001B000040107010A0100002200250028002B008D
:1001C0002E003100340002010000050108010B017E
:1001D000000020002300260029002C002F00320000
:1001E00000010000030106010901050505050705D9
:1001F00008080808020202020A0A080804040404A3
:1002000001010101010101010303030303030303CE
:10021000040707070C0C0C0C0C0C0C0C020202025D
:1002200006060606060606060B0B0B0B0B0B0B0B46
:1002300001021020200808102040102040800201F8
:1002400002010804020101020408102040808040DD
:1002500020100804020180040201804020100804DC
:10026000020108040201010204081020408001027A
:1002700004081020408000000A0B02090C0D0E0833
:10028000070304010000000000000000000000005F
:10029000000000000000000000000000000000005E
:1002A000000012111000000000000000000000001B
:1002B000000000000000000000000000AA327D32B3
:1002C00011241FBECFEFD1E2DEBFCDBF00E00CBFD7
:1002D00019E0A0E0B2E0E4EDF6E700E00BBF02C0F9
:1002E00007900D92A439B107D9F725E1A4E9B9E047
:1002F00001C01D92A735B207E1F711E0CFE5D1E0CB
:1003000000E006C021970109802FFE010E94EF380E
:10031000CE35D10780E00807A9F70E94E3330C949B
:10032000583B0C940000CF93DF93EC019A01AB0192
:10033000E889F98982E08083211581EE380741053B
:10034000510581F160E079E08DE390E00E949A37F9
:1003500021503109410951095695479537952795FF
:10036000EC85FD851082EE85FF852083188EEC8953
:10037000FD8986E08083EA89FB89808180618083B2
:10038000EA89FB89808188608083EA89FB89808192
:1003900080688083EA89FB8980818F7D8083DF91FB
:1003A000CF910895E889F989108220E1D9CFE2E858
:1003B000F2E1DC012D913D914C91219331934193D8
:1003C000B2E1EE3BFB07A9F708950895AF92BF9203
:1003D000CF92DF92EF92FF920F931F93CF93DF9311
:1003E0006C017B018B01040F151FEB015E01AE1840
:1003F000BF08C017D10759F06991D601ED91FC9162
:100400000190F081E02DC6011995892B79F7C5017E
:10041000DF91CF911F910F91FF90EF90DF90CF90E0
:10042000BF90AF900895FB01448155816081718137
:100430000C94E601FC01A089B1898C91A689B78949
:1004400082FD0FC09C91818D8F5F8F73228D8217EB
:1004500049F0A18DAE0FBF2FB11D5D969C93818F8A
:1004600008958C910895FC01538D448D252F30E023
:10047000842F90E0821B930B541710F0CF960895B1
:1004800001970895FC01918D828D981761F0A28DDE
:10049000AE0FBF2FB11D5D968C91928D9F5F9F73A4
:1004A000928F90E008958FEF9FEF0895FC01918D5A
:1004B000828D981731F0828DE80FF11D858D90E0C7
:1004C00008958FEF9FEF0895FC01918D228D892F64
:1004D00090E0805C9F4F821B91098F73992708954C
:1004E0008AE393E10E94640221E0892B09F420E071
:1004F000822F089587ED93E10E94640221E0892B09
:1005000009F420E0822F089584E794E10E946402B8
:1005100021E0892B09F420E0822F0895FC01A48DAD
:10052000A80FB92FB11DA35ABF4F2C91848D90E015
:1005300001968F739927848FA689B7892C93A089F8
:10054000B1898C91837080648C93938D848D981382
:1005500006C00288F389E02D80818F7D8083089515
:10056000EF92FF920F931F93CF93DF93EC0181E003
:10057000888F9B8D8C8D98131AC0E889F9898081AA
:1005800085FF15C09FB7F894EE89FF896083E889DD
:10059000F98980818370806480839FBF81E090E0CF
:1005A000DF91CF911F910F91FF90EF900895F62E5C
:1005B0000B8D10E00F5F1F4F0F731127E02E8C8DF6
:1005C0008E110CC00FB607FCFACFE889F98980813B
:1005D00085FFF5CFCE010E948E02F1CFEB8DEC0F9F
:1005E000FD2FF11DE35AFF4FF0829FB7F8940B8F58
:1005F000EA89FB8980818062CFCF6FEF8AE393E144
:100600000C94B0020F931F93CF93DF938C01D0E033
:10061000C0E0F801EC0FFD1F6491662341F08AE30E
:1006200093E10E94B002892B11F02196F2CFCE0106
:10063000DF91CF911F910F910895CF93DF93EC013C
:10064000888D8823B9F0AA89BB89E889F9898C91BA
:1006500085FD03C0808186FD0DC00FB607FCF7CF76
:100660008C9185FFF2CF808185FFEDCFCE010E9476
:100670008E02E9CFDF91CF91089580E090E0892B41
:1006800029F00E94840281110E94000080E090E025
:10069000892B29F00E947A0281110E94000080E0DB
:1006A00090E0892B49F080E090E0892B29F00E94AE
:1006B000000081110E94000080E090E0892B29F069
:1006C0000E94700281110C940000089581508231C3
:1006D00008F05AC0E82FF0E08827EE58FC4F8F4F03
:1006E0000C94EF389203960384038A038E03C403A9
:1006F00099039F03A303A903AD03B103B703BB038E
:10070000C403BF03C503C903809180008F77809322
:1007100080000895809180008F7DF9CF80918000C6
:10072000877FF5CF84B58F7784BD089584B58F7D9D
:10073000FBCF8091B0008F778093B00008958091B7
:10074000B0008F7DF9CF809190008F7780939000DB
:100750000895809190008F7DF9CF80919000877FE0
:10076000F5CF8091A0008F778093A00008958091AD
:10077000A0008F7DF9CF8091A000877FF5CF809179
:1007800020018F77809320010895809120018F7D33
:10079000F9CF80912001877FF5CFCF93DF93E6EAF1
:1007A000F2E08491E0E6F2E0D491EAE1F2E0C49173
:1007B000CC23A1F081110E946603EC2FF0E0EE0F34
:1007C000FF1FE053FE4FA591B491EC91ED2381E022
:1007D00090E009F480E0DF91CF91089580E090E00F
:1007E000FACF1F93CF93DF93282F30E0F901EA5817
:1007F000FD4F8491F901E05DFD4FD491F901E6517F
:10080000FE4FC491CC23A9F0162F81110E946603DC
:10081000EC2FF0E0EE0FFF1FEA54FE4FA591B491CC
:100820008FB7F894EC91111108C0D095DE23DC93BA
:100830008FBFDF91CF911F910895DE2BF8CFCF921C
:10084000DF92EF92FF92CF930E94CD030197E1F7E1
:1008500061E080E30E94F10360E085E30E94F10320
:100860000E94CD03892BE1F7C8E1C12CD12C760180
:1008700061E085E30E94F103CC0CDD1CEE1CFF1C43
:1008800060E085E30E94F1030E94CD03892B29F0EB
:100890002FEFC21AD20AE20AF20AC15049F761E008
:1008A00085E30E94F10360E085E30E94F103C70144
:1008B000B6018058CF91FF90EF90DF90CF900895D0
:1008C000CF93DF9390E0FC01E05DFD4F24918651D2
:1008D0009E4FFC0184918823D1F090E0880F991FEE
:1008E000FC01E456FE4FA591B491FC01EA54FE4F81
:1008F000C591D49161110EC09FB7F8948C91E22FED
:10090000E0958E238C932881E223E8839FBFDF91BB
:10091000CF9108958FB7F894EC91E22BEC938FBFB1
:10092000F6CF1F93CF93DF93182FEB0161E00E9466
:100930006004209739F460E0812FDF91CF911F91FF
:100940000C94F103CF3FD10511F461E0F5CFE12F15
:10095000F0E0EA58FD4FE491E150E23108F0B3C015
:10096000F0E08827E954FB4F8F4F0C94EF38C9040F
:10097000D104D604E004EA046305F404FC0404058D
:100980000E051805220531053B05630545054F0594
:10099000590584B5806884BDC7BDDF91CF911F9193
:1009A000089584B5806284BDC8BDF7CF8091800072
:1009B000806880938000D0938900C0938800EDCF39
:1009C00080918000806280938000D0938B00C093E0
:1009D0008A00E3CF80918000886080938000D0936C
:1009E0008D00C0938C00D9CF8091B0008068809337
:1009F000B000C093B300D1CF8091B00080628093EB
:100A0000B000C093B400C9CF8091900080688093FB
:100A10009000D0939900C0939800BFCF8091900030
:100A2000806280939000D0939B00C0939A00B5CFD2
:100A300080919000886080939000D0939D00C09337
:100A40009C00ABCF8091A00080688093A000809133
:100A5000A0008F7B8093A000D093A900C093A80032
:100A60009CCF8091A00080628093A000D093AB00C7
:100A7000C093AA0092CF8091A00088608093A000CC
:100A8000D093AD00C093AC0088CF809120018068E6
:100A900080932001D0932901C09328017ECF8091BB
:100AA0002001806280932001D0932B01C0932A0102
:100AB00074CF80912001886080932001D0932D0114
:100AC000C0932C016ACFC038D1050CF03ECF33CF94
:100AD000865320917B00982F987F277F922B9093AD
:100AE0007B008770806480937C0080917A008064B2
:100AF00080937A0080917A0086FDFCCF8091780007
:100B00009091790008953FB7F8948091EB09909106
:100B1000EC09A091ED09B091EE0926B5A89B05C09E
:100B20002F3F19F00196A11DB11D3FBFBA2FA92F6C
:100B3000982F8827BC01CD01620F711D811D911D69
:100B400042E0660F771F881F991F4A95D1F70895D5
:100B50008F929F92AF92BF92CF92DF92EF92FF92CD
:100B60006B017C010E9483054B015C01C114D1041F
:100B7000E104F104B9F00E948305681979098A0932
:100B80009B09683E73408105910580F321E0C21AFC
:100B9000D108E108F10888EE880E83E0981EA11CB8
:100BA000B11CE4CFFF90EF90DF90CF90BF90AF905B
:100BB0009F908F9008952FB7F8946091E7097091F6
:100BC000E8098091E9099091EA092FBF08950F93F0
:100BD0001F93CF93DF93EC010E94DB056887798731
:100BE0008A879B87CE010E94420297FF15C00E9410
:100BF000DB05088519852A853B85601B710B820BF7
:100C0000930B0C811D812E813F8160177107820734
:100C1000930740F38FEF9FEFDF91CF911F910F91DB
:100C20000895CF92DF92EF92FF920F931F93CF938D
:100C3000DF93C09111158091141590911515A09115
:100C40001615B0911715892B8A2B8B2BD9F00E9482
:100C5000830500913613109137132091381330918A
:100C60003913601B710B820B930B009114151091BB
:100C70001515209116153091171560177107820709
:100C80009307C8F20E94830560933613709337135D
:100C90008093381390933913E0911C15F0911D1532
:100CA000309751F0409118155091191560911A150F
:100CB00070911B158C2F19958091341390913513D9
:100CC000EC012196D0933513C09334134997E4F186
:100CD0000E94DB05009130131091311320913213E3
:100CE000309133136B017C01C01AD10AE20AF30A76
:100CF000A7019601211531054105510521F421E097
:100D000030E040E050E088EE93E0C89FB001C99F1A
:100D1000700DD89F700D1124072E000C880B990BB5
:100D20000E949A37309313152093121510923513A1
:100D3000109234130E94DB056093301370933113CB
:100D40008093321390933313DF91CF911F910F91C2
:100D5000FF90EF90DF90CF9008951F93CF93DF9394
:100D6000C1E0C093A209882399F1D091B8001091F5
:100D7000BA008091BC008A7B8093BC0060E084E173
:100D80000E94F10360E085E10E94F10310920613D6
:100D9000C09305131092E01261E084E10E94F10318
:100DA00061E085E10E94F1038091B9008E7F80931C
:100DB000B9008091B9008D7F8093B90088E4809359
:100DC000B80085E48093BC001093BA00D093B800BB
:100DD000DF91CF911F910895CF92DF92EF92FF9212
:100DE0000F931F93CF93DF93EA01DC0111968D914E
:100DF0009C91DC01ED91FC910280F381E02D19952D
:100E0000C817D90709F0AAC0D0912F1391E0D132A9
:100E100008F09CC0C0912E130E9483056B017C01D9
:100E20008091061381116CC082E08093061381E0EB
:100E3000809305138FEF8093041310920313D093C4
:100E40000213AEE0B3E1E2EEF2E180E0D81390C02D
:100E50001092E1128091E112CC0FC82BC093E112E5
:100E60008091E012813009F087C01092E0120E9458
:100E700083056B017C018091E1128093BB0080911E
:100E8000081390910913A0910A13B0910B13892BA9
:100E90008A2B8B2BA1F00E948305009108131091DF
:100EA000091320910A1330910B136C197D098E09D7
:100EB0009F09061717072807390708F442C08091D1
:100EC000BC0083FDD8CF85EC8093BC000E948305D5
:100ED0006B017C0180910613823009F44FC0809130
:100EE000041390E08F3F91F18091041392E08032DF
:100EF00069F18091041394E0803341F593E026C0BA
:100F00008091081390910913A0910A13B0910B13CB
:100F1000892B8A2B8B2B09F483CF0E9483050091A8
:100F200008131091091320910A1330910B136C19B7
:100F30007D098E099F09061717072807390708F04A
:100F40006FCF809107130E94AD0695E010920D13AC
:100F500010922F1310920C1381E0911180E0DF9119
:100F6000CF911F910F91FF90EF90DF90CF90089558
:100F70009D9191938F5F6ACF85EEA6CF80910813E4
:100F800090910913A0910A13B0910B13892B8A2B0E
:100F90008B2B09F49FCF0E948305009108131091B9
:100FA000091320910A1330910B136C197D098E09D6
:100FB0009F09061717072807390708F08BCFC1CFFD
:100FC0002091C309260F3327331F21323105ECF45A
:100FD00020910613FC0190E080E0243069F082E06B
:100FE0000895A091C3092191AC014D55564FA40F0E
:100FF000B52FB11D2C930196861798F38091C309E4
:10100000680F6093C30980E0089581E00895089512
:10101000E091BF128091BE12E81730F4F0E0E05486
:10102000FD4E808190E008958FEF9FEF089590919D
:10103000BF128091BE122FEF3FEF981748F4E92FAF
:10104000F0E0E054FD4E208130E09F5F9093BF12AE
:10105000C90108958091BE129091BF12891B990B0E
:101060000895CF92DF92EF92FF920F931F93CF9349
:10107000DF937C01CB018A0120910C13222389F09C
:10108000EB016B01C40ED51ECC15DD0569F069912D
:10109000D701ED91FC910190F081E02DC7011995E8
:1010A000F3CF642F0E94E007C801DF91CF911F9119
:1010B0000F91FF90EF90DF90CF900895CF93DF9343
:1010C0001F92CDB7DEB7698320910C132223F9F06C
:1010D00020912F13203258F021E030E0FC013383BF
:1010E000228390E080E00F90DF91CF91089580916E
:1010F0000D13E82FF0E0E25FFC4E998190838F5F43
:1011000080930D1380932F1381E090E0ECCF61E08A
:10111000CE0101960E94E007F7CF90E080E00895AD
:10112000CF92DF92EF92FF9260919E0970919F099A
:101130008091A0099091A1090E949B386B017C01CC
:101140000E941F046C197D098E099F090E945E365A
:101150002DEC3CEC4CE251E40E9429386B017C01FF
:1011600020E030E0A9010E94D13887FD0AC0C70104
:10117000B6010E949B38CB01FF90EF90DF90CF909B
:10118000089590E080E0F8CFCF93DF9300D0CDB703
:10119000DEB719821A821B82CE0101960E94D70106
:1011A0000E9411060F900F900F90DF91CF9108953C
:1011B000CF93DF9300D0CDB7DEB769838A834B83AB
:1011C000CE0101960E94D7010E9411060F900F9048
:1011D0000F90DF91CF910895BF92CF92DF92EF925F
:1011E000FF920F931F93CF93DF9300D0CDB7DEB75D
:1011F000C82EB62ED42EE22E19821A821B82CE0160
:1012000001960E94D7010E94110610E000E0F12C27
:101210000E151F050CF5B982CA82DB82CE0101963C
:101220000E94D7010E94110664E670E080E090E021
:101230000E94A80519821A821B82CE0101960E9483
:10124000D7010E94110664E670E080E090E00E9401
:10125000A8050F5F1F4FDCCF0F900F900F90DF910D
:10126000CF911F910F91FF90EF90DF90CF90BF90A3
:1012700008951092F5091092F2091092F609089556
:10128000CF93DF93C0E2D2E060E089910E94F10346
:1012900082E0C932D807C1F7DF91CF910895BC0130
:1012A0008AE393E10E9413020E94FD020E94FD0264
:1012B0000C94FD02CF93DF93EC0188819981009714
:1012C00011F00E94A739198218821D821C821B828C
:1012D0001A82DF91CF910895FC018081918100975E
:1012E00011F00C94A7390895CF93DF93EC010C967D
:1012F0000E946C09CE0106960E946C09CE01DF9116
:10130000CF910C946C09CF93DF9300D0CDB7DEB7AB
:1013100019828A836B8380914E1590914F15FC0141
:10132000248135812330310588F0208131E03093EC
:101330000C1320932E1310920D1310922F1343E0D1
:1013400050E0BE016F5F7F4F0E94EC060F900F9040
:101350000F90DF91CF9108953F924F925F926F92DD
:101360007F928F929F92AF92BF92CF92DF92EF9235
:10137000FF920F931F93CF93DF931F921F92CDB7CE
:10138000DEB719828A8380914E1590914F15DC014A
:1013900014962D913C9115972230310588F02C91AF
:1013A00031E030930C1320932E1310920D131092F2
:1013B0002F1342E050E0BE016F5F7F4F0E94EC06AA
:1013C000E0904E15F0904F15DD24D394AA24AA94F2
:1013D00085EEC82E95ECB92E01E0F7018481958148
:1013E000892B09F400E0802E912CD7013C900E94BB
:1013F00083052B013C0180910613811164C0102FDD
:10140000D092061300930513A092041310920313B5
:101410008FEF800F80930213D092E1128091E1123E
:10142000330C382A3092E1128091E012813009F0B9
:101430008CC01092E0120E9483052B013C01809128
:10144000E1128093BB008091081390910913A09141
:101450000A13B0910B13892B8A2B8B2BA1F00E94BE
:101460008305209108133091091340910A1350917C
:101470000B1364197509860997092617370748075A
:10148000590708F441C08091BC0083FDD8CFB092C9
:10149000BC000E9483052B013C0180910613813022
:1014A00009F456C080910313801710F410910313B0
:1014B000E2EEF2E1A0ECB2E180E0811751F191910E
:1014C0009D938F5FFACF8091081390910913A0919B
:1014D0000A13B0910B13892B8A2B8B2B09F48BCF1A
:1014E0000E948305209108133091091340910A133B
:1014F00050910B1364197509860997092617370748
:101500004807590708F077CF809107130E94AD066E
:1015100010E01092BF121093BE12012F10E00815B8
:101520001905D9F590E080E08017910798F5F7014B
:1015300081819281DC01ED91FC910284F385E02DA3
:101540001995898381E090E0EFCFC092BC00A1CFD4
:101550008091081390910913A0910A13B0910B1375
:10156000892B8A2B8B2B09F498CF0E94830520911D
:1015700008133091091340910A1350910B13641909
:10158000750986099709261737074807590708F08C
:1015900084CFBACF012B09F41FCF89810F900F9010
:1015A000DF91CF911F910F91FF90EF90DF90CF903F
:1015B000BF90AF909F908F907F906F905F904F9073
:1015C0003F900895CF938DE490E00E94AC0980FF96
:1015D000FACF61E088E190E00E9483098FE490E017
:1015E0000E94AC0982FFFACF82E690E00E94AC092B
:1015F000C82F67E085E190E00E9483098C2FCF918E
:101600000895CF92DF92EF92FF92CF93DF93C82F8E
:10161000C12CD12C7601D0E00E941F04C60ED71E2B
:10162000E81EF91EDF5FCD13F7CF2C2F30E050E01E
:1016300040E0C701B6010E947B37CA01B9010E9490
:101640005E3660939E0970939F098093A0099093E2
:10165000A109DF91CF91FF90EF90DF90CF90089597
:10166000FC0101900020E9F73197AF01481B590BAD
:10167000BC0184E794E10C94E6018F929F92AF92B3
:10168000BF920F931F93CF93DF93CDB7DEB7A19790
:101690000FB6F894DEBF0FBECDBF19A2423008F4DA
:1016A0004AE08E010F5D1F4F842E912CB12CA12C8E
:1016B000A50194010E949A37E62FB901CA01EA30C8
:1016C000F4F4E05DD801EE938D01232B242B252B20
:1016D00079F790E080E0109719F0CD010E94300B6F
:1016E000A1960FB6F894DEBF0FBECDBFDF91CF91AC
:1016F0001F910F91BF90AF909F908F900895E95CDC
:10170000E1CFCF92DF92EF92FF92CF93DF936C0104
:10171000990FEE08FF08F7FE19C06DE284E794E127
:101720000E94B002EC0166277727CB016C197D0976
:101730008E099F094AE00E943D0B8C0F9D1FDF918F
:10174000CF91FF90EF90DF90CF9008954AE0C701CE
:10175000B601DF91CF91FF90EF90DF90CF900C9486
:101760003D0B0C94300BCF93DF930E94300BEC01B8
:101770008FE492E00E94300B8C0F9D1FDF91CF9180
:101780000895CF93DF93EC01FC01E85DFD4F61E02C
:1017900080810E94F103639719F481E08093980996
:1017A000DF91CF910895CF93DF93EC01FC01E85DC9
:1017B000FD4F60E080810E94F103639711F4109265
:1017C0009809DF91CF910895CF93DF93C1E0D0E0E6
:1017D000CE010E94D30B2196C531D105C9F7DF9107
:1017E000CF910895CF93DF938091F509811156C071
:1017F0008091F209811152C083E190E00E94D30BE5
:1018000082E090E00E94D30B83E090E00E94D30B33
:1018100084E090E00E94D30B68EC70E080E090E000
:101820000E94A8058DE090E00E94C10BC5EFD1E0B9
:1018300088E30E946805843F9140D4F464E670E038
:1018400080E090E00E94A80582E190E00E94D30B26
:1018500064E670E080E090E00E94A80583E090E0FC
:101860000E94C10B84E090E0DF91CF910C94C10BFA
:10187000219769F481E08093F5090E9440090E9454
:10188000E40B82E592E0DF91CF910C94B30B61E021
:1018900070E080E090E00E94A805CACFDF91CF9170
:1018A0000895815E9D4F60E0FC0180810C94F103FE
:1018B0001F93CF93DF93C62FD0E00197FC01E05E2A
:1018C000FD4F10818630910538F4642F865E9D4F60
:1018D000FC0180810E94F103BE01812FDF91CF9135
:1018E0001F910C949104CF93DF93BC0184E794E1A2
:1018F0000E941302EC018FE492E00E94300B8C0FE7
:101900009D1FDF91CF910895CF93DF930E94810BAC
:10191000EC018FE492E00E94300B8C0F9D1FDF9151
:10192000CF9108950F931F93CF93DF938091F50983
:101930008111C3C08091F2098111BFC050E040E025
:101940006FEF85E090E00E94580CC1E0D0E002E328
:1019500010E08DE30E9468059093F1098093F009EF
:1019600082E892E00E94B10B8091F0099091F10918
:101970000E94840C8091F0099091F1098B3F9105B0
:10198000A4F5609100027091010280910202909191
:1019900003020E94A8058FE090E00E94D30B82E032
:1019A00090E00E94510C64E670E080E090E00E94BC
:1019B000A8058EE090E00E94D30B60E971E080E022
:1019C00090E00E94A80585E090E00E94C10B60E9CC
:1019D00071E080E090E00E94A80585E090E0DF9152
:1019E000CF911F910F910C94510CCA3FD105E9F191
:1019F000CE01B8010E94DB38892B71F588E090E0B8
:101A00000E94C10B82E090E00E94510C81E090E0C6
:101A10000E94D30B68EC70E080E090E00E94A80583
:101A200088E090E00E94D30B83E090E00E94D30B0B
:101A300068EC70E080E090E00E94A80583E090E010
:101A40000E94C10B64E670E080E090E00E94A8056F
:101A500081E090E00E94C10B41E050E062E882E04A
:101A600090E00E94580C219674CF89E090E00E948B
:101A7000D30B82E090E00E94510C68EC70E080E0B3
:101A800090E00E94A80589E090E00E94C10B8EE0E2
:101A900090E00E94D30B68EE73E080E090E00E943B
:101AA000A8058FE090E00E94D30B81E08093F509B8
:101AB00089E992E00E94B30B90CFDF91CF911F9103
:101AC0000F910895CF93DF93682F70E090E080E04E
:101AD0004AE00E943D0BEC018FE492E00E94300B43
:101AE0008C0F9D1FDF91CF910895CF93DF93FC0161
:101AF000448155814115510599F0EC018081918116
:101B00004150510955834483BC016F5F7F4F0E9450
:101B10002F3BE881F9818C819D81E80FF91F1082AC
:101B2000DF91CF910895CF93DF93FC01248135811C
:101B30004217530788F4C081D181FB016081718114
:101B4000CE01840F951F0E943E3B009729F08C1B0D
:101B50009D0BDF91CF9108958FEF9FEFFACFFB019F
:101B600044815581FC01248135812417350778F0A3
:101B700080819181009759F0FB016081718161152D
:101B8000710529F00E94213B21E0892B09F020E01A
:101B9000822F08950F931F93CF93DF938C01EB0156
:101BA000FC01808191810097E1F068817981611564
:101BB0007105A9F0428153812C813D814217530761
:101BC00070F00E941A3B8C819D81F801958384837B
:101BD0001D821C82DF91CF911F910F9108950E9469
:101BE000A73988819981F801918380838A819B81BB
:101BF000938382838C819D8195838483198218824B
:101C00001B821A82E5CF0F931F93CF93DF93EC01D2
:101C100088819981009759F02A813B8126173707DF
:101C200030F081E0DF91CF911F910F9108958B01EA
:101C30006F5F7F4F0E94303A009759F099838883F5
:101C40001B830A832C813D81232B59F7FC011082D1
:101C5000E8CF80E0E7CFEF92FF920F931F93CF93EF
:101C6000DF936115710541F480E0DF91CF911F9101
:101C70000F91FF90EF90089541155105B1F07B0150
:101C8000EC010C811D81040F151FB8010E94030E89
:101C9000882351F3288139818C819D81B701820F7E
:101CA000931F0E941A3B1D830C8381E0DECFCF93EC
:101CB000DF93EC01FB0101900020E9F73197AF01C0
:101CC000461B570B0E942B0E811103C0CE010E94B0
:101CD0005A09CE01DF91CF910895CF93DF93EC01A4
:101CE000FB0144815581608171810E942B0E81111D
:101CF00003C0CE010E945A09CE01DF91CF91089511
:101D0000EF92FF920F931F93CF93DF93EC017B0130
:101D10008A01BA010E94030E81110BC0CE010E94FC
:101D20005A09CE01DF91CF911F910F91FF90EF9053
:101D300008951D830C83B701888199810E941A3B05
:101D4000F0CFFB0101900020E9F73197AF01461B6E
:101D5000570B0C94800E0F931F93CF93DF93CDB747
:101D6000DEB7A1970FB6F894DEBF0FBECDBF8C01D2
:101D7000CB01BA01F80111821082138212821582FE
:101D800014822AE0AE014F5F5F4F0E940B36BE0106
:101D90006F5F7F4FC8010E94A10EA1960FB6F89405
:101DA000DEBF0FBECDBFDF91CF911F910F91089580
:101DB0000F931F93CF93DF93CDB7DEB762970FB624
:101DC000F894DEBF0FBECDBF8C01CB01F8011182AC
:101DD000108213821282158214824AE0BE016F5F64
:101DE0007F4F0E940036BE016F5F7F4FC8010E9487
:101DF000A10E62960FB6F894DEBF0FBECDBFDF9185
:101E0000CF911F910F9108950F931F93CF93DF935D
:101E100000D000D000D0CDB7DEB78C01862FF801FE
:101E20001182108213821282158214824AE0BE014E
:101E30006F5F7F4F90E00E942D36BE016F5F7F4F36
:101E4000C8010E94A10E29960FB6F894DEBF0FBEFE
:101E5000CDBFDF91CF911F910F910895FB01DC0160
:101E600011961C921E9213961C921E921297159612
:101E70001C921E9214978617970749F06081718112
:101E80006115710521F0448155810C94800E0895EF
:101E90000F931F93CF93DF93CDB7DEB72C970FB679
:101EA000F894DEBF0FBECDBF8C0140E050E0BA0118
:101EB000CE0101960E94AB0EB801CE0107960E949A
:101EC0002E0F6DEA72E0CE0107960E94570EB80100
:101ED0006A5F7F4F0E946D0E6FEA72E00E94570E9C
:101EE000BE016F5F7F4F0E946D0EBC018AE393E1DC
:101EF0000E941302CE0107960E946C09CE01019642
:101F00000E946C090E94FD020E94FD020E94FD02D7
:101F10002C960FB6F894DEBF0FBECDBFDF91CF91E8
:101F20001F910F9108950F931F93CF93DF93CDB718
:101F3000DEB72C970FB6F894DEBF0FBECDBF8C0175
:101F4000CE0107960E94D80EB801CE0101960E94DC
:101F50002E0F6DEA72E0CE0101960E94570EB80175
:101F60006A5F7F4F0E946D0E6FEA72E00E94570E0B
:101F7000BE01695F7F4F0E946D0EBC018AE393E151
:101F80000E941302CE0101960E946C09CE010796B1
:101F90000E946C090E94FD020E94FD020E94FD0247
:101FA0002C960FB6F894DEBF0FBECDBFDF91CF9158
:101FB0001F910F910895FC011182108213821282E9
:101FC00015821482FB0101900020E9F73197AF01DF
:101FD000461B570B0C94800EAF92BF92CF92DF92AC
:101FE000EF92FF920F931F93CF93DF936C015B01EE
:101FF0007A0189012417350720F48F2D7901042FE8
:10200000182F61E572E0C6010E94DB0FD50114961E
:10201000CD91DC91EC16FD06E0F40C171D0708F4D9
:10202000E801D501ED91FC911197EC0FFD1F108196
:1020300010826D917C916E0D7F1DC6016115710539
:10204000A1F00E94A10EF50180819181C80FD91FD6
:102050001883C601DF91CF911F910F91FF90EF90F0
:10206000DF90CF90BF90AF9008950E945A09EBCFB8
:10207000CF92DF92EF92FF920F931F93CF93DF9354
:102080001F921F92CDB7DEB78C016B01E42E61E584
:1020900072E00E94DB0FC6010E94E7050E2C000CC7
:1020A000FF0897FD11C0E816F90671F089831A82BE
:1020B00041E050E0BE016F5F7F4FC8010E942B0ED0
:1020C000C6010E94E705EDCFC8010F900F90DF9188
:1020D000CF911F910F91FF90EF90DF90CF900895D7
:1020E0006F927F928F929F92AF92BF92CF92DF9228
:1020F000EF92FF920F931F93CF93DF93CDB7DEB78D
:10210000A6970FB6F894DEBF0FBECDBF8C013B0182
:10211000FC01128A138A148A158A6C01FCE0CF0E26
:10212000D11C61E572E0C6010E94A10E87E991E031
:102130000E940203B8018AE393E10E94130285E939
:1021400091E00E940203B8016A5F7F4F8AE393E146
:102150000E94130280E991E00E9402030E94FD02A6
:102160000E94FD020E94FD0288EC90E0A0E0B0E039
:1021700080933E1390933F13A0934013B093411369
:10218000CE0101965C01F12CE12C4C018AE393E134
:102190000E94E70597FD0AC0F50181935F01FFEFFB
:1021A000EF1AFF0A20E2E216F10481F7F401EE0DC6
:1021B000FF1D81E592E08083B401CE0181960E94EB
:1021C000DB0FBE016F5D7F4FC6010E94CA0DCE01BD
:1021D00081960E946C0965EB72E0CE0181960E94A7
:1021E000DB0FBE016F5D7F4FC6010E94AF0DF82E61
:1021F000CE0181960E946C09FF20F1F1F80140891F
:102200005189D801529690E080E001968417950795
:1022100040F4F80124853585F901E80FF91F232BD7
:1022200021F410929409E4E9F9E020812D9384309F
:10223000910559F7F80182899389A489B589B7FD79
:102240003BC0F30180839183A283B38381E0A69690
:102250000FB6F894DEBF0FBECDBFDF91CF911F91B7
:102260000F91FF90EF90DF90CF90BF90AF909F9035
:102270008F907F906F9008950E94DB056B017C0129
:1022800087EB92E00E94B10B0E94DB056C197D097F
:102290008E099F09683E73408105910568F58AE3C0
:1022A00093E10E946402892B79F38AE393E10E940F
:1022B00042020E94810BE8CF0E94DB056B017C018A
:1022C0008CED92E00E94B10B0E94DB056C197D0938
:1022D0008E099F09683E73408105910568F48AE381
:1022E00093E10E946402892B79F38AE393E10E94CF
:1022F00042020E94810BE8CF80E0A9CF0F931F9389
:10230000CF93DF93EC018A010E942E0FB801CE011A
:1023100006960E942E0F2C9661E572E0CE010E9477
:10232000DB0F61E572E0CE01DF91CF911F910F913C
:102330000C94A10ECF93DF93CDB7DEB72C970FB6D9
:10234000F894DEBF0FBECDBF019711F00C944B1D6A
:1023500060E073E0CE0101960E94DB0F64E073E061
:10236000CE0107960E94DB0FAE014F5F5F4FBE01AB
:10237000695F7F4F8CE692E10E947E11CE01079645
:102380000E946C09CE0101960E946C096AE073E01C
:10239000CE0101960E94DB0F64E073E0CE01079648
:1023A0000E94DB0FAE014F5F5F4FBE01695F7F4F41
:1023B00086E592E10E947E11CE0107960E946C098B
:1023C000CE0101960E946C096EE073E0CE01019689
:1023D0000E94DB0F64E073E0CE0107960E94DB0FE2
:1023E000AE014F5F5F4FBE01695F7F4F80E492E1B6
:1023F0000E947E11CE0107960E946C09CE010196C3
:102400000E946C0962E173E0CE0101960E94DB0F2D
:1024100064E073E0CE0107960E94DB0FAE014F5FD0
:102420005F4FBE01695F7F4F8AE292E10E947E1199
:10243000CE0107960E946C09CE0101960E946C099C
:1024400066E173E0CE0101960E94DB0F64E073E069
:10245000CE0107960E94DB0FAE014F5F5F4FBE01BA
:10246000695F7F4F84E192E10E947E11CE01079661
:102470000E946C09CE0101960E946C096AE173E02A
:10248000CE0101960E94DB0F64E073E0CE01079657
:102490000E94DB0FAE014F5F5F4FBE01695F7F4F50
:1024A0008EEF91E10E947E11CE0107960E946C0989
:1024B000CE0101960E946C096EE173E0CE01019697
:1024C0000E94DB0F64E073E0CE0107960E94DB0FF1
:1024D000AE014F5F5F4FBE01695F7F4F88EE91E1B4
:1024E0000E947E11CE0107960E946C09CE010196D2
:1024F0000E946C0962E273E0CE0101960E94DB0F3C
:1025000064E073E0CE0107960E94DB0FAE014F5FDF
:102510005F4FBE01695F7F4F82ED91E10E947E11A6
:10252000CE0107960E946C09CE0101960E946C09AB
:1025300066E273E0CE0101960E94DB0F64E073E077
:10254000CE0107960E94DB0FAE014F5F5F4FBE01C9
:10255000695F7F4F8CEB91E10E947E11CE0107965F
:102560000E946C09CE0101960E946C096AE273E038
:10257000CE0101960E94DB0F64E073E0CE01079666
:102580000E94DB0FAE014F5F5F4FBE01695F7F4F5F
:1025900086EA91E10E947E11CE0107960E946C09A5
:1025A000CE0101960E946C0960E373E0CE010196B2
:1025B0000E94DB0F64E073E0CE0107960E94DB0F00
:1025C000AE014F5F5F4FBE01695F7F4F80E991E1D0
:1025D0000E947E11CE0107960E946C09CE010196E1
:1025E0000E946C096CE373E0CE0101960E94DB0F40
:1025F00064E073E0CE0107960E94DB0FAE014F5FEF
:102600005F4FBE01695F7F4F8AE791E10E947E11B3
:10261000CE0107960E946C09CE0101960E946C09BA
:1026200062E473E0CE0101960E94DB0F64E073E088
:10263000CE0107960E94DB0FAE014F5F5F4FBE01D8
:10264000695F7F4F84E691E10E947E11CE0107967B
:102650000E946C09CE0101960E946C096BE473E044
:10266000CE0101960E94DB0F64E073E0CE01079675
:102670000E94DB0FAE014F5F5F4FBE01695F7F4F6E
:102680008EE491E10E947E11CE0107960E946C09B2
:10269000CE0101960E946C0962E573E0CE010196BD
:1026A0000E94DB0F64E073E0CE0107960E94DB0F0F
:1026B000AE014F5F5F4FBE01695F7F4F88E391E1DD
:1026C0000E947E11CE0107960E946C09CE010196F0
:1026D0000E946C096AE573E0CE0101960E94DB0F4F
:1026E00064E073E0CE0107960E94DB0FAE014F5FFE
:1026F0005F4FBE01695F7F4F82E291E10E947E11D0
:10270000CE0107960E946C09CE0101960E946C09C9
:1027100064E673E0CE0101960E94DB0F64E073E093
:10272000CE0107960E94DB0FAE014F5F5F4FBE01E7
:10273000695F7F4F8CE091E10E947E11CE01079688
:102740000E946C09CE0101960E946C096CE673E050
:10275000CE0101960E94DB0F64E073E0CE01079684
:102760000E94DB0FAE014F5F5F4FBE01695F7F4F7D
:1027700086EF90E10E947E11CE0107960E946C09BF
:10278000CE0101960E946C0963E773E0CE010196C9
:102790000E94DB0F64E073E0CE0107960E94DB0F1E
:1027A000AE014F5F5F4FBE01695F7F4F80EE90E1EA
:1027B0000E947E11CE0107960E946C09CE010196FF
:1027C0000E946C096BE773E0CE0101960E94DB0F5B
:1027D00063E873E0CE0107960E94DB0FAE014F5F06
:1027E0005F4FBE01695F7F4F8AEC90E10E947E11CE
:1027F000CE0107960E946C09CE0101960E946C09D9
:1028000068E873E0CE0101960E94DB0F63E873E095
:10281000CE0107960E94DB0FAE014F5F5F4FBE01F6
:10282000695F7F4F84EB90E10E947E11CE01079695
:102830000E946C09CE0101960E946C096FE873E05A
:10284000CE0101960E94DB0F6BE973E0CE01079683
:102850000E94DB0FAE014F5F5F4FBE01695F7F4F8C
:102860008EE990E10E947E11CE0107960E946C09CC
:10287000CE0101960E946C096FE973E0CE010196CA
:102880000E94DB0F6BE973E0CE0107960E94DB0F1D
:10289000AE014F5F5F4FBE01695F7F4F88E890E1F7
:1028A0000E947E11CE0107960E946C09CE0101960E
:1028B0000E946C096BEA73E0CE0101960E94DB0F67
:1028C0006BE973E0CE0107960E94DB0FAE014F5F0C
:1028D0005F4FBE01695F7F4F82E790E10E947E11EA
:1028E000CE0107960E946C09CE0101960E946C09E8
:1028F00067EB73E0CE0101960E94DB0F6BE973E09A
:10290000CE0107960E94DB0FAE014F5F5F4FBE0105
:10291000695F7F4F8CE590E10E947E11CE010796A2
:102920000E946C09CE0101960E946C0963EC73E071
:10293000CE0101960E94DB0F6BE973E0CE01079692
:102940000E94DB0FAE014F5F5F4FBE01695F7F4F9B
:1029500086E490E10E947E11CE0107960E946C09E8
:10296000CE0101960E946C0962ED73E0CE010196E2
:102970000E94DB0F6BE973E0CE0107960E94DB0F2C
:10298000AE014F5F5F4FBE01695F7F4F80E390E113
:102990000E947E11CE0107960E946C09CE0101961D
:1029A0000E946C096DED73E0CE0101960E94DB0F71
:1029B0006BE973E0CE0107960E94DB0FAE014F5F1B
:1029C0005F4FBE01695F7F4F8AE190E10E947E11F7
:1029D000CE0107960E946C09CE0101960E946C09F7
:1029E00068EE73E0CE0101960E94DB0F6BE973E0A5
:1029F000CE0107960E94DB0FAE014F5F5F4FBE0115
:102A0000695F7F4F84E090E10E947E11CE010796BE
:102A10000E946C09CE0101960E946C0963EF73E07D
:102A2000CE0101960E94DB0F6BE973E0CE010796A1
:102A30000E94DB0FAE014F5F5F4FBE01695F7F4FAA
:102A40008EEE9FE00E947E11CE0107960E946C09D7
:102A5000CE0101960E946C096EEF73E0CE010196E3
:102A60000E94DB0F6BE973E0CE0107960E94DB0F3B
:102A7000AE014F5F5F4FBE01695F7F4F88ED9FE002
:102A80000E947E11CE0107960E946C09CE0101962C
:102A90000E946C0969E074E0CE0101960E94DB0F90
:102AA0006BE973E0CE0107960E94DB0FAE014F5F2A
:102AB0005F4FBE01695F7F4F82EC9FE00E947E11F5
:102AC000CE0107960E946C09CE0101960E946C0906
:102AD00064E174E0CE0101960E94DB0F6BE973E0C4
:102AE000CE0107960E94DB0FAE014F5F5F4FBE0124
:102AF000695F7F4F8CEA9FE00E947E11CE010796AE
:102B00000E946C09CE0101960E946C096FE174E08D
:102B1000CE0101960E94DB0F6BE973E0CE010796B0
:102B20000E94DB0FAE014F5F5F4FBE01695F7F4FB9
:102B300086E99FE00E947E11CE0107960E946C09F3
:102B4000CE0101960E946C096AE274E0CE01019602
:102B50000E94DB0F6BE973E0CE0107960E94DB0F4A
:102B6000AE014F5F5F4FBE01695F7F4F80E89FE01E
:102B70000E947E11CE0107960E946C09CE0101963B
:102B80000E946C0965E374E0CE0101960E94DB0FA0
:102B90006BE973E0CE0107960E94DB0FAE014F5F39
:102BA0005F4FBE01695F7F4F8AE69FE00E947E1102
:102BB000CE0107960E946C09CE0101960E946C0915
:102BC00068E873E0CE0101960E94DB0F6BE973E0C9
:102BD000CE0107960E94DB0FAE014F5F5F4FBE0133
:102BE000695F7F4F84E59FE00E947E11CE010796CA
:102BF0000E946C09CE0101960E946C0960E474E0A9
:102C0000CE0101960E94DB0F6BE973E0CE010796BF
:102C10000E94DB0FAE014F5F5F4FBE01695F7F4FC8
:102C20008EE39FE00E947E11CE0107960E946C0900
:102C3000CE0101960E946C096AE474E0CE0101960F
:102C40000E94DB0F6BE973E0CE0107960E94DB0F59
:102C5000AE014F5F5F4FBE01695F7F4F88E29FE02B
:102C60000E947E11CE0107960E946C09CE0101964A
:102C70000E946C0965E574E0CE0101960E94DB0FAD
:102C80006BE973E0CE0107960E94DB0FAE014F5F48
:102C90005F4FBE01695F7F4F82E19FE00E947E111E
:102CA000CE0107960E946C09CE0101960E946C0924
:102CB0006CE574E0CE0101960E94DB0F60E674E0E3
:102CC000CE0107960E94DB0FAE014F5F5F4FBE0142
:102CD000695F7F4F8CEF9EE00E947E11CE010796C8
:102CE0000E946C09CE0101960E946C0965E674E0B1
:102CF000CE0101960E94DB0F60E674E0CE010796DC
:102D00000E94DB0FAE014F5F5F4FBE01695F7F4FD7
:102D100086EE9EE00E947E11CE0107960E946C090D
:102D2000CE0101960E946C0969E674E0CE0101961D
:102D30000E94DB0F60E674E0CE0107960E94DB0F75
:102D4000AE014F5F5F4FBE01695F7F4F80ED9EE038
:102D50000E947E11CE0107960E946C09CE01019659
:102D60000E946C096DE674E0CE0101960E94DB0FB3
:102D700060E674E0CE0107960E94DB0FAE014F5F64
:102D80005F4FBE01695F7F4F8AEB9EE00E947E111C
:102D9000CE0107960E946C09CE0101960E946C0933
:102DA00061E774E0CE0101960E94DB0F60E674E0FB
:102DB000CE0107960E94DB0FAE014F5F5F4FBE0151
:102DC000695F7F4F84EA9EE00E947E11CE010796E4
:102DD0000E946C09CE0101960E946C0965E774E0BF
:102DE000CE0101960E94DB0F60E674E0CE010796EB
:102DF0000E94DB0FAE014F5F5F4FBE01695F7F4FE7
:102E00008EE89EE00E947E11CE0107960E946C091A
:102E1000CE0101960E946C0969E774E0CE0101962B
:102E20000E94DB0F60E674E0CE0107960E94DB0F84
:102E3000AE014F5F5F4FBE01695F7F4F88E79EE045
:102E40000E947E11CE0107960E946C09CE01019668
:102E50000E946C096DE774E0CE0101960E94DB0FC1
:102E600060E674E0CE0107960E94DB0FAE014F5F73
:102E70005F4FBE01695F7F4F82E69EE00E947E1138
:102E8000CE0107960E946C09CE0101960E946C0942
:102E900061E874E0CE0101960E94DB0F60E674E009
:102EA000CE0107960E94DB0FAE014F5F5F4FBE0160
:102EB000695F7F4F8CE49EE00E947E11CE010796F1
:102EC0000E946C09CE0101960E946C0965E874E0CD
:102ED000CE0101960E94DB0F60E674E0CE010796FA
:102EE0000E94DB0FAE014F5F5F4FBE01695F7F4FF6
:102EF00086E39EE00E947E11CE0107960E946C0937
:102F0000CE0101960E946C096AE874E0CE01019638
:102F10000E94DB0F60E674E0CE0107960E94DB0F93
:102F2000AE014F5F5F4FBE01695F7F4F80E29EE061
:102F30000E947E11CE0107960E946C09CE01019677
:102F40000E946C096FE874E0CE0101960E94DB0FCD
:102F500060E674E0CE0107960E94DB0FAE014F5F82
:102F60005F4FBE01695F7F4F8AE09EE00E947E1145
:102F7000CE0107960E946C09CE0101960E946C0951
:102F800064E974E0CE0101960E94DB0F60E674E014
:102F9000CE0107960E94DB0FAE014F5F5F4FBE016F
:102FA000695F7F4F84EF9DE00E947E11CE010796FE
:102FB0000E946C09CE0101960E946C0969E974E0D7
:102FC000CE0101960E94DB0F60E674E0CE01079609
:102FD0000E94DB0FAE014F5F5F4FBE01695F7F4F05
:102FE0008EED9DE00E947E11CE0107960E946C0935
:102FF000CE0101960E946C096EE974E0CE01019643
:103000000E94DB0F60E674E0CE0107960E94DB0FA2
:10301000AE014F5F5F4FBE01695F7F4F88EC9DE05F
:103020000E947E11CE0107960E946C09CE01019686
:103030000E946C0963EA74E0CE0101960E94DB0FE6
:1030400060E674E0CE0107960E94DB0FAE014F5F91
:103050005F4FBE01695F7F4F82EB9DE00E947E1152
:10306000CE0107960E946C09CE0101960E946C0960
:1030700068EA74E0CE0101960E94DB0F60E674E01E
:10308000CE0107960E94DB0FAE014F5F5F4FBE017E
:10309000695F7F4F8CE99DE00E947E11CE0107960B
:1030A0000E946C09CE0101960E946C096DEA74E0E1
:1030B000CE0101960E94DB0F60E674E0CE01079618
:1030C0000E94DB0FAE014F5F5F4FBE01695F7F4F14
:1030D00086E89DE00E947E11CE0107960E946C0951
:1030E000CE0101960E946C0962EB74E0CE0101965C
:1030F0000E94DB0F60E674E0CE0107960E94DB0FB2
:10310000AE014F5F5F4FBE01695F7F4F80E79DE07B
:103110000E947E11CE0107960E946C09CE01019695
:103120000E946C0967EB74E0CE0101960E94DB0FF0
:1031300060E674E0CE0107960E94DB0FAE014F5FA0
:103140005F4FBE01695F7F4F8AE59DE00E947E115F
:10315000CE0107960E946C09CE0101960E946C096F
:103160006CEB74E0CE0101960E94DB0F60E674E028
:10317000CE0107960E94DB0FAE014F5F5F4FBE018D
:10318000695F7F4F84E49DE00E947E11CE01079627
:103190000E946C09CE0101960E946C0961EC74E0FA
:1031A000CE0101960E94DB0F60E674E0CE01079627
:1031B0000E94DB0FAE014F5F5F4FBE01695F7F4F23
:1031C0008EE29DE00E947E11CE0107960E946C095E
:1031D000CE0101960E946C0966EC74E0CE01019666
:1031E0000E94DB0F60E674E0CE0107960E94DB0FC1
:1031F000AE014F5F5F4FBE01695F7F4F88E19DE089
:103200000E947E11CE0107960E946C09CE010196A4
:103210000E946C096BEC74E0CE0101960E94DB0FFA
:1032200060E674E0CE0107960E94DB0FAE014F5FAF
:103230005F4FBE01695F7F4F82E09DE00E947E117B
:10324000CE0107960E946C09CE0101960E946C097E
:1032500060ED74E0CE0101960E94DB0F60E674E041
:10326000CE0107960E94DB0FAE014F5F5F4FBE019C
:10327000695F7F4F8CEE9CE00E947E11CE01079625
:103280000E946C09CE0101960E946C0965ED74E004
:10329000CE0101960E94DB0F60E674E0CE01079636
:1032A0000E94DB0FAE014F5F5F4FBE01695F7F4F32
:1032B00086ED9CE00E947E11CE0107960E946C096B
:1032C000CE0101960E946C096AED74E0CE01019670
:1032D0000E94DB0F60E674E0CE0107960E94DB0FD0
:1032E000AE014F5F5F4FBE01695F7F4F80EC9CE096
:1032F0000E947E11CE0107960E946C09CE010196B4
:103300000E946C096FED74E0CE0101960E94DB0F04
:1033100060E674E0CE0107960E94DB0FAE014F5FBE
:103320005F4FBE01695F7F4F8AEA9CE00E947E1179
:10333000CE0107960E946C09CE0101960E946C098D
:1033400064EE74E0CE0101960E94DB0F60E674E04B
:10335000CE0107960E94DB0FAE014F5F5F4FBE01AB
:10336000695F7F4F84E99CE00E947E11CE01079641
:103370000E946C09CE0101960E946C0968E873E016
:10338000CE0101960E94DB0F60E674E0CE01079645
:103390000E94DB0FAE014F5F5F4FBE01695F7F4F41
:1033A0008EE79CE00E947E11CE0107960E946C0978
:1033B000CE0101960E946C0969EE74E0CE0101967F
:1033C0000E94DB0F62EF74E0CE0107960E94DB0FD4
:1033D000AE014F5F5F4FBE01695F7F4F88E69CE0A3
:1033E0000E947E11CE0107960E946C09CE010196C3
:1033F0000E946C0967EF74E0CE0101960E94DB0F1A
:1034000062EF74E0CE0107960E94DB0FAE014F5FC2
:103410005F4FBE01695F7F4F82E59CE00E947E1195
:10342000CE0107960E946C09CE0101960E946C099C
:1034300060E075E0CE0101960E94DB0F62EF74E060
:10344000CE0107960E94DB0FAE014F5F5F4FBE01BA
:10345000695F7F4F8CE39CE00E947E11CE0107964E
:103460000E946C09CE0101960E946C0969E075E02A
:10347000CE0101960E94DB0F62EF74E0CE01079649
:103480000E94DB0FAE014F5F5F4FBE01695F7F4F50
:1034900086E29CE00E947E11CE0107960E946C0994
:1034A000CE0101960E946C0962E175E0CE010196A1
:1034B0000E94DB0F62EF74E0CE0107960E94DB0FE3
:1034C000AE014F5F5F4FBE01695F7F4F80E19CE0BF
:1034D0000E947E11CE0107960E946C09CE010196D2
:1034E0000E946C096BE175E0CE0101960E94DB0F32
:1034F00062EF74E0CE0107960E94DB0FAE014F5FD2
:103500005F4FBE01695F7F4F8AEF9BE00E947E1193
:10351000CE0107960E946C09CE0101960E946C09AB
:1035200064E275E0CE0101960E94DB0F62EF74E069
:10353000CE0107960E94DB0FAE014F5F5F4FBE01C9
:10354000695F7F4F84EE9BE00E947E11CE0107965B
:103550000E946C09CE0101960E946C096DE275E033
:10356000CE0101960E94DB0F62EF74E0CE01079658
:103570000E94DB0FAE014F5F5F4FBE01695F7F4F5F
:103580008EEC9BE00E947E11CE0107960E946C0992
:10359000CE0101960E946C0966E375E0CE010196AA
:1035A0000E94DB0F62EF74E0CE0107960E94DB0FF2
:1035B000AE014F5F5F4FBE01695F7F4F88EB9BE0BD
:1035C0000E947E11CE0107960E946C09CE010196E1
:1035D0000E946C096FE375E0CE0101960E94DB0F3B
:1035E00062EF74E0CE0107960E94DB0FAE014F5FE1
:1035F0005F4FBE01695F7F4F82EA9BE00E947E11B0
:10360000CE0107960E946C09CE0101960E946C09BA
:1036100069E475E0CE0101960E94DB0F62EF74E071
:10362000CE0107960E94DB0FAE014F5F5F4FBE01D8
:10363000695F7F4F8CE89BE00E947E11CE01079668
:103640000E946C09CE0101960E946C0963E575E049
:10365000CE0101960E94DB0F62EF74E0CE01079667
:103660000E94DB0FAE014F5F5F4FBE01695F7F4F6E
:1036700086E79BE00E947E11CE0107960E946C09AE
:10368000CE0101960E946C096DE575E0CE010196B0
:103690000E94DB0F62EF74E0CE0107960E94DB0F01
:1036A000AE014F5F5F4FBE01695F7F4F80E69BE0D9
:1036B0000E947E11CE0107960E946C09CE010196F0
:1036C0000E946C0967E675E0CE0101960E94DB0F4F
:1036D00062EF74E0CE0107960E94DB0FAE014F5FF0
:1036E0005F4FBE01695F7F4F8AE49BE00E947E11BD
:1036F000CE0107960E946C09CE0101960E946C09CA
:1037000061E775E0CE0101960E94DB0F62EF74E085
:10371000CE0107960E94DB0FAE014F5F5F4FBE01E7
:10372000695F7F4F84E39BE00E947E11CE01079684
:103730000E946C09CE0101960E946C096BE775E04E
:10374000CE0101960E94DB0F62EF74E0CE01079676
:103750000E94DB0FAE014F5F5F4FBE01695F7F4F7D
:103760008EE19BE00E947E11CE0107960E946C09BB
:10377000CE0101960E946C0965E875E0CE010196C4
:103780000E94DB0F61E975E0CE0107960E94DB0F16
:10379000AE014F5F5F4FBE01695F7F4F88E09BE0E6
:1037A0000E947E11CE0107960E946C09CE010196FF
:1037B0000E946C0967E975E0CE0101960E94DB0F5B
:1037C00060EA75E0CE0107960E94DB0FAE014F5F05
:1037D0005F4FBE01695F7F4F82EF9AE00E947E11CA
:1037E000CE0107960E946C09CE0101960E946C09D9
:1037F00065EA75E0CE0101960E94DB0F60EA75E094
:10380000CE0107960E94DB0FAE014F5F5F4FBE01F6
:10381000695F7F4F8CED9AE00E947E11CE01079682
:103820000E946C09CE0101960E946C096EEA75E057
:10383000CE0101960E94DB0F60EA75E0CE0107968B
:103840000E94DB0FAE014F5F5F4FBE01695F7F4F8C
:1038500086EC9AE00E947E11CE0107960E946C09C8
:10386000CE0101960E946C0967EB75E0CE010196CE
:103870000E94DB0F60EA75E0CE0107960E94DB0F25
:10388000AE014F5F5F4FBE01695F7F4F80EB9AE0F3
:103890000E947E11CE0107960E946C09CE0101960E
:1038A0000E946C0960EC75E0CE0101960E94DB0F6E
:1038B00060EA75E0CE0107960E94DB0FAE014F5F14
:1038C0005F4FBE01695F7F4F8AE99AE00E947E11D7
:1038D000CE0107960E946C09CE0101960E946C09E8
:1038E00069EC75E0CE0101960E94DB0F60EA75E09D
:1038F000CE0107960E94DB0FAE014F5F5F4FBE0106
:10390000695F7F4F84E89AE00E947E11CE0107969E
:103910000E946C09CE0101960E946C096CE574E06E
:10392000CE0101960E94DB0F60EA75E0CE0107969A
:103930000E94DB0FAE014F5F5F4FBE01695F7F4F9B
:103940008EE69AE00E947E11CE0107960E946C09D5
:10395000CE0101960E946C0965E674E0CE010196E5
:103960000E94DB0F60EA75E0CE0107960E94DB0F34
:10397000AE014F5F5F4FBE01695F7F4F88E59AE000
:103980000E947E11CE0107960E946C09CE0101961D
:103990000E946C0969E674E0CE0101960E94DB0F7B
:1039A00060EA75E0CE0107960E94DB0FAE014F5F23
:1039B0005F4FBE01695F7F4F82E49AE00E947E11F3
:1039C000CE0107960E946C09CE0101960E946C09F7
:1039D0006DE674E0CE0101960E94DB0F60EA75E0AF
:1039E000CE0107960E94DB0FAE014F5F5F4FBE0115
:1039F000695F7F4F8CE29AE00E947E11CE010796AC
:103A00000E946C09CE0101960E946C0961E774E086
:103A1000CE0101960E94DB0F60EA75E0CE010796A9
:103A20000E94DB0FAE014F5F5F4FBE01695F7F4FAA
:103A300086E19AE00E947E11CE0107960E946C09F1
:103A4000CE0101960E946C0965E774E0CE010196F3
:103A50000E94DB0F60EA75E0CE0107960E94DB0F43
:103A6000AE014F5F5F4FBE01695F7F4F80E09AE01C
:103A70000E947E11CE0107960E946C09CE0101962C
:103A80000E946C092C960FB6F894DEBF0FBECDBF16
:103A9000DF91CF91089580E09AE00E94740986E159
:103AA0009AE00E9474098CE29AE00E94740982E410
:103AB0009AE00E94740988E59AE00E9474098EE6F3
:103AC0009AE00E94740984E89AE00E9474098AE9E5
:103AD0009AE00E94740980EB9AE00E94740986ECD7
:103AE0009AE00E9474098CED9AE00E94740982EFBA
:103AF0009AE00E94740988E09BE00E9474098EE1BC
:103B00009BE00E94740984E39BE00E9474098AE4AC
:103B10009BE00E94740980E69BE00E94740986E79E
:103B20009BE00E9474098CE89BE00E94740982EA81
:103B30009BE00E94740988EB9BE00E9474098EEC64
:103B40009BE00E94740984EE9BE00E9474098AEF56
:103B50009BE00E94740980E19CE00E94740986E267
:103B60009CE00E9474098CE39CE00E94740982E549
:103B70009CE00E94740988E69CE00E9474098EE72C
:103B80009CE00E94740984E99CE00E9474098AEA1E
:103B90009CE00E94740980EC9CE00E94740986ED10
:103BA0009CE00E9474098CEE9CE00E94740982E003
:103BB0009DE00E94740988E19DE00E9474098EE2F4
:103BC0009DE00E94740984E49DE00E9474098AE5E6
:103BD0009DE00E94740980E79DE00E94740986E8D8
:103BE0009DE00E9474098CE99DE00E94740982EBBB
:103BF0009DE00E94740988EC9DE00E9474098EED9E
:103C00009DE00E94740984EF9DE00E9474098AE09F
:103C10009EE00E94740980E29EE00E94740986E39F
:103C20009EE00E9474098CE49EE00E94740982E682
:103C30009EE00E94740988E79EE00E9474098EE865
:103C40009EE00E94740984EA9EE00E9474098AEB57
:103C50009EE00E94740980ED9EE00E94740986EE49
:103C60009EE00E9474098CEF9EE00E94740982E13C
:103C70009FE00E94740988E29FE00E9474098EE32D
:103C80009FE00E94740984E59FE00E9474098AE61F
:103C90009FE00E94740980E89FE00E94740986E911
:103CA0009FE00E9474098CEA9FE00E94740982ECF4
:103CB0009FE00E94740988ED9FE00E9474098EEED7
:103CC0009FE00E94740984E090E10E9474098AE1F7
:103CD00090E10E94740980E390E10E94740986E4F7
:103CE00090E10E9474098CE590E10E94740982E7DA
:103CF00090E10E94740988E890E10E9474098EE9BD
:103D000090E10E94740984EB90E10E9474098AECAE
:103D100090E10E94740980EE90E10E94740986EFA0
:103D200090E10E9474098CE091E10E94740982E2A2
:103D300091E10E94740988E391E10E9474098EE484
:103D400091E10E94740984E691E10E9474098AE776
:103D500091E10E94740980E991E10E94740986EA68
:103D600091E10E9474098CEB91E10E94740982ED4B
:103D700091E10E94740988EE91E10E9474098EEF2E
:103D800091E10E94740984E192E10E9474098AE23F
:103D900092E10E94740980E492E10E94740986E530
:103DA00092E10E9474098CE692E10E9474096ACE45
:103DB0002F923F924F925F927F928F929F92AF92FB
:103DC000BF92CF92DF92EF92FF920F931F93CF9308
:103DD000DF93CDB7DEB72C970FB6F894DEBF0FBEDA
:103DE000CDBF8091F5098111D3C18091F209811174
:103DF000CFC10E94900801E010E0F12CE12C772463
:103E000073940E94DB054B015C0193E0C92ED12C19
:103E10000E94900880939D0990E0B0E0A0E040915E
:103E2000F7095091F8096091F9097091FA0984171E
:103E30009507A607B707B0F08091F609811112C067
:103E400083E090E00E94510C81E090E00E94510CD0
:103E500087E090E00E94510C88E090E00E94510CB5
:103E60007092F60980919D0990E0B0E0A0E0409149
:103E7000F7095091F8096091F9097091FA098417CE
:103E80009507A607B70758F48091F609811107C076
:103E900050E040E06FEF83E090E00E94580C6091AA
:103EA0009D0970E090E080E00E945E361B012C01CD
:103EB0006091F7097091F8098091F9099091FA09D8
:103EC0000E945C3623E333E343E75FE30E94BD36A1
:103ED0009B01AC01C201B1010E94D13887FD04C031
:103EE00088E090E00E94510C60919D0970E090E0A4
:103EF00080E00E945E361B012C016091F7097091F1
:103F0000F8098091F9099091FA090E945C3626E639
:103F100036E646E65FE30E94BD369B01AC01C20176
:103F2000B1010E94573618165CF08091F609811194
:103F300007C050E040E06FEF88E090E00E94580C2E
:103F400081E0C81AD10809F063CF0E94DB05AB01FC
:103F5000BC01481959096A097B09CE0107960E94DC
:103F6000AB0E62ED75E0CE0101960E94DB0FBE0143
:103F7000695F7F4FCE0101960E946D0E0E94730C07
:103F8000CE0101960E946C09CE0107960E946C0931
:103F900089E30E94680590939C0980939B090E9485
:103FA000E20A90E090939A098093990980919B0985
:103FB00090919C09092E000CAA0BBB0B40910802A2
:103FC0005091090260910A0270910B02481759073B
:103FD0006A077B0790F08091F60981110EC050E0CE
:103FE00040E06FEF81E090E00E94580C41E050E02B
:103FF0006CE887E090E00E94580C80919B099091BA
:104000009C09092E000CAA0BBB0B40910802509191
:10401000090260910A0270910B02481759076A075A
:104020007B0740F481E090E00E94510C87E090E033
:104030000E94510C8FE30E9468058FE30E9468057F
:10404000C39724F085E090E00E94510C06301105E2
:104050000CF4B6C08091990990919A0949970CF097
:1040600001C181E08093F50923E040E060E08FEF3B
:104070000E94EC0881E090E00E94D30B82E090E087
:104080000E94D30B85E090E00E94D30B83E090E088
:104090000E94D30B84E090E00E94D30B8091F6093C
:1040A000813049F543E363E386E60E94D8086091D6
:1040B0009D0970E082E19FE00E94930F60919D094D
:1040C000CE0107960E94040F6BED75E0CE010196BC
:1040D0000E94DB0FBE01695F7F4FCE0101960E94F7
:1040E0006D0E0E94730CCE0101960E946C09CE01E8
:1040F00007960E946C0981E090E00E94510C83E0D9
:1041000090E00E94510C87E090E00E94510C88E002
:1041100090E00E94510C82E090E00E94510C85E0FA
:1041200090E00E94510C8091F609813049F543E3FB
:1041300063E386E60E94D80860919D0970E082E101
:104140009FE00E94930F60919D09CE0107960E9407
:10415000040F6BED75E0CE0101960E94DB0FBE01EE
:10416000695F7F4FCE0101960E946D0E0E94730C15
:10417000CE0101960E946C09CE0107960E946C093F
:104180008BEF95E00E94B30B81E592E00E94B30BA8
:104190002C960FB6F894DEBF0FBECDBFDF91CF9146
:1041A0001F910F91FF90EF90DF90CF90BF90AF9055
:1041B0009F908F907F905F904F903F902F900895A9
:1041C0000130110561F586E090E00E94D30B41E0DB
:1041D00050E066E982E090E00E94580C053011053D
:1041E00009F065C041E050E06FEF82E090E00E948E
:1041F000580C0B30110509F455C00D30110529F587
:1042000081E090E00E94D30B64E170E080E090E0F8
:104210000E94A80582E090E00E94510C5EC002302E
:10422000110501F58DE090E00E94D30B82E190E052
:104230000E94D30B0730110591F582E090E00E94B7
:10424000D30B81E090E00E94D30B0E30110509F0F2
:1042500044C083E090E00E94D30B84E090E00E9491
:10426000D30B49CF0330110571F48FE30E94680529
:1042700085369105FCF283E190E00E94C10BEE24AB
:10428000E394F12CD7CF0430110509F0A7CF81E0DA
:10429000E816F10421F483E190E00E94D30B08308A
:1042A000110599F481E090E00E94C10B16C0063020
:1042B000110509F0BFCFEA94EF2821F483E190E0E3
:1042C0000E94C10BF12CE12C98CF0A30110509F0A6
:1042D00090CF81E090E00E94D30B0F5F1F4F91CDF4
:1042E0000F931F93CF93DF93CDB7DEB72C970FB605
:1042F000F894DEBF0FBECDBF8091F509811149C092
:104300008091F209811145C010E000E00E94E20AAC
:10431000682F70E070939A0960939909CE0107960F
:104320000E94D80E66E276E0CE0101960E94DB0F75
:10433000BE01695F7F4FCE0101960E946D0E0E9403
:10434000730CCE0101960E946C09CE0107960E9463
:104350006C098091990990919A0949972CF182E012
:1043600090E00E94510C86E090E00E94C10B89E031
:1043700090E00E94D30B85E396E00E94B10B809100
:10438000990990919A090E94840C82E090E00E9421
:10439000C10B2C960FB6F894DEBF0FBECDBFDF91D8
:1043A000CF911F910F91089541E050E068EC82E0B9
:1043B00090E00E94580C6CE370E080E090E00E9476
:1043C000A80582E090E00E94510C60E570E080E07A
:1043D00090E00E94A8050F5F1F4F0932110509F0F8
:1043E00095CFD7CF8F929F92AF92BF92FF920F93AC
:1043F0001F93CF93DF93CDB7DEB72C970FB6F8940A
:10440000DEBF0FBECDBF8091F50981116CC18091D7
:10441000F209811168C18AE30E94680589359240DA
:1044200074F083E090E00E94C10B84E090E00E9471
:10443000C10B68E572E080E090E00E94A80501E011
:1044400010E0FF24F3940E94900880939D0989E373
:104450000E94680590939C0980939B09092E000C8B
:10446000AA0BBB0B409108025091090260910A020D
:1044700070910B02481759076A077B0790F08091EB
:10448000F60981110EC050E040E06FEF81E090E04E
:104490000E94580C41E050E06CE887E090E00E94F8
:1044A000580C80919B0990919C09092E000CAA0B35
:1044B000BB0B409108025091090260910A02709171
:1044C0000B02481759076A077B0740F481E090E028
:1044D0000E94510C87E090E00E94510C80919D0950
:1044E00090E0B0E0A0E04091F7095091F8096091A8
:1044F000F9097091FA0984179507A607B70708F418
:1045000045C08091F609811141C043E363E386E62B
:104510000E94D80883E090E00E94510C81E090E076
:104520000E94510C87E090E00E94510C88E090E0DE
:104530000E94510C6AE070E080E090E00E94A805C3
:10454000F092F60960919D0970E082E19FE00E947F
:10455000930F60919D09CE0107960E94040F69E4B4
:1045600076E0CE0101960E94DB0FBE01695F7F4FAE
:10457000CE0101960E946D0E0E94730CCE01019631
:104580000E946C09CE0107960E946C0980919D09DA
:1045900090E0B0E0A0E04091F7095091F8096091F7
:1045A000F9097091FA0984179507A607B70758F417
:1045B0008091F609811107C050E040E06FEF83E081
:1045C00090E00E94580C60919D0970E090E080E0BE
:1045D0000E945E364B015C016091F7097091F80909
:1045E0008091F9099091FA090E945C3626E636E638
:1045F00046E65FE30E94BD369B01AC01C501B401F4
:104600000E94573618165CF08091F609811107C098
:1046100050E040E06FEF88E090E00E94580C60911D
:104620009D0970E090E080E00E945E364B015C01E5
:104630006091F7097091F8098091F9099091FA0950
:104640000E945C3623E333E343E75FE30E94BD3619
:104650009B01AC01C501B4010E94D13887FD04C0A3
:1046600088E090E00E94510C0130110509F04BC028
:1046700041E050E06FEF82E090E00E94580C8FE044
:1046800090E00E94C10B84E090E00A30110509F02F
:104690004BC00E94510C64E670E080E090E00E9404
:1046A000A8050F5F1F4F0531110509F0CCCE81E041
:1046B00090E00E94510C83E090E00E94510C87E052
:1046C00090E00E94510C88E090E00E94510C82E042
:1046D00090E00E94510C85E090E00E94510C81E531
:1046E00092E00E94B30B2C960FB6F894DEBF0FBE7B
:1046F000CDBFDF91CF911F910F91FF90BF90AF90F1
:104700009F908F9008950230110539F48FE090E06A
:104710000E94D30B81E090E0B4CF0330110561F427
:104720008FE090E00E94C10B0F301105C1F48EE0C4
:1047300090E00E94C10BAFCF04301105F1F481E18C
:1047400090E00E94C10B8FE30E946805C3973CF480
:1047500050E040E06FEF85E090E00E94580C00319F
:10476000110509F581E190E00E94D30B82E090E011
:104770000E94D30B82E090E08CCF0930110509F044
:1047800082CF82E090E00E94C10B50E040E064EBF9
:1047900084E090E00E94580C0331110509F07BCFB2
:1047A00083E090E0C6CF01311105B1F783E090E0DE
:1047B0000E94D30B70CF8F929F92AF92BF92DF92E5
:1047C000EF92FF920F931F93CF93DF93CDB7DEB796
:1047D0002C970FB6F894DEBF0FBECDBF8091F509C0
:1047E0008111C0C08091F2098111BCC081E0809329
:1047F000F60901E010E0DD24D394083011050CF433
:10480000C3C00E94DB054B015C010E9490088093AD
:104810009D090E94DB05AB01BC01481959096A09D1
:104820007B09CE0107960E94AB0E67E676E0CE01CB
:1048300001960E94DB0FBE01695F7F4FCE0101969A
:104840000E946D0E0E94730CCE0101960E946C09AD
:10485000CE0107960E946C0988E796E00E94B10B92
:10486000C8010E94810B8DE30E9468059093F109B5
:104870008093F00982E892E00E94B10B8091F009E8
:104880009091F1090E94840C89E30E94680590933D
:104890009C0980939B094091F0095091F109052EE4
:1048A000000C660B770B8090100290901102A09084
:1048B0001202B0901302481559056A057B0508F4E9
:1048C0006EC08CE090E00E94D30B8AE090E00E94E2
:1048D000D30B6091040270910502809106029091C1
:1048E00007020E94A80584E090E00E94510C83E03A
:1048F00090E00E94510C81E090E00E94510C87E012
:1049000090E00E94510C88E090E00E94510C82E0FF
:1049100090E00E94510C82E090E00E94D30B81E075
:104920008093EF0981E090E00E94510C83E090E0D9
:104930000E94510C87E090E00E94510C88E090E0CA
:104940000E94510C84E090E00E94510C82E090E0C3
:104950000E94510C8091EF09813021F482E190E0B6
:104960000E94C10B2C960FB6F894DEBF0FBECDBFD0
:10497000DF91CF911F910F91FF90EF90DF90BF904B
:10498000AF909F908F9008950730110509F464CF80
:1049900064E670E080E090E00E94A8055DCF092EFB
:1049A000000CAA0BBB0B40910802509109026091C8
:1049B0000A0270910B02481759076A077B0790F0AB
:1049C0008091F60981110EC050E040E06FEF81E068
:1049D00090E00E94580C41E050E06CE887E090E0E5
:1049E0000E94580C80919B0990919C09092E000C03
:1049F000AA0BBB0B409108025091090260910A0278
:104A000070910B02481759076A077B0740F481E051
:104A100090E00E94510C87E090E00E94510C809140
:104A20009D0990E0B0E0A0E04091F7095091F809AD
:104A30006091F9097091FA0984179507A607B707DD
:104A400008F442C08091F60981113EC0083011057A
:104A5000DCF143E363E386E60E94D80883E090E05C
:104A60000E94510C81E090E00E94510C87E090E0A0
:104A70000E94510C88E090E00E94510CD092F609FF
:104A800060919D09CE0107960E94040F63E976E0CC
:104A9000CE0101960E94DB0FBE01695F7F4FCE0100
:104AA00001960E946D0E0E94730CCE0101960E9429
:104AB0006C09CE0107960E946C0960919D0970E017
:104AC00082E19FE00E94930F80919D0990E0B0E009
:104AD000A0E04091F7095091F8096091F9097091AF
:104AE000FA0984179507A607B70770F48091F609AD
:104AF00081110AC0083011053CF050E040E06FEF32
:104B000083E090E00E94580C60919D0970E090E075
:104B100080E00E945E364B015C016091F709709164
:104B2000F8098091F9099091FA090E945C3626E60D
:104B300036E646E65FE30E94BD369B01AC01C50147
:104B4000B4010E94573687FF15C08091F609811184
:104B500011C00830110574F050E040E06FEF88E0BC
:104B600090E00E94580C41E050E06CE887E090E053
:104B70000E94580C60919D0970E090E080E00E94D6
:104B80005E364B015C016091F7097091F8098091E4
:104B9000F9099091FA090E945C3623E333E343E775
:104BA0005FE30E94BD369B01AC01C501B4010E94C8
:104BB000D13887FD17C008301105A4F088E090E0D7
:104BC0000E94510C87E090E00E94510C03301105C7
:104BD00009F06EC041E050E06FEF82E090E00E948B
:104BE000580C5EC00130110509F052C083E090E01E
:104BF0000E94C10B84E090E00E94C10B87E090E02E
:104C00000E94D30B41E050E06FEF84E090E00E94FF
:104C1000580C8AE090E00E94C10B8CE090E00E946A
:104C2000C10B0A301105E1F581E090E00E94C10B53
:104C300082E090E00E94D30B0233110509F047C0D7
:104C400081E090E00E94510C83E090E00E94510CC2
:104C500087E090E00E94510C88E090E00E94510CA7
:104C600084E090E00E94510C82E090E00E94510CA0
:104C700085EC96E00E94B30B0E94E40B81E08093E8
:104C8000F50925E040E060E08FEF0E94EC084ACE95
:104C90000230110509F09ACF82E090E00E94C10B2A
:104CA00082E090E00D30110551F40E94C10B0FC05D
:104CB0000430110579F482E090E00E94D30B0F30AC
:104CC000110509F071C081E090E00E94D30B0F5FE5
:104CD0001F4F93CD0730110509F0A3CF82E090E07C
:104CE0000E94C10B1092F60982E00E94010B43E37F
:104CF00068E780E00E94D8080631110509F09CCFD2
:104D0000F12CE12C8DE30E9468059093F1098093CA
:104D1000F009092E000CAA0BBB0B40911002509118
:104D20001102609112027091130284179507A60771
:104D3000B70708F440C08CE090E00E94D30B8AE0F3
:104D400090E00E94D30B6091040270910502809163
:104D50000602909107020E94A80584E090E00E945C
:104D6000510C83E090E00E94510C81E090E00E94A1
:104D7000510C87E090E00E94510C88E090E00E9486
:104D8000510C82E090E00E94510C82E090E00E9481
:104D9000D30BD092EF09C7010E94840C8091EF09D8
:104DA000813009F094CFBECD0431110509F0A4CFB4
:104DB00081E090E07ACF88EEE81683E0F80639F4D7
:104DC00082EB96E00E94B30BD092F509E7CF61E049
:104DD00070E080E090E00E94A8058FEFE81AF80AE2
:104DE00091CF0F931F93CF93DF93CDB7DEB72C975F
:104DF0000FB6F894DEBF0FBECDBF8091F5098111CB
:104E00006AC08091F209811166C088E30E9468053A
:104E1000843F91400CF0E2C08DE090E00E94D30B03
:104E200082E190E00E94D30B8FE30E9468058536F3
:104E300091050CF4C1C080919809813051F483E14F
:104E400090E00E94D30B68E077E080E090E00E9461
:104E5000A80583E190E00E94C10B66E970E080E064
:104E600090E00E94A80583E190E00E94D30B6AEFD6
:104E700070E080E090E00E94A80583E190E00E944D
:104E8000C10B10E000E088E30E946805853F914077
:104E90006CF1B801CE0107960E94D80E63EE76E061
:104EA000CE0101960E94DB0FBE01695F7F4FCE01EC
:104EB00001960E946D0E0E94730CCE0101960E9415
:104EC0006C09CE0107960E946C0968EC70E080E0E6
:104ED00090E00E94A8052C960FB6F894DEBF0FBE96
:104EE000CDBFDF91CF911F910F910895043F81E0D5
:104EF000180709F058C08BEF96E00E94B30B81E0D1
:104F00008093F50940E060E08FEF0E94D80883E1CC
:104F100090E00E94D30B8DE090E00E94C10B68EE00
:104F200073E080E090E00E94A8058BE090E00E9492
:104F3000C10B64EF71E080E090E00E94A8058DE075
:104F400090E00E94D30B8BE090E00E94D30B64EFC3
:104F500071E080E090E00E94A8058DE090E00E9462
:104F6000C10B8BE090E00E94C10B64EF71E080E028
:104F700090E00E94A8058BE090E00E94D30B64EFC4
:104F800071E080E090E00E94A8058DE090E00E9432
:104F9000D30B4FEF6FEF8FEF0E94D8080E944009AC
:104FA0000E94E40B98CF61E070E080E090E00E9406
:104FB000A8050F5F1F4F67CF86E197E00E94B30BF4
:104FC00081E08093F5090E9440090E94E40B23E0F0
:104FD00040E060E08FEF0E94EC087DCF8FE297E029
:104FE0000E94B30B78CFAF92BF92CF92DF92EF9235
:104FF000FF920F931F93CF93DF93CDB7DEB7A497A4
:105000000FB6F894DEBF0FBECDBF8C0170E0CE01AD
:1050100007960E94D80E69E777E0CE0101960E94BC
:10502000DB0FB801CE0101960E946D0E64EB77E0B4
:105030000E94570EBE01695F7F4F0E946D0E60E5B2
:1050400072E00E94570EBC01CE014F960E942E0FB7
:10505000CE0101960E946C09CE0107960E946C0950
:10506000BE01615E7F4F87ED93E10E9413026BE307
:1050700077E0CE0101960E94DB0FBE01615E7F4F9B
:10508000CE0101960E946D0E0E94730CCE01019616
:105090000E946C090E94DB056B017C010E94DB050C
:1050A0006C197D098E099F09603D77408105910546
:1050B00008F0E5C061E572E0CE0143960E94DB0F87
:1050C00087ED93E10E946402892B09F4C0C14AE094
:1050D00067ED73E1CE0101960E943810BE016F5F4B
:1050E0007F4FCE0143960E94CA0DCE0101960E94C9
:1050F0006C096DE477E0CE0101960E94DB0FBE01E2
:105100006D5E7F4FCE0101960E946D0E0E94730C62
:10511000CE0101960E946C09BE016D5E7F4FCE01EB
:1051200049960E942E0F66E777E0CE0101960E9415
:10513000DB0FBE016F5F7F4FCE0149960E94AF0D1E
:10514000182FCE0101960E946C09112309F4C6C0E4
:1051500064EB77E0CE0101960E94DB0F50E040E067
:10516000BE016F5F7F4FCE0149960E94930D5C0197
:10517000CE0101960E946C0964EB77E0CE010196A6
:105180000E94DB0FA5014F5F5F4FBE016F5F7F4F36
:10519000CE0149960E94930D6C01CE0101960E94AA
:1051A0006C0976018FEFE81AF80A64EB77E0CE011C
:1051B00001960E94DB0FA701BE016F5F7F4FCE01FA
:1051C00049960E94930D8C01CE0101960E946C09B4
:1051D000AB20A09409F468C0CD20C09409F464C049
:1051E0000F3F100709F460C09801A701BE01675E78
:1051F0007F4FCE010D960E94EC0F2D8D3E8DA801A4
:105200004F5F5F4FBE01675E7F4FCE0107960E94E2
:10521000EC0F60E677E0CE0101960E94DB0FBE0145
:10522000635F7F4FCE0101960E946D0E64EB77E0C5
:105230000E94570EBE01695F7F4F0E946D0E0E9453
:10524000730CCE0101960E946C0966ED77E0CE01E9
:1052500001960E94DB0FCE0107960E946C09CE01D9
:105260000D960E946C09CE0101960E946C09CE0138
:1052700049960E946C09CE0143960E946C09CE01AA
:105280004F960E946C09A4960FB6F894DEBF0FBE2D
:10529000CDBFDF91CF911F910F91FF90EF90DF90E5
:1052A000CF90BF90AF9008956EE777E0CE01019662
:1052B0000E94DB0FBE01675E7F4FCE0101960E9408
:1052C0006D0E0E94730CCE0101960E946C0966ED72
:1052D00077E0CE0101960E94DB0FC5CF6EEA77E042
:1052E000CE0101960E94DB0FBE016F5F7F4FCE01A2
:1052F00049960E94AF0D182FCE0101960E946C09AD
:10530000112309F4A1C064EB77E0CE0101960E945D
:10531000DB0F50E040E0BE016F5F7F4FCE0149964A
:105320000E94930D5C01CE0101960E946C0964EB12
:1053300077E0CE0101960E94DB0FA5014F5F5F4F22
:10534000BE016F5F7F4FCE0149960E94930D6C01A5
:10535000CE0101960E946C0976018FEFE81AF80AD7
:1053600064EB77E0CE0101960E94DB0FA701BE013E
:105370006F5F7F4FCE0149960E94930D8C01CE0145
:1053800001960E946C09AB20A09409F447C0CD207F
:10539000C09409F443C00F3F100709F43FC09801BF
:1053A000A701BE01675E7F4FCE010D960E94EC0FF4
:1053B0002D8D3E8DA8014F5F5F4FBE01675E7F4F11
:1053C000CE0107960E94EC0F68E977E0CE010196C6
:1053D0000E94DB0FBE01635F7F4FCE0101960E94EA
:1053E0006D0E64EB77E00E94570EBE01695F7F4F40
:1053F0000E946D0E0E94730CCE0101960E946C09F2
:105400001A8219821C821B821E821D82BE01695F64
:105410007F4FCE0101960E94CA0D1DCF66EB77E04B
:10542000CE0101960E94DB0FBE01675E7F4FCE0169
:1054300001960E946D0E0E94730CCE0101960E948F
:105440006C0965ED77E045CF68ED77E0E9CFCE01F7
:1054500043960E946C0922CE8F929F92AF92BF9288
:10546000CF92DF92EF92FF920F931F93CF93DF9330
:10547000CDB7DEB7A6970FB6F894DEBF0FBECDBF8F
:105480008C016B01FC01128A138A148A158A5C0153
:10549000FCE0AF0EB11C61E572E0C5010E94A10EF7
:1054A00062EF77E0CE0101960E94DB0FB801CE01DA
:1054B00001960E946D0E6DEA72E00E94570EB801CF
:1054C0006A5F7F4F0E946D0E67EF77E00E94570E74
:1054D000BC018AE393E10E941302CE0101960E946F
:1054E0006C090E94FD020E94FD020E94FD0286E9F5
:1054F00090E0A0E0B0E080933E1390933F13A09320
:105500004013B0934113CE0101964C01F12CE12CD4
:105510008AE393E10E94E70597FD0AC0F4018193B5
:105520004F01FFEFEF1AFF0A20E2E216F10481F7C4
:10553000E1E0F0E0EC0FFD1FEE0DFF1D81E592E0D4
:105540008083BE016F5F7F4FCE0181960E94DB0F8B
:10555000BE016F5D7F4FC5010E94CA0DCE018196CD
:105560000E946C0965EB72E0CE0181960E94DB0F10
:10557000BE016F5D7F4FC5010E94AF0DF82ECE01B9
:1055800081960E946C09FF20E1F0F8014089518961
:10559000D801529690E080E001968417950740F478
:1055A000F80124853585F901E80FF91F232B21F433
:1055B00010929409E4E9F9E020812D93843091055B
:1055C00059F7F80142895389648975894230510538
:1055D00061057105E4F481E0452B462B472B09F466
:1055E00080E0F601808381E0A6960FB6F894DEBFD6
:1055F0000FBECDBFDF91CF911F910F91FF90EF9024
:10560000DF90CF90BF90AF909F908F9008950E94B1
:10561000DB056B017C018CEF97E00E94B10B0E94CF
:10562000DB056C197D098E099F09683E7340810571
:10563000910568F48AE393E10E946402892B79F36F
:105640008AE393E10E9442020E94810BE8CF80E04E
:10565000CBCF8091FC099091FD09A091FE09B091FA
:10566000FF0985369105A105B10549F46BEF79E095
:1056700084EB90E10E942C2A8091FB0908958636E4
:105680009105A105B10549F464EF79E084E59FE057
:105690000E942C2A8091F409089587369105A1056E
:1056A000B10549F463EF79E08EE79CE00E942C2A73
:1056B0008091F309089580E00895CF92DF92EF92F0
:1056C000FF92CF93DF938091F5098111E7C180911B
:1056D000F2098111E3C10E94900880939D0982E242
:1056E00098E00E94B10B80919D090E94620D80910B
:1056F0009D0990E0B0E0A0E04091F7095091F809D1
:105700006091F9097091FA0984179507A607B70700
:1057100008F071C08091F60981116DC0C1E0D0E040
:105720000E94900880939D0982E298E00E94B10B4C
:1057300080919D090E94620D89E30E946805909303
:105740009C0980939B0940919D0950E070E060E0C6
:10575000C090F709D090F809E090F909F090FA09A3
:105760004C155D056E057F0508F485C083E398E060
:105770000E94B30B83E090E00E94510C81E090E026
:105780000E94510C87E090E00E94510C88E090E06C
:105790000E94510C84E090E00E94510C89E398E053
:1057A0000E94B30B81E08093F60960919D0970E03F
:1057B00082E19FE00E94930F8FE398E00E94B10B7B
:1057C00080919D090E94620D87E598E00E94B10BCF
:1057D000CE010E94840C81E090E00E94510C83E095
:1057E00090E00E94510C87E090E00E94510C88E00C
:1057F00090E00E94510C8091F50981114FC1809178
:105800009D0990E0B0E0A0E04091F7095091F809BF
:105810006091F9097091FA0984179507A607B707EF
:1058200028F48091F609813009F038C183E090E0D6
:105830000E94D30B84E090E00E94D30B81E090E0C3
:105840000E94D30B87E090E00E94C10BD0E0C0E043
:105850008EE30E946805893592400CF0F0C062E347
:1058600070E080E090E0DF91CF91FF90EF90DF90CB
:10587000CF900C94A805092E000CAA0BBB0B4091ED
:1058800008025091090260910A0270910B024817B8
:1058900059076A077B07B0F08091F609811112C0A1
:1058A00085E798E00E94B30B50E040E06FEF81E0A5
:1058B00090E00E94580C41E050E06CE887E090E0F6
:1058C0000E94580C80919B0990919C09092E000C14
:1058D000AA0BBB0B409108025091090260910A0289
:1058E00070910B02481759076A077B0760F48BE732
:1058F00098E00E94B30B81E090E00E94510C87E099
:1059000090E00E94510C80919D0990E0B0E0A0E0F1
:105910004091F7095091F8096091F9097091FA09DD
:1059200084179507A607B70778F48091F6098111C7
:105930000BC081E898E00E94B30B50E040E06FEFAD
:1059400083E090E00E94580C60919D0970E090E027
:1059500080E00E945E366B017C016091F7097091D6
:10596000F8098091F9099091FA090E945C3626E6BF
:1059700036E646E65FE30E94BD369B01AC01C701F7
:10598000B6010E94D13887FD0CC087E898E00E94DC
:10599000B30B88E090E00E94510C87E090E00E94F9
:1059A000510C60919D0970E090E080E00E945E36AD
:1059B0006B017C016091F7097091F8098091F909F8
:1059C0009091FA090E945C3626E636E646E65FE3E9
:1059D0000E94BD369B01AC01C701B6010E9457363B
:1059E00087FF16C08091F609811112C08DE898E0FA
:1059F0000E94B30B50E040E06FEF88E090E00E941F
:105A0000580C41E050E06CE887E090E00E94580CB0
:105A1000CA3FD10591F483E998E00E94B30B81E07D
:105A20008093F50925E040E060E08FEF0E94EC08EC
:105A30000E9440090E94E40BCECE219671CEC83E52
:105A400083E0D80789F481E08093F5090E9440093A
:105A50000E94E40B8FEA98E0DF91CF91FF90EF90E6
:105A6000DF90CF900C94B10B0E94292B21968130AE
:105A700071F48093F2092AE040E060E08FEFDF915B
:105A8000CF91FF90EF90DF90CF900C94EC0861E005
:105A900070E080E090E00E94A805DACEDF91CF911F
:105AA000FF90EF90DF90CF9008954F925F926F92AA
:105AB0007F928F929F92AF92BF92CF92DF92FF928E
:105AC0000F931F93CF93DF93CDB7DEB72C970FB60D
:105AD000F894DEBF0FBECDBF082F11E0FF24F39472
