:100000000C94C6020C94F7020C94F7020C94F702BD
:100010000C94F7020C94F7020C94F7020C94F7027C
:100020000C94F7020C94F7020C94F7020C94F7026C
:100030000C94F7020C94F7020C94F7020C94F7025C
:100040000C94F7020C94F7020C94F7020C94F7024C
:100050000C94F7020C94F7020C94F7020C94093FED
:100060000C94F7020C94DF3E0C94B53E0C94F7020E
:100070000C94F7020C94F7020C94F7020C94F7021C
:100080000C94F7020C94F7020C94F7020C94F7020C
:100090000C948B3E0C94613E0C94F7020C94533FED
:1000A0000C94F7020C94F7020C94F7020C94F702EC
:1000B0000C94F7020C94F7020C94F7020C94F702DC
:1000C0000C94F7020C94F7020C94F7020C94F702CC
:1000D0000C94F7020C94F7020C94373E0C940D3EEE
:1000E0000C94F7020C946A0D0C9432050C941605CE
:1000F0000C9403050C9487060C94F7040C9473403D
:100100000C94F1040C946D0D0C9462140C94CB0DB2
:100110000C94AB030C942C050C9410050C94E20683
:100120000C9466060C94FB040C944B030C94AB06E5
:100130000C9436050C941A050C940C050C9473065B
:100140000C949C030C94CE060C94BF060C94990658
:100150000C94B5060C946F0D0C9491060C946E06DD
:100160000C94A1060C947D060C94D8060C940605FC
:100170000C9428050C94CD030C941E050C940007D8
:100180000C94A8400C9424050C94F6060C94EC06F0
:100190000C94BF030C9431050C94860E0C944F0301
:1001A0000C9419040C94FF040C948A0E0C94830E86
:1001B0000C94090B0C948A042E76616C002E006757
:1001C0006574200046696C747265204772697065B9
:1001D000722069C3A765726973696E65207665725E
:1001E000696C656D6564692E2E2E210046696C74FC
:1001F0007265204772697065722069C3A76572696C
:1002000073696E6520766572696C6469005468650F
:10021000726520697320612074696D656F75742043
:100220006572726F7220696E20506973746F6E20F0
:10023000372E2E2E21002D2D6D6561737572652070
:10024000746F626163636F2074696D656F75742D7F
:100250002D004D656173757265642056616C75651E
:100260003A20004D656173757265642056616C7546
:10027000653A2000546F706C616D206379636C6522
:10028000207375726573693A200046696E616C204F
:100290006379636C65207375726573693A200041F8
:1002A0006C6C2050726F6365737320697320446FA8
:1002B0006E65200054C3BC74C3BC6E206265736C51
:1002C000656E656D6564692E2E2000526F6C6C65DD
:1002D00072206B61676964692079616B616C617917
:1002E000616D6164692E2E2E0046696C7472652002
:1002F000766572696C6D6564690046696C747265D7
:10030000204772697065722069C3A7657269736955
:100310006E6520766572696C6469004D6561737500
:100320007265642056616C75653A20004D65617395
:10033000757265642056616C75653A2000416C6C7D
:100340002050726F636573733A2000546F6261636B
:10035000636F206379636C65207375726573693AA6
:1003600020002D2D6D65617375726520746F62615B
:1003700063636F2074696D656F75742D2D004D6515
:100380006173757265642056616C75653A20000072
:10039000002100240027002A002D00300033000136
:1003A000010000040107010A0100002200250028C5
:1003B000002B002E0031003400020100000501086E
:1003C000010B012D2D2D2D2D2D2D2D2D2D2D2D2DD7
:1003D0002D2D2D2D2D2D2D2D2D2D2D2D2D2D2D2D4D
:1003E0002D2D2D2D2D2D2D2D2D2D2D2D2D2D2D2D3D
:1003F0002D2D2D2D2D2D2D00544845204E554D428F
:100400004552204F46204349474152455454453AAE
:1004100020004D656173757265642056616C756569
:100420003A20002D2D2D2D2D2D2D2D2D2D2D2D2D29
:100430002D2D2D2D2D2D2D2D2D2D2D2D2D2D2D2DEC
:100440002D2D2D2D2D2D2D2D2D2D2D2D2D2D2D2DDC
:100450002D2D2D2D2D2D2D0043696761726574742E
:10046000652054696D653A200046696C7465722098
:100470002B20546F626163636F2074696D653A204D
:1004800000544845204E554D424552204F4620438A
:1004900049474152455454453A200000002000236A
:1004A00000260029002C002F00320000010000036C
:1004B00001060109010505050507050808080802E8
:1004C0000202020A0A0808040404040101010101ED
:1004D0000101010303030303030303040707070CDC
:1004E0000C0C0C0C0C0C0C02020202060606060692
:1004F0000606060B0B0B0B0B0B0B0B01021020203F
:100500000808102040102040800201020108040267
:1005100001010204081020408080402010080402DD
:100520000180040201804020100804020108040236
:10053000010102040810204080010204081020403C
:100540008000000A0B02090C0D0E080703040100CD
:10055000000000000000000000000000000000009B
:100560000000000000000000000000000012111058
:10057000000000000000000000000000000000007B
:100580000000000000000000A840734011241FBEBE
:10059000CFEFD1E2DEBFCDBF00E00CBF1BE0A0E09B
:1005A000B2E0ECE8FCEA00E00BBF02C007900D925D
:1005B000A031B107D9F727E1A0E1BBE001C01D924E
:1005C000AF36B207E1F712E0C5ECD2E000E006C0BA
:1005D00021970109802FFE010E94BF53C43CD1071F
:1005E00080E00807A9F70E94ED410C9434560C9462
:1005F0000000CF93DF93EC019A01AB01E889F98900
:1006000082E08083211581EE38074105510581F193
:1006100060E079E08DE390E00E94BD522150310905
:10062000410951095695479537952795EC85FD85E4
:100630001082EE85FF852083188EEC89FD8986E087
:100640008083EA89FB89808180618083EA89FB89D4
:10065000808188608083EA89FB89808180688083CB
:10066000EA89FB8980818F7D8083DF91CF91089516
:10067000E889F989108220E1D9CFEEEFF4E1DC01BD
:100680002D913D914C91219331934193B5E1EA3302
:10069000FB07A9F7089580E991E008950895AF92C6
:1006A000BF92CF92DF92EF92FF920F931F93CF935F
:1006B000DF936C017B018B01040F151FEB015E01C1
:1006C000AE18BF08C017D10759F06991D601ED9156
:1006D000FC910190F081E02DC6011995892B79F7E5
:1006E000C501DF91CF911F910F91FF90EF90DF90A7
:1006F000CF90BF90AF900895FB01448155816081F8
:1007000071810C944F03FC01A089B1898C91A68959
:10071000B78982FD0FC09C91818D8F5F8F73228D71
:10072000821749F0A18DAE0FBF2FB11D5D969C932E
:10073000818F08958C910895FC01538D448D252F50
:1007400030E0842F90E0821B930B541710F0CF966B
:10075000089501970895FC01918D828D981761F09D
:10076000A28DAE0FBF2FB11D5D968C91928D9F5FB4
:100770009F73928F90E008958FEF9FEF0895FC0193
:10078000918D828D981731F0828DE80FF11D858D46
:1007900090E008958FEF9FEF0895FC01918D228DD9
:1007A000892F90E0805C9F4F821B91098F7399275E
:1007B000089586E495E10E94CD0321E0892B09F498
:1007C00020E0822F089583EE95E10E94CD0321E081
:1007D000892B09F420E0822F089580E896E10E9499
:1007E000CD0321E0892B09F420E0822F0895FC013C
:1007F000A48DA80FB92FB11DA35ABF4F2C91848D82
:1008000090E001968F739927848FA689B7892C93DE
:10081000A089B1898C91837080648C93938D848D31
:10082000981306C00288F389E02D80818F7D808334
:100830000895EF92FF920F931F93CF93DF93EC01F4
:1008400081E0888F9B8D8C8D98131AC0E889F98977
:10085000808185FF15C09FB7F894EE89FF8960837A
:10086000E889F98980818370806480839FBF81E0FB
:1008700090E0DF91CF911F910F91FF90EF9008953D
:10088000F62E0B8D10E00F5F1F4F0F731127E02E18
:100890008C8D8E110CC00FB607FCFACFE889F98950
:1008A000808185FFF5CFCE010E94F703F1CFEB8D5C
:1008B000EC0FFD2FF11DE35AFF4FF0829FB7F89424
:1008C0000B8FEA89FB8980818062CFCF6FEF86E44E
:1008D00095E10C941904EF92FF920F931F93CF931D
:1008E000DF938C017B01D0E0C0E0F701EC0FFD1F2E
:1008F0006491662339F0C8010E941904892B11F014
:100900002196F3CFCE01DF91CF911F910F91FF90F0
:10091000EF900895CF93DF93EC01888D8823B9F091
:10092000AA89BB89E889F9898C9185FD03C08081FA
:1009300086FD0DC00FB607FCF7CF8C9185FFF2CF77
:10094000808185FFEDCFCE010E94F703E9CFDF91D3
:10095000CF91089580E090E0892B29F00E94ED036B
:1009600081110E94000080E090E0892B29F00E9414
:10097000E30381110E94000080E090E0892B49F0A0
:1009800080E090E0892B29F00E94000081110E94F4
:10099000000080E090E0892B29F00E94D9038111AA
:1009A0000C94000008958150823108F05AC0E82F5D
:1009B000F0E08827E152FB4F8F4F0C94BF53FF04A8
:1009C0000305F104F704FB04310506050C051005C9
:1009D00016051A051E052405280531052C053205C6
:1009E0003605809180008F778093800008958091F4
:1009F00080008F7DF9CF80918000877FF5CF84B50F
:100A00008F7784BD089584B58F7DFBCF8091B00032
:100A10008F778093B00008958091B0008F7DF9CFDB
:100A2000809190008F77809390000895809190003E
:100A30008F7DF9CF80919000877FF5CF8091A000C6
:100A40008F778093A00008958091A0008F7DF9CFCB
:100A50008091A000877FF5CF809120018F778093D0
:100A600020010895809120018F7DF9CF8091200190
:100A7000877FF5CFCF93DF93E1E7F5E08491EBE259
:100A8000F5E0D491E5EEF4E0C491CC23A1F081111E
:100A90000E94D304EC2FF0E0EE0FFF1FE556FB4F52
:100AA000A591B491EC91ED2381E090E009F480E010
:100AB000DF91CF91089580E090E0FACF1F93CF931C
:100AC000DF93282F30E0F901EF5BFA4F8491F901B1
:100AD000E550FB4FD491F901EB54FB4FC491CC236B
:100AE000A9F0162F81110E94D304EC2FF0E0EE0F35
:100AF000FF1FE755FC4FA591B4918FB7F894EC9187
:100B0000111108C0D095DE23DC938FBFDF91CF9108
:100B10001F910895DE2BF8CFCF92DF92EF92FF92D4
:100B2000CF930E943A050197E1F761E080E30E94CC
:100B30005E0560E085E30E945E050E943A05892B10
:100B4000E1F7C8E1C12CD12C760161E085E30E9478
:100B50005E05CC0CDD1CEE1CFF1C60E085E30E94F2
:100B60005E050E943A05892B29F02FEFC21AD20A9E
:100B7000E20AF20AC15049F761E085E30E945E058E
:100B800060E085E30E945E05C701B6018058CF9101
:100B9000FF90EF90DF90CF900895CF92DF92EF9289
:100BA000FF92CF93DF930E948C056B017C01C3E21F
:100BB000D0E0CE010197F1F70E948C052197F1F763
:100BC0006C0D7D1D8E1D9F1D22E030E040E050E049
:100BD0000E948B52CA01B9010E946E516093881421
:100BE0007093891480938A1490938B14DF91CF9122
:100BF000FF90EF90DF90CF900895CF93DF9390E038
:100C0000FC01E550FB4F24918B549B4FFC018491D8
:100C10008823D1F090E0880F991FFC01E157FC4F29
:100C2000A591B491FC01E755FC4FC591D491611198
:100C30000EC09FB7F8948C91E22FE0958E238C9391
:100C40002881E223E8839FBFDF91CF9108958FB77A
:100C5000F894EC91E22BEC938FBFF6CF1F93CF93D8
:100C6000DF93182FEB0161E00E94FD05209739F416
:100C700060E0812FDF91CF911F910C945E05CF3FF3
:100C8000D10511F461E0F5CFE12FF0E0EF5BFA4F11
:100C9000E491E150E23108F0B3C0F0E08827EC5A6B
:100CA000F94F8F4F0C94BF5366066E0673067D0690
:100CB0008706000791069906A106AB06B506BF0692
:100CC000CE06D8060007E206EC06F60684B5806874
:100CD00084BDC7BDDF91CF911F91089584B5806217
:100CE00084BDC8BDF7CF809180008068809380006C
:100CF000D0938900C0938800EDCF809180008062FE
:100D000080938000D0938B00C0938A00E3CF8091C2
:100D10008000886080938000D0938D00C0938C0009
:100D2000D9CF8091B00080688093B000C093B300A9
:100D3000D1CF8091B00080628093B000C093B400A6
:100D4000C9CF80919000806880939000D0939900E3
:100D5000C0939800BFCF80919000806280939000F4
:100D6000D0939B00C0939A00B5CF8091900088608B
:100D700080939000D0939D00C0939C00ABCF809156
:100D8000A00080688093A0008091A0008F7B80935A
:100D9000A000D093A900C093A8009CCF8091A00090
:100DA00080628093A000D093AB00C093AA0092CF42
:100DB0008091A00088608093A000D093AD00C09384
:100DC000AC0088CF80912001806880932001D0936F
:100DD0002901C09328017ECF8091200180628093F9
:100DE0002001D0932B01C0932A0174CF8091200160
:100DF000886080932001D0932D01C0932C016ACF8D
:100E0000C038D1050CF03ECF33CF865320917B0004
:100E1000982F987F277F922B90937B008770806418
:100E200080937C0080917A00806480937A00809126
:100E30007A0086FDFCCF809178009091790008952A
:100E40003FB7F89480916B0B90916C0BA0916D0B58
:100E5000B0916E0B26B5A89B05C02F3F19F00196E7
:100E6000A11DB11D3FBFBA2FA92F982F8827BC0104
:100E7000CD01620F711D811D911D42E0660F771F2C
:100E8000881F991F4A95D1F708958F929F92AF922C
:100E9000BF92CF92DF92EF92FF926B017C010E9492
:100EA00020074B015C01C114D104E104F104B9F045
:100EB0000E942007681979098A099B09683E7340D6
:100EC0008105910580F321E0C21AD108E108F108FB
:100ED00088EE880E83E0981EA11CB11CE4CFFF9021
:100EE000EF90DF90CF90BF90AF909F908F9008953C
:100EF0002FB7F8946091670B7091680B8091690B24
:100F000090916A0B2FBF08950F931F93CF93DF9398
:100F1000EC010E947807688779878A879B87CE01D2
:100F20000E94AB0397FF15C00E94780708851985BA
:100F30002A853B85601B710B820B930B0C811D81F5
:100F40002E813F81601771078207930740F38FEF6F
:100F50009FEFDF91CF911F910F9108954F925F9274
:100F60006F927F929F92AF92BF92CF92DF92EF9259
:100F7000FF920F931F93CF93DF9300D0CDB7DEB7CF
:100F8000D0901D178091201790912117A0912217C2
:100F9000B0912317892B8A2B8B2BD9F00E94200725
:100FA000009142151091431520914415309145153B
:100FB000601B710B820B930B00912017109121176E
:100FC000209122173091231760177107820793072A
:100FD000C8F20E94200760934215709343158093D6
:100FE000441590934515E0912817F09129173097F3
:100FF00059F0409124175091251760912617709150
:1010000027178D2D1995D82EE0904015F090411599
:101010004D2C512C712C612CE114F10409F459C0B0
:10102000D7011C96CC901C9780911E1790911F178A
:101030008436910510F41C961C92D701ED91FC9119
:10104000A280B38019821A821B82DD2079F1F70118
:10105000369610E000E02191222319F19280992028
:1010600001F130E050E040E02F5F3F4F4F4F5F4FC6
:10107000C301B2010E949B539B01AC01892D90E0FA
:10108000B0E0A0E0BC01CD016F5F7F4F8F4F9F4F5D
:101090000E949B53A1E0B0E0AC0FBD1FA00FB11F99
:1010A0008C930F5F1F4F03301105A9F609811A8138
:1010B0002B81F7014585568562817381C701F50152
:1010C0001995D7011C96CC921C971496ED90FC9024
:1010D000A3CF80913E1590913F158C010F5F1F4F5C
:1010E00010933F1500933E154997B4F10E9478077D
:1010F000C0903A15D0903B15E0903C15F0903D150E
:101100009B01AC012C193D094E095F0921F421E036
:1011100030E040E050E088EE93E0089FB001099F86
:10112000700D189F700D1124072E000C880B990B61
:101130000E94BD5230931F1720931E1710923F1527
:1011400010923E150E94780760933A1570933B15F4
:1011500080933C1590933D150F900F900F90DF9169
:10116000CF911F910F91FF90EF90DF90CF90BF90A4
:10117000AF909F907F906F905F904F9008951F93D6
:10118000CF93DF93C1E0C093220B882399F1D091D4
:10119000B8001091BA008091BC008A7B8093BC009B
:1011A00060E084E10E945E0560E085E10E945E05EA
:1011B0001092D414C093D3141092AE1461E084E161
:1011C0000E945E0561E085E10E945E058091B900A4
:1011D0008E7F8093B9008091B9008D7F8093B90094
:1011E00088E48093B80085E48093BC001093BA0033
:1011F000D093B800DF91CF911F910895CF92DF92E5
:10120000EF92FF920F931F93CF93DF93EA01DC01DC
:1012100011968D919C91DC01ED91FC910280F381FE
:10122000E02D1995C817D90709F0AAC0D091FD146F
:1012300091E0D13208F09CC0C091FC140E942007BC
:101240006B017C018091D41481116CC082E0809389
:10125000D41481E08093D3148FEF8093D214109232
:10126000D114D093D014ACEDB4E1E0EBF4E180E024
:10127000D81390C01092AF148091AF14CC0FC82B2C
:10128000C093AF148091AE14813009F087C01092E2
:10129000AE140E9420076B017C018091AF148093F3
:1012A000BB008091D6149091D714A091D814B0911E
:1012B000D914892B8A2B8B2BA1F00E942007009137
:1012C000D6141091D7142091D8143091D9146C19D8
:1012D0007D098E099F09061717072807390708F4A3
:1012E00042C08091BC0083FDD8CF85EC8093BC00C8
:1012F0000E9420076B017C018091D414823009F494
:101300004FC08091D21490E08F3F91F18091D21420
:1013100092E0803269F18091D21494E0803341F5FB
:1013200093E026C08091D6149091D714A091D81440
:10133000B091D914892B8A2B8B2B09F483CF0E946F
:1013400020070091D6141091D7142091D814309111
:10135000D9146C197D098E099F09061717072807EC
:10136000390708F06FCF8091D5140E94BF0895E02F
:101370001092DB141092FD141092DA1481E0911196
:1013800080E0DF91CF911F910F91FF90EF90DF9060
:10139000CF9008959D9191938F5F6ACF85EEA6CFF0
:1013A0008091D6149091D714A091D814B091D914EB
:1013B000892B8A2B8B2B09F49FCF0E942007009149
:1013C000D6141091D7142091D8143091D9146C19D7
:1013D0007D098E099F09061717072807390708F0A6
:1013E0008BCFC1CF2091430B260F3327331F2132E0
:1013F0003105ECF42091D414FC0190E080E024301D
:1014000069F082E00895A091430B2191AC014D5DFC
:10141000544FA40FB52FB11D2C930196861798F346
:101420008091430B680F6093430B80E0089581E047
:1014300008950895E0918D1480918C14E81730F48C
:10144000F0E0E257FB4E808190E008958FEF9FEF30
:10145000089590918D1480918C142FEF3FEF981781
:1014600048F4E92FF0E0E257FB4E208130E09F5F27
:1014700090938D14C901089580918C1490918D14CE
:10148000891B990B0895CF92DF92EF92FF920F93F1
:101490001F93CF93DF937C01CB018A012091DA1453
:1014A000222389F0EB016B01C40ED51ECC15DD059E
:1014B00069F06991D701ED91FC910190F081E02DE7
:1014C000C7011995F3CF642F0E94F209C801DF917B
:1014D000CF911F910F91FF90EF90DF90CF900895E3
:1014E000CF93DF931F92CDB7DEB769832091DA14D3
:1014F0002223F9F02091FD14203258F021E030E051
:10150000FC013383228390E080E00F90DF91CF9144
:1015100008958091DB14E82FF0E0E452FB4E9981AE
:1015200090838F5F8093DB148093FD1481E090E0C3
:10153000ECCF61E0CE0101960E94F209F7CF90E076
:1015400080E00895CF92DF92EF92FF92609188142D
:101550007091891480918A1490918B140E94605329
:101560006B017C010E948C056C197D098E099F0915
:101570000E946E512DEC3CEC4CE251E40E94EE5284
:101580000E94605397FF03C060E070E0CB01FF90C2
:10159000EF90DF90CF9008950F931F93CF93DF9339
:1015A0002091210B2F5F322F37703093210B20FFBA
:1015B0002BC020E831FD2064347009F02062205FE8
:1015C000FC01EC01239600E011E06485662329F01C
:1015D00070E0C8010E94AB536F5F6187322F369F66
:1015E000030E30E0311D1124311110C01682662324
:1015F00011F0615061873196EC17FD0731F7DF91EB
:10160000CF911F910F91089520E0D4CF31503683B0
:10161000EECF4F925F927F928F929F92AF92BF9246
:10162000CF92DF92EF92FF920F931F93CF93DF93AE
:101630002C01EB010E942007F20127853089621BF3
:10164000730B6A307105B0F3F8948A819B81181688
:1016500019060CF0CDC1E881F98164B3862E689437
:1016600085F834B33F7D34BBD9848E812D2D281B62
:10167000822F2E834F85042E000C550BAA81BB812F
:101680007C85FD84EE847F5FF394E3949F8198844E
:10169000BA84AB841081C12C6C2D0C2D2C2D208193
:1016A000112788942111280F08F42FEF8195889431
:1016B00070FD120F1795889471FD120F179588947D
:1016C00072FD120F1795889473FD120F1795889469
:1016D00074FD120F1795889475FD120F1795889455
:1016E00076FD120F1795889477FD120F1795889441
:1016F000622F7111612F8D0D162F002C84BA00C03E
:1017000017FF34BB21816627889400C000C0002CDD
:1017100034BB2111290F00C0002C84BA00C016FF71
:1017200034BB08F42FEF9195889400C000C0002CC2
:1017300034BBF0FC620F00C0002C84BA00C015FF5F
:1017400034BB67958894F1FC620F00C000C0002C88
:1017500034BB6795889400C0002C84BA00C014FF85
:1017600034BBF2FC620F6795889400C000C0002C67
:1017700034BBF3FC620F00C0002C84BA00C013FF1E
:1017800034BB67958894F4FC620F00C000C0002C45
:1017900034BB6795889400C0002C84BA00C012FF47
:1017A00034BBF5FC620F6795889400C000C0002C24
:1017B00034BBF6FC620F00C0002C84BA00C011FFDD
:1017C00034BB67958894F7FC620F00C000C0002C02
:1017D00034BB6795889400C0002C84BA00C010FF09
:1017E00034BB122FF110162F9B0D00C000C0002C2F
:1017F00034BB00C000C0002C84BA00C017FF34BB4B
:1018000022816627889400C000C0002C34BB2111BF
:10181000290D00C0002C84BA00C016FF34BB08F4A8
:101820002FEFE40FF51F00C000C0002C34BBE0FC1C
:10183000620F00C0002C84BA00C015FF34BB67954E
:101840008894E1FC620F00C000C0002C34BB679597
:10185000889400C0002C84BA00C014FF34BBE2FCA2
:10186000620F6795889400C000C0002C34BBE3FC75
:10187000620F00C0002C84BA00C013FF34BB679510
:101880008894E4FC620F00C000C0002C34BB679554
:10189000889400C0002C84BA00C012FF34BBE5FC61
:1018A000620F6795889400C000C0002C34BBE6FC32
:1018B000620F00C0002C84BA00C011FF34BB6795D2
:1018C0008894E7FC620F00C000C0002C34BB679511
:1018D000889400C0002C84BA00C010FF34BB122FC3
:1018E000E110162F919400C000C0002C34BB9A0C5C
:1018F00000C000C084BA00C017FF34BB2081662737
:10190000889400C000C0002C34BB2111280F00C0F7
:10191000002C84BA00C016FF34BB08F42FEF819569
:10192000889400C000C0002C34BB70FD620F00C062
:10193000002C84BA00C015FF34BB6795889471FDF4
:10194000620F00C000C0002C34BB6795889400C0B3
:10195000002C84BA00C014FF34BB72FD620F67957F
:10196000889400C000C0002C34BB73FD620F00C01F
:10197000002C84BA00C013FF34BB6795889474FDB3
:10198000620F00C000C0002C34BB6795889400C073
:10199000002C84BA00C012FF34BB75FD620F67953E
:1019A000889400C000C0002C34BB76FD620F00C0DC
:1019B000002C84BA00C011FF34BB6795889477FD72
:1019C000620F00C000C0002C34BB6795889400C033
:1019D000002C84BA00C010FF34BB122F7111162FD7
:1019E0008D0D00C000C0002C34BB119709F086CECD
:1019F0004A815B8120EE31E0DA010E94C753DC01AD
:101A0000CB01F4E0B695A79597958795FA95D1F710
:101A100030E020E0B901EAE94E9F040E611D5E9FAF
:101A2000600D711D1124650F711D860F971FA11D7B
:101A3000B11D893E43E09407A105B10508F434C007
:101A4000885E9340A109B10942E0B695A7959795A4
:101A500087954A95D1F747E0849F080E211D949FF2
:101A6000200D311D1124290F311D6091200B70E0D4
:101A7000860F971F820F931F4091670B5091680B41
:101A80006091690B70916A0B292F3327420F531F06
:101A9000611D711D4093670B5093680B6093690B38
:101AA00070936A0B8093200B78940E942007F201B8
:101AB000708B6787DF91CF911F910F91FF90EF900F
:101AC000DF90CF90BF90AF909F908F907F905F906E
:101AD0004F90089581E090E008959D9A08956F9247
:101AE0007F928F92CF92DF92EF92FF920F931F938C
:101AF000CF93DF93CDB7DEB762970FB6F894DEBF12
:101B00000FBECDBF6C017A013801822EDC011C961C
:101B10002C91CA0157FF04C088279927841B950B75
:101B20007A8369839C838B839E838D836D867E8677
:101B30008F86213049F5CE0101960E94CC0A83E0C0
:101B4000888B1A8A198AF7FE02C08DEF888BD6011E
:101B5000ED91FC910684F785E02DBE016F5F7F4F0C
:101B6000C601199562960FB6F894DEBF0FBECDBFC1
:101B7000DF91CF911F910F91FF90EF90DF90CF9069
:101B80008F907F906F9008951C861B861A86198609
:101B900018861F82D4CFEF92FF920F931F93CF939B
:101BA000DF93CDB7DEB762970FB6F894DEBF0FBEF6
:101BB000CDBF7C01DC011C968C917A8369835C83A8
:101BC0004B835E834D830D871E872F878130F9F409
:101BD000CE0101960E94CC0A188A1A8A198AD70166
:101BE000ED91FC910684F785E02DBE016F5F7F4F7C
:101BF000C701199562960FB6F894DEBF0FBECDBF30
:101C0000DF91CF911F910F91FF90EF9008951C8667
:101C10001B861A86198618861F82DECFCF93DF9324
:101C200000D0CDB7DEB719821A821B82CE01019691
:101C30000E943D030E94AE070F900F900F90DF911E
:101C4000CF910895CF93DF9300D0CDB7DEB76983EE
:101C50008A834B83CE0101960E943D030E94AE070A
:101C60000F900F900F90DF91CF910895BF92CF9278
:101C7000DF92EF92FF920F931F93CF93DF9300D0E9
:101C8000CDB7DEB7C82EB62ED42EE22E19821A8218
:101C90001B82CE0101960E943D030E94AE0710E018
:101CA00000E0F12C0E151F050CF5B982CA82DB820B
:101CB000CE0101960E943D030E94AE0764E670E0EB
:101CC00080E090E00E94450719821A821B82CE01B3
:101CD00001960E943D030E94AE0764E670E080E03A
:101CE00090E00E9445070F5F1F4FDCCF0F900F90D1
:101CF0000F90DF91CF911F910F91FF90EF90DF90A8
:101D0000CF90BF90089590E080E00895FC01858514
:101D1000968508950F931F93CF93DF9300D0CDB78F
:101D2000DEB7AB0119821A821B82DC01ED91FC91B6
:101D30000190F081E02D00E010E020E0BE016F5F37
:101D40007F4F19950F900F900F90DF91CF911F91BA
:101D50000F910895109287141092861410926C14AB
:101D600010928A0B0895CF93DF93C8E3D2E060E02E
:101D700089910E945E0582E0C134D807C1F7DF91E6
:101D8000CF910895BC0186E495E10E947C030E94F6
:101D900066040E9466040C946604CF93DF93EC0102
:101DA00088819981009711F00E947E5419821882CF
:101DB0001D821C821B821A82DF91CF910895FC0143
:101DC00080819181009711F00C947E540895CF93F7
:101DD000DF93EC010C960E94DF0ECE0106960E9466
:101DE000DF0ECE01DF91CF910C94DF0ECF93DF9306
:101DF00000D0CDB7DEB719828A836B8380916617D6
:101E000090916717FC01248135812330310588F0DA
:101E1000208131E03093DA142093FC141092DB140B
:101E20001092FD1443E050E0BE016F5F7F4F0E94AF
:101E3000FE080F900F900F90DF91CF9108953F9281
:101E40004F925F926F927F928F929F92AF92BF92CA
:101E5000CF92DF92EF92FF920F931F93CF93DF9376
:101E60001F921F92CDB7DEB719828A8380916617C1
:101E700090916717DC0114962D913C9115972230B3
:101E8000310588F02C9131E03093DA142093FC1462
:101E90001092DB141092FD1442E050E0BE016F5F1F
:101EA0007F4F0E94FE08E0906617F0906717DD24D0
:101EB000D394AA24AA9485EEC82E95ECB92E01E0FD
:101EC000F70184819581892B09F400E0802E912C03
:101ED000D7013C900E9420072B013C018091D41433
:101EE000811164C0102FD092D4140093D314A09207
:101EF000D2141092D1148FEF800F8093D014D0920F
:101F0000AF148091AF14330C382A3092AF14809103
:101F1000AE14813009F08CC01092AE140E942007DC
:101F20002B013C018091AF148093BB008091D614AB
:101F30009091D714A091D814B091D914892B8A2BE1
:101F40008B2BA1F00E9420072091D6143091D7143A
:101F50004091D8145091D9146419750986099709CC
:101F6000261737074807590708F441C08091BC007D
:101F700083FDD8CFB092BC000E9420072B013C010A
:101F80008091D414813009F456C08091D114801707
:101F900010F41091D114E0EBF4E1AEE8B4E180E08C
:101FA000811751F191919D938F5FFACF8091D61453
:101FB0009091D714A091D814B091D914892B8A2B61
:101FC0008B2B09F48BCF0E9420072091D6143091DF
:101FD000D7144091D8145091D91464197509860901
:101FE0009709261737074807590708F077CF8091D8
:101FF000D5140E94BF0810E010928D1410938C1419
:10200000012F10E008151905D9F590E080E0801740
:10201000910798F5F70181819281DC01ED91FC91A6
:102020000284F385E02D1995898381E090E0EFCF5C
:10203000C092BC00A1CF8091D6149091D714A091EA
:10204000D814B091D914892B8A2B8B2B09F498CFF3
:102050000E9420072091D6143091D7144091D814B3
:102060005091D914641975098609970926173707FD
:102070004807590708F084CFBACF012B09F41FCFC6
:1020800089810F900F90DF91CF911F910F91FF9059
:10209000EF90DF90CF90BF90AF909F908F907F9008
:1020A0006F905F904F903F900895CF938DE490E0B4
:1020B0000E941F0F80FFFACF61E088E190E00E944C
:1020C000F60E8FE490E00E941F0F82FFFACF82E6A7
:1020D00090E00E941F0FC82F67E085E190E00E940A
:1020E000F60E8C2FCF910895FC0101900020E9F7A6
:1020F0003197AF01481B590BBC0180E896E10C9465
:102100004F038F929F92AF92BF920F931F93CF93E3
:10211000DF93CDB7DEB7A1970FB6F894DEBF0FBE41
:10212000CDBF19A2423008F44AE08E010F5D1F4F67
:10213000842E912CB12CA12CA50194010E94BD529A
:10214000E62FB901CA01EA30F4F4E05DD801EE935C
:102150008D01232B242B252B79F790E080E010971D
:1021600019F0CD010E947410A1960FB6F894DEBF4D
:102170000FBECDBFDF91CF911F910F91BF90AF9058
:102180009F908F900895E95CE1CFCF92DF92EF921C
:10219000FF92CF93DF936B017C016DE280E896E1C3
:1021A0000E941904EC0166277727CB016C197D0981
:1021B0008E099F094AE00E9481108C0F9D1FDF91BC
:1021C000CF91FF90EF90DF90CF900895BC01990FD1
:1021D000880B990B97FD0C94C5104AE00C94811064
:1021E0000C947410CF93DF934AE00E948110EC01AD
:1021F0008DE892E00E9474108C0F9D1FDF91CF91AB
:102200000895CF93DF93BC0180E896E10E947C03A0
:10221000EC018DE892E00E9474108C0F9D1FDF91FD
:10222000CF910895CF93DF930E947410EC018DE855
:1022300092E00E9474108C0F9D1FDF91CF91089542
:10224000CF93DF93EC01FC01E05CFD4F61E0808106
:102250000E945E05639719F481E08093110BDF9172
:10226000CF910895CF93DF93EC01FC01E05CFD4F2B
:1022700060E080810E945E05639711F41092110B5B
:10228000DF91CF910895CF93DF93C1E0D0E0CE01ED
:102290000E9432112196C531D105C9F7DF91CF9146
:1022A0000895CF93DF938091871481115CC0809152
:1022B0008614811158C08FE30E9405078536910569
:1022C00024F083E190E00E94321182E090E00E94CD
:1022D000321183E090E00E94321184E090E00E948D
:1022E000321168EC70E080E090E00E9445078DE0DC
:1022F00090E00E942011C5EFD1E088E30E9405071D
:10230000843F9140D4F464E670E080E090E00E9465
:10231000450782E190E00E94321164E670E080E0BF
:1023200090E00E94450783E090E00E94201184E045
:1023300090E0DF91CF910C942011219769F481E016
:10234000809387140E94B30E0E94431180E992E0AB
:10235000DF91CF910C94121161E070E080E090E089
:102360000E944507CACFDF91CF910895895C9D4FA8
:1023700060E0FC0180810C945E051F93CF93DF9396
:10238000C62FD0E00197FC01E85CFD4F108186303C
:10239000910538F4642F8E5C9D4FFC0180810E9472
:1023A0005E05BE01812FDF91CF911F910C942E0607
:1023B00080918714811165C080918614811161C05C
:1023C00088E090E00E9420116EE071E080E090E0F3
:1023D0000E94450741E050E06FEF82E090E00E94EC
:1023E000BD1182E090E00E94201181E090E00E9407
:1023F000201166E970E080E090E00E94450785E0EA
:1024000090E00E94321166E970E080E090E00E9466
:10241000450782E090E00E94B61188E090E00E94BB
:10242000321182E090E00E94321181E090E00E943F
:10243000321180916C14813021F583E090E00E948C
:10244000321184E090E00E94321181E090E00E941D
:10245000321187E090E00E9420116CEB72E080E086
:1024600090E00E94450787E090E00E94321168EEFC
:1024700073E080E090E00E9445070E94CD05109235
:102480006C140895CF93DF93682F70E090E080E0A4
:102490004AE00E948110EC018DE892E00E947410E5
:1024A0008C0F9D1FDF91CF910895CF93DF930E94F2
:1024B000E610EC018DE892E00E9474108C0F9D1FD5
:1024C000DF91CF9108950F931F93CF93DF93809166
:1024D00087148111C6C0809186148111C2C050E05A
:1024E00040E06FEF85E090E00E94BD11C1E0D0E0D8
:1024F00002E310E08DE30E94050790939E0B80930A
:102500009D0B8B3F9105F4F56091000270910102E3
:1025100080910202909103020E9445078FE090E0B3
:102520000E94321182E090E00E94B61164E670E0F1
:1025300080E090E00E9445078EE090E00E9432111A
:1025400060E971E080E090E00E94450785E090E05E
:102550000E94201160E971E080E090E00E94450750
:102560008CEF99E00E94F01080919D0B90919E0B52
:102570000E94551285E090E0DF91CF911F910F915D
:102580000C94B611CA3FD10509F443C0CE01B8017D
:102590000E94AB53892B71F588E090E00E942011D6
:1025A00082E090E00E94B61181E090E00E9432113A
:1025B00068EC70E080E090E00E94450788E090E0E1
:1025C0000E94321183E090E00E94321168EC70E0CA
:1025D00080E090E00E94450783E090E00E94201197
:1025E00064E670E080E090E00E94450781E090E0C2
:1025F0000E94201141E050E062E882E090E00E94F9
:10260000BD1164E170E080E090E00E9445072196F2
:1026100071CF89E090E00E94321182E090E00E9448
:10262000B61168EC70E080E090E00E94450789E018
:1026300090E00E9420118EE090E00E94321168EE3E
:1026400073E080E090E00E9445078FE090E00E94F8
:10265000321181E08093871480EC92E00E94121185
:1026600089CFDF91CF911F910F910895CF93DF9381
:10267000BC0180E896E10E946B04EC018DE892E0D9
:102680000E9474108C0F9D1FDF91CF910895CF93FE
:10269000DF93809187148111D0C0809186148111BD
:1026A000CCC088E30E940507843F91400CF0BFC076
:1026B0008DE090E00E94321182E190E00E943211A0
:1026C0008FE30E940507853691050CF49DC080912B
:1026D000110B813051F483E190E00E94321168E0E7
:1026E00077E080E090E00E94450783E190E00E945F
:1026F000201166E970E080E090E00E94450783E1E8
:1027000090E00E9432116AEF70E080E090E00E9459
:10271000450783E190E00E942011C5EFD1E088E3F6
:102720000E940507853F914064F08CEE91E00E9485
:10273000361368EC70E080E090E0DF91CF910C946C
:102740004507219709F059C084EC91E00E943613A7
:1027500081E08093871440E060E08FEF0E94220EBA
:1027600083E190E00E9432118DE090E00E94201100
:1027700068EE73E080E090E00E9445078BE090E017
:102780000E94201164EF71E080E090E00E94450714
:102790008DE090E00E9432118BE090E00E943211B7
:1027A00064EF71E080E090E00E9445078DE090E0EA
:1027B0000E9420118BE090E00E94201164EF71E0F4
:1027C00080E090E00E9445078BE090E00E9432118B
:1027D00064EF71E080E090E00E9445078DE090E0BA
:1027E0000E9432114FEF6FEF8FEF0E94220E0E9476
:1027F000B30EDF91CF910C94431161E070E080E063
:1028000090E00E9445078BCF84ED92E00E94121168
:1028100081E0809387140E94B30E0E94431123E04D
:1028200040E060E08FEFDF91CF910C94360E8DEE9B
:1028300092E0DF91CF910C941211DF91CF91089526
:10284000CF93DF9397FF0CC00E94C510EC018DE879
:1028500092E00E9474108C0F9D1FDF91CF9108951C
:102860004AE00E948110F2CFCF93DF93DC011496EF
:10287000ED91FC916E177F0710F59F01261B370B1A
:102880004217530708F49A01DB01EC018881998112
:10289000E21BF30BFD83EC83AF01461B570B260FA6
:1028A000371FBC01620F731F8A0F9B1F0E940B56BC
:1028B000E881F9818C819D81E80FF91F1082DF91F9
:1028C000CF9108950E94E855CF93DF93FC012481B6
:1028D00035814217530788F4C081D181FB016081A3
:1028E0007181CE01840F951F0E941A56009729F01E
:1028F0008C1B9D0BDF91CF9108958FEF9FEFFACF47
:10290000FB0144815581FC01248135812417350761
:1029100078F080819181009759F0FB01608171818D
:102920006115710529F00E94FD5521E0892B09F000
:1029300020E0822F08950F931F93CF93DF938C0194
:10294000EB01FC01808191810097E1F06881798140
:1029500061157105A9F0428153812C813D81421797
:10296000530770F00E94F6558C819D81F801958384
:1029700084831D821C82DF91CF911F910F91089556
:102980000E947E5488819981F801918380838A8195
:102990009B81938382838C819D819583848319821B
:1029A00018821B821A82E5CF0F931F93CF93DF9378
:1029B000EC0188819981009759F02A813B81261783
:1029C000370730F081E0DF91CF911F910F9108958B
:1029D0008B016F5F7F4F0E940755009759F09983D5
:1029E00088831B830A832C813D81232B59F7FC01AB
:1029F0001082E8CF80E0E7CFEF92FF920F931F9312
:102A0000CF93DF936115710541F480E0DF91CF91A1
:102A10001F910F91FF90EF90089541155105B1F06E
:102A20007B01EC010C811D81040F151FB8010E9470
:102A3000D414882351F3288139818C819D81B70179
:102A4000820F931F0E94F6551D830C8381E0DECF19
:102A5000CF93DF93EC01FB0101900020E9F7319760
:102A6000AF01461B570B0E94FC14811103C0CE011D
:102A70000E94CD0ECE01DF91CF910895CF93DF93C9
:102A8000EC01FB0144815581608171810E94FC143D
:102A9000811103C0CE010E94CD0ECE01DF91CF91F6
:102AA0000895EF92FF920F931F93CF93DF93EC0162
:102AB0007B018A01BA010E94D41481110BC0CE019E
:102AC0000E94CD0ECE01DF91CF911F910F91FF900B
:102AD000EF9008951D830C83B701888199810E942E
:102AE000F655F0CFFB0101900020E9F73197AF01D7
:102AF000461B570B0C9451150F931F93CF93DF93E5
:102B0000CDB7DEB7A1970FB6F894DEBF0FBECDBF2D
:102B10008C01CB01BA01F80111821082138212825A
:102B2000158214822AE0AE014F5F5F4F0E941B5155
:102B3000BE016F5F7F4FC8010E947215A1960FB64C
:102B4000F894DEBF0FBECDBFDF91CF911F910F91E3
:102B500008950F931F93CF93DF93CDB7DEB762979E
:102B60000FB6F894DEBF0FBECDBF8C01CB01F801CC
:102B70001182108213821282158214824AE0BE01F1
:102B80006F5F7F4F0E941051BE016F5F7F4FC80182
:102B90000E94721562960FB6F894DEBF0FBECDBFCD
:102BA000DF91CF911F910F9108950F931F93CF93B2
:102BB000DF9300D000D000D0CDB7DEB78C01862FD8
:102BC000F8011182108213821282158214824AE067
:102BD000BE016F5F7F4F90E00E943D51BE016F5F6D
:102BE0007F4FC8010E94721529960FB6F894DEBF78
:102BF0000FBECDBFDF91CF911F910F910895CF935D
:102C0000DF93EC01FB018617970749F06081718122
:102C10006115710541F0448155810E945115CE0125
:102C2000DF91CF9108950E94CD0EF9CFFC01118262
:102C3000108213821282158214820C94FF150F9356
:102C40001F93CF93DF93CDB7DEB72C970FB6F894D1
:102C5000DEBF0FBECDBF8C0140E050E0BA01CE0117
:102C600001960E947C15B801CE0107960E941616A7
:102C700066EB79E0CE0107960E942815B8016A5FDD
:102C80007F4F0E943E156EE073E00E942815BE0142
:102C90006F5F7F4F0E943E15BC0186E495E10E9464
:102CA0007C03CE0107960E94DF0ECE0101960E94A2
:102CB000DF0E0E9466040E9466040E9466042C9641
:102CC0000FB6F894DEBF0FBECDBFDF91CF911F913D
:102CD0000F9108950F931F93CF93DF93CDB7DEB776
:102CE0002C970FB6F894DEBF0FBECDBF8C01CE017E
:102CF00007960E94A915B801CE0101960E941616EA
:102D000066EB79E0CE0101960E942815B8016A5F52
:102D10007F4F0E943E156EE073E00E942815BE01B1
:102D2000695F7F4F0E943E15BC0186E495E10E94D9
:102D30007C03CE0101960E94DF0ECE0107960E9411
:102D4000DF0E0E9466040E9466040E9466042C96B0
:102D50000FB6F894DEBF0FBECDBFDF91CF911F91AC
:102D60000F910895FC011182108213821282158244
:102D70001482FB0101900020E9F73197AF01461B57
:102D8000570B0C945115AF92BF92CF92DF92EF92F6
:102D9000FF920F931F93CF93DF936C015B017A0136
:102DA00089012417350720F48F2D7901042F182F5E
:102DB0006FE872E0C6010E94B216D5011496CD915B
:102DC000DC91EC16FD06E0F40C171D0708F4E80191
:102DD000D501ED91FC911197EC0FFD1F1081108230
:102DE0006D917C916E0D7F1DC60161157105A1F07D
:102DF0000E947215F50180819181C80FD91F188337
:102E0000C601DF91CF911F910F91FF90EF90DF905E
:102E1000CF90BF90AF9008950E94CD0EEBCFCF9290
:102E2000DF92EF92FF920F931F93CF93DF931F9246
:102E30001F92CDB7DEB78C016B01E42E6FE872E014
:102E40000E94B216C6010E9484070E2C000CFF08D7
:102E500097FD11C0E816F90671F089831A8241E0E6
:102E600050E0BE016F5F7F4FC8010E94FC14C60195
:102E70000E948407EDCFC8010F900F90DF91CF9192
:102E80001F910F91FF90EF90DF90CF9008956F9278
:102E90007F928F929F92AF92BF92CF92DF92EF92EA
:102EA000FF920F931F93CF93DF93CDB7DEB7A69713
:102EB0000FB6F894DEBF0FBECDBF8C013B01FC0105
:102EC000128A138A148A158A6C01FCE0CF0ED11C79
:102ED0006FE872E0C6010E9472156FEB71E086E444
:102EE00095E10E946B04B80186E495E10E947C03A1
:102EF0006DEB71E086E495E10E946B04B8016A5FB6
:102F00007F4F86E495E10E947C0368EB71E086E4E4
:102F100095E10E946B040E9466040E9466040E9470
:102F2000660488EC90E0A0E0B0E080934A159093AE
:102F30004B15A0934C15B0934D15CE0101965C0135
:102F4000F12CE12C4C0186E495E10E94840797FD69
:102F50000AC0F50181935F01FFEFEF1AFF0A20E23B
:102F6000E216F10481F7F401EE0DFF1D8FE892E007
:102F70008083B401CE0181960E94B216BE016F5DBE
:102F80007F4FC6010E949B14CE0181960E94DF0EE6
:102F900064E173E0CE0181960E94B216BE016F5DBE
:102FA0007F4FC6010E948014F82ECE0181960E94A8
:102FB000DF0EFF20F1F1F80140895189D8015296C6
:102FC00090E080E001968417950740F4F80124858D
:102FD0003585F901E80FF91F232B21F41092100B0E
:102FE000E0E1FBE020812D938430910559F7F80151
:102FF00082899389A489B589B7FD3BC0F301808399
:103000009183A283B38381E0A6960FB6F894DEBFC6
:103010000FBECDBFDF91CF911F910F91FF90EF9029
:10302000DF90CF90BF90AF909F908F907F906F90E8
:1030300008950E9478076B017C0186E193E00E946D
:10304000F0100E9478076C197D098E099F09683E6F
:1030500073408105910568F586E495E10E94CD03F2
:10306000892B79F386E495E10E94AB030E94E61078
:10307000E8CF0E9478076B017C018BE393E00E940C
:10308000F0100E9478076C197D098E099F09683E2F
:1030900073408105910568F486E495E10E94CD03B3
:1030A000892B79F386E495E10E94AB030E94E61038
:1030B000E8CF80E0A9CF64E172E081E294E10E9470
:1030C000471764E272E08BE094E10E94471760E1E9
:1030D00072E085EF93E10E94471760E272E08FEDA6
:1030E00093E10E9447176CE172E089EC93E10E9442
:1030F00047176CE072E083EB93E10E94471768E0AA
:1031000072E08DE993E10E94471768E172E087E879
:1031100093E10E94471764E072E08BE593E10E941F
:10312000471760E072E081E793E10E9447178091C2
:10313000140290911502A0911602B0911702811508
:103140009440A105B10509F4B6CF80912402909175
:103150002502A0912602B091270281159440A10575
:10316000B10509F4A8CF8091100290911102A091AD
:103170001202B091130281159440A105B10509F422
:103180009ACF8091200290912102A0912202B091C9
:10319000230281159440A105B10509F48CCF8091DB
:1031A0001C0290911D02A0911E02B0911F02811578
:1031B0009440A105B10509F47ECF80910C02909155
:1031C0000D02A0910E02B0910F0281159440A1054D
:1031D000B10509F470CF8091080290910902A09185
:1031E0000A02B0910B0281159440A105B10509F4C2
:1031F00062CF8091180290911902A0911A02B091A9
:103200001B0281159440A105B10509F454CF8091AA
:10321000040290910502A0910602B0910702811567
:103220009440A105B10509F446CF80910002909128
:103230000102A0910202B091030281159440A10500
:10324000B10509F438CF08950F931F93CF93DF93FF
:10325000EC018A010E941616B801CE0106960E9462
:1032600016162C966FE872E0CE010E94B2166FE837
:1032700072E0CE01DF91CF911F910F910C947215E6
:10328000CF93DF93CDB7DEB72C970FB6F894DEBFA0
:103290000FBECDBF019711F00C94F1246FE573E0E0
:1032A000CE0101960E94B21663E673E0CE01079646
:1032B0000E94B216AE014F5F5F4FBE01695F7F4F44
:1032C00081E294E10E942419CE0107960E94DF0E4C
:1032D000CE0101960E94DF0E69E673E0CE010196F1
:1032E0000E94B21663E673E0CE0107960E94B21602
:1032F000AE014F5F5F4FBE01695F7F4F8BE094E18E
:103300000E942419CE0107960E94DF0ECE0101967D
:103310000E94DF0E6DE673E0CE0101960E94B216A8
:1033200063E673E0CE0107960E94B216AE014F5FCE
:103330005F4FBE01695F7F4F85EF93E10E942419C3
:10334000CE0107960E94DF0ECE0101960E94DF0E8D
:1033500061E773E0CE0101960E94B21663E673E066
:10336000CE0107960E94B216AE014F5F5F4FBE01BD
:10337000695F7F4F8FED93E10E942419CE0107967C
:103380000E94DF0ECE0101960E94DF0E65E773E01A
:10339000CE0101960E94B21663E673E0CE01079655
:1033A0000E94B216AE014F5F5F4FBE01695F7F4F53
:1033B00089EC93E10E942419CE0107960E94DF0E4A
:1033C000CE0101960E94DF0E69E773E0CE010196FF
:1033D0000E94B21663E673E0CE0107960E94B21611
:1033E000AE014F5F5F4FBE01695F7F4F83EB93E19B
:1033F0000E942419CE0107960E94DF0ECE0101968D
:103400000E94DF0E6DE773E0CE0101960E94B216B6
:1034100063E673E0CE0107960E94B216AE014F5FDD
:103420005F4FBE01695F7F4F8DE993E10E942419D0
:10343000CE0107960E94DF0ECE0101960E94DF0E9C
:1034400061E873E0CE0101960E94B21663E673E074
:10345000CE0107960E94B216AE014F5F5F4FBE01CC
:10346000695F7F4F87E893E10E942419CE01079698
:103470000E94DF0ECE0101960E94DF0E65E873E028
:10348000CE0101960E94B21663E673E0CE01079664
:103490000E94B216AE014F5F5F4FBE01695F7F4F62
:1034A00081E793E10E942419CE0107960E94DF0E66
:1034B000CE0101960E94DF0E69E873E0CE0101960D
:1034C0000E94B21663E673E0CE0107960E94B21620
:1034D000AE014F5F5F4FBE01695F7F4F8BE593E1A8
:1034E0000E942419CE0107960E94DF0ECE0101969C
:1034F0000E94DF0E6FE873E0CE0101960E94B216C3
:1035000063E673E0CE0107960E94B216AE014F5FEC
:103510005F4FBE01695F7F4F85E493E10E942419EC
:10352000CE0107960E94DF0ECE0101960E94DF0EAB
:103530006BE973E0CE0101960E94B21663E673E078
:10354000CE0107960E94B216AE014F5F5F4FBE01DB
:10355000695F7F4F8FE293E10E942419CE010796A5
:103560000E94DF0ECE0101960E94DF0E61EA73E039
:10357000CE0101960E94B21663E673E0CE01079673
:103580000E94B216AE014F5F5F4FBE01695F7F4F71
:1035900089E193E10E942419CE0107960E94DF0E73
:1035A000CE0101960E94DF0E6AEA73E0CE01019619
:1035B0000E94B21663E673E0CE0107960E94B2162F
:1035C000AE014F5F5F4FBE01695F7F4F83E093E1C4
:1035D0000E942419CE0107960E94DF0ECE010196AB
:1035E0000E94DF0E61EB73E0CE0101960E94B216DD
:1035F00063E673E0CE0107960E94B216AE014F5FFC
:103600005F4FBE01695F7F4F8DEE92E10E942419EA
:10361000CE0107960E94DF0ECE0101960E94DF0EBA
:1036200069EB73E0CE0101960E94B21663E673E087
:10363000CE0107960E94B216AE014F5F5F4FBE01EA
:10364000695F7F4F86E594E10E942419CE010796B9
:103650000E94DF0ECE0101960E94DF0E63EC73E044
:10366000CE0101960E94B21663E673E0CE01079682
:103670000E94B216AE014F5F5F4FBE01695F7F4F80
:1036800087ED92E10E942419CE0107960E94DF0E79
:10369000CE0101960E94DF0E6BEC73E0CE01019625
:1036A0000E94B21663E673E0CE0107960E94B2163E
:1036B000AE014F5F5F4FBE01695F7F4F8DE694E1C2
:1036C0000E942419CE0107960E94DF0ECE010196BA
:1036D0000E94DF0E62ED73E0CE0101960E94B216E9
:1036E00063E673E0CE0107960E94B216AE014F5F0B
:1036F0005F4FBE01695F7F4F81EC92E10E94241908
:10370000CE0107960E94DF0ECE0101960E94DF0EC9
:103710006AED73E0CE0101960E94B21664E579E08D
:10372000CE0107960E94B216AE014F5F5F4FBE01F9
:10373000695F7F4F8BEA92E10E942419CE010796C0
:103740000E94DF0ECE0101960E94DF0E62EE73E052
:10375000CE0101960E94B21664E579E0CE0107968B
:103760000E94B216AE014F5F5F4FBE01695F7F4F8F
:1037700085E992E10E942419CE0107960E94DF0E8E
:10378000CE0101960E94DF0E69EE73E0CE01019634
:103790000E94B2166EE579E0CE0107960E94B2163D
:1037A000AE014F5F5F4FBE01695F7F4F8FE792E1D0
:1037B0000E942419CE0107960E94DF0ECE010196C9
:1037C0000E94DF0E65EF73E0CE0101960E94B216F3
:1037D0006EE579E0CE0107960E94B216AE014F5F0A
:1037E0005F4FBE01695F7F4F89E692E10E94241915
:1037F000CE0107960E94DF0ECE0101960E94DF0ED9
:1038000061E074E0CE0101960E94B2166EE579E0A7
:10381000CE0107960E94B216AE014F5F5F4FBE0108
:10382000695F7F4F83E592E10E942419CE010796DC
:103830000E94DF0ECE0101960E94DF0E6DE074E063
:10384000CE0101960E94B2166EE579E0CE01079690
:103850000E94B216AE014F5F5F4FBE01695F7F4F9E
:103860008DE392E10E942419CE0107960E94DF0E9B
:10387000CE0101960E94DF0E69E174E0CE0101964F
:103880000E94B2166EE579E0CE0107960E94B2164C
:10389000AE014F5F5F4FBE01695F7F4F87E292E1EC
:1038A0000E942419CE0107960E94DF0ECE010196D8
:1038B0000E94DF0E68E274E0CE0101960E94B2160B
:1038C0006EE579E0CE0107960E94B216AE014F5F19
:1038D0005F4FBE01695F7F4F81E192E10E94241931
:1038E000CE0107960E94DF0ECE0101960E94DF0EE8
:1038F00063E374E0CE0101960E94B2166EE579E0B2
:10390000CE0107960E94B216AE014F5F5F4FBE0117
:10391000695F7F4F8BEF91E10E942419CE010796DA
:103920000E94DF0ECE0101960E94DF0E6EE374E06E
:10393000CE0101960E94B2166EE579E0CE0107969F
:103940000E94B216AE014F5F5F4FBE01695F7F4FAD
:1039500085EE91E10E942419CE0107960E94DF0EA8
:10396000CE0101960E94DF0E69E474E0CE0101965B
:103970000E94B2166EE579E0CE0107960E94B2165B
:10398000AE014F5F5F4FBE01695F7F4F8FEC91E1EA
:103990000E942419CE0107960E94DF0ECE010196E7
:1039A0000E94DF0E64E574E0CE0101960E94B2161B
:1039B0006EE579E0CE0107960E94B216AE014F5F28
:1039C0005F4FBE01695F7F4F89EB91E10E9424192F
:1039D000CE0107960E94DF0ECE0101960E94DF0EF7
:1039E0006FE574E0CE0101960E94B2166EE579E0B3
:1039F000CE0107960E94B216AE014F5F5F4FBE0127
:103A0000695F7F4F83EA91E10E942419CE010796F6
:103A10000E94DF0ECE0101960E94DF0E6AE674E07E
:103A2000CE0101960E94B2166EE579E0CE010796AE
:103A30000E94B216AE014F5F5F4FBE01695F7F4FBC
:103A40008DE891E10E942419CE0107960E94DF0EB5
:103A5000CE0101960E94DF0E65E774E0CE0101966B
:103A60000E94B2166EE579E0CE0107960E94B2166A
:103A7000AE014F5F5F4FBE01695F7F4F87E791E106
:103A80000E942419CE0107960E94DF0ECE010196F6
:103A90000E94DF0E60E874E0CE0101960E94B2162B
:103AA0006EE579E0CE0107960E94B216AE014F5F37
:103AB0005F4FBE01695F7F4F81E691E10E9424194B
:103AC000CE0107960E94DF0ECE0101960E94DF0E06
:103AD0006BE874E0CE0101960E94B2166EE579E0C3
:103AE000CE0107960E94B216AE014F5F5F4FBE0136
:103AF000695F7F4F8BE491E10E942419CE01079604
:103B00000E94DF0ECE0101960E94DF0E62EE73E08E
:103B1000CE0101960E94B2166EE579E0CE010796BD
:103B20000E94B216AE014F5F5F4FBE01695F7F4FCB
:103B300085E391E10E942419CE0107960E94DF0ED1
:103B4000CE0101960E94DF0E66E974E0CE01019677
:103B50000E94B2166EE579E0CE0107960E94B21679
:103B6000AE014F5F5F4FBE01695F7F4F8FE191E113
:103B70000E942419CE0107960E94DF0ECE01019605
:103B80000E94DF0E60EA74E0CE0101960E94B21638
:103B90006EE579E0CE0107960E94B216AE014F5F46
:103BA0005F4FBE01695F7F4F89E091E10E94241958
:103BB000CE0107960E94DF0ECE0101960E94DF0E15
:103BC0006BEA74E0CE0101960E94B2166EE579E0D0
:103BD000CE0107960E94B216AE014F5F5F4FBE0145
:103BE000695F7F4F8FE394E10E942419CE0107960D
:103BF0000E94DF0ECE0101960E94DF0E62EB74E0A0
:103C0000CE0101960E94B21667E679E0CE010796D2
:103C10000E94B216AE014F5F5F4FBE01695F7F4FDA
:103C200083EF90E10E942419CE0107960E94DF0ED7
:103C3000CE0101960E94DF0E66EB74E0CE01019684
:103C40000E94B21667E679E0CE0107960E94B2168E
:103C5000AE014F5F5F4FBE01695F7F4F8DED90E119
:103C60000E942419CE0107960E94DF0ECE01019614
:103C70000E94DF0E6AEB74E0CE0101960E94B2163C
:103C800067E679E0CE0107960E94B216AE014F5F5B
:103C90005F4FBE01695F7F4F87EC90E10E9424195E
:103CA000CE0107960E94DF0ECE0101960E94DF0E24
:103CB0006EEB74E0CE0101960E94B21667E679E0E1
:103CC000CE0107960E94B216AE014F5F5F4FBE0154
:103CD000695F7F4F81EB90E10E942419CE01079626
:103CE0000E94DF0ECE0101960E94DF0E62EC74E0AE
:103CF000CE0101960E94B21667E679E0CE010796E2
:103D00000E94B216AE014F5F5F4FBE01695F7F4FE9
:103D10008BE990E10E942419CE0107960E94DF0EE4
:103D2000CE0101960E94DF0E66EC74E0CE01019692
:103D30000E94B21667E679E0CE0107960E94B2169D
:103D4000AE014F5F5F4FBE01695F7F4F85E890E135
:103D50000E942419CE0107960E94DF0ECE01019623
:103D60000E94DF0E6AEC74E0CE0101960E94B2164A
:103D700067E679E0CE0107960E94B216AE014F5F6A
:103D80005F4FBE01695F7F4F8FE690E10E9424196B
:103D9000CE0107960E94DF0ECE0101960E94DF0E33
:103DA0006EEC74E0CE0101960E94B21667E679E0EF
:103DB000CE0107960E94B216AE014F5F5F4FBE0163
:103DC000695F7F4F89E590E10E942419CE01079633
:103DD0000E94DF0ECE0101960E94DF0E62ED74E0BC
:103DE000CE0101960E94B21667E679E0CE010796F1
:103DF0000E94B216AE014F5F5F4FBE01695F7F4FF9
:103E000083E490E10E942419CE0107960E94DF0E00
:103E1000CE0101960E94DF0E66ED74E0CE010196A0
:103E20000E94B21667E679E0CE0107960E94B216AC
:103E3000AE014F5F5F4FBE01695F7F4F8DE290E142
:103E40000E942419CE0107960E94DF0ECE01019632
:103E50000E94DF0E6BED74E0CE0101960E94B21657
:103E600067E679E0CE0107960E94B216AE014F5F79
:103E70005F4FBE01695F7F4F87E190E10E94241987
:103E8000CE0107960E94DF0ECE0101960E94DF0E42
:103E900060EE74E0CE0101960E94B21667E679E00A
:103EA000CE0107960E94B216AE014F5F5F4FBE0172
:103EB000695F7F4F81E090E10E942419CE0107964F
:103EC0000E94DF0ECE0101960E94DF0E65EE74E0C7
:103ED000CE0101960E94B21667E679E0CE01079600
:103EE0000E94B216AE014F5F5F4FBE01695F7F4F08
:103EF0008BEE9FE00E942419CE0107960E94DF0EF0
:103F0000CE0101960E94DF0E6AEE74E0CE010196AA
:103F10000E94B21667E679E0CE0107960E94B216BB
:103F2000AE014F5F5F4FBE01695F7F4F85ED9FE040
:103F30000E942419CE0107960E94DF0ECE01019641
:103F40000E94DF0E6FEE74E0CE0101960E94B21661
:103F500067E679E0CE0107960E94B216AE014F5F88
:103F60005F4FBE01695F7F4F8FEB9FE00E94241976
:103F7000CE0107960E94DF0ECE0101960E94DF0E51
:103F800064EF74E0CE0101960E94B21667E679E014
:103F9000CE0107960E94B216AE014F5F5F4FBE0181
:103FA000695F7F4F89EA9FE00E942419CE0107963E
:103FB0000E94DF0ECE0101960E94DF0E69EF74E0D1
:103FC000CE0101960E94B21667E679E0CE0107960F
:103FD0000E94B216AE014F5F5F4FBE01695F7F4F17
:103FE00083E99FE00E942419CE0107960E94DF0E0C
:103FF000CE0101960E94DF0E6EEF74E0CE010196B5
:104000000E94B21667E679E0CE0107960E94B216CA
:10401000AE014F5F5F4FBE01695F7F4F8DE79FE04D
:104020000E942419CE0107960E94DF0ECE01019650
:104030000E94DF0E63E075E0CE0101960E94B21689
:1040400067E679E0CE0107960E94B216AE014F5F97
:104050005F4FBE01695F7F4F87E69FE00E94241992
:10406000CE0107960E94DF0ECE0101960E94DF0E60
:1040700068E075E0CE0101960E94B21667E679E02D
:10408000CE0107960E94B216AE014F5F5F4FBE0190
:10409000695F7F4F81E59FE00E942419CE0107965A
:1040A0000E94DF0ECE0101960E94DF0E6DE075E0EA
:1040B000CE0101960E94B21667E679E0CE0107961E
:1040C0000E94B216AE014F5F5F4FBE01695F7F4F26
:1040D0008BE39FE00E942419CE0107960E94DF0E19
:1040E000CE0101960E94DF0E62E175E0CE010196DD
:1040F0000E94B21667E679E0CE0107960E94B216DA
:10410000AE014F5F5F4FBE01695F7F4F85E29FE069
:104110000E942419CE0107960E94DF0ECE0101965F
:104120000E94DF0E67E175E0CE0101960E94B21693
:1041300067E679E0CE0107960E94B216AE014F5FA6
:104140005F4FBE01695F7F4F8FE09FE00E9424199F
:10415000CE0107960E94DF0ECE0101960E94DF0E6F
:104160006CE175E0CE0101960E94B21667E679E037
:10417000CE0107960E94B216AE014F5F5F4FBE019F
:10418000695F7F4F89EF9EE00E942419CE01079658
:104190000E94DF0ECE0101960E94DF0E61E275E003
:1041A000CE0101960E94B21667E679E0CE0107962D
:1041B0000E94B216AE014F5F5F4FBE01695F7F4F35
:1041C00083EE9EE00E942419CE0107960E94DF0E26
:1041D000CE0101960E94DF0E66E275E0CE010196E7
:1041E0000E94B21667E679E0CE0107960E94B216E9
:1041F000AE014F5F5F4FBE01695F7F4F8DEC9EE068
:104200000E942419CE0107960E94DF0ECE0101966E
:104210000E94DF0E6BE275E0CE0101960E94B2169D
:1042200067E679E0CE0107960E94B216AE014F5FB5
:104230005F4FBE01695F7F4F87EB9EE00E942419AC
:10424000CE0107960E94DF0ECE0101960E94DF0E7E
:1042500060E375E0CE0101960E94B21667E679E050
:10426000CE0107960E94B216AE014F5F5F4FBE01AE
:10427000695F7F4F81EA9EE00E942419CE01079674
:104280000E94DF0ECE0101960E94DF0E65E375E00D
:10429000CE0101960E94B21667E679E0CE0107963C
:1042A0000E94B216AE014F5F5F4FBE01695F7F4F44
:1042B0008BE89EE00E942419CE0107960E94DF0E33
:1042C000CE0101960E94DF0E62EE73E0CE010196F0
:1042D0000E94B21667E679E0CE0107960E94B216F8
:1042E000AE014F5F5F4FBE01695F7F4F85E79EE084
:1042F0000E942419CE0107960E94DF0ECE0101967E
:104300000E94DF0E6AE375E0CE0101960E94B216AC
:1043100061E779E0CE0107960E94B216AE014F5FC9
:104320005F4FBE01695F7F4F8FE59EE00E942419B9
:10433000CE0107960E94DF0ECE0101960E94DF0E8D
:1043400063E475E0CE0101960E94B21661E779E060
:10435000CE0107960E94B216AE014F5F5F4FBE01BD
:10436000695F7F4F89E49EE00E942419CE01079681
:104370000E94DF0ECE0101960E94DF0E6CE475E014
:10438000CE0101960E94B21661E779E0CE01079650
:104390000E94B216AE014F5F5F4FBE01695F7F4F53
:1043A00083E39EE00E942419CE0107960E94DF0E4F
:1043B000CE0101960E94DF0E65E575E0CE01019603
:1043C0000E94B21661E779E0CE0107960E94B2160C
:1043D000AE014F5F5F4FBE01695F7F4F8DE19EE091
:1043E0000E942419CE0107960E94DF0ECE0101968D
:1043F0000E94DF0E6EE575E0CE0101960E94B216B6
:1044000061E779E0CE0107960E94B216AE014F5FD8
:104410005F4FBE01695F7F4F87E09EE00E942419D5
:10442000CE0107960E94DF0ECE0101960E94DF0E9C
:1044300067E675E0CE0101960E94B21661E779E069
:10444000CE0107960E94B216AE014F5F5F4FBE01CC
:10445000695F7F4F81EF9DE00E942419CE0107968E
:104460000E94DF0ECE0101960E94DF0E60E775E02C
:10447000CE0101960E94B21661E779E0CE0107965F
:104480000E94B216AE014F5F5F4FBE01695F7F4F62
:104490008BED9DE00E942419CE0107960E94DF0E4D
:1044A000CE0101960E94DF0E69E775E0CE0101960C
:1044B0000E94B21661E779E0CE0107960E94B2161B
:1044C000AE014F5F5F4FBE01695F7F4F85EC9DE09E
:1044D0000E942419CE0107960E94DF0ECE0101969C
:1044E0000E94DF0E62E875E0CE0101960E94B216CE
:1044F00061E779E0CE0107960E94B216AE014F5FE8
:104500005F4FBE01695F7F4F8FEA9DE00E942419D3
:10451000CE0107960E94DF0ECE0101960E94DF0EAB
:104520006BE875E0CE0101960E94B21661E779E072
:10453000CE0107960E94B216AE014F5F5F4FBE01DB
:10454000695F7F4F89E99DE00E942419CE0107969B
:104550000E94DF0ECE0101960E94DF0E65E975E034
:10456000CE0101960E94B21661E779E0CE0107966E
:104570000E94B216AE014F5F5F4FBE01695F7F4F71
:1045800083E89DE00E942419CE0107960E94DF0E69
:10459000CE0101960E94DF0E6FE975E0CE01019613
:1045A0000E94B21661E779E0CE0107960E94B2162A
:1045B000AE014F5F5F4FBE01695F7F4F8DE69DE0AB
:1045C0000E942419CE0107960E94DF0ECE010196AB
:1045D0000E94DF0E69EA75E0CE0101960E94B216D4
:1045E00061E779E0CE0107960E94B216AE014F5FF7
:1045F0005F4FBE01695F7F4F87E59DE00E942419F0
:10460000CE0107960E94DF0ECE0101960E94DF0EBA
:1046100063EB75E0CE0101960E94B21661E779E086
:10462000CE0107960E94B216AE014F5F5F4FBE01EA
:10463000695F7F4F81E49DE00E942419CE010796B7
:104640000E94DF0ECE0101960E94DF0E6DEB75E039
:10465000CE0101960E94B21661E779E0CE0107967D
:104660000E94B216AE014F5F5F4FBE01695F7F4F80
:104670008BE29DE00E942419CE0107960E94DF0E76
:10468000CE0101960E94DF0E67EC75E0CE01019627
:104690000E94B21661E779E0CE0107960E94B21639
:1046A000AE014F5F5F4FBE01695F7F4F85E19DE0C7
:1046B0000E942419CE0107960E94DF0ECE010196BA
:1046C0000E94DF0E61ED75E0CE0101960E94B216E8
:1046D0006DED75E0CE0107960E94B216AE014F5FF8
:1046E0005F4FBE01695F7F4F8FEF9CE00E942419EE
:1046F000CE0107960E94DF0ECE0101960E94DF0ECA
:1047000063EE75E0CE0101960E94B21665E879E08D
:10471000CE0107960E94B216AE014F5F5F4FBE01F9
:10472000695F7F4F89EE9CE00E942419CE010796B5
:104730000E94DF0ECE0101960E94DF0E6CEE75E046
:10474000CE0101960E94B21665E879E0CE01079687
:104750000E94B216AE014F5F5F4FBE01695F7F4F8F
:1047600083ED9CE00E942419CE0107960E94DF0E83
:10477000CE0101960E94DF0E65EF75E0CE01019635
:104780000E94B21665E879E0CE0107960E94B21643
:10479000AE014F5F5F4FBE01695F7F4F8DEB9CE0C5
:1047A0000E942419CE0107960E94DF0ECE010196C9
:1047B0000E94DF0E6EEF75E0CE0101960E94B216E8
:1047C00065E879E0CE0107960E94B216AE014F5F10
:1047D0005F4FBE01695F7F4F87EA9CE00E9424190A
:1047E000CE0107960E94DF0ECE0101960E94DF0ED9
:1047F00067E076E0CE0101960E94B21665E879E0A6
:10480000CE0107960E94B216AE014F5F5F4FBE0108
:10481000695F7F4F81E99CE00E942419CE010796D1
:104820000E94DF0ECE0101960E94DF0E60E176E06D
:10483000CE0101960E94B21665E879E0CE01079696
:104840000E94B216AE014F5F5F4FBE01695F7F4F9E
:104850008BE79CE00E942419CE0107960E94DF0E90
:10486000CE0101960E94DF0E62EB74E0CE0101964C
:104870000E94B21665E879E0CE0107960E94B21652
:10488000AE014F5F5F4FBE01695F7F4F85E69CE0E1
:104890000E942419CE0107960E94DF0ECE010196D8
:1048A0000E94DF0E66EB74E0CE0101960E94B21604
:1048B00065E879E0CE0107960E94B216AE014F5F1F
:1048C0005F4FBE01695F7F4F8FE49CE00E94241917
:1048D000CE0107960E94DF0ECE0101960E94DF0EE8
:1048E0006AEB74E0CE0101960E94B21665E879E0A9
:1048F000CE0107960E94B216AE014F5F5F4FBE0118
:10490000695F7F4F89E39CE00E942419CE010796DE
:104910000E94DF0ECE0101960E94DF0E6EEB74E066
:10492000CE0101960E94B21665E879E0CE010796A5
:104930000E94B216AE014F5F5F4FBE01695F7F4FAD
:1049400083E29CE00E942419CE0107960E94DF0EAC
:10495000CE0101960E94DF0E62EC74E0CE0101965A
:104960000E94B21665E879E0CE0107960E94B21661
:10497000AE014F5F5F4FBE01695F7F4F8DE09CE0EE
:104980000E942419CE0107960E94DF0ECE010196E7
:104990000E94DF0E66EC74E0CE0101960E94B21612
:1049A00065E879E0CE0107960E94B216AE014F5F2E
:1049B0005F4FBE01695F7F4F87EF9BE00E94241924
:1049C000CE0107960E94DF0ECE0101960E94DF0EF7
:1049D0002C960FB6F894DEBF0FBECDBFDF91CF91FE
:1049E000089587EF9BE00E94E70E8DE09CE00E9417
:1049F000E70E83E29CE00E94E70E89E39CE00E94C0
:104A0000E70E8FE49CE00E94E70E85E69CE00E94A2
:104A1000E70E8BE79CE00E94E70E81E99CE00E9494
:104A2000E70E87EA9CE00E94E70E8DEB9CE00E9477
:104A3000E70E83ED9CE00E94E70E89EE9CE00E9469
:104A4000E70E8FEF9CE00E94E70E85E19DE00E945B
:104A5000E70E8BE29DE00E94E70E81E49DE00E945C
:104A6000E70E87E59DE00E94E70E8DE69DE00E943F
:104A7000E70E83E89DE00E94E70E89E99DE00E9431
:104A8000E70E8FEA9DE00E94E70E85EC9DE00E9414
:104A9000E70E8BED9DE00E94E70E81EF9DE00E9406
:104AA000E70E87E09EE00E94E70E8DE19EE00E9407
:104AB000E70E83E39EE00E94E70E89E49EE00E94F9
:104AC000E70E8FE59EE00E94E70E85E79EE00E94DC
:104AD000E70E8BE89EE00E94E70E81EA9EE00E94CE
:104AE000E70E87EB9EE00E94E70E8DEC9EE00E94B1
:104AF000E70E83EE9EE00E94E70E89EF9EE00E94A3
:104B0000E70E8FE09FE00E94E70E85E29FE00E94A3
:104B1000E70E8BE39FE00E94E70E81E59FE00E9495
:104B2000E70E87E69FE00E94E70E8DE79FE00E9478
:104B3000E70E83E99FE00E94E70E89EA9FE00E946A
:104B4000E70E8FEB9FE00E94E70E85ED9FE00E944D
:104B5000E70E8BEE9FE00E94E70E81E090E10E945D
:104B6000E70E87E190E10E94E70E8DE290E10E945E
:104B7000E70E83E490E10E94E70E89E590E10E9450
:104B8000E70E8FE690E10E94E70E85E890E10E9433
:104B9000E70E8BE990E10E94E70E81EB90E10E9425
:104BA000E70E87EC90E10E94E70E8DED90E10E9408
:104BB000E70E83EF90E10E94E70E8FE394E10E94FD
:104BC000E70E89E091E10E94E70E8FE191E10E94FA
:104BD000E70E85E391E10E94E70E8BE491E10E94EC
:104BE000E70E81E691E10E94E70E87E791E10E94DE
:104BF000E70E8DE891E10E94E70E83EA91E10E94C1
:104C0000E70E89EB91E10E94E70E8FEC91E10E94A3
:104C1000E70E85EE91E10E94E70E8BEF91E10E9495
:104C2000E70E81E192E10E94E70E87E292E10E94A5
:104C3000E70E8DE392E10E94E70E83E592E10E9488
:104C4000E70E89E692E10E94E70E8FE792E10E946B
:104C5000E70E85E992E10E94E70E8BEA92E10E945D
:104C6000E70E81EC92E10E94E70E8DE694E10E944E
:104C7000E70E87ED92E10E94E70E86E594E10E943F
:104C8000E70E8DEE92E10E94E70E83E093E10E9431
:104C9000E70E89E193E10E94E70E8FE293E10E9423
:104CA000E70E85E493E10E94E70E8BE593E10E9415
:104CB000E70E81E793E10E94E70E87E893E10E9407
:104CC000E70E8DE993E10E94E70E83EB93E10E94EA
:104CD000E70E89EC93E10E94E70E8FED93E10E94CD
:104CE000E70E85EF93E10E94E70E8BE094E10E94CE
:104CF000E70E81E294E10E94E70E6ACE8F929F92C6
:104D0000AF92BF92FF920F931F93CF93DF93CDB7D4
:104D1000DEB72C970FB6F894DEBF0FBECDBF8091E3
:104D20008714811163C18091861481115FC18AE368
:104D30000E9405078935924074F083E090E00E945C
:104D4000201184E090E00E94201168E572E080E08C
:104D500090E00E94450701E010E0FF24F3940E94D8
:104D6000A20A6093551489E30E94050790933814B2
:104D700080933714092E000CAA0BBB0B4091200224
:104D80005091210260912202709123024817590725
:104D90006A077B0790F080916C1481110EC050E07F
:104DA00040E06FEF81E090E00E94BD1141E050E0F3
:104DB0006CE887E090E00E94BD11809137149091DB
:104DC0003814092E000CAA0BBB0B40912002509105
:104DD00021026091220270912302481759076A0745
:104DE0007B0740F481E090E00E94B61187E090E0FC
:104DF0000E94B6118091551490E0B0E0A0E040917F
:104E00003B1450913C1460913D1470913E148417F2
:104E10009507A607B70708F440C080916C1481116C
:104E20003CC083E090E00E94B61181E090E00E94D7
:104E3000B61187E090E00E94B61188E090E00E94F1
:104E4000B6116AE070E080E090E00E944507F092C1
:104E50006C146091551470E08FE394E10E946A161F
:104E600060915514CE0107960E94D51569E176E050
:104E7000CE0101960E94B216BE01695F7F4FCE013E
:104E800001960E943E150E940111CE0101960E94DA
:104E9000DF0ECE0107960E94DF0E8091551490E040
:104EA000B0E0A0E040913B1450913C1460913D145F
:104EB00070913E1484179507A607B70758F48091A0
:104EC0006C14811107C050E040E06FEF83E090E088
:104ED0000E94BD116091551470E090E080E00E9446
:104EE0006E514B015C0160913B1470913C148091B8
:104EF0003D1490913E140E946C5126E636E646E63B
:104F00005FE30E94CD519B01AC01C501B4010E9439
:104F1000675118165CF080916C14811107C050E045
:104F200040E06FEF88E090E00E94BD116091551461
:104F300070E090E080E00E946E514B015C01609156
:104F40003B1470913C1480913D1490913E140E944A
:104F50006C5123E333E343E75FE30E94CD519B01B0
:104F6000AC01C501B4010E94965387FD04C088E0DE
:104F700090E00E94B6110130110509F047C041E0F0
:104F800050E06FEF82E090E00E94BD118FE090E072
:104F90000E94201184E090E00A30110509F047C01A
:104FA0000E94B61164E670E080E090E00E94450740
:104FB0000F5F1F4F0531110509F0D1CE81E090E060
:104FC0000E94B61183E090E00E94B61187E090E065
:104FD0000E94B61188E090E00E94B61182E090E055
:104FE0000E94B61185E090E00E94B6112C960FB693
:104FF000F894DEBF0FBECDBFDF91CF911F910F910F
:10500000FF90BF90AF909F908F9008950230110550
:1050100039F48FE090E00E94321181E090E0B8CF47
:105020000330110561F48FE090E00E9420110F30F1
:105030001105C1F48EE090E00E942011B3CF04303E
:105040001105F1F481E190E00E9420118FE30E94AC
:105050000507C3973CF450E040E06FEF85E090E037
:105060000E94BD110031110509F581E190E00E9417
:10507000321182E090E00E94321182E090E090CF05
:105080000930110509F086CF82E090E00E942011DE
:1050900050E040E064EB84E090E00E94BD110331F9
:1050A000110509F07FCF83E090E0C6CF01311105F3
:1050B000B1F783E090E00E94321174CF8F929F92FB
:1050C000AF92BF92DF92EF92FF920F931F93CF9315
:1050D000DF93CDB7DEB72C970FB6F894DEBF0FBEC7
:1050E000CDBF80918714811196C080918614811163
:1050F00092C081E080936C1401E010E0DD24D39431
:10510000083011050CF499C00E94A20A609355144E
:105110008DE30E9405077C0190939E0B80939D0B6D
:1051200089E30E9405079093381480933714A701F0
:10513000FF0C660B770B80901C0290901D02A090D4
:105140001E02B0901F02481559056A057B0508F438
:105150007FC08CE090E00E9432118AE090E00E94D3
:105160003211609118027091190280911A02909187
:105170001B020E94450784E090E00E94B61183E084
:1051800090E00E94B61181E090E00E94B61187E0A5
:1051900090E00E94B61188E090E00E94B61182E093
:1051A00090E00E94B61182E090E00E94321187E305
:1051B00096E00E94F010C8010E94E61088EF99E086
:1051C0000E94F01080919D0B90919E0B0E945512B1
:1051D00081E080939C0B81E090E00E94B61183E017
:1051E00090E00E94B61187E090E00E94B61188E03E
:1051F00090E00E94B61184E090E00E94B61182E037
:1052000090E00E94B61180919C0B813021F482E1E4
:1052100090E00E9420112C960FB6F894DEBF0FBECE
:10522000CDBFDF91CF911F910F91FF90EF90DF9055
:10523000BF90AF909F908F9008950730110509F4AB
:1052400067CF62E870E080E090E00E94450760CFA1
:10525000092E000CAA0BBB0B409120025091210299
:105260006091220270912302481759076A077B0751
:1052700090F080916C1481110EC050E040E06FEF0F
:1052800081E090E00E94BD1141E050E06CE887E0D1
:1052900090E00E94BD118091371490913814092E2E
:1052A000000CAA0BBB0B409120025091210260918F
:1052B000220270912302481759076A077B0740F4BE
:1052C00081E090E00E94B61187E090E00E94B61164
:1052D0008091551490E0B0E0A0E040913B145091D3
:1052E0003C1460913D1470913E1484179507A607F5
:1052F000B707E8F180916C14811139C008301105AD
:10530000B4F183E090E00E94B61181E090E00E9449
:10531000B61187E090E00E94B61188E090E00E940C
:10532000B611D0926C1460915514CE0107960E946C
:10533000D51562E576E0CE0101960E94B216BE0157
:10534000695F7F4FCE0101960E943E150E940111B8
:10535000CE0101960E94DF0ECE0107960E94DF0E5D
:105360006091551470E08FE394E10E946A16809179
:10537000551490E0B0E0A0E040913B1450913C14F3
:1053800060913D1470913E1484179507A607B707E6
:1053900070F480916C1481110AC0083011053CF042
:1053A00050E040E06FEF83E090E00E94BD1160911B
:1053B000551470E090E080E00E946E514B015C015A
:1053C00060913B1470913C1480913D1490913E1477
:1053D0000E946C5126E636E646E65FE30E94CD5118
:1053E0009B01AC01C501B4010E94675187FF15C044
:1053F00080916C14811111C00830110574F050E0D7
:1054000040E06FEF88E090E00E94BD1141E050E085
:105410006CE887E090E00E94BD116091551470E047
:1054200090E080E00E946E514B015C0160913B1462
:1054300070913C1480913D1490913E140E946C51E7
:1054400023E333E343E75FE30E94CD519B01AC01CB
:10545000C501B4010E94965387FD17C0083011059D
:10546000A4F088E090E00E94B61187E090E00E94EE
:10547000B6110330110509F06EC041E050E06FEF46
:1054800082E090E00E94BD115EC00130110509F07C
:1054900052C083E090E00E94201184E090E00E94DE
:1054A000201187E090E00E94321141E050E06FEF60
:1054B00084E090E00E94BD118AE090E00E942011FB
:1054C0008CE090E00E9420110A301105E1F581E0A6
:1054D00090E00E94201182E090E00E94321102339D
:1054E000110509F047C081E090E00E94B61183E009
:1054F00090E00E94B61187E090E00E94B61188E02B
:1055000090E00E94B61184E090E00E94B61182E023
:1055100090E00E94B61184E896E00E9412110E9469
:10552000431181E08093871425E040E060E08FEF35
:105530000E94360E50CE0230110509F09ACF82E05B
:1055400090E00E94201182E090E00D30110551F4AE
:105550000E9420110FC00430110579F482E090E020
:105560000E9432110F30110509F069C081E090E00E
:105570000E9432110F5F1F4FC3CD0730110509F094
:10558000A3CF82E090E00E94201110926C140E9440
:10559000CD050631110509F0A2CF89EEE82E83E092
:1055A000F82E8DE30E94050790939E0B80939D0B30
:1055B000092E000CAA0BBB0B40911C0250911D023E
:1055C00060911E0270911F0284179507A607B70706
:1055D000E8F18CE090E00E9432118AE090E00E94B5
:1055E0003211609118027091190280911A02909103
:1055F0001B020E94450784E090E00E94B61183E000
:1056000090E00E94B61181E090E00E94B61187E020
:1056100090E00E94B61188E090E00E94B61182E00E
:1056200090E00E94B61182E090E00E943211D09288
:105630009C0B80919C0B813009F09CCFCCCD043128
:10564000110509F0A6CF81E090E082CF81E0E81A51
:10565000F10839F481E796E00E941211D092871484
:10566000E8CF61E070E080E090E00E94450799CFCC
:105670006F927F928F929F92AF92BF92CF92DF9262
:10568000EF92FF920F931F93CF93DF93CDB7DEB7C7
:1056900062970FB6F894DEBF0FBECDBF7C018B01C1
:1056A00068EB76E0CE0101960E94B216BE016F5FF4
:1056B0007F4FC8010E948014D82ECE0101960E940F
:1056C000DF0EDD2009F4B2C06DE479E0CE01019671
:1056D0000E94B21650E040E0BE016F5F7F4FC801EC
:1056E0000E9464143C01CE0101960E94DF0E6DE41D
:1056F00079E0CE0101960E94B216A3014F5F5F4F81
:10570000BE016F5F7F4FC8010E9464144C01CE013F
:1057100001960E94DF0E54018FEFA81AB80A6DE4BB
:1057200079E0CE0101960E94B216A501BE016F5F1D
:105730007F4FC8010E9464146C01CE0101960E9443
:10574000DF0E6720609409F45AC08920809409F420
:1057500056C08FEFC816D80609F451C09601A501AE
:10576000B801CE0107960E94C316F8012481358145
:10577000A6014F5F5F4FB801CE0101960E94C3168C
:1057800062EA76E0CE010D960E94B216BE01695F14
:105790007F4FCE010D960E943E156DE479E00E9488
:1057A0002815BE016F5F7F4F0E943E150E940111B8
:1057B000CE010D960E94DF0E68E177E0C7010E94DE
:1057C000B216CE0101960E94DF0ECE0107960E940E
:1057D000DF0EC70162960FB6F894DEBF0FBECDBFD5
:1057E000DF91CF911F910F91FF90EF90DF90CF90BD
:1057F000BF90AF909F908F907F906F90089560ECD6
:1058000076E0CE0101960E94B216B801CE01019653
:105810000E943E150E940111CE0101960E94DF0EEA
:1058200068E177E0C7010E94B216D3CF60EF76E05F
:10583000CE0101960E94B216BE016F5F7F4FC80174
:105840000E948014D82ECE0101960E94DF0EDD202A
:1058500009F499C06DE479E0CE0101960E94B21678
:1058600050E040E0BE016F5F7F4FC8010E946414AA
:105870003C01CE0101960E94DF0E6DE479E0CE017D
:1058800001960E94B216A3014F5F5F4FBE016F5F8A
:105890007F4FC8010E9464144C01CE0101960E9402
:1058A000DF0E5401FFEFAF1ABF0A6DE479E0CE01BD
:1058B00001960E94B216A501BE016F5F7F4FC8011D
:1058C0000E9464146C01CE0101960E94DF0E6720D5
:1058D000609409F444C08920809409F440C0FFEF2B
:1058E000CF16DF06E1F19601A501B801CE010796BA
:1058F0000E94C316F80124813581A6014F5F5F4FD6
:10590000B801CE0101960E94C3166AED76E0CE0181
:105910000D960E94B216BE01695F7F4FCE010D96B3
:105920000E943E156DE479E00E942815BE016F5F6C
:105930007F4F0E943E150E940111CE010D960E94DC
:10594000DF0EF701118210821382128215821482F7
:10595000BE016F5F7F4FC7010E949B1432CF68EF7B
:1059600076E0CE0101960E94B216B801CE010196F2
:105970000E943E150E940111CE0101960E94DF0E89
:1059800067E177E04FCF6AE177E0EBCFCF92DF922C
:10599000EF92FF92CF93DF93CDB7DEB768970FB644
:1059A000F894DEBF0FBECDBF7C0170E0CE0107963C
:1059B0000E94A9156BEB76E0CE0101960E94B2160B
:1059C000B701CE0101960E943E156DE479E00E9478
:1059D0002815BE01695F7F4F0E943E156EE872E098
:1059E0000E942815BC01CE0143960E941616CE01D6
:1059F00001960E94DF0ECE0107960E94DF0EBE01C7
:105A00006D5E7F4F83EE95E10E947C0364E377E057
:105A1000CE0101960E94B216BE016D5E7F4FCE018F
:105A200001960E943E150E940111CE0101960E942E
:105A3000DF0E0E9478076B017C010E9478076C19C9
:105A40007D098E099F09603D77408105910508F029
:105A50004CC06FE872E0CE0101960E94B21683EE50
:105A600095E10E94CD03892B09F450C04AE063EE12
:105A700075E1CE0107960E940F17BE01695F7F4F47
:105A8000CE0101960E949B14CE0107960E94DF0E64
:105A900066E477E0CE0107960E94B216BE016F5F02
:105AA0007F4FCE0107960E943E150E940111CE0144
:105AB00007960E94DF0EBE016F5F7F4FCE010796F3
:105AC0000E941616BE01695F7F4FCE010D960E949F
:105AD000382BCE010D960E94DF0ECE0107960E9454
