:100000000C9406040C9437040C9437040C943704B5
:100010000C9437040C9437040C9437040C94370474
:100020000C9437040C9437040C9437040C94370464
:100030000C9437040C9437040C9437040C94370454
:100040000C9437040C9437040C9437040C94370444
:100050000C9437040C9437040C9437040C94E64049
:100060000C9437040C94B0400C9486400C943704E4
:100070000C9437040C9437040C9437040C94370414
:100080000C9437040C9437040C9437040C94370404
:100090000C9437040C9437040C9437040C943041BE
:1000A0000C9437040C9437040C9437040C943704E4
:1000B0000C9437040C9437040C9437040C943704D4
:1000C0000C9437040C9437040C9437040C943704C4
:1000D0000C9437040C9437040C9450400C94264034
:1000E0000C9437040C94FF050C9496220C94220671
:1000F0000C946D180C949C220C94B4150C94280646
:100100000C94A6040C94E6070C942C060C94100690
:100110000C9407060C947B0E0C9467180C94D20771
:100120000C94C9170C9493220C94C3070C94654249
:100130000C940A060C9484140C94C9040C94C015F5
:100140000C9476180C94AF070C9470180C94350628
:100150000C94B9070C94B5040C9430060C94140656
:100160000C94D7040C9479180C9499220C948B0756
:100170000C94920F0C94BA150C9477070C946A188F
:100180000C9481070C9493140C94B7150C949D0750
:100190000C94760E0C9419050C94AB150C94360641
:1001A0000C948A140C9403060C94FC150C948A0588
:1001B0000C94AE150C94150C0C948A220C9450429D
:1001C0000C94F0070C9489150C9472070C94E021A0
:1001D0000C94B1150C94D70E0C948D140C94DC0770
:1001E0000C94790E0C9472040C947C180C94872255
:1001F0000C9490220C94FA070C941E060C943A0668
:100200000C9496140C9490140C9495070C94BD15B2
:100210000C94F5050C946E040C948D220C948714A8
:100220000C94FB050C9481140C941A060C9404088D
:100230000C94960F0C948F0F0C9460140C947318FC
:100240000C946A070C94A507284453427574746F84
:100250006E29436F6D204572726F722120436C6569
:1002600061726564204275666665723A20002E767A
:10027000616C006765742000284E756D6265722997
:10028000436F6D204572726F722120436C656172FD
:100290006564204275666665723A2000284E756D69
:1002A00062657229436F6D204572726F722120431F
:1002B0006C6561726564204275666665723A2020DD
:1002C000002E76616C0067657420002E76616C3DAF
:1002D00000546F706C616D206379636C6520737579
:1002E000726573693A200046696E616C20637963B8
:1002F0006C65207375726573693A2000416C6C20DF
:1003000050726F6365737320697320446F6E65204C
:100310000054C3BC74C3BC6E206265736C656E65AB
:100320006D6564692E2E2000526F6C6C6572206BB7
:1003300061676964692079616B616C6179616D6184
:1003400064692E2E2E0046696C7472652076657283
:10035000696C6D6564690046696C747265204772EA
:10036000697065722069C3A765726973696E6520DB
:10037000766572696C6469004D6561737572656458
:100380002056616C75653A20004D65617375726524
:10039000642056616C75653A2000416C6C20507287
:1003A0006F636573733A20002D2D2D2D2D2D2D2D6E
:1003B0002D2D2D2D2D2D2D2D2D2D2D2D2D2D2D2D6D
:1003C0002D2D2D2D2D2D2D2D2D2D2D2D2D2D2D2D5D
:1003D0002D2D2D2D2D2D2D2D2D2D2D2D0054484520
:1003E000204E554D424552204F46204349474152E9
:1003F000455454453A2000436C656172656420425F
:1004000075666665723A2000436F6D204572726FA3
:1004100072212050616765205374617475733A20AE
:10042000004552524F522120554E4B4E4F574E20B1
:1004300050414745204E554D4245523A20005345C4
:100440005454494E475320504147452032005345AC
:100450004E534F522050414745005741524E494E4E
:10046000472050414745005749464920504147459C
:100470000053455454494E47532050414745004787
:10048000524150482050414745006D656173757277
:10049000655F546F626163636F5F476976655F5044
:1004A000617065725F4D6F76655F526F6C6C6572DF
:1004B0005F763300627450726F63657373312E74AC
:1004C00078743D2250524F434553532031220062ED
:1004D0007450726F63657373312E7478743D22505B
:1004E0005245535320434C45414E22004D656173A4
:1004F000757265642056616C75653A2000494E54EA
:10050000524F205041474500706167652077617206
:100510006E00706167652073657432007061676595
:100520002073656E730070616765206D616E3200C7
:1005300070616765206D616E0070616765206D6137
:10054000696E0046696C74726520477269706572E5
:100550002069C3A765726973696E652076657269E3
:100560006C656D6564692E2E2E210046696C74726F
:1005700065204772697065722069C3A765726973E7
:10058000696E6520766572696C646900546865728D
:100590006520697320612074696D656F75742065CD
:1005A00072726F7220696E20506973746F6E20379B
:1005B0002E2E2E21002D2D6D6561737572652074B0
:1005C0006F626163636F2074696D656F75742D2D43
:1005D000004D656173757265642056616C75653A8E
:1005E00020004D656173757265642056616C756598
:1005F0003A2000546F626163636F206379636C65B6
:10060000207375726573693A20002D2D6D656173D5
:1006100075726520746F626163636F2074696D65C4
:100620006F75742D2D004D6561737572656420566C
:10063000616C75653A200000002100240027002A23
:10064000002D003000330001010000040107010A01
:100650000100002200250028002B002E003100346C
:100660000002010000050108010B010A003A0057D1
:100670004946493A0054494D454F55542120282EAA
:1006800067657457696669290054494D454F55544B
:100690002120282E6765745769666929002D2D2D44
:1006A0002D2D2D2D2D2D2D2D2D2D2D2D2D2D2D2D7A
:1006B0002D2D2D2D2D2D2D2D2D2D2D2D2D2D2D2D6A
:1006C0002D2D2D2D2D2D2D2D2D2D2D2D2D2D2D2D5A
:1006D0002D004369676172657474652054696D65A6
:1006E0003A200046696C746572202B20546F626159
:1006F00063636F2074696D653A2000544845204E4D
:10070000554D424552204F4620434947415245549A
:1007100054453A2000000020002300260029002C28
:10072000002F00320000010000030106010901054D
:10073000050505070508080808020202020A0A085A
:100740000804040404010101010101010103030380
:100750000303030303040707070C0C0C0C0C0C0C1D
:100760000C0202020206060606060606060B0B0B24
:100770000B0B0B0B0B01021020200808102040105F
:100780002040800201020108040201010204081055
:100790002040808040201008040201800402018073
:1007A000402010080402010804020101020408109C
:1007B000204080010204081020408000000A0B0243
:1007C000090C0D0E080703040100000000000000E2
:1007D0000000000000000000000000000000000019
:1007E00000000000000000121110000000000000D6
:1007F00000000000000000000000000000000000F9
:10080000002E76616C3D00006542504211241FBEEF
:10081000CFEFD1E2DEBFCDBF00E00CBF18E0A0E01B
:10082000B2E0E6ECF6E900E00BBF02C007900D92E3
:10083000A632B107D9F721E1A6E2B8E001C01D92C6
:10084000A038B207E1F714E0C5E0D4E000E006C04C
:1008500021970109802FFE010E94F648C430D1077C
:1008600080E00807A9F70E94DC420C94514B0C94DD
:100870000000FC01A089B18982E08C93A485B58534
:100880001C92A685B7858FEC8C93108EA489B589B0
:1008900086E08C93A289B3898C9180618C93A28924
:1008A000B3898C9188608C93A289B3898C9180687C
:1008B0008C930288F389E02D80818F7D8083089559
:1008C000ECEDFFE0DC012D913D914C9121933193B2
:1008D0004193B0E1E831FB07A9F7089580E991E081
:1008E00008950895AF92BF92CF92DF92EF92FF9258
:1008F0000F931F93CF93DF936C017B018B01040F48
:10090000151FEB015E01AE18BF08C017D10759F0E3
:100910006991D601ED91FC910190F081E02DC60125
:100920001995892B79F7C501DF91CF911F910F910F
:10093000FF90EF90DF90CF90BF90AF900895FB01B4
:1009400044815581608171810C947204FC01538D46
:10095000448D252F30E0842F90E0821B930B541799
:1009600010F0CF96089501970895FC01918D828D26
:10097000981761F0A28DAE0FBF2FB11D5D968C91BF
:10098000928D9F5F9F73928F90E008958FEF9FEFFE
:100990000895FC01918D828D981731F0828DE80FBA
:1009A000F11D858D90E008958FEF9FEF0895FC0174
:1009B000918D228D892F90E0805C9F4F821B910941
:1009C0008F739927089584E290E10E94D70421E073
:1009D000892B09F420E0822F089581EC90E10E9498
:1009E000D70421E0892B09F420E0822F0895FC012F
:1009F000A48DA80FB92FB11DA35ABF4F2C91848D80
:100A000090E001968F739927848FA689B7892C93DC
:100A1000A089B1898C91837080648C93938D848D2F
:100A2000981306C00288F389E02D80818F7D808332
:100A30000895EF92FF920F931F93CF93DF93EC01F2
:100A400081E0888F9B8D8C8D98131AC0E889F98975
:100A5000808185FF15C09FB7F894EE89FF89608378
:100A6000E889F98980818370806480839FBF81E0F9
:100A700090E0DF91CF911F910F91FF90EF9008953B
:100A8000F62E0B8D10E00F5F1F4F0F731127E02E16
:100A90008C8D8E110CC00FB607FCFACFE889F9894E
:100AA000808185FFF5CFCE010E94F704F1CFEB8D59
:100AB000EC0FFD2FF11DE35AFF4FF0829FB7F89422
:100AC0000B8FEA89FB8980818062CFCF6FEF84E250
:100AD00090E10C941905EF92FF920F931F93CF931F
:100AE000DF938C017B01D0E0C0E0F701EC0FFD1F2C
:100AF0006491662339F0C8010E941905892B11F011
:100B00002196F3CFCE01DF91CF911F910F91FF90EE
:100B1000EF900895CF93DF93EC01888D8823B9F08F
:100B2000AA89BB89E889F9898C9185FD03C08081F8
:100B300086FD0DC00FB607FCF7CF8C9185FFF2CF75
:100B4000808185FFEDCFCE010E94F704E9CFDF91D0
:100B5000CF91089580E090E0892B29F00E94ED0468
:100B600081110E94000080E090E0892B49F080E034
:100B700090E0892B29F00E94000081110E94000062
:100B800080E090E0892B49F080E090E0892B29F00B
:100B90000E94000081110E94000080E090E0892BFB
:100BA00029F00E94E30481110C9400000895815003
:100BB000823108F05AC0E82FF0E08827ED51FA4F53
:100BC0008F4F0C94F64803060706F505FB05FF0555
:100BD00035060A06100614061A061E062206280600
:100BE0002C063506300636063A06809180008F774F
:100BF000809380000895809180008F7DF9CF80914F
:100C00008000877FF5CF84B58F7784BD089584B544
:100C10008F7DFBCF8091B0008F778093B0000895D7
:100C20008091B0008F7DF9CF809190008F77809375
:100C300090000895809190008F7DF9CF8091900071
:100C4000877FF5CF8091A0008F778093A0000895D3
:100C50008091A0008F7DF9CF8091A000877FF5CF94
:100C6000809120018F778093200108958091200149
:100C70008F7DF9CF80912001877FF5CFCF93DF93D0
:100C8000EBEEF7E08491E5EAF7E0D491EFE5F7E0E9
:100C9000C491CC23A1F081110E94D705EC2FF0E084
:100CA000EE0FFF1FEB5EF84FA591B491EC91ED2391
:100CB00081E090E009F480E0DF91CF91089580E039
:100CC00090E0FACF1F93CF93DF93282F30E0F90104
:100CD000E554F84F8491F901EB58F84FD491F9019C
:100CE000E15DF84FC491CC23A9F0162F81110E9429
:100CF000D705EC2FF0E0EE0FFF1FEF5AF94FA5914B
:100D0000B4918FB7F894EC91111108C0D095DE23FF
:100D1000DC938FBFDF91CF911F910895DE2BF8CF29
:100D2000CF92DF92EF92FF92CF930E943E060197FF
:100D3000E1F761E080E30E94620660E085E30E94E3
:100D400062060E943E06892BE1F7C8E1C12CD12C36
:100D5000760161E085E30E946206CC0CDD1CEE1C8E
:100D6000FF1C60E085E30E9462060E943E06892B1C
:100D700029F02FEFC21AD20AE20AF20AC15049F74B
:100D800061E085E30E94620660E085E30E946206FE
:100D9000C701B6018058CF91FF90EF90DF90CF90C0
:100DA0000895CF92DF92EF92FF92CF93DF930E944C
:100DB00090066B017C01C3E2D0E0CE010197F1F710
:100DC0000E9490062197F1F76C0D7D1D8E1D9F1DD1
:100DD00022E030E040E050E00E94C247CA01B90181
:100DE0000E94A5466093660F7093670F8093680F0B
:100DF0009093690FDF91CF91FF90EF90DF90CF90AC
:100E00000895CF93DF9390E0FC01EB58F84F2491C5
:100E1000815D984FFC0184918823D1F090E0880F88
:100E2000991FFC01E95CF94FA591B491FC01EF5ABF
:100E3000F94FC591D49161110EC09FB7F8948C9170
:100E4000E22FE0958E238C932881E223E8839FBFD5
:100E5000DF91CF9108958FB7F894EC91E22BEC934A
:100E60008FBFF6CF1F93CF93DF93182FEB0161E075
:100E70000E940107209739F460E0812FDF91CF9124
:100E80001F910C946206CF3FD10511F461E0F5CFBC
:100E9000E12FF0E0E554F84FE491E150E23108F041
:100EA000B3C0F0E08827E85AF84F8F4F0C94F6480B
:100EB0006A077207770781078B07040895079D0764
:100EC000A507AF07B907C307D207DC070408E60781
:100ED000F007FA0784B5806884BDC7BDDF91CF9164
:100EE0001F91089584B5806284BDC8BDF7CF8091FD
:100EF0008000806880938000D0938900C093880030
:100F0000EDCF80918000806280938000D0938B0031
:100F1000C0938A00E3CF8091800088608093800036
:100F2000D0938D00C0938C00D9CF8091B0008068A1
:100F30008093B000C093B300D1CF8091B0008062A5
:100F40008093B000C093B400C9CF809190008068B6
:100F500080939000D0939900C0939800BFCF809168
:100F60009000806280939000D0939B00C0939A0081
:100F7000B5CF80919000886080939000D0939D00C1
:100F8000C0939C00ABCF8091A00080688093A000AC
:100F90008091A0008F7B8093A000D093A900C09384
:100FA000A8009CCF8091A00080628093A000D09385
:100FB000AB00C093AA0092CF8091A000886080937C
:100FC000A000D093AD00C093AC0088CF80912001E9
:100FD000806880932001D0932901C09328017ECF9F
:100FE00080912001806280932001D0932B01C093D7
:100FF0002A0174CF80912001886080932001D093D2
:101000002D01C0932C016ACFC038D1050CF03ECF22
:1010100033CF865320917B00982F987F277F922B88
:1010200090937B008770806480937C0080917A002D
:10103000806480937A0080917A0086FDFCCF809155
:1010400078009091790008953FB7F8948091E60870
:101050009091E708A091E808B091E90826B5A89B0F
:1010600005C02F3F19F00196A11DB11D3FBFBA2F3A
:10107000A92F982F8827BC01CD01620F711D811DFA
:10108000911D42E0660F771F881F991F4A95D1F77F
:1010900008958F929F92AF92BF92CF92DF92EF927C
:1010A000FF926B017C010E9424084B015C01C1147A
:1010B000D104E104F104B9F00E9424086819790907
:1010C0008A099B09683E73408105910580F321E000
:1010D000C21AD108E108F10888EE880E83E0981E54
:1010E000A11CB11CE4CFFF90EF90DF90CF90BF9098
:1010F000AF909F908F9008952FB7F8946091E20879
:101100007091E3088091E4089091E5082FBF08955D
:101110000F931F930E947C0860932C1070932D10E6
:1011200080932E1090932F1084E290E10E94B504DA
:1011300097FF1DC00E947C0800912C1010912D106B
:1011400020912E1030912F10601B710B820B930B8E
:10115000009128101091291020912A1030912B1005
:101160006017710782079307F8F28FEF9FEF1F91C7
:101170000F9108954F925F926F927F929F92AF92DC
:10118000BF92CF92DF92EF92FF920F931F93CF9374
:10119000DF9300D0CDB7DEB7D0905E1180916111A2
:1011A00090916211A0916311B0916411892B8A2BE7
:1011B0008B2BD9F00E94240800912010109121104F
:1011C0002091221030912310601B710B820B930B26
:1011D000009161111091621120916311309164119D
:1011E0006017710782079307C8F20E942408609372
:1011F0002010709321108093221090932310E0917F
:101200006911F0916A11309759F040916511509130
:10121000661160916711709168118D2D1995D82E06
:10122000E0901E10F0901F104D2C512C712C612C51
:10123000E114F10409F459C0D7011C96CC901C9715
:1012400080915F11909160118436910510F41C9685
:101250001C92D701ED91FC91A280B38019821A8271
:101260001B82DD2079F1F701369610E000E0219134
:10127000222319F19280992001F130E050E040E002
:101280002F5F3F4F4F4F5F4FC301B2010E94D248C3
:101290009B01AC01892D90E0B0E0A0E0BC01CD0144
:1012A0006F5F7F4F8F4F9F4F0E94D248A1E0B0E009
:1012B000AC0FBD1FA00FB11F8C930F5F1F4F0330EA
:1012C0001105A9F609811A812B81F70145855685FB
:1012D00062817381C701F5011995D7011C96CC92E3
:1012E0001C971496ED90FC90A3CF80911C109091C8
:1012F0001D108C010F5F1F4F10931D1000931C10C9
:101300004997B4F10E947C08C0901810D090191031
:10131000E0901A10F0901B109B01AC012C193D09B4
:101320004E095F0921F421E030E040E050E088EE12
:1013300093E0089FB001099F700D189F700D112454
:10134000072E000C880B990B0E94F4473093601114
:1013500020935F1110921D1010921C100E947C08A7
:10136000609318107093191080931A1090931B10AB
:101370000F900F900F90DF91CF911F910F91FF90E1
:10138000EF90DF90CF90BF90AF909F907F906F9045
:101390005F904F9008951F93CF93DF93C1E0C09368
:1013A0009D08882399F1D091B8001091BA008091DE
:1013B000BC008A7B8093BC0060E084E10E946206EE
:1013C00060E085E10E9462061092B20FC093B10FF7
:1013D00010928C0F61E084E10E94620661E085E179
:1013E0000E9462068091B9008E7F8093B90080913F
:1013F000B9008D7F8093B90088E48093B80085E4BC
:101400008093BC001093BA00D093B800DF91CF91C5
:101410001F910895CF92DF92EF92FF920F931F9347
:10142000CF93DF93EA01DC0111968D919C91DC0151
:10143000ED91FC910280F381E02D1995C817D90731
:1014400009F0AAC0D091DB0F91E0D13208F09CC026
:10145000C091DA0F0E9424086B017C018091B20FC9
:1014600081116CC082E08093B20F81E08093B10F54
:101470008FEF8093B00F1092AF0FD093AE0FAAEB07
:10148000BFE0EEE8FFE080E0D81390C010928D0F2F
:1014900080918D0FCC0FC82BC0938D0F80918C0F36
:1014A000813009F087C010928C0F0E9424086B01D4
:1014B0007C0180918D0F8093BB008091B40F90913F
:1014C000B50FA091B60FB091B70F892B8A2B8B2B3C
:1014D000A1F00E9424080091B40F1091B50F209143
:1014E000B60F3091B70F6C197D098E099F09061749
:1014F00017072807390708F442C08091BC0083FD14
:10150000D8CF85EC8093BC000E9424086B017C013D
:101510008091B20F823009F44FC08091B00F90E0FB
:101520008F3F91F18091B00F92E0803269F180910C
:10153000B00F94E0803341F593E026C08091B40F62
:101540009091B50FA091B60FB091B70F892B8A2B50
:101550008B2B09F483CF0E9424080091B40F1091C3
:10156000B50F2091B60F3091B70F6C197D098E0918
:101570009F09061717072807390708F06FCF8091D2
:10158000B30F0E94CB0995E01092B90F1092DB0FB8
:101590001092B80F81E0911180E0DF91CF911F91FF
:1015A0000F91FF90EF90DF90CF9008959D919193D0
:1015B0008F5F6ACF85EEA6CF8091B40F9091B50F63
:1015C000A091B60FB091B70F892B8A2B8B2B09F402
:1015D0009FCF0E9424080091B40F1091B50F209165
:1015E000B60F3091B70F6C197D098E099F09061748
:1015F00017072807390708F08BCFC1CF2091BE0805
:10160000260F3327331F21323105ECF42091B20F1E
:10161000FC0190E080E0243069F082E00895A09120
:10162000BE082191AC014256574FA40FB52FB11DF2
:101630002C930196861798F38091BE08680F6093EB
:10164000BE0880E0089581E008950895E0916B0F51
:1016500080916A0FE81730F4F0E0E459F04F808190
:1016600090E008958FEF9FEF089590916B0F809118
:101670006A0F2FEF3FEF981748F4E92FF0E0E45995
:10168000F04F208130E09F5F90936B0FC901089568
:1016900080916A0F90916B0F891B990B0895CF92DF
:1016A000DF92EF92FF920F931F93CF93DF937C0112
:1016B000CB018A012091B80F222389F0EB016B0145
:1016C000C40ED51ECC15DD0569F06991D701ED91E9
:1016D000FC910190F081E02DC7011995F3CF642FA3
:1016E0000E94FE0AC801DF91CF911F910F91FF90D8
:1016F000EF90DF90CF900895CF93DF931F92CDB7F7
:10170000DEB769832091B80F2223F9F02091DB0F17
:10171000203258F021E030E0FC013383228390E056
:1017200080E00F90DF91CF9108958091B90FE82F5D
:10173000F0E0E654F04F998190838F5F8093B90F6A
:101740008093DB0F81E090E0ECCF61E0CE01019669
:101750000E94FE0AF7CF90E080E00895CF92DF92DA
:10176000EF92FF926091660F7091670F8091680F02
:101770009091690F0E9497486B017C010E9490062E
:101780006C197D098E099F090E94A5462DEC3CEC41
:101790004CE251E40E9425480E94974897FF03C0FD
:1017A00060E070E0CB01FF90EF90DF90CF90089564
:1017B0000F931F93CF93DF93209199082F5F322FC0
:1017C00037703093990820FF2BC020E831FD20644A
:1017D000347009F02062205FFC01EC01239600E0E8
:1017E00011E06485662329F070E0C8010E94E24898
:1017F0006F5F6187322F369F030E30E0311D112459
:10180000311110C01682662311F061506187319644
:10181000EC17FD0731F7DF91CF911F910F910895DC
:1018200020E0D4CF31503683EECF4F925F927F923B
:101830008F929F92AF92BF92CF92DF92EF92FF92E0
:101840000F931F93CF93DF932C01EB010E94240889
:10185000F20127853089621B730B6A307105B0F382
:10186000F8948A819B81181619060CF0CDC1E88185
:10187000F98164B3862E689485F834B33F7D34BB18
:10188000D9848E812D2D281B822F2E834F85042EE7
:10189000000C550BAA81BB817C85FD84EE847F5FA3
:1018A000F394E3949F819884BA84AB841081C12C13
:1018B0006C2D0C2D2C2D2081112788942111280F9F
:1018C00008F42FEF8195889470FD120F1795889476
:1018D00071FD120F1795889472FD120F1795889459
:1018E00073FD120F1795889474FD120F1795889445
:1018F00075FD120F1795889476FD120F1795889431
:1019000077FD120F17958894622F7111612F8D0D3D
:10191000162F002C84BA00C017FF34BB2181662724
:10192000889400C000C0002C34BB2111290F00C0D6
:10193000002C84BA00C016FF34BB08F42FEF919539
:10194000889400C000C0002C34BBF0FC620F00C0C3
:10195000002C84BA00C015FF34BB67958894F1FC55
:10196000620F00C000C0002C34BB6795889400C093
:10197000002C84BA00C014FF34BBF2FC620F6795E0
:10198000889400C000C0002C34BBF3FC620F00C080
:10199000002C84BA00C013FF34BB67958894F4FC14
:1019A000620F00C000C0002C34BB6795889400C053
:1019B000002C84BA00C012FF34BBF5FC620F67959F
:1019C000889400C000C0002C34BBF6FC620F00C03D
:1019D000002C84BA00C011FF34BB67958894F7FCD3
:1019E000620F00C000C0002C34BB6795889400C013
:1019F000002C84BA00C010FF34BB122FF110162F38
:101A00009B0D00C000C0002C34BB00C000C0002CE7
:101A100084BA00C017FF34BB22816627889400C0B7
:101A200000C0002C34BB2111290D00C0002C84BA49
:101A300000C016FF34BB08F42FEFE40FF51F00C001
:101A400000C0002C34BBE0FC620F00C0002C84BA44
:101A500000C015FF34BB67958894E1FC620F00C09D
:101A600000C0002C34BB6795889400C0002C84BA59
:101A700000C014FF34BBE2FC620F6795889400C07D
:101A800000C0002C34BBE3FC620F00C0002C84BA01
:101A900000C013FF34BB67958894E4FC620F00C05C
:101AA00000C0002C34BB6795889400C0002C84BA19
:101AB00000C012FF34BBE5FC620F6795889400C03C
:101AC00000C0002C34BBE6FC620F00C0002C84BABE
:101AD00000C011FF34BB67958894E7FC620F00C01B
:101AE00000C0002C34BB6795889400C0002C84BAD9
:101AF00000C010FF34BB122FE110162F919400C0CC
:101B000000C0002C34BB9A0C00C000C084BA00C0D6
:101B100017FF34BB20816627889400C000C0002CCA
:101B200034BB2111280F00C0002C84BA00C016FF5E
:101B300034BB08F42FEF8195889400C000C0002CBE
:101B400034BB70FD620F00C0002C84BA00C015FFCA
:101B500034BB6795889471FD620F00C000C0002CF3
:101B600034BB6795889400C0002C84BA00C014FF71
:101B700034BB72FD620F6795889400C000C0002CD2
:101B800034BB73FD620F00C0002C84BA00C013FF89
:101B900034BB6795889474FD620F00C000C0002CB0
:101BA00034BB6795889400C0002C84BA00C012FF33
:101BB00034BB75FD620F6795889400C000C0002C8F
:101BC00034BB76FD620F00C0002C84BA00C011FF48
:101BD00034BB6795889477FD620F00C000C0002C6D
:101BE00034BB6795889400C0002C84BA00C010FFF5
:101BF00034BB122F7111162F8D0D00C000C0002CA8
:101C000034BB119709F086CE4A815B8120EE31E02A
:101C1000DA010E94FE48DC01CB01F4E0B695A795FD
:101C200097958795FA95D1F730E020E0B901EAE978
:101C30004E9F040E611D5E9F600D711D1124650F86
:101C4000711D860F971FA11DB11D893E43E09407AA
:101C5000A105B10508F434C0885E9340A109B1091B
:101C600042E0B695A795979587954A95D1F747E0B5
:101C7000849F080E211D949F200D311D1124290FD2
:101C8000311D6091980870E0860F971F820F931F97
:101C90004091E2085091E3086091E4087091E508F2
:101CA000292F3327420F531F611D711D4093E208F6
:101CB0005093E3086093E4087093E50880939808D4
:101CC00078940E942408F201708B6787DF91CF918E
:101CD0001F910F91FF90EF90DF90CF90BF90AF904A
:101CE0009F908F907F905F904F90089581E090E05B
:101CF00008959D9A08956F927F928F92CF92DF926E
:101D0000EF92FF920F931F93CF93DF93CDB7DEB780
:101D100062970FB6F894DEBF0FBECDBF6C017A019B
:101D20003801822EDC011C962C91CA0157FF04C099
:101D300088279927841B950B7A8369839C838B83DF
:101D40009E838D836D867E868F86213049F5CE01F8
:101D500001960E94D80B83E0888B1A8A198AF7FEB5
:101D600002C08DEF888BD601ED91FC910684F7853A
:101D7000E02DBE016F5F7F4FC601199562960FB6C9
:101D8000F894DEBF0FBECDBFDF91CF911F910F91B1
:101D9000FF90EF90DF90CF908F907F906F9008959D
:101DA0001C861B861A86198618861F82D4CFEF924E
:101DB000FF920F931F93CF93DF93CDB7DEB7629758
:101DC0000FB6F894DEBF0FBECDBF7C01DC011C96C0
:101DD0008C917A8369835C834B835E834D830D870B
:101DE0001E872F878130F9F4CE0101960E94D80B0F
:101DF000188A1A8A198AD701ED91FC910684F78511
:101E0000E02DBE016F5F7F4FC701199562960FB637
:101E1000F894DEBF0FBECDBFDF91CF911F910F9120
:101E2000FF90EF9008951C861B861A8619861886E7
:101E30001F82DECFCF93DF9300D0CDB7DEB71982FC
:101E40001A821B82CE0101960E9460040E94BA0889
:101E50000F900F900F90DF91CF910895CF93DF9364
:101E600000D0CDB7DEB769838A834B83CE0101965C
:101E70000E9460040E94BA080F900F900F90DF91AB
:101E8000CF910895BF92CF92DF92EF92FF920F937E
:101E90001F93CF93DF9300D0CDB7DEB7C82EB62EF9
:101EA000D42EE22E19821A821B82CE0101960E9444
:101EB00060040E94BA0810E000E0F12C0E151F0526
:101EC0000CF5B982CA82DB82CE0101960E946004C1
:101ED0000E94BA0864E670E080E090E00E94490841
:101EE00019821A821B82CE0101960E9460040E9410
:101EF000BA0864E670E080E090E00E9449080F5F55
:101F00001F4FDCCF0F900F900F90DF91CF911F915B
:101F10000F91FF90EF90DF90CF90BF90089590E0E9
:101F200080E00895FC018585968508950F931F93A1
:101F3000CF93DF9300D0CDB7DEB7AB0119821A8201
:101F40001B82DC01ED91FC910190F081E02D00E01D
:101F500010E020E0BE016F5F7F4F19950F900F904A
:101F60000F90DF91CF911F910F9108951092650FFF
:101F70001092640F10924E0F10928C080895CF9318
:101F8000DF93C5E2D2E060E089910E94620682E0C0
:101F9000CE32D807C1F7DF91CF910895BC0184E21A
:101FA00090E10E949F040E9466050E9466050C94C1
:101FB0006605CF93DF93EC0188819981009711F03A
:101FC0000E94B549198218821D821C821B821A82C6
:101FD000DF91CF910895FC0180819181009711F0EC
:101FE0000C94B5490895CF93DF93EC0108960E94B5
:101FF000EB0FCE010296DF91CF910C94EB0FCF93B4
:10200000DF9300D0CDB7DEB719828A836B838091CE
:10201000771190917811FC012481358123303105AD
:1020200088F0208131E03093B80F2093DA0F1092BE
:10203000B90F1092DB0F43E050E0BE016F5F7F4F9E
:102040000E940A0A0F900F900F90DF91CF91089590
:102050003F924F925F926F927F928F929F92AF9238
:10206000BF92CF92DF92EF92FF920F931F93CF9385
:10207000DF931F921F92CDB7DEB719828A838091BA
:10208000771190917811DC0114962D913C91159760
:102090002230310588F02C9131E03093B80F209335
:1020A000DA0F1092B90F1092DB0F42E050E0BE0140
:1020B0006F5F7F4F0E940A0AE0907711F0907811CD
:1020C000DD24D394AA24AA9485EEC82E95ECB92ECB
:1020D00001E0F70184819581892B09F400E0802ECD
:1020E000912CD7013C900E9424082B013C01809147
:1020F000B20F811164C0102FD092B20F0093B10FB4
:10210000A092B00F1092AF0F8FEF800F8093AE0FA1
:10211000D0928D0F80918D0F330C382A30928D0F15
:1021200080918C0F813009F08CC010928C0F0E942E
:1021300024082B013C0180918D0F8093BB0080917E
:10214000B40F9091B50FA091B60FB091B70F892B36
:102150008A2B8B2BA1F00E9424082091B40F309180
:10216000B50F4091B60F5091B70F641975098609E4
:102170009709261737074807590708F441C0809187
:10218000BC0083FDD8CFB092BC000E9424082B0174
:102190003C018091B20F813009F456C08091AF0F9D
:1021A000801710F41091AF0FEEE8FFE0ACE6BFE04F
:1021B00080E0811751F191919D938F5FFACF8091CB
:1021C000B40F9091B50FA091B60FB091B70F892BB6
:1021D0008A2B8B2B09F48BCF0E9424082091B40FFB
:1021E0003091B50F4091B60F5091B70F6419750932
:1021F00086099709261737074807590708F077CF48
:102200008091B30F0E94CB0910E010926B0F1093D6
:102210006A0F012F10E008151905D9F590E080E04C
:102220008017910798F5F70181819281DC01ED918A
:10223000FC910284F385E02D1995898381E090E07B
:10224000EFCFC092BC00A1CF8091B40F9091B50F99
:10225000A091B60FB091B70F892B8A2B8B2B09F465
:1022600098CF0E9424082091B40F3091B50F40916F
:10227000B60F5091B70F641975098609970926178B
:1022800037074807590708F084CFBACF012B09F464
:102290001FCF89810F900F90DF91CF911F910F91E8
:1022A000FF90EF90DF90CF90BF90AF909F908F9076
:1022B0007F906F905F904F903F900895CF938DE403
:1022C00090E00E94281080FFFACF61E088E190E062
:1022D0000E94FF0F8FE490E00E94281082FFFACF47
:1022E00082E690E00E942810C82F67E085E190E028
:1022F0000E94FF0F8C2FCF910895FB0101900020C9
:10230000E9F73197AF01461B570B0C9472046AE74B
:1023100072E081EC90E10C947D11CF93DF93BC01CE
:1023200081EC90E10E946B05EC010E9487118C0FFB
:102330009D1FDF91CF910895CF93DF93BC0181EC76
:1023400090E10E949F04EC010E9487118C0F9D1F59
:10235000DF91CF9108958F929F92AF92BF92EF92AB
:10236000FF920F931F93CF93DF93CDB7DEB7A19763
:102370000FB6F894DEBF0FBECDBF7C01FA01CB01D2
:1023800019A2223008F42AE08E010F5D1F4F822E21
:10239000912CB12CA12CBF01A50194010E94F447FE
:1023A000F901CA016A300CF5605DD8016E938D01A8
:1023B000232B242B252B79F790E080E0109721F038
:1023C000BD01C7010E947D11A1960FB6F894DEBF32
:1023D0000FBECDBFDF91CF911F910F91FF90EF9076
:1023E000BF90AF909F908F900895695CDECFCF93A0
:1023F000DF93482F50E070E060E02AE081EC90E14C
:102400000E94AB11EC010E9487118C0F9D1FDF9180
:10241000CF910895CF92DF92EF92FF920F931F9387
:10242000CF93DF93EC016A017B016DE20E941905F5
:102430008C0144275527BA014C195D096E097F09A3
:102440002AE0CE010E94AB11800F911FDF91CF9146
:102450001F910F91FF90EF90DF90CF900895CF9351
:10246000DF93AB01BC0177FF0CC081EC90E10E94CF
:102470000A12EC010E9487118C0F9D1FDF91CF91F2
:1024800008952AE081EC90E10E94AB11F2CFAB01FC
:10249000770F660B770B77FD0C940A122AE00C94E9
:1024A000AB11CF93DF93BC0181EC90E10E94471206
:1024B000EC010E9487118C0F9D1FDF91CF91089531
:1024C000CF93DF93BC0181EC90E10E947D11EC0180
:1024D0000E9487118C0F9D1FDF91CF910895835D1E
:1024E0009D4F61E0FC0180810C946206835D9D4FED
:1024F00060E0FC0180810C946206CF93DF93C1E021
:10250000D0E0CE010E9476122196C531D105C9F7DF
:10251000DF91CF910895CF93DF938091650F811163
:102520005CC08091640F811158C08FE30E9409083C
:102530008536910524F083E190E00E94761282E0D6
:1025400090E00E94761283E090E00E94761284E090
:1025500090E00E94761268EC70E080E090E00E94CB
:1025600049088DE090E00E946F12C5EFD1E088E34A
:102570000E940908843F9140D4F464E670E080E052
:1025800090E00E94490882E190E00E94761264E6A1
:1025900070E080E090E00E94490883E090E00E94B3
:1025A0006F1284E090E0DF91CF910C946F1221972D
:1025B00069F481E08093650F0E94BF0F0E947D1235
:1025C0008DE792E0DF91CF910C94601261E070E0B2
:1025D00080E090E00E944908CACFDF91CF91089532
:1025E000CF93DF938091650F8111C2C08091640FFA
:1025F0008111BEC088E30E940908843F91400CF01D
:10260000B1C08DE090E00E94761282E190E00E94DD
:1026100076128FE30E940908853691050CF48FC06D
:1026200083E190E00E946F1266E970E080E090E044
:102630000E94490883E190E00E9476126AEF70E000
:1026400080E090E00E94490883E190E00E946F12D0
:10265000C5EFD1E088E30E940908853F914064F00E
:102660008BE695E00E948D1168EC70E080E090E0D0
:10267000DF91CF910C944908219709F059C083E468
:1026800095E00E948D1181E08093650F40E060E04D
:102690008FEF0E942E0F83E190E00E9476128DE072
:1026A00090E00E946F1268EE73E080E090E00E947C
:1026B00049088BE090E00E946F1264EF71E080E0C7
:1026C00090E00E9449088DE090E00E9476128BE035
:1026D00090E00E94761264EF71E080E090E00E944A
:1026E00049088DE090E00E946F128BE090E00E941C
:1026F0006F1264EF71E080E090E00E9449088BE087
:1027000090E00E94761264EF71E080E090E00E9419
:1027100049088DE090E00E9476124FEF6FEF8FEF47
:102720000E942E0F0E94BF0FDF91CF910C947D125B
:1027300061E070E080E090E00E9449088BCF8DEA74
:1027400092E00E94601281E08093650F0E94BF0FAB
:102750000E947D1223E040E060E08FEFDF91CF9197
:102760000C94420F86EC92E0DF91CF910C946012B2
:10277000DF91CF9108958C5D9D4F60E0FC018081D9
:102780000C9462061F93CF93DF93C62FD0E001977E
:10279000FC01EB5DFD4F10818630910538F4642F0C
:1027A000815E9D4FFC0180810E946206BE01812FE7
:1027B000DF91CF911F910C9432078091650F8111A9
:1027C00065C08091640F811161C088E090E00E9433
:1027D0006F126AEF70E080E090E00E94490841E0EB
:1027E00050E06FEF82E090E00E94C21382E090E040
:1027F0000E946F1281E090E00E946F126DE770E01E
:1028000080E090E00E94490885E090E00E94761206
:102810006DE770E080E090E00E94490882E090E07F
:102820000E94BB1388E090E00E94761282E090E064
:102830000E94761281E090E00E94761280914E0F05
:10284000813021F583E090E00E94761284E090E0F0
:102850000E94761281E090E00E94761287E090E07C
:102860000E946F126CEB72E080E090E00E944908D9
:1028700087E090E00E94761268EE73E080E090E0DE
:102880000E9449080E94D10610924E0F08950C94A0
:102890007D11CF93DF93EC01E881F981E930F105F7
:1028A000A8F48827E95AFB4E8F4F0C94F648601421
:1028B0008114841487148A148D149014931496141C
:1028C00067EE72E084E290E10E944714BE016E5F01
:1028D0007F4F84E290E10E949F0461E078E084E20F
:1028E00090E10E946B0570E060E084E290E10E945C
:1028F00047120E9466050E946605DF91CF910C94F5
:1029000066056EEE72E0DECF64EF72E0DBCF69EF5A
:1029100072E0D8CF6FEF72E0D5CF66E073E0D2CF30
:102920006BE073E0CFCF61E173E0CCCF67E173E0A0
:10293000C9CF0F931F93CF93DF938091650F8111C0
:10294000C9C08091640F8111C5C050E040E06FEFB5
:1029500085E090E00E94C213C1E0D0E002E310E005
:102960008DE30E94090890938F0880938E088B3F17
:1029700091050CF040C06091010270910202072E97
:10298000000C880B990B0E9449088FE090E00E9490
:10299000761282E090E00E94BB1364E670E080E073
:1029A00090E00E9449088EE090E00E94761260E973
:1029B00071E080E090E00E94490885E090E00E948C
:1029C0006F1260E971E080E090E00E94490862EBDC
:1029D00077E081EC90E10E94471480918E089091FD
:1029E0008F080E94511285E090E0DF91CF911F91F6
:1029F0000F910C94BB13CA3FD10509F443C0CE011B
:102A0000B8010E94E248892B71F588E090E00E94AD
:102A10006F1282E090E00E94BB1381E090E00E9480
:102A2000761268EC70E080E090E00E94490888E04F
:102A300090E00E94761283E090E00E94761268ECAB
:102A400070E080E090E00E94490883E090E00E94FE
:102A50006F1264E670E080E090E00E94490881E037
:102A600090E00E946F1241E050E062E882E090E066
:102A70000E94C21364E170E080E090E00E94490887
:102A800021966ECF89E090E00E94761282E090E07D
:102A90000E94BB1368EC70E080E090E00E9449085F
:102AA00089E090E00E946F128EE090E00E94761222
:102AB00068EE73E080E090E00E9449088FE090E0CB
:102AC0000E94761281E08093650F8DE193E00E9471
:102AD000601289CFDF91CF911F910F9108950F93CD
:102AE0001F93CF93DF93EC018B01E881F981E930EB
:102AF000F105A8F48827E058FA4E8F4F0C94F64859
:102B00008915AB15AE15B115B415B715BA15BD15A8
:102B1000C01567EE72E084E290E10E944714BE01A6
:102B20006E5F7F4F84E290E10E949F046BEC72E045
:102B300084E290E10E946B05B80184E290E10E947A
:102B400047120E9466050E946605DF91CF911F9192
:102B50000F910C9466056EEE72E0DDCF64EF72E0CB
:102B6000DACF69EF72E0D7CF6FEF72E0D4CF66E0D3
:102B700073E0D1CF6BE073E0CECF61E173E0CBCFF8
:102B800067E173E0C8CF0F931F93CF93DF938C015E
:102B9000EB01FC01808191810097E1F068817981EE
:102BA00061157105A9F0428153812C813D81421745
:102BB000530770F00E942D4B8C819D81F801958305
:102BC00084831D821C82DF91CF911F910F91089504
:102BD0000E94B54988819981F801918380838A8117
:102BE0009B81938382838C819D81958384831982C9
:102BF00018821B821A82E5CF0E941F4BCF93DF936E
:102C0000DC011496ED91FC916E177F0710F59F0182
:102C1000261B370B4217530708F49A01DB01EC011E
:102C200088819981E21BF30BFD83EC83AF01461B86
:102C3000570B260F371FBC01620F731F8A0F9B1F94
:102C40000E94424BE881F9818C819D81E80FF91F38
:102C50001082DF91CF910895FB0144815581FC01E1
:102C6000248135812417350778F080819181009780
:102C700059F0FB01608171816115710529F00E9495
:102C8000344B21E0892B09F020E0822F08950F9327
:102C90001F93CF93DF93EC0188819981009759F0BE
:102CA0002A813B812617370730F081E0DF91CF91F1
:102CB0001F910F9108958B016F5F7F4F0E943E4AD5
:102CC000009759F0998388831B830A832C813D8167
:102CD000232B59F7FC011082E8CF80E0E7CFEF9279
:102CE000FF920F931F93CF93DF93EC01FB01E080E2
:102CF000F180E114F10411F1048115810115110530
:102D0000A9F08C819D81080F191FB801CE010E9486
:102D10004716882399F0288139818C819D81B701DC
:102D2000820F931F0E942D4B1D830C83CE01DF91D8
:102D3000CF911F910F91FF90EF900895CE010E94C7
:102D4000D90FF4CFEF92FF920F931F93CF93DF939E
:102D5000EC017B018A01BA010E94471681110BC068
:102D6000CE010E94D90FCE01DF91CF911F910F911B
:102D7000FF90EF9008951D830C83B701888199819E
:102D80000E942D4BF0CFFB0101900020E9F7319715
:102D9000AF01461B570B0C94A2160F931F93CF93B2
:102DA000DF9300D000D000D0CDB7DEB78C01862FE6
:102DB000F8011182108213821282158214824AE075
:102DC000BE016F5F7F4F90E00E947446BE016F5F4F
:102DD0007F4FC8010E94C31629960FB6F894DEBF34
:102DE0000FBECDBFDF91CF911F910F9108950F932B
:102DF0001F93CF93DF93CDB7DEB762970FB6F894EA
:102E0000DEBF0FBECDBF8C01CB01F8011182108255
:102E100013821282158214824AE0BE016F5F7F4FD7
:102E20000E946946BE016F5F7F4FC8010E94C316B2
:102E300062960FB6F894DEBF0FBECDBFDF91CF9183
:102E40001F910F910895CF93DF93EC01FB0186173B
:102E5000970749F0608171816115710541F04481E6
:102E600055810E94A216CE01DF91CF9108950E9454
:102E7000D90FF9CFFC0111821082138212821582C0
:102E80001482FB0101900020E9F73197AF01461B46
:102E9000570B0C94A216EF92FF920F931F93CF93B0
:102EA000DF931F921F92CDB7DEB78C016CE772E003
:102EB0000E943A170E94880897FD1EC089831A82D3
:102EC000F801E480F580FFEFEF1AFF0AB701C801AF
:102ED0000E944716882371F3F80120813181848193
:102EE0009581BE016F5F7F4F820F931F0E942D4B14
:102EF000F801F582E482DECFC8010F900F90DF91D8
:102F0000CF911F910F91FF90EF9008956F927F9254
:102F10008F929F92AF92BF92CF92DF92EF92FF92E9
:102F20000F931F93CF93DF93CDB7DEB7A6970FB65E
:102F3000F894DEBF0FBECDBF8C013B01DC011E96B5
:102F40001D921D921D921C9251976C01B8E0CB0E00
:102F5000D11C6CE772E0C6010E94C31666EC72E0F9
:102F600084E290E10E946B05D801ED91FC91E9307B
:102F7000F105A8F48827E054F84E8F4F0C94F648DA
:102F8000C91767186A186D187018731876187918A9
:102F90007C1867EE72E084E290E10E944714B80169
:102FA0006E5F7F4F84E290E10E949F0461EC72E0CB
:102FB00084E290E10E946B050E9466050E9466050E
:102FC0000E94660588EC90E0A0E0B0E080932810B5
:102FD00090932910A0932A10B0932B10FE013196E4
:102FE0005F01F12CE12C4F010E94880897FD0AC077
:102FF000D5018D935D01BFEFEB1AFB0AE0E2EE16FF
:10300000F10491F7F401EE0DFF1D8CE792E080834F
:10301000B401CE0181960E943A17BE016F5D7F4FC9
:10302000C6010E94C315CE0181960E94EB0F61E399
:1030300073E0CE0181960E943A17BE016F5D7F4F0B
:10304000C6010E942C16F82ECE0181960E94EB0F2D
:10305000FF2009F454C0D8011C964D915C911D9736
:103060001E9690E080E001968417950740F4F801E1
:1030700020853185F901E80FF91F232B21F41092E7
:103080002608E6E2F8E020812D938430910559F777
:10309000F80186859785A089B189B7FD56C0F301EF
:1030A00091838083A6960FB6F894DEBF0FBECDBF86
:1030B000DF91CF911F910F91FF90EF90DF90CF9014
:1030C000BF90AF909F908F907F906F9008956EEE1D
:1030D00072E061CF64EF72E05ECF69EF72E05BCFC8
:1030E0006FEF72E058CF66E073E055CF6BE073E0AE
:1030F00052CF61E173E04FCF67E173E04CCF0E94A4
:103100007C086B017C016CE972E081EC90E10E942B
:103110006B050E947C086C197D098E099F09683E29
:1031200073408105910508F0B3CF84E290E10E94DD
:10313000D704892B71F384E290E10E94B504BC01AD
:1031400081EC90E10E944712E4CF0E947C086B0161
:103150007C0168E772E081EC90E10E946B050E94BF
:103160007C086C197D098E099F09683E73408105B2
:10317000910508F097CF84E290E10E94D704892B53
:1031800071F384E290E10E94B504BC0181EC90E10E
:103190000E944712E4CF6FE072E081E19FE00E945D
:1031A000861763E172E08FEF9EE00E9486176DE064
:1031B00072E08DEE9EE00E94861761E172E08BED79
:1031C0009EE00E9486176BE072E089EC9EE00E9410
:1031D000861769E072E087EB9EE00E94861767E041
:1031E00072E085EA9EE00E94861765E072E083E95E
:1031F0009EE00E94861763E072E08FE69EE00E94E8
:10320000861761E072E081E89EE00E948617809157
:103210000F02909110028115944009F4BCCF809167
:103220001302909114028115944009F4B4CF809157
:103230000D0290910E028115944009F4ACCF80915B
:103240001102909112028115944009F4A4CF80914B
:103250000B0290910C028115944009F49CCF80914F
:10326000090290910A028115944009F494CF80914B
:103270000702909108028115944009F48CCF809147
:103280000502909106028115944009F484CF809143
:103290000302909104028115944009F47CCF80913F
:1032A0000102909102028115944009F474CF0895AF
:1032B000CF93DF93EC01798368831B821A821D828E
:1032C0001C821F821E82BA0102960E942317289632
:1032D0006CE772E0CE010E943A176CE772E0CE0113
:1032E000DF91CF910C94C316CF93DF9300D000D021
:1032F000CDB7DEB7019709F0B7C663E373E0CE013F
:1033000001960E943A17AE014F5F5F4F70E060E098
:1033100081E19FE00E945819CE0101960E94EB0FB7
:1033200067E373E0CE0101960E943A17AE014F5F4A
:103330005F4F70E060E08FEF9EE00E945819CE0171
:1033400001960E94EB0F6BE373E0CE0101960E94A1
:103350003A17AE014F5F5F4F70E060E08DEE9EE088
:103360000E945819CE0101960E94EB0F6FE373E0A3
:10337000CE0101960E943A17AE014F5F5F4F70E099
:1033800060E08BED9EE00E945819CE0101960E94EC
:10339000EB0F63E473E0CE0101960E943A17AE0191
:1033A0004F5F5F4F70E060E089EC9EE00E9458192B
:1033B000CE0101960E94EB0F67E473E0CE01019607
:1033C0000E943A17AE014F5F5F4F70E060E087EBFD
:1033D0009EE00E945819CE0101960E94EB0F6BE40B
:1033E00073E0CE0101960E943A17AE014F5F5F4F26
:1033F00070E060E085EA9EE00E945819CE010196D7
:103400000E94EB0F6FE473E0CE0101960E943A1721
:10341000AE014F5F5F4F70E060E083E99EE00E9485
:103420005819CE0101960E94EB0F63E573E0CE01BF
:1034300001960E943A17AE014F5F5F4F70E060E067
:1034400081E89EE00E945819CE0101960E94EB0F80
:1034500067E573E0CE0101960E943A17AE014F5F17
:103460005F4F70E060E08FE69EE00E945819CE0149
:1034700001960E94EB0F6DE573E0CE0101960E946C
:103480003A17AE014F5F5F4F70E060E08DE59EE060
:103490000E945819CE0101960E94EB0F69E673E075
:1034A000CE0101960E943A17AE014F5F5F4F70E068
:1034B00060E08BE49EE00E945819CE0101960E94C4
:1034C000EB0F6FE673E0CE0101960E943A17AE0152
:1034D0004F5F5F4F70E060E089E39EE00E94581903
:1034E000CE0101960E94EB0F68E773E0CE010196D2
:1034F0000E943A17AE014F5F5F4F70E060E087E2D5
:103500009EE00E945819CE0101960E94EB0F6FE7D2
:1035100073E0CE0101960E943A17AE014F5F5F4FF4
:1035200070E060E085E19EE00E945819CE010196AE
:103530000E94EB0F67E873E0CE0101960E943A17F4
:10354000AE014F5F5F4F70E060E08CE39FE00E9450
:103550005819CE0101960E94EB0F61E973E0CE018C
:1035600001960E943A17AE014F5F5F4F70E060E036
:1035700083E09EE00E945819CE0101960E94EB0F55
:1035800069E973E0CE0101960E943A17AE014F5FE0
:103590005F4F70E060E08FE49FE00E945819CE0119
:1035A00001960E94EB0F60EA73E0CE0101960E9443
:1035B0003A17AE014F5F5F4F70E060E081EF9DE032
:1035C0000E945819CE0101960E94EB0F68EA73E041
:1035D000CE0101960E943A17AE014F5F5F4F61E046
:1035E00070E08FED9DE00E945819CE0101960E9477
:1035F000EB0F60EB73E0CE0101960E943A17AE012B
:103600004F5F5F4F61E070E08DEC9DE00E945819C4
:10361000CE0101960E94EB0F67EB73E0CE0101969D
:103620000E943A17AE014F5F5F4F62E070E08BEB94
:103630009DE00E945819CE0101960E94EB0F63ECA9
:1036400073E0CE0101960E943A17AE014F5F5F4FC3
:1036500062E070E089EA9DE00E945819CE0101966F
:103660000E94EB0F6FEC73E0CE0101960E943A17B7
:10367000AE014F5F5F4F62E070E087E99DE00E941E
:103680005819CE0101960E94EB0F6BED73E0CE014D
:1036900001960E943A17AE014F5F5F4F62E070E003
:1036A00085E89DE00E945819CE0101960E94EB0F1B
:1036B00067EE73E0CE0101960E943A17AE014F5FAC
:1036C0005F4F62E070E083E79DE00E945819CE01F1
:1036D00001960E94EB0F66EF73E0CE0101960E9407
:1036E0003A17AE014F5F5F4F62E070E081E69DE008
:1036F0000E945819CE0101960E94EB0F61E074E020
:10370000CE0101960E943A17AE014F5F5F4F62E013
:1037100070E08FE49DE00E945819CE0101960E944E
:10372000EB0F6CE074E0CE0101960E943A17AE01F7
:103730004F5F5F4F62E070E08DE39DE00E9458199B
:10374000CE0101960E94EB0F67E174E0CE01019675
:103750000E943A17AE014F5F5F4F62E070E08BE26C
:103760009DE00E945819CE0101960E94EB0F62E283
:1037700074E0CE0101960E943A17AE014F5F5F4F91
:1037800062E070E089E19DE00E945819CE01019647
:103790000E94EB0F6DE274E0CE0101960E943A1791
:1037A000AE014F5F5F4F62E070E087E09DE00E94F6
:1037B0005819CE0101960E94EB0F68E374E0CE0128
:1037C00001960E943A17AE014F5F5F4F62E070E0D2
:1037D00085EF9CE00E945819CE0101960E94EB0FE4
:1037E00063E474E0CE0101960E943A17AE014F5F88
:1037F0005F4F62E070E083EE9CE00E945819CE01BA
:1038000001960E94EB0F6EE474E0CE0101960E94D7
:103810003A17AE014F5F5F4F62E070E081ED9CE0D0
:103820000E945819CE0101960E94EB0F62E574E0E8
:10383000CE0101960E943A17AE014F5F5F4F62E0E2
:1038400070E08FEB9CE00E945819CE0101960E9417
:10385000EB0F66E574E0CE0101960E943A17AE01C7
:103860004F5F5F4F62E070E08DEA9CE00E94581964
:10387000CE0101960E94EB0F60E674E0CE01019646
:103880000E943A17AE014F5F5F4F62E070E08BE934
:103890009CE00E945819CE0101960E94EB0F6BE646
:1038A00074E0CE0101960E943A17AE014F5F5F4F60
:1038B00062E070E089E29FE00E945819CE01019613
:1038C0000E94EB0F6EE474E0CE0101960E943A175D
:1038D000AE014F5F5F4F63E070E089E89CE00E94BB
:1038E0005819CE0101960E94EB0F62E574E0CE01FB
:1038F00001960E943A17AE014F5F5F4F63E070E0A0
:1039000087E79CE00E945819CE0101960E94EB0FB8
:1039100062E774E0CE0101960E943A17AE014F5F54
:103920005F4F63E070E085E69CE00E945819CE018D
:1039300001960E94EB0F66E774E0CE0101960E94AB
:103940003A17AE014F5F5F4F63E070E083E59CE0A4
:103950000E945819CE0101960E94EB0F6AE774E0AD
:10396000CE0101960E943A17AE014F5F5F4F63E0B0
:1039700070E081E49CE00E945819CE0101960E94FB
:10398000EB0F6EE774E0CE0101960E943A17AE018C
:103990004F5F5F4F63E070E08FE29CE00E94581938
:1039A000CE0101960E94EB0F62E874E0CE01019611
:1039B0000E943A17AE014F5F5F4F63E070E08DE108
:1039C0009CE00E945819CE0101960E94EB0F66E818
:1039D00074E0CE0101960E943A17AE014F5F5F4F2F
:1039E00063E070E08BE09CE00E945819CE010196E4
:1039F0000E94EB0F6AE874E0CE0101960E943A172C
:103A0000AE014F5F5F4F63E070E089EF9BE00E9483
:103A10005819CE0101960E94EB0F6EE874E0CE01BA
:103A200001960E943A17AE014F5F5F4F63E070E06E
:103A300087EE9BE00E945819CE0101960E94EB0F81
:103A400063E974E0CE0101960E943A17AE014F5F20
:103A50005F4F63E070E085ED9BE00E945819CE0156
:103A600001960E94EB0F68E974E0CE0101960E9476
:103A70003A17AE014F5F5F4F63E070E083EC9BE06D
:103A80000E945819CE0101960E94EB0F6DE974E077
:103A9000CE0101960E943A17AE014F5F5F4F63E07F
:103AA00070E081EB9BE00E945819CE0101960E94C4
:103AB000EB0F62EA74E0CE0101960E943A17AE0164
:103AC0004F5F5F4F63E070E08FE99BE00E94581901
:103AD000CE0101960E94EB0F67EA74E0CE010196D9
:103AE0000E943A17AE014F5F5F4F63E070E08DE8D0
:103AF0009BE00E945819CE0101960E94EB0F6CEAE0
:103B000074E0CE0101960E943A17AE014F5F5F4FFD
:103B100063E070E08BE79BE00E945819CE010196AC
:103B20000E94EB0F61EB74E0CE0101960E943A1700
:103B3000AE014F5F5F4F63E070E089E69BE00E945B
:103B40005819CE0101960E94EB0F66EB74E0CE018E
:103B500001960E943A17AE014F5F5F4F63E070E03D
:103B600087E59BE00E945819CE0101960E94EB0F59
:103B70006BEB74E0CE0101960E943A17AE014F5FE5
:103B80005F4F63E070E085E49BE00E945819CE012E
:103B900001960E94EB0F60EC74E0CE0101960E944A
:103BA0003A17AE014F5F5F4F63E070E083E39BE045
:103BB0000E945819CE0101960E94EB0F65EC74E04B
:103BC000CE0101960E943A17AE014F5F5F4F63E04E
:103BD00070E081E29BE00E945819CE0101960E949C
:103BE000EB0F6AEC74E0CE0101960E943A17AE0129
:103BF0004F5F5F4F63E070E08FE09BE00E945819D9
:103C0000CE0101960E94EB0F6FEC74E0CE0101969D
:103C10000E943A17AE014F5F5F4F63E070E08DEF97
:103C20009AE00E945819CE0101960E94EB0F64EDB4
:103C300074E0CE0101960E943A17AE014F5F5F4FCC
:103C400063E070E08BEE9AE00E945819CE01019675
:103C50000E94EB0F69ED74E0CE0101960E943A17C5
:103C6000AE014F5F5F4F63E070E089ED9AE00E9424
:103C70005819CE0101960E94EB0F6EED74E0CE0153
:103C800001960E943A17AE014F5F5F4F63E070E00C
:103C900087EC9AE00E945819CE0101960E94EB0F22
:103CA00063EE74E0CE0101960E943A17AE014F5FB9
:103CB0005F4F63E070E085EB9AE00E945819CE01F7
:103CC00001960E94EB0F68EE74E0CE0101960E940F
:103CD0003A17AE014F5F5F4F63E070E083EA9AE00E
:103CE0000E945819CE0101960E94EB0F6DEE74E010
:103CF000CE0101960E943A17AE014F5F5F4F63E01D
:103D000070E081E99AE00E945819CE0101960E9464
:103D1000EB0F62EF74E0CE0101960E943A17AE01FC
:103D20004F5F5F4F69E070E08FE79AE00E9458199B
:103D3000CE0101960E94EB0F6BEF74E0CE0101966D
:103D40000E943A17AE014F5F5F4F69E070E08DE669
:103D50009AE00E945819CE0101960E94EB0F64E090
:103D600075E0CE0101960E943A17AE014F5F5F4F9A
:103D700069E070E08BE59AE00E945819CE01019647
:103D80000E94EB0F6DE075E0CE0101960E943A179C
:103D9000AE014F5F5F4F69E070E089E49AE00E94F6
:103DA0005819CE0101960E94EB0F66E175E0CE0135
:103DB00001960E943A17AE014F5F5F4F69E070E0D5
:103DC00087E39AE00E945819CE0101960E94EB0FFA
:103DD0006FE175E0CE0101960E943A17AE014F5F88
:103DE0005F4F69E070E085E29AE00E945819CE01C9
:103DF00001960E94EB0F68E275E0CE0101960E94E9
:103E00003A17AE014F5F5F4F69E070E083E19AE0DF
:103E10000E945819CE0101960E94EB0F61E375E0F4
:103E2000CE0101960E943A17AE014F5F5F4F69E0E5
:103E300070E081E09AE00E945819CE0101960E943C
:103E4000EB0F6AE375E0CE0101960E943A17AE01CE
:103E50004F5F5F4F69E070E08FEE99E00E94581964
:103E6000CE0101960E94EB0F63E475E0CE0101964E
:103E70000E943A17AE014F5F5F4F69E070E08DED31
:103E800099E00E945819CE0101960E94EB0F6DE453
:103E900075E0CE0101960E943A17AE014F5F5F4F69
:103EA00069E070E08BEC99E00E945819CE01019610
:103EB0000E94EB0F67E575E0CE0101960E943A176C
:103EC000AE014F5F5F4F69E070E089EB99E00E94BF
:103ED0005819CE0101960E94EB0F61E675E0CE0104
:103EE00001960E943A17AE014F5F5F4F69E070E0A4
:103EF00087EA99E00E945819CE0101960E94EB0FC3
:103F00006BE675E0CE0101960E943A17AE014F5F55
:103F10005F4F69E070E085E999E00E945819CE0191
:103F200001960E94EB0F65E775E0CE0101960E94B5
:103F30003A17AE014F5F5F4F69E070E083E899E0A8
:103F40000E945819CE0101960E94EB0F6FE775E0B1
:103F5000CE0101960E943A17AE014F5F5F4F69E0B4
:103F600070E081E799E00E945819CE0101960E9405
:103F7000EB0F6EE474E0CE0101960E943A17AE0199
:103F80004F5F5F4F67E070E08FE599E00E9458193E
:103F9000CE0101960E94EB0F62E574E0CE0101961E
:103FA0000E943A17AE014F5F5F4F67E070E08DE40B
:103FB00099E00E945819CE0101960E94EB0F62E72A
:103FC00074E0CE0101960E943A17AE014F5F5F4F39
:103FD00067E070E08BE399E00E945819CE010196EA
:103FE0000E94EB0F66E774E0CE0101960E943A173B
:103FF000AE014F5F5F4F67E070E089E299E00E9499
:104000005819CE0101960E94EB0F6AE774E0CE01C9
:1040100001960E943A17AE014F5F5F4F67E070E074
:1040200087E199E00E945819CE0101960E94EB0F9A
:104030006EE774E0CE0101960E943A17AE014F5F21
:104040005F4F67E070E085E099E00E945819CE016B
:1040500001960E94EB0F26960FB6F894DEBF0FBEB6
:10406000CDBFDF91CF91089585E099E00E94F30FD5
:1040700087E199E00E94F30F89E299E00E94F30F33
:104080008BE399E00E94F30F8DE499E00E94F30F17
:104090008FE599E00E94F30F81E799E00E94F30F0A
:1040A00083E899E00E94F30F85E999E00E94F30FFD
:1040B00087EA99E00E94F30F89EB99E00E94F30FE1
:1040C0008BEC99E00E94F30F8DED99E00E94F30FC5
:1040D0008FEE99E00E94F30F81E09AE00E94F30FC7
:1040E00083E19AE00E94F30F85E29AE00E94F30FC9
:1040F00087E39AE00E94F30F89E49AE00E94F30FAD
:104100008BE59AE00E94F30F8DE69AE00E94F30F90
:104110008FE79AE00E94F30F81E99AE00E94F30F83
:1041200083EA9AE00E94F30F85EB9AE00E94F30F76
:1041300087EC9AE00E94F30F89ED9AE00E94F30F5A
:104140008BEE9AE00E94F30F8DEF9AE00E94F30F3E
:104150008FE09BE00E94F30F81E29BE00E94F30F4F
:1041600083E39BE00E94F30F85E49BE00E94F30F42
:1041700087E59BE00E94F30F89E69BE00E94F30F26
:104180008BE79BE00E94F30F8DE89BE00E94F30F0A
:104190008FE99BE00E94F30F81EB9BE00E94F30FFD
:1041A00083EC9BE00E94F30F85ED9BE00E94F30FF0
:1041B00087EE9BE00E94F30F89EF9BE00E94F30FD4
:1041C0008BE09CE00E94F30F8DE19CE00E94F30FD6
:1041D0008FE29CE00E94F30F81E49CE00E94F30FC9
:1041E00083E59CE00E94F30F85E69CE00E94F30FBC
:1041F00087E79CE00E94F30F89E89CE00E94F30FA0
:1042000089E29FE00E94F30F8BE99CE00E94F30F8C
:104210008DEA9CE00E94F30F8FEB9CE00E94F30F6D
:1042200081ED9CE00E94F30F83EE9CE00E94F30F6F
:1042300085EF9CE00E94F30F87E09DE00E94F30F62
:1042400089E19DE00E94F30F8BE29DE00E94F30F55
:104250008DE39DE00E94F30F8FE49DE00E94F30F39
:1042600081E69DE00E94F30F83E79DE00E94F30F3B
:1042700085E89DE00E94F30F87E99DE00E94F30F1F
:1042800089EA9DE00E94F30F8BEB9DE00E94F30F03
:104290008DEC9DE00E94F30F8FED9DE00E94F30FE7
:1042A00081EF9DE00E94F30F8FE49FE00E94F30FE7
:1042B00083E09EE00E94F30F8CE39FE00E94F30FE7
:1042C00085E19EE00E94F30F87E29EE00E94F30FDB
:1042D00089E39EE00E94F30F8BE49EE00E94F30FBF
:1042E0008DE59EE00E94F30F8FE69EE00E94F30FA3
:1042F00081E89EE00E94F30F83E99EE00E94F30FA5
:1043000085EA9EE00E94F30F87EB9EE00E94F30F88
:1043100089EC9EE00E94F30F8BED9EE00E94F30F6C
:104320008DEE9EE00E94F30F8FEF9EE00E94F30F50
:1043300081E19FE00E94F30F8ECE6F927F928F9269
:104340009F92AF92BF92CF92DF92EF92FF920F9324
:104350001F93CF93DF93CDB7DEB7A6970FB6F89430
:10436000DEBF0FBECDBF8C013B01DC011E961D924E
:104370001D921D921C9251976C01B8E0CB0ED11C7E
:104380006CE772E0C6010E94C31663E772E084E244
:1043900090E10E946B05D801ED91FC91E930F105A7
:1043A000A8F48827E952FE4D8F4F0C94F648E0217F
:1043B00087228A228D2290229322962299229C2261
:1043C00067EE72E084E290E10E944714B8016E5FEC
:1043D0007F4F84E290E10E949F046EE672E084E2E7
:1043E00090E10E946B050E9466050E9466050E948E
:1043F000660586E990E0A0E0B0E0809328109093F5
:104400002910A0932A10B0932B10FE0131965F0162
:10441000F12CE12C4F010E94880897FD0AC0D501BC
:104420008D935D01BFEFEB1AFB0AE0E2EE16F1049B
:1044300091F7F401EE0DFF1D8CE792E08083B4014B
:10444000CE0181960E943A17BE016F5D7F4FC60173
:104450000E94C315CE0181960E94EB0F61E373E0C9
:10446000CE0181960E943A17BE016F5D7F4FC60153
:104470000E942C16F82ECE0181960E94EB0FFF2091
:10448000E9F0D8011C964D915C911D971E9690E025
:1044900080E001968417950740F4F8012085318566
:1044A000F901E80FF91F232B21F410922608E6E208
:1044B000F8E020812D938430910559F7D8011E969C
:1044C0004D915D916D917C915197423051056105FF
:1044D0007105ACF581E0452B462B472B09F480E0B4
:1044E000F3018083A6960FB6F894DEBF0FBECDBF52
:1044F000DF91CF911F910F91FF90EF90DF90CF90C0
:10450000BF90AF909F908F907F906F9008956EEEC8
:1045100072E058CF64EF72E055CF69EF72E052CF8E
:104520006FEF72E04FCF66E073E04CCF6BE073E06B
:1045300049CF61E173E046CF67E173E043CF0E946A
:104540007C086B017C0168E472E081EC90E10E94E0
:104550006B050E947C086C197D098E099F09683ED5
:1045600073408105910508F0BDCF84E290E10E947F
:10457000D704892B71F384E290E10E94B504BC0159
:1045800081EC90E10E944712E4CF80919B089091CA
:104590009C088536910549F46AE978E08DEC9DE048
:1045A0000E949D2180919A08089580E00895CF92FD
:1045B000DF92EF92FF92CF93DF930E947C0860938B
:1045C000940870939508809396089093970880912B
:1045D000650F811157C08091640F811153C0809184
:1045E0004E0F81114FC0CAEFD0E00E94AE0BF62EE5
:1045F00060933B0F66E276E081EC90E10E946B05F0
:104600008F2D0E94F71189E30E9409089093240FCF
:104610008093230F20913B0F8091270F9091280FBB
:10462000281719060CF458C083E090E00E94BB13D1
:1046300081E090E00E94BB1387E090E00E94BB13F2
:1046400088E090E00E94BB1384E090E00E94BB13DE
:1046500081E080934E0F60913B0F70E089E29FE014
:104660000E946F1581E090E00E94BB1383E090E010
:104670000E94BB1387E090E00E94BB1388E090E0AB
:104680000E94BB130E947C08C0909408D0909508AB
:10469000E0909608F09097089B01AC012C193D0919
:1046A0004E095F0969017A01C0929008D092910881
:1046B000E0929208F092930863EF75E081EC90E14C
:1046C0000E946B05C701B601DF91CF91FF90EF907B
:1046D000DF90CF900C942F1280914E0F811107C064
:1046E00050E040E06FEF83E090E00E94C2136091E1
:1046F0003B0F70E090E080E00E94A5466B017C01DA
:104700006091270F7091280F072E000C880B990BD2
:104710000E94A54623E333E343E75FE30E94044797
:104720009B01AC01C701B6010E94CD4887FD08C0BE
:1047300088E090E00E94BB1387E090E00E94BB13EA
:1047400060913B0F70E090E080E00E94A5466B0115
:104750007C016091270F7091280F072E000C880BA9
:10476000990B0E94A54623E333E343E75FE30E94EE
:1047700004479B01AC01C701B6010E949E4687FF1A
:1047800012C080914E0F81110EC050E040E06FEFDB
:1047900088E090E00E94C21341E050E06CE887E0BE
:1047A00090E00E94C2132091230F3091240F80913A
:1047B0001102909112028217930794F080914E0F8C
:1047C00081110EC050E040E06FEF81E090E00E9468
:1047D000C21341E050E06CE887E090E00E94C21311
:1047E0002091230F3091240F809111029091120299
:1047F0008217930744F481E090E00E94BB1387E0A6
:1048000090E00E94BB13219791F48AE096E00E9409
:104810008D1181E08093650F25E040E060E08FEF2F
:104820000E94420F0E94BF0F0E947D121BCF6AE9B7
:1048300078E08DEC9DE00E949D2180919A0888236C
:1048400009F4D3CE81E08093640F2AE040E060E079
:104850008FEF0E94420F8DEC9DE00E94491402CF21
:10486000CF92DF92EF92FF921F93CF93DF938091CD
:10487000650F8111C7C18091640F8111C3C10E946E
:10488000AE0BC62F60933B0F62EE75E081EC90E1BA
:104890000E946B058C2F0E94F71120913B0F809195
:1048A000270F9091280F281719060CF058C08091F7
:1048B0004E0F811154C0C1E0D0E089E30E94090885
:1048C0009093240F8093230F40913B0F2091270F4B
:1048D0003091280F421713060CF47DC083E090E05E
:1048E0000E94BB1381E090E00E94BB1387E090E040
:1048F0000E94BB1388E090E00E94BB1384E090E02C
:104900000E94BB1381E080934E0F60913B0F70E0DB
:1049100089E29FE00E946F1569E875E081EC90E103
:104920000E94471480913B0F0E94F71161EA75E0E5
:1049300081EC90E10E944714CE010E94511281E067
:1049400090E00E94BB1383E090E00E94BB1387E0DD
:1049500090E00E94BB1388E090E00E94BB1380911E
:10496000650F81114FC120913B0F8091270F9091CE
:10497000280F281719062CF480914E0F813009F06A
:1049800041C183E090E00E94761284E090E00E94B2
:10499000761281E090E00E94761287E090E00E941B
:1049A0006F12D0E0C0E08EE30E9409088935924082
:1049B0000CF0EAC062E370E080E090E00E944908F9
:1049C00087E090E0DF91CF911F91FF90EF90DF9013
:1049D000CF900C9476122091110230911202281778
:1049E000390794F080914E0F81110EC050E040E0E5
:1049F0006FEF81E090E00E94C21341E050E06CE86C
:104A000087E090E00E94C2132091230F3091240F81
:104A100080911102909112028217930744F481E071
:104A200090E00E94BB1387E090E00E94BB132091AE
:104A30003B0F8091270F9091280F281719065CF4DF
:104A400080914E0F811107C050E040E06FEF83E08E
:104A500090E00E94C21360913B0F70E090E080E014
:104A60000E94A5466B017C016091270F7091280F71
:104A7000072E000C880B990B0E94A54623E333E315
:104A800043E75FE30E9404479B01AC01C701B60105
:104A90000E94CD4887FD08C088E090E00E94BB13CB
:104AA00087E090E00E94BB1360913B0F70E090E0C4
:104AB00080E00E94A5466B017C016091270F7091F8
:104AC000280F072E000C880B990B0E94A54623E3A4
:104AD00033E343E75FE30E9404479B01AC01C70156
:104AE000B6010E949E4687FF12C080914E0F811131
:104AF0000EC050E040E06FEF88E090E00E94C213EB
:104B000041E050E06CE887E090E00E94C213CA3FA9
:104B1000D10591F485EB95E00E948D1181E08093A1
:104B2000650F25E040E060E08FEF0E94420F0E9499
:104B3000BF0F0E947D1203CF6AE978E08DEC9DE003
:104B40000E949D2180919A08882371F081E08093D2
:104B5000640F2AE040E060E08FEF0E94420F8DEC8E
:104B60009DE00E944914EBCE21960E94AE0B162FB9
:104B700060933B0F61ED75E081EC90E10E946B0565
:104B8000812F0E94F71199CEC83E83E0D807A1F487
:104B900081E08093650F0E94BF0F0E947D126CE838
:104BA00075E081EC90E1DF91CF911F91FF90EF9044
:104BB000DF90CF900C946B056AE978E08DEC9DE076
:104BC0000E949D21219680919A088823A1F081E07E
:104BD0008093640F2AE040E060E08FEF0E94420F74
:104BE0008DEC9DE0DF91CF911F91FF90EF90DF90D2
:104BF000CF900C94491461E070E080E090E00E9456
:104C00004908D1CEDF91CF911F91FF90EF90DF90B7
:104C1000CF9008958F929F92AF92BF92FF920F9381
:104C20001F93CF93DF93CDB7DEB72C970FB6F894D1
:104C3000DEBF0FBECDBF8091650F81113DC1809158
:104C4000640F811139C18AE30E94090889359240B5
:104C500074F083E090E00E946F1284E090E00E9484
:104C60006F1268E572E080E090E00E94490801E080
:104C700010E0FF24F3940E94AE0B60933B0F89E396
:104C80000E9409089093240F8093230F2091110212
:104C9000309112022817390794F080914E0F81113C
:104CA0000EC050E040E06FEF81E090E00E94C21340
:104CB00041E050E06CE887E090E00E94C213209150
:104CC000230F3091240F80911102909112028217CC
:104CD000930744F481E090E00E94BB1387E090E0EA
:104CE0000E94BB1320913B0F8091270F9091280FBA
:104CF000281719060CF440C080914E0F81113CC05A
:104D000083E090E00E94BB1381E090E00E94BB131F
:104D100087E090E00E94BB1388E090E00E94BB1304
:104D20006AE070E080E090E00E944908F0924E0F47
:104D300060913B0F70E089E29FE00E946F156091E7
:104D40003B0FCE0107960E94CD166FEB75E0CE01AA
:104D500001960E943A17BE01695F7F4FCE0101960E
:104D60000E946F160E949C11CE0101960E94EB0FCB
:104D7000CE0107960E94EB0F20913B0F8091270FE9
:104D80009091280F281719065CF480914E0F81111D
:104D900007C050E040E06FEF83E090E00E94C21354
:104DA00060913B0F70E090E080E00E94A5464B01CF
:104DB0005C016091270F7091280F072E000C880B63
:104DC000990B0E94A54626E636E646E65FE30E947A
:104DD00004479B01AC01C501B4010E949E46181610
:104DE0005CF080914E0F811107C050E040E06FEF02
:104DF00088E090E00E94C21360913B0F70E090E069
:104E000080E00E94A5464B015C016091270F7091E4
:104E1000280F072E000C880B990B0E94A54623E350
:104E200033E343E75FE30E9404479B01AC01C50104
:104E3000B4010E94CD4887FD04C088E090E00E9444
:104E4000BB130130110509F047C041E050E06FEF9E
:104E500082E090E00E94C2138FE090E00E946F1207
:104E600084E090E00A30110509F047C00E94BB13AE
:104E700064E670E080E090E00E9449080F5F1F4FF9
:104E80000531110509F0F7CE81E090E00E94BB13D7
:104E900083E090E00E94BB1387E090E00E94BB1388
:104EA00088E090E00E94BB1382E090E00E94BB1378
:104EB00085E090E00E94BB132C960FB6F894DEBFFD
:104EC0000FBECDBFDF91CF911F910F91FF90BF908B
:104ED000AF909F908F9008950230110539F48FE0C4
:104EE00090E00E94761281E090E0B8CF0330110587
:104EF00061F48FE090E00E946F120F301105C1F451
:104F00008EE090E00E946F12B3CF04301105F1F4EF
:104F100081E190E00E946F128FE30E940908C3971D
:104F20003CF450E040E06FEF85E090E00E94C21357
:104F30000031110509F581E190E00E94761282E0CE
:104F400090E00E94761282E090E090CF0930110547
:104F500009F086CF82E090E00E946F1250E040E0BE
:104F600064EB84E090E00E94C2130331110509F064
:104F70007FCF83E090E0C6CF01311105B1F783E028
:104F800090E00E94761274CF8F929F92AF92BF9260
:104F9000CF92DF92FF920F931F93CF93DF93CDB702
:104FA000DEB72C970FB6F894DEBF0FBECDBF809151
:104FB000650F811192C08091640F81118EC081E0D4
:104FC00080934E0F01E010E0FF24F39408301105A8
:104FD0000CF495C00E94AE0B60933B0F8DE30E94D2
:104FE00009086C0190938F0880938E0889E30E94D2
:104FF00009089093240F8093230F20910B02309186
:105000000C02C216D3060CF485C08CE090E00E941E
:1050100076128AE090E00E9476126091050270910B
:105020000602072E000C880B990B0E94490884E0A9
:1050300090E00E94BB1383E090E00E94BB1381E0EC
:1050400090E00E94BB1387E090E00E94BB1388E0D1
:1050500090E00E94BB1382E090E00E94BB1382E0CC
:1050600090E00E9476126DED75E081EC90E10E9477
:105070004714B80181EC90E10E9447126EEA77E094
:1050800081EC90E10E94471480918E0890918F08E6
:105090000E94511281E080938D0881E090E00E948F
:1050A000BB1383E090E00E94BB1387E090E00E9476
:1050B000BB1388E090E00E94BB1384E090E00E9464
:1050C000BB1382E090E00E94BB1380918D08813079
:1050D00021F482E190E00E946F122C960FB6F894B2
:1050E000DEBF0FBECDBFDF91CF911F910F91FF901B
:1050F000DF90CF90BF90AF909F908F900895073032
:10510000110509F46BCF62E870E080E090E00E9446
:10511000490864CF209111023091120228173907F3
:1051200094F080914E0F81110EC050E040E06FEF7F
:1051300081E090E00E94C21341E050E06CE887E01B
:1051400090E00E94C2132091230F3091240F809190
:105150001102909112028217930744F481E090E0CB
:105160000E94BB1387E090E00E94BB1320913B0F8D
:105170008091270F9091280F28171906ECF1809144
:105180004E0F811139C008301105B4F183E090E071
:105190000E94BB1381E090E00E94BB1387E090E087
:1051A0000E94BB1388E090E00E94BB13F0924E0F68
:1051B00060913B0FCE0107960E94CD1668EF75E017
:1051C000CE0101960E943A17BE01695F7F4FCE0162
:1051D00001960E946F160E949C11CE0101960E94BA
:1051E000EB0FCE0107960E94EB0F60913B0F70E032
:1051F00089E29FE00E946F1520913B0F8091270F5D
:105200009091280F2817190674F480914E0F811180
:105210000AC0083011053CF050E040E06FEF83E039
:1052200090E00E94C21360913B0F70E090E080E03C
:105230000E94A5464B015C016091270F7091280FD9
:10524000072E000C880B990B0E94A54626E636E631
:1052500046E65FE30E9404479B01AC01C501B4012F
:105260000E949E4687FF15C080914E0F811111C08C
:105270000830110574F050E040E06FEF88E090E0F6
:105280000E94C21341E050E06CE887E090E00E9489
:10529000C21360913B0F70E090E080E00E94A54651
:1052A0004B015C016091270F7091280F072E000CB5
:1052B000880B990B0E94A54623E333E343E75FE3A2
:1052C0000E9404479B01AC01C501B4010E94CD4876
:1052D00087FD17C008301105A4F088E090E00E9417
:1052E000BB1387E090E00E94BB130330110509F067
:1052F0006EC041E050E06FEF82E090E00E94C21388
:105300005EC00130110509F052C083E090E00E94B8
:105310006F1284E090E00E946F1287E090E00E949C
:10532000761241E050E06FEF84E090E00E94C213FB
:105330008AE090E00E946F128CE090E00E946F1271
:105340000A301105E1F581E090E00E946F1282E0E1
:1053500090E00E9476120233110509F047C081E007
:1053600090E00E94BB1383E090E00E94BB1387E0B3
:1053700090E00E94BB1388E090E00E94BB1384E0A1
:1053800090E00E94BB1382E090E00E94BB138AE28F
:1053900096E00E9460120E947D1281E08093650F6A
:1053A00025E040E060E08FEF0E94420F76CE0230B1
:1053B000110509F09ACF82E090E00E946F1282E01E
:1053C00090E00D30110551F40E946F120FC00430AF
:1053D000110579F482E090E00E9476120F301105F9
:1053E00009F05FC081E090E00E9476120F5F1F4FCE
:1053F000EDCD0730110509F0A3CF82E090E00E94C7
:105400006F1210924E0F0E94D1060631110509F05D
:10541000A2CF89EEC82E83E0D82E8DE30E94090822
:1054200090938F0880938E0820910B0230910C028C
:1054300082179307ECF18CE090E00E9476128AE0EC
:1054400090E00E9476126091050270910602072E8C
:10545000000C880B990B0E94490884E090E00E94A0
:10546000BB1383E090E00E94BB1381E090E00E94B8
:10547000BB1387E090E00E94BB1388E090E00E949D
:10548000BB1382E090E00E94BB1382E090E00E9498
:105490007612F0928D0880918D08813009F0A6CFA8
:1054A000FCCD0431110509F0B0CF81E090E08CCF44
:1054B00081E0C81AD10839F487E196E00E946012B1
:1054C000F092650FE8CF61E070E080E090E00E942C
:1054D0004908A3CF4F925F926F927F929F92AF92B3
:1054E000BF92CF92DF92EF92FF920F931F93CF93D1
:1054F000DF93CDB7DEB72C970FB6F894DEBF0FBEA3
:10550000CDBF0E947C086B017C0181E40E940908E8
:105510008C3291400CF4C9C387E30E940908853896
:1055200093400CF0C2C383E40E9409088B38924078
:105530000CF0BBC38091650F813019F51092650F97
:105540000E94BF0F0E947D1260913B0F70E089E2C4
:105550009FE00E946F152C960FB6F894DEBF0FBE29
:10556000CDBFDF91CF911F910F91FF90EF90DF9012
:10557000CF90BF90AF909F907F906F905F904F9033
:1055800008956BEF76E081EC90E10E946B0581E07D
:105590000E94F7110E94F0120E94C522813051F43E
:1055A00081E08093640F2AE040E060E08FEF0E948A
:1055B000420FCACF0E94302463EE76E081EC90E186
:1055C0000E946B050E947C08AB01BC014C195D096F
:1055D0006E097F092AE081EC90E10E94AB110E94E4
:1055E00087110E947C086B017C010E94C5228130DA
:1055F000B9F20E94C4270E94C522813089F28091AD
:10560000650F811190C08091640F81118CC050E0B2
:1056100040E06FEF85E090E00E94C21360913B0F85
:1056200070E090E080E00E94A5462B013C01609173
:10563000270F7091280F072E000C880B990B0E94E2
:10564000A54623E333E343E35FE30E9404479B0162
:10565000AC01C301B2010E949E4687FF15C050E015
:1056600040E06FEF83E090E00E94C21350E040E022
:105670006FEF88E090E00E94C21341E050E06CE8D8
:1056800087E090E00E94C21383E190E00E947612CE
:1056900082E090E00E94761281E090E00E94761213
:1056A00083E090E00E94761284E090E00E947612FF
:1056B00068EC70E080E090E00E9449088DE090E0A6
:1056C0000E946F1205EF11E088E30E940908843FF1
:1056D00091400CF032C264E670E080E090E00E94FD
:1056E000490882E190E00E94761264E670E080E072
:1056F00090E00E94490883E090E00E946F1284E0ED
:1057000090E00E946F1285E090E00E94BB1383E05E
:1057100090E00E94BB1387E090E00E94BB1388E0FA
:1057200090E00E94BB130E94C522813009F438CF5B
:105730000E940A260E94C522813009F431CF0E94BE
:1057400099140E94C522813009F42ACF8091650FF7
:10575000811140C08091640F81113CC010E000E0D5
:105760000E945E11682F70E07093260F6093250FE2
:10577000CE0107960E94F71668E476E0CE01019606
:105780000E943A17BE01695F7F4FCE0101960E94C9
:105790006F160E949C11CE0101960E94EB0FCE0164
:1057A00007960E94EB0F8091250F9091260F499745
:1057B0000CF4D9C182E090E00E94BB1386E090E037
:1057C0000E946F1289E090E00E94761282E090E0E1
:1057D0000E946F120E94C522813009F4E1CE8091AF
:1057E000650F81115CC18091640F811158C10E94C5
:1057F000AE0B01E010E09924939483E0A82EB12C25
:105800000E94AE0B60933B0F8091270F9091280F61
:1058100068171906B4F080914E0F811112C083E011
:1058200090E00E94BB1381E090E00E94BB1387E0F0
:1058300090E00E94BB1388E090E00E94BB1390921E
:105840004E0F20913B0F8091270F9091280F281722
:1058500019065CF480914E0F811107C050E040E0C2
:105860006FEF83E090E00E94C21360913B0F70E005
:1058700090E080E00E94A5462B013C016091270F3B
:105880007091280F072E000C880B990B0E94A546DB
:1058900023E333E343E75FE30E9404479B01AC014A
:1058A000C301B2010E94CD4887FD04C088E090E0AA
:1058B0000E94BB1360913B0F70E090E080E00E947B
:1058C000A5462B013C016091270F7091280F072EF0
:1058D000000C880B990B0E94A54626E636E646E6A4
:1058E0005FE30E9404479B01AC01C301B2010E9427
:1058F0009E4618165CF080914E0F811107C050E053
:1059000040E06FEF88E090E00E94C21381E0A81AA7
:10591000B10809F075CF89E30E9409089093240F1C
:105920008093230F0E945E1190E09093260F809346
:10593000250F2091230F3091240F80911102909117
:1059400012028217930794F080914E0F81110EC0BE
:1059500050E040E06FEF81E090E00E94C21341E030
:1059600050E06CE887E090E00E94C2132091230F82
:105970003091240F809111029091120282179307A7
:1059800044F481E090E00E94BB1387E090E00E9425
:10599000BB138FE30E9409088FE30E940908853634
:1059A000910524F085E090E00E94BB1306301105BC
:1059B0000CF4F7C08091250F9091260F49970CF0B9
:1059C00030C181E08093650F23E040E060E08FEF1D
:1059D0000E94420F81E090E00E94761282E090E007
:1059E0000E94761285E090E00E94761283E090E0BB
:1059F0000E94761284E090E00E94761280914E0F11
:105A0000813021F560913B0F70E089E29FE00E94B8
:105A10006F1560913B0FCE0107960E94CD1667E58A
:105A200076E0CE0101960E943A17BE01695F7F4F72
:105A3000CE0101960E946F160E949C11CE01019624
:105A40000E94EB0FCE0107960E94EB0F81E090E0E1
:105A50000E94BB1383E090E00E94BB1387E090E0BC
:105A60000E94BB1388E090E00E94BB1382E090E0AC
:105A70000E94BB1385E090E00E94BB1360913B0F36
:105A800070E089E29FE00E946F1567E776E081ECA5
:105A900090E10E94471480913B0F0E94F7110E94F1
:105AA000C522813009F47CCD0E94DD1362ED76E0E1
:105AB00081EC90E10E946B050E947C08AB01BC0167
:105AC0004C195D096E097F092AE081EC90E10E9482
:105AD000AB110E94871187E30E94090820911302ED
