:100000000C9418040C9449040C9449040C9449046D
:100010000C9449040C9449040C9449040C9449042C
:100020000C9449040C9449040C9449040C9449041C
:100030000C9449040C9449040C9449040C9449040C
:100040000C9449040C9449040C9449040C944904FC
:100050000C9449040C9449040C9449040C944C34B9
:100060000C9449040C9416340C94EC330C9449040D
:100070000C9449040C9449040C9449040C944904CC
:100080000C9449040C9449040C9449040C944904BC
:100090000C9449040C9449040C9449040C9496342F
:1000A0000C9449040C9449040C9449040C9449049C
:1000B0000C9449040C9449040C9449040C9449048C
:1000C0000C9449040C9449040C9449040C9449047C
:1000D0000C9449040C9449040C94B6330C948C335E
:1000E0000C9449040C94AD0B0C94BB070C940623A0
:1000F0000C9456070C94F6150C94570B0C94E018BE
:100100000C94430F0C94F4140C94AA090C943F061D
:100110000C94B5040C9436180C9427160C94D4182F
:100120000C941E160C9419060C9403230C942D06A3
:100130000C9437060C9421160C94FD220C940A069C
:100140000C94CF070C940E060C9428050C94E6042E
:100150000C943B060C9451070C94CF350C94800BF7
:100160000C94DA180C9429060C94CD140C94A20764
:100170000C9412060C94FA220C94E70E0C94C4040E
:100180000C9498070C94660B0C94F4220C9499052B
:100190000C94F7140C94D9070C9449060C946A0734
:1001A0000C94DD180C9409230C9403150C94AB09E2
:1001B0000C94E3180C94E9180C942D160C94B107C8
:1001C0000C94560B0C9497160C94EE140C94740724
:1001D0000C9400150C9481040C9423060C94E20EEC
:1001E0000C94DF0E0C9460070C941F060C94BA3527
:1001F0000C9404060C94E6180C9484070C94FE0FDF
:100200000C944D220C94E50E0C94C5070C944406F6
:100210000C942A160C94FD140C94F1140C94DC0B21
:100220000C9402100C9449070C94FB0F0C942416A8
:100230000C94F7220C9400230C9416060C94E307FC
:100240000C941B160C94FA140C9445060C94D718B5
:100250000C9418160C947E0C0C9431060C948E079A
:100260000C94790B0C947C070C94D80428445342CA
:100270007574746F6E29436F6D204572726F7221B1
:1002800020436C6561726564204275666665723AEA
:1002900020002E76616C006765742000284E756D15
:1002A00062657229436F6D204572726F722120431F
:1002B0006C6561726564204275666665723A2000FD
:1002C000284E756D62657229436F6D204572726F9D
:1002D000722120436C6561726564204275666665B3
:1002E000723A2020002E76616C0067657420002E23
:1002F00076616C3D000A003A00574946493A00547D
:10030000494D454F55542120282E6765745769661D
:1003100069290054494D454F55542120282E6765C1
:100320007457696669290046696C74726520477262
:10033000697065722069C3A765726973696E65200B
:10034000766572696C656D6564692E2E2E21004696
:10035000696C747265204772697065722069C3A701
:1003600065726973696E6520766572696C6469008F
:10037000546865726520697320612074696D656FCA
:100380007574206572726F7220696E205069737483
:100390006F6E20372E2E2E21002D2D6D6561737509
:1003A000726520746F626163636F2074696D656F3D
:1003B00075742D2D004D65617375726564205661ED
:1003C0006C75653A20004D656173757265642056E1
:1003D000616C75653A2000546F626163636F2063DE
:1003E00079636C65207375726573693A20002D2DF1
:1003F0006D65617375726520746F626163636F20F0
:1004000074696D656F75742D2D004D65617375721E
:1004100065642056616C75653A2000000021002457
:100420000027002A002D00300033000101000004E5
:100430000107010A0100002200250028002B002EE0
:10044000003100340002010000050108010B0154D5
:100450006F706C616D206379636C65207375726574
:1004600073693A200046696E616C206379636C653C
:10047000207375726573693A2000416C6C2050726C
:100480006F6365737320697320446F6E6520005439
:10049000C3BC74C3BC6E206265736C656E656D65AC
:1004A00064692E2E2000526F6C6C6572206B616740
:1004B0006964692079616B616C6179616D616469FE
:1004C0002E2E2E0046696C74726520766572696CFA
:1004D0006D6564690046696C747265204772697065
:1004E00065722069C3A765726973696E6520766558
:1004F00072696C6469004D6561737572656420563C
:10050000616C75653A20004D656173757265642094
:1005100056616C75653A2000416C6C2050726F63B7
:100520006573733A20002D2D2D2D2D2D2D2D2D2D64
:100530002D2D2D2D2D2D2D2D2D2D2D2D2D2D2D2DEB
:100540002D2D2D2D2D2D2D2D2D2D2D2D2D2D2D2DDB
:100550002D2D2D2D2D2D2D2D2D2D00544845204E8A
:10056000554D424552204F4620434947415245543C
:1005700054453A2000436C6561726564204275669B
:100580006665723A2000436F6D204572726F72216A
:100590002050616765205374617475733A2000457B
:1005A00052524F522120554E4B4E4F574E205041E4
:1005B0004745204E554D4245523A2000534554542C
:1005C000494E4753205041474520320053454E5332
:1005D0004F522050414745005741524E494E472007
:1005E000504147450057494649205041474500532F
:1005F000455454494E4753205041474500475241C6
:1006000050482050414745006D6561737572655FC4
:10061000546F626163636F5F476976655F506170B5
:1006200065725F4D6F76655F526F6C6C65725F7659
:100630003300627450726F63657373312E74787413
:100640003D2250524F434553532031220062745093
:10065000726F63657373312E7478743D2250524506
:10066000535320434C45414E22004D6561737572D2
:1006700065642056616C75653A2000494E54524FAE
:1006800020504147450070616765207761726E00B8
:1006900070616765207365743200706167652073EF
:1006A000656E730070616765206D616E3200706108
:1006B0006765206D616E0070616765206D61696EB0
:1006C000002D2D2D2D2D2D2D2D2D2D2D2D2D2D2D87
:1006D0002D2D2D2D2D2D2D2D2D2D2D2D2D2D2D2D4A
:1006E0002D2D2D2D2D2D2D2D2D2D2D2D2D2D2D2D3A
:1006F0002D2D2D2D2D004369676172657474652061
:1007000054696D653A200046696C746572202B202F
:10071000546F626163636F2074696D653A200054A1
:100720004845204E554D424552204F4620434947AB
:100730004152455454453A20000000200023002631
:100740000029002C002F00320000010000030106E8
:100750000109010505050507050808080802020248
:10076000020A0A080804040404010101010101014C
:10077000010303030303030303040707070C0C0C23
:100780000C0C0C0C0C0202020206060606060606FB
:10079000060B0B0B0B0B0B0B0B0102102020080898
:1007A00010204010204080020102010804020101D3
:1007B00002040810204080804020100804020180BC
:1007C0000402018040201008040201080402010113
:1007D000020408102040800102040810204080001C
:1007E000000A0B02090C0D0E0807030401000000AB
:1007F00000000000000000000000000000000000F9
:1008000000000000000000000000001211100000B5
:1008100000000000000000000000000000000000D8
:1008200000000000002E76616C3D0000CF35BA3527
:1008300011241FBECFEFD1E2DEBFCDBF00E00CBF61
:1008400018E0A0E0B2E0E4E4F9E900E00BBF02C088
:1008500007900D92A038B107D9F721E1A0E8B8E0E0
:1008600001C01D92AA3EB207E1F714E0C7E1D4E04F
:1008700000E006C021970109802FFE010E94354A41
:10088000C631D10780E00807A9F70E9452360C94C0
:10089000904C0C940000FC01A089B18982E08C93FB
:1008A000A485B5851C92A685B7858FEC8C93108E98
:1008B000A489B58986E08C93A289B3898C918061E3
:1008C0008C93A289B3898C9188608C93A289B38917
:1008D0008C9180688C930288F389E02D80818F7DD4
:1008E00080830895EAE3F0E1DC012D913D914C9184
:1008F000219331934193B0E1E637FB07A9F70895BF
:100900000895AF92BF92CF92DF92EF92FF920F9332
:100910001F93CF93DF936C017B018B01040F151F95
:10092000EB015E01AE18BF08C017D10759F06991FD
:10093000D601ED91FC910190F081E02DC601199551
:10094000892B79F7C501DF91CF911F910F91FF900E
:10095000EF90DF90CF90BF90AF900895FB0144815E
:100960005581608171810C948104FC01538D448D0B
:10097000252F30E0842F90E0821B930B541710F04A
:10098000CF96089501970895FC01918D828D981757
:1009900061F0A28DAE0FBF2FB11D5D968C91928D2F
:1009A0009F5F9F73928F90E008958FEF9FEF089560
:1009B000FC01918D828D981731F0828DE80FF11D29
:1009C000858D90E008958FEF9FEF0895FC01918D44
:1009D000228D892F90E0805C9F4F821B91098F733D
:1009E0009927089582E890E10E94E60421E0892B8E
:1009F00009F420E0822F08958FE191E10E94E6043E
:100A000021E0892B09F420E0822F0895FC01A48DB8
:100A1000A80FB92FB11DA35ABF4F2C91848D90E020
:100A200001968F739927848FA689B7892C93A08903
:100A3000B1898C91837080648C93938D848D98138D
:100A400006C00288F389E02D80818F7D8083089520
:100A5000EF92FF920F931F93CF93DF93EC0181E00E
:100A6000888F9B8D8C8D98131AC0E889F9898081B5
:100A700085FF15C09FB7F894EE89FF896083E889E8
:100A8000F98980818370806480839FBF81E090E0DA
:100A9000DF91CF911F910F91FF90EF900895F62E67
:100AA0000B8D10E00F5F1F4F0F731127E02E8C8D01
:100AB0008E110CC00FB607FCFACFE889F989808146
:100AC00085FFF5CFCE010E940605F1CFEB8DEC0F2F
:100AD000FD2FF11DE35AFF4FF0829FB7F8940B8F63
:100AE000EA89FB8980818062CFCF6FEF82E890E155
:100AF0000C942805EF92FF920F931F93CF93DF93EF
:100B00008C017B01D0E0C0E0F701EC0FFD1F649188
:100B1000662339F0C8010E942805892B11F021961F
:100B2000F3CFCE01DF91CF911F910F91FF90EF9006
:100B30000895CF93DF93EC01888D8823B9F0AA89BB
:100B4000BB89E889F9898C9185FD03C0808186FD88
:100B50000DC00FB607FCF7CF8C9185FFF2CF8081D7
:100B600085FFEDCFCE010E940605E9CFDF91CF9141
:100B7000089580E090E0892B29F00E94FC04811107
:100B80000E94000080E090E0892B49F080E090E036
:100B9000892B29F00E94000081110E94000080E052
:100BA00090E0892B49F080E090E0892B29F00E94A9
:100BB000000081110E94000080E090E0892B29F064
:100BC0000E94F20481110C9400000895815082313A
:100BD00008F05AC0E82FF0E08827EE50FA4F8F4F08
:100BE0000C94354A1206160604060A060E0644063A
:100BF00019061F06230629062D06310637063B0671
:100C000044063F0645064906809180008F77809311
:100C100080000895809180008F7DF9CF80918000C1
:100C2000877FF5CF84B58F7784BD089584B58F7D98
:100C3000FBCF8091B0008F778093B00008958091B2
:100C4000B0008F7DF9CF809190008F7780939000D6
:100C50000895809190008F7DF9CF80919000877FDB
:100C6000F5CF8091A0008F778093A00008958091A8
:100C7000A0008F7DF9CF8091A000877FF5CF809174
:100C800020018F77809320010895809120018F7D2E
:100C9000F9CF80912001877FF5CFCF93DF93EFE0ED
:100CA000F8E08491E9ECF7E0D491E3E8F7E0C4914F
:100CB000CC23A1F081110E94E605EC2FF0E0EE0FAD
:100CC000FF1FE75CF84FA591B491EC91ED2381E013
:100CD00090E009F480E0DF91CF91089580E090E00A
:100CE000FACF1F93CF93DF93282F30E0F901E15221
:100CF000F84F8491F901E756F84FD491F901ED5A74
:100D0000F84FC491CC23A9F0162F81110E94E6055B
:100D1000EC2FF0E0EE0FFF1FEB5CFB4FA591B491C1
:100D20008FB7F894EC91111108C0D095DE23DC93B5
:100D30008FBFDF91CF911F910895DE2BF8CFCF9217
:100D4000DF92EF92FF92CF930E944D060197E1F759
:100D500061E080E30E94710660E085E30E94710615
:100D60000E944D06892BE1F7C8E1C12CD12C7601F8
:100D700061E085E30E947106CC0CDD1CEE1CFF1CBB
:100D800060E085E30E9471060E944D06892B29F0E0
:100D90002FEFC21AD20AE20AF20AC15049F761E003
:100DA00085E30E94710660E085E30E947106C70139
:100DB000B6018058CF91FF90EF90DF90CF900895CB
:100DC000CF93DF9390E0FC01E756F84F24918D5AC2
:100DD000984FFC0184918823D1F090E0880F991FEF
:100DE000FC01E55EFB4FA591B491FC01EB5CFB4F70
:100DF000C591D49161110EC09FB7F8948C91E22FE8
:100E0000E0958E238C932881E223E8839FBFDF91B6
:100E1000CF9108958FB7F894EC91E22BEC938FBFAC
:100E2000F6CF1F93CF93DF93182FEB0161E00E9461
:100E3000E006209739F460E0812FDF91CF911F9178
:100E40000C947106CF3FD10511F461E0F5CFE12F8D
:100E5000F0E0E152F84FE491E150E23108F0B3C024
:100E6000F0E08827E95CF84F8F4F0C94354A49072A
:100E70005107560760076A07E30774077C07840772
:100E80008E079807A207B107BB07E307C507CF077F
:100E9000D90784B5806884BDC7BDDF91CF911F910C
:100EA000089584B5806284BDC8BDF7CF809180006D
:100EB000806880938000D0938900C0938800EDCF34
:100EC00080918000806280938000D0938B00C093DB
:100ED0008A00E3CF80918000886080938000D09367
:100EE0008D00C0938C00D9CF8091B0008068809332
:100EF000B000C093B300D1CF8091B00080628093E6
:100F0000B000C093B400C9CF8091900080688093F6
:100F10009000D0939900C0939800BFCF809190002B
:100F2000806280939000D0939B00C0939A00B5CFCD
:100F300080919000886080939000D0939D00C09332
:100F40009C00ABCF8091A00080688093A00080912E
:100F5000A0008F7B8093A000D093A900C093A8002D
:100F60009CCF8091A00080628093A000D093AB00C2
:100F7000C093AA0092CF8091A00088608093A000C7
:100F8000D093AD00C093AC0088CF809120018068E1
:100F900080932001D0932901C09328017ECF8091B6
:100FA0002001806280932001D0932B01C0932A01FD
:100FB00074CF80912001886080932001D0932D010F
:100FC000C0932C016ACFC038D1050CF03ECF33CF8F
:100FD000865320917B00982F987F277F922B9093A8
:100FE0007B008770806480937C0080917A008064AD
:100FF00080937A0080917A0086FDFCCF8091780002
:101000009091790008953FB7F8948091EF089091FE
:10101000F008A091F108B091F20826B5A89B05C090
:101020002F3F19F00196A11DB11D3FBFBA2FA92F67
:10103000982F8827BC01CD01620F711D811D911D64
:1010400042E0660F771F881F991F4A95D1F70895D0
:101050008F929F92AF92BF92CF92DF92EF92FF92C8
:101060006B017C010E9403084B015C01C114D10497
:10107000E104F104B9F00E940308681979098A09AA
:101080009B09683E73408105910580F321E0C21AF7
:10109000D108E108F10888EE880E83E0981EA11CB3
:1010A000B11CE4CFFF90EF90DF90CF90BF90AF9056
:1010B0009F908F9008952FB7F8946091EB087091EE
:1010C000EC088091ED089091EE082FBF08950F93E2
:1010D0001F930E945B0860938A1070938B1080931B
:1010E0008C1090938D1082E890E10E94C40497FFC9
:1010F0001DC00E945B0800918A1010918B102091F6
:101100008C1030918D10601B710B820B930B009132
:1011100086101091871020918810309189106017E7
:10112000710782079307F8F28FEF9FEF1F910F91DE
:1011300008954F925F926F927F929F92AF92BF926B
:10114000CF92DF92EF92FF920F931F93CF93DF9393
:1011500000D0CDB7DEB7D090BC118091BF11909177
:10116000C011A091C111B091C211892B8A2B8B2B78
:10117000D9F00E94030800917E1010917F102091F9
:10118000801030918110601B710B820B930B0091CA
:10119000BF111091C0112091C1113091C21160177F
:1011A000710782079307C8F20E94030860937E10BC
:1011B00070937F108093801090938110E091C711FD
:1011C000F091C811309759F04091C3115091C4115A
:1011D0006091C5117091C6118D2D1995D82EE09092
:1011E0007C10F0907D104D2C512C712C612CE11451
:1011F000F10409F459C0D7011C96CC901C9780913A
:10120000BD119091BE118436910510F41C961C926C
:10121000D701ED91FC91A280B38019821A821B82C2
:10122000DD2079F1F701369610E000E021912223CC
:1012300019F19280992001F130E050E040E02F5FF9
:101240003F4F4F4F5F4FC301B2010E94114A9B01B4
:10125000AC01892D90E0B0E0A0E0BC01CD016F5F52
:101260007F4F8F4F9F4F0E94114AA1E0B0E0AC0F1B
:10127000BD1FA00FB11F8C930F5F1F4F03301105CF
:10128000A9F609811A812B81F7014585568562816E
:101290007381C701F5011995D7011C96CC921C9753
:1012A0001496ED90FC90A3CF80917A1090917B10D2
:1012B0008C010F5F1F4F10937B1000937A1049979A
:1012C000B4F10E945B08C0907610D0907710E09047
:1012D0007810F09079109B01AC012C193D094E0952
:1012E0005F0921F421E030E040E050E088EE93E037
:1012F000089FB001099F700D189F700D1124072ED3
:10130000000C880B990B0E9433493093BE11209337
:10131000BD1110927B1010927A100E945B086093AE
:1013200076107093771080937810909379100F90C7
:101330000F900F90DF91CF911F910F91FF90EF9041
:10134000DF90CF90BF90AF909F907F906F905F9015
:101350004F900895089508952091C308260F3327CC
:10136000331F21323105ECF420911010FC0190E084
:1013700080E0243069F082E00895A091C3082191B3
:10138000AC014D55574FA40FB52FB11D2C930196AD
:10139000861798F38091C308680F6093C30880E0B4
:1013A000089581E008951092101081E080930F104D
:1013B0001092EA0F61E084E10E94710661E085E12C
:1013C0000E947106E9EBF0E080818E7F808380814E
:1013D0008D7F808388E48093B80085E48093BC008F
:1013E0000895CF93DF9391E09093A2088823B9F0FA
:1013F000C091B800D091BA008091BC008A7B8093E4
:10140000BC0060E084E10E94710660E085E10E941A
:1014100071060E94D309D093BA00C093B800DF913F
:10142000CF9108958F929F92AF92BF92CF92DF9209
:10143000EF92FF920F931F93CF93DF93D0913910C8
:10144000D13208F0D7C0182FC09138100E9403087D
:101450006B017C018091101081116BC082E0809340
:10146000101010930F108FEF80930E1010920D102C
:10147000D0930C10A8E1B0E1ECEEFFE080E0D813CF
:1014800091C01092EB0F8091EB0FCC0FC82BC09343
:10149000EB0F8091EA0F813009F088C01092EA0FBB
:1014A0000E9403086B017C018091EB0F8093BB00CD
:1014B0008091121090911310A0911410B0911510FA
:1014C000892B8A2B8B2BA1F00E940308009112100C
:1014D0001091131020911410309115106C197D0982
:1014E0008E099F09061717072807390708F442C015
:1014F0008091BC0083FDD8CF85EC8093BC000E9416
:1015000003086B017C0180911010823009F450C0F7
:1015100080910E108F3F09F46FC080910E108032C1
:1015200009F46CC080910E10803309F469C084E026
:1015300026C08091121090911310A0911410B091B8
:101540001510892B8A2B8B2B09F484CF0E9403085A
:101550008090121090901310A0901410B09015105D
:101560006C197D098E099F0986169706A806B9068B
:1015700008F070CF809111100E94F10985E010925F
:1015800017101092391010921610DF91CF911F9101
:101590000F91FF90EF90DF90CF90BF90AF909F9012
:1015A0008F9008959D9191938F5F69CF85EEA5CF20
:1015B0008091121090911310A0911410B0911510F9
:1015C000892B8A2B8B2B09F49ECF0E940308009154
:1015D00012101091131020911410309115106C19E5
:1015E0007D098E099F09061717072807390708F094
:1015F0008ACFC0CF81E0C3CF80E0C1CF82E0BFCF30
:1016000083E0BDCFCF93DF93EA01DC0111968D918A
:101610009C91DC01ED91FC910280F381E02D199504
:10162000C817D90729F481E00E94120A91E08111BC
:1016300090E0892FDF91CF910895CF93DF93EC0154
:101640008B818823A1F0888191E09093161080937C
:101650003810109217101092391081E00E94120A6F
:1016600091E0811190E0892FDF91CF910895109240
:10167000C90F1092C80F10921710109239100E94C3
:10168000D3098AEA99E09093E9088093E8088BEA05
:1016900099E09093E7088093E60881E08B83CE0180
:1016A0000E941D0B982F8111CECFDDCF0895E091C0
:1016B000C90F8091C80FE81730F4F0E0E653F04FFF
:1016C000808190E008958FEF9FEF08959091C90F6A
:1016D0008091C80F2FEF3FEF981748F4E92FF0E003
:1016E000E653F04F208130E09F5F9093C90FC9010E
:1016F00008958091C80F9091C90F891B990B089587
:10170000CF92DF92EF92FF920F931F93CF93DF93CD
:101710007C01CB018A0120911610222389F0EB0174
:101720006B01C40ED51ECC15DD0569F06991D7019A
:10173000ED91FC910190F081E02DC7011995F3CF57
:10174000642F0E94AC09C801DF91CF911F910F91C6
:10175000FF90EF90DF90CF900895CF93DF931F928B
:10176000CDB7DEB76983209116102223F9F02091BE
:101770003910203258F021E030E0FC01338322831D
:1017800090E080E00F90DF91CF9108958091171045
:10179000E82FF0E0E85EFF4E998190838F5F8093A1
:1017A00017108093391081E090E0ECCF61E0CE011A
:1017B00001960E94AC09F7CF90E080E00895CF92A7
:1017C000DF92EF92FF920F931F93CF93DF93C82F77
:1017D000C12CD12C7601D0E003E210E00E949F06DC
:1017E000C60ED71EE81EF91EC8010197F1F7DF5F8C
:1017F000CD13F4CF2C2F30E050E040E0C701B6010C
:101800000E940149CA01B9010E94E44760939E0801
:1018100070939F088093A0089093A108DF91CF91C7
:101820001F910F91FF90EF90DF90CF900895CF928E
:10183000DF92EF92FF9260919E0870919F088091D5
:10184000A0089091A1080E94D6496B017C010E94DA
:101850009F066C197D098E099F090E94E4472DECB3
:101860003CEC4CE251E40E9464490E94D64997FF47
:1018700003C060E070E0CB01FF90EF90DF90CF906D
:1018800008950F931F93CF93DF9320919D082F5FAF
:10189000322F377030939D0820FF2BC020E831FD98
:1018A0002064347009F02062205FFC01EC01239673
:1018B00000E011E06485662329F070E0C8010E9411
:1018C000214A6F5F6187322F369F030E30E0311D52
:1018D0001124311110C01682662311F06150618706
:1018E0003196EC17FD0731F7DF91CF911F910F91E2
:1018F000089520E0D4CF31503683EECF4F925F92DF
:101900007F928F929F92AF92BF92CF92DF92EF928F
:10191000FF920F931F93CF93DF932C01EB010E9453
:101920000308F20127853089621B730B6A30710549
:10193000B0F3F8948A819B81181619060CF0CDC17A
:10194000E881F98164B3862E689485F834B33F7DCD
:1019500034BBD9848E812D2D281B822F2E834F8559
:10196000042E000C550BAA81BB817C85FD84EE847E
:101970007F5FF394E3949F819884BA84AB84108151
:10198000C12C6C2D0C2D2C2D208111278894211118
:10199000280F08F42FEF8195889470FD120F17958A
:1019A000889471FD120F1795889472FD120F179588
:1019B000889473FD120F1795889474FD120F179574
:1019C000889475FD120F1795889476FD120F179560
:1019D000889477FD120F17958894622F7111612FEB
:1019E0008D0D162F002C84BA00C017FF34BB218147
:1019F0006627889400C000C0002C34BB2111290F39
:101A000000C0002C84BA00C016FF34BB08F42FEFCE
:101A10009195889400C000C0002C34BBF0FC620F8C
:101A200000C0002C84BA00C015FF34BB67958894B1
:101A3000F1FC620F00C000C0002C34BB6795889495
:101A400000C0002C84BA00C014FF34BBF2FC620F4B
:101A50006795889400C000C0002C34BBF3FC620F73
:101A600000C0002C84BA00C013FF34BB6795889473
:101A7000F4FC620F00C000C0002C34BB6795889452
:101A800000C0002C84BA00C012FF34BBF5FC620F0A
:101A90006795889400C000C0002C34BBF6FC620F30
:101AA00000C0002C84BA00C011FF34BB6795889435
:101AB000F7FC620F00C000C0002C34BB679588940F
:101AC00000C0002C84BA00C010FF34BB122FF110EC
:101AD000162F9B0D00C000C0002C34BB00C000C0FE
:101AE000002C84BA00C017FF34BB2281662788947B
:101AF00000C000C0002C34BB2111290D00C0002CF7
:101B000084BA00C016FF34BB08F42FEFE40FF51FB2
:101B100000C000C0002C34BBE0FC620F00C0002CF1
:101B200084BA00C015FF34BB67958894E1FC620F4E
:101B300000C000C0002C34BB6795889400C0002C06
:101B400084BA00C014FF34BBE2FC620F679588942E
:101B500000C000C0002C34BBE3FC620F00C0002CAE
:101B600084BA00C013FF34BB67958894E4FC620F0D
:101B700000C000C0002C34BB6795889400C0002CC6
:101B800084BA00C012FF34BBE5FC620F67958894ED
:101B900000C000C0002C34BBE6FC620F00C0002C6B
:101BA00084BA00C011FF34BB67958894E7FC620FCC
:101BB00000C000C0002C34BB6795889400C0002C86
:101BC00084BA00C010FF34BB122FE110162F91947D
:101BD00000C000C0002C34BB9A0C00C000C084BA06
:101BE00000C017FF34BB20816627889400C000C066
:101BF000002C34BB2111280F00C0002C84BA00C077
:101C000016FF34BB08F42FEF8195889400C000C004
:101C1000002C34BB70FD620F00C0002C84BA00C0E1
:101C200015FF34BB6795889471FD620F00C000C03A
:101C3000002C34BB6795889400C0002C84BA00C087
:101C400014FF34BB72FD620F6795889400C000C01A
:101C5000002C34BB73FD620F00C0002C84BA00C09E
:101C600013FF34BB6795889474FD620F00C000C0F9
:101C7000002C34BB6795889400C0002C84BA00C047
:101C800012FF34BB75FD620F6795889400C000C0D9
:101C9000002C34BB76FD620F00C0002C84BA00C05B
:101CA00011FF34BB6795889477FD620F00C000C0B8
:101CB000002C34BB6795889400C0002C84BA00C007
:101CC00010FF34BB122F7111162F8D0D00C000C0F4
:101CD000002C34BB119709F086CE4A815B8120EE3F
:101CE00031E0DA010E943D4ADC01CB01F4E0B69517
:101CF000A79597958795FA95D1F730E020E0B9013F
:101D0000EAE94E9F040E611D5E9F600D711D112456
:101D1000650F711D860F971FA11DB11D893E43E000
:101D20009407A105B10508F434C0885E9340A10969
:101D3000B10942E0B695A795979587954A95D1F751
:101D400047E0849F080E211D949F200D311D112412
:101D5000290F311D60919C0870E0860F971F820F3C
:101D6000931F4091EB085091EC086091ED08709141
:101D7000EE08292F3327420F531F611D711D409319
:101D8000EB085093EC086093ED087093EE08809395
:101D90009C0878940E940308F201708B6787DF919A
:101DA000CF911F910F91FF90EF90DF90CF90BF9058
:101DB000AF909F908F907F905F904F90089580E9B3
:101DC00091E0089581E090E008959D9A08956F92C2
:101DD0007F928F92CF92DF92EF92FF920F931F9399
:101DE000CF93DF93CDB7DEB762970FB6F894DEBF1F
:101DF0000FBECDBF6C017A013801822EDC011C962A
:101E00002C91CA0157FF04C088279927841B950B82
:101E10007A8369839C838B839E838D836D867E8684
:101E20008F86213049F5CE0101960E94410C83E056
:101E3000888B1A8A198AF7FE02C08DEF888BD6012B
:101E4000ED91FC910684F785E02DBE016F5F7F4F19
:101E5000C601199562960FB6F894DEBF0FBECDBFCE
:101E6000DF91CF911F910F91FF90EF90DF90CF9076
:101E70008F907F906F9008951C861B861A86198616
:101E800018861F82D4CFEF92FF920F931F93CF93A8
:101E9000DF93CDB7DEB762970FB6F894DEBF0FBE03
:101EA000CDBF7C01DC011C968C917A8369835C83B5
:101EB0004B835E834D830D871E872F878130F9F416
:101EC000CE0101960E94410C188A1A8A198AD701FC
:101ED000ED91FC910684F785E02DBE016F5F7F4F89
:101EE000C701199562960FB6F894DEBF0FBECDBF3D
:101EF000DF91CF911F910F91FF90EF9008951C8675
:101F00001B861A86198618861F82DECFCF93DF9331
:101F100000D0CDB7DEB719821A821B82CE0101969E
:101F20000E9472040E9499080F900F900F90DF9109
:101F3000CF910895CF93DF9300D0CDB7DEB76983FB
:101F40008A834B83CE0101960E9472040E949908F5
:101F50000F900F900F90DF91CF910895BF92CF9285
:101F6000DF92EF92FF920F931F93CF93DF9300D0F6
:101F7000CDB7DEB7C82EB62ED42EE22E19821A8225
:101F80001B82CE0101960E9472040E94990810E003
:101F900000E0F12C0E151F050CF5B982CA82DB8218
:101FA000CE0101960E9472040E94990864E670E0D6
:101FB00080E090E00E94280819821A821B82CE01DC
:101FC00001960E9472040E94990864E670E080E025
:101FD00090E00E9428080F5F1F4FDCCF0F900F90FA
:101FE0000F90DF91CF911F910F91FF90EF90DF90B5
:101FF000CF90BF90089590E080E00895FC01858522
:10200000968508950F931F93CF93DF9300D0CDB79C
:10201000DEB7AB0119821A821B82DC01ED91FC91C3
:102020000190F081E02D00E010E020E0BE016F5F44
:102030007F4F19950F900F900F90DF91CF911F91C7
:102040000F9108951092C70F1092C60F1092B00F03
:10205000109201090895CF93DF93CBE4D2E060E0C2
:1020600089910E94710682E0C435D807C1F7DF91DB
:10207000CF910895BC0182E890E10E94AE040E94D5
:1020800075050E9475050C947505CF93DF93EC01DF
:1020900088819981009711F00E94F44A1982188270
:1020A0001D821C821B821A82DF91CF910895FC0150
:1020B00080819181009711F00C94F44A0895CF9398
:1020C000DF93EC0108960E945710CE010296DF9133
:1020D000CF910C945710CF93DF9300D0CDB7DEB7DC
:1020E00099838A836B838091E1119091E211FC01C5
:1020F000248135812330310588F0208131E030930F
:10210000161020933810109217101092391043E0D7
:1021100050E0BE016F5F7F4F0E94020B0F900F9047
:102120000F90DF91CF9108953F924F925F926F92FF
:102130007F928F929F92AF92BF92CF92DF92EF9257
:10214000FF920F931F93CF93DF931F921F92CDB7F0
:10215000DEB719828A838091E1119091E211DC014E
:1021600014962D913C9115972230310588F02C91D1
:1021700031E03093161020933810109217101092FF
:10218000391042E050E0BE016F5F7F4F0E94020BAA
:10219000E090E111F090E211DD24D394AA24AA94F6
:1021A00085EEC82E95ECB92E01E0F701848195816A
:1021B000892B09F400E0802E912CD7013C900E94DD
:1021C00003082B013C0180911010811164C0102F75
:1021D000D092101000930F10A0920E1010920D10BC
:1021E0008FEF800F80930C10D092EB0F8091EB0F4C
:1021F000330C382A3092EB0F8091EA0F813009F0CE
:102200008CC01092EA0F0E9403082B013C018091C0
:10221000EB0F8093BB008091121090911310A0914E
:102220001410B0911510892B8A2B8B2BA1F00E94D2
:102230000308209112103091131040911410509106
:102240001510641975098609970926173707480775
:10225000590708F441C08091BC0083FDD8CFB092EB
:10226000BC000E9403082B013C01809110108130BA
:1022700009F456C080910D10801710F410910D10C4
:10228000ECEEFFE0AAECBFE080E0811751F1919104
:102290009D938F5FFACF8091121090911310A091AF
:1022A0001410B0911510892B8A2B8B2B09F48BCF2E
:1022B0000E940308209112103091131040911410C5
:1022C0005091151064197509860997092617370763
:1022D0004807590708F077CF809111100E94F10943
:1022E00010E01092C90F1093C80F012F10E00815CD
:1022F0001905D9F590E080E08017910798F5F7016E
:1023000081819281DC01ED91FC910284F385E02DC5
:102310001995898381E090E0EFCFC092BC00A1CFF6
:102320008091121090911310A0911410B09115107B
:10233000892B8A2B8B2B09F498CF0E9403082091BC
:10234000121030911310409114105091151064190F
:10235000750986099709261737074807590708F0AE
:1023600084CFBACF012B09F41FCF89810F900F9032
:10237000DF91CF911F910F91FF90EF90DF90CF9061
:10238000BF90AF909F908F907F906F905F904F9095
:102390003F900895CF938DE490E00E94941080FFC9
:1023A000FACF61E088E190E00E946B108FE490E04A
:1023B0000E94941082FFFACF82E690E00E9494106F
:1023C000C82F67E085E190E00E946B108C2FCF91C1
:1023D0000895FB0101900020E9F73197AF01461BFA
:1023E000570B0C9481046CE872E08FE191E10C943E
:1023F000E911CF93DF93BC018FE191E10E947A054F
:10240000EC010E94F3118C0F9D1FDF91CF91089575
:10241000CF93DF93BC018FE191E10E94AE04EC0108
:102420000E94F3118C0F9D1FDF91CF9108958F9221
:102430009F92AF92BF92EF92FF920F931F93CF9311
:10244000DF93CDB7DEB7A1970FB6F894DEBF0FBE0E
:10245000CDBF7C01FA01CB0119A2223008F42AE099
:102460008E010F5D1F4F822E912CB12CA12CBF012C
:10247000A50194010E943349F901CA016A300CF5A3
:10248000605DD8016E938D01232B242B252B79F7CA
:1024900090E080E0109721F0BD01C7010E94E91192
:1024A000A1960FB6F894DEBF0FBECDBFDF91CF91DE
:1024B0001F910F91FF90EF90BF90AF909F908F90E2
:1024C0000895695CDECFCF93DF93482F50E070E032
:1024D00060E02AE08FE191E10E941712EC010E9476
:1024E000F3118C0F9D1FDF91CF910895CF92DF9252
:1024F000EF92FF920F931F93CF93DF93EC016A014A
:102500007B016DE20E9428058C0144275527BA0102
:102510004C195D096E097F092AE0CE010E9417124D
:10252000800F911FDF91CF911F910F91FF90EF903E
:10253000DF90CF900895CF93DF93AB01BC0177FF7D
:102540000CC08FE191E10E947612EC010E94F31120
:102550008C0F9D1FDF91CF9108952AE08FE191E1CB
:102560000E941712F2CFAB01770F660B770B77FD46
:102570000C9476122AE00C941712CF93DF93BC01CF
:102580008FE191E10E94B312EC010E94F3118C0FD4
:102590009D1FDF91CF910895CF93DF93BC018FE111
:1025A00091E10E94E911EC010E94F3118C0F9D1F33
:1025B000DF91CF9108958D5A9D4F61E0FC0180819C
:1025C0000C9471068D5A9D4F60E0FC0180810C9443
:1025D0007106CF93DF93C1E0D0E0CE010E94E212FA
:1025E0002196C531D105C9F7DF91CF910895CF93D9
:1025F000DF938091C70F81115CC08091C60F81115C
:1026000058C08FE30E94E8078536910524F083E1E6
:1026100090E00E94E21282E090E00E94E21283E0E9
:1026200090E00E94E21284E090E00E94E21268ECE6
:1026300070E080E090E00E9428088DE090E00E9429
:10264000DB12C5EFD1E088E30E94E807843F9140A8
:10265000D4F464E670E080E090E00E94280882E113
:1026600090E00E94E21264E670E080E090E00E9458
:10267000280883E090E00E94DB1284E090E0DF9184
:10268000CF910C94DB12219769F481E08093C70FFE
:102690000E942B100E94E9128FE892E0DF91CF9107
:1026A0000C94CC1261E070E080E090E00E94280879
:1026B000CACFDF91CF910895CF93DF938091C70F59
:1026C0008111C2C08091C60F8111BEC088E30E94F3
:1026D000E807843F91400CF0B1C08DE090E00E948B
:1026E000E21282E190E00E94E2128FE30E94E8078A
:1026F000853691050CF48FC083E190E00E94DB12D7
:1027000066E970E080E090E00E94280883E190E0B4
:102710000E94E2126AEF70E080E090E00E942808D8
:1027200083E190E00E94DB12C5EFD1E088E30E94D4
:10273000E807853F914064F08FE493E00E94F9112F
:1027400068EC70E080E090E0DF91CF910C94280875
:10275000219709F059C087E293E00E94F91181E0C6
:102760008093C70F40E060E08FEF0E949A0F83E1F3
:1027700090E00E94E2128DE090E00E94DB1268EE91
:1027800073E080E090E00E9428088BE090E00E94D7
:10279000DB1264EF71E080E090E00E9428088DE099
:1027A00090E00E94E2128BE090E00E94E21264EF5F
:1027B00071E080E090E00E9428088DE090E00E94A7
:1027C000DB128BE090E00E94DB1264EF71E080E0AE
:1027D00090E00E9428088BE090E00E94E21264EFF3
:1027E00071E080E090E00E9428088DE090E00E9477
:1027F000E2124FEF6FEF8FEF0E949A0F0E942B10A3
:10280000DF91CF910C94E91261E070E080E090E0FC
:102810000E9428088BCF8FEB92E00E94CC1281E0BF
:102820008093C70F0E942B100E94E91223E040E022
:1028300060E08FEFDF91CF910C94AE0F88ED92E0C6
:10284000DF91CF910C94CC12DF91CF910895865BEC
:102850009D4F60E0FC0180810C9471061F93CF9323
:10286000DF93C62FD0E00197FC01E55BFD4F10819F
:102870008630910538F4642F8B5B9D4FFC0180817D
:102880000E947106BE01812FDF91CF911F910C94A0
:1028900011078091C70F811166C08091C60F811109
:1028A00062C088E090E00E94DB126AEF70E080E096
:1028B00090E00E94280841E050E06FEF82E090E055
:1028C0000E942E1482E090E00E94DB1281E090E0F2
:1028D0000E94DB126DE770E080E090E00E94280823
:1028E00085E090E00E94E2126DE770E080E090E009
:1028F0000E94280882E090E00E94271488E090E07F
:102900000E94E21282E090E00E94E21281E090E0F8
:102910000E94E2128091B00F813029F583E090E0AF
:102920000E94E21284E090E00E94E21281E090E0D6
:102930000E94E21287E090E00E94DB126CEB72E0F2
:1029400080E090E00E94280887E090E00E94E21278
:1029500068EE73E080E090E00E94280882E00E9428
:10296000DF0B1092B00F08950C94E911CF93DF9311
:10297000EC01E881F981E930F105A8F48827EC53EE
:10298000FB4E8F4F0C94354ACD14EE14F114F41411
:10299000F714FA14FD140015031569EF72E082E8CC
:1029A00090E10E94B414BE016E5F7F4F82E890E117
:1029B0000E94AE0465E278E082E890E10E947A0528
:1029C00070E060E082E890E10E94B3120E94750519
:1029D0000E947505DF91CF910C94750560E073E05E
:1029E000DECF66E073E0DBCF6BE073E0D8CF61E170
:1029F00073E0D5CF68E173E0D2CF6DE173E0CFCF64
:102A000063E273E0CCCF69E273E0C9CF0F931F9309
:102A1000CF93DF938091C70F8111C9C08091C60FFA
:102A20008111C5C050E040E06FEF85E090E00E946A
:102A30002E14C1E0D0E002E310E08DE30E94E8072D
:102A400090931409809313098B3F91050CF040C0BB
:102A500060910A0270910B02072E000C880B990BF3
:102A60000E9428088FE090E00E94E21282E090E04D
:102A70000E94271464E670E080E090E00E9428083D
:102A80008EE090E00E94E21260E971E080E090E068
:102A90000E94280885E090E00E94DB1260E971E066
:102AA00080E090E00E94280863E478E08FE191E103
:102AB0000E94B41480911309909114090E94BD12D0
:102AC00085E090E0DF91CF911F910F910C94271436
:102AD000CA3FD10509F443C0CE01B8010E94214A82
:102AE000892B71F588E090E00E94DB1282E090E093
:102AF0000E94271481E090E00E94E21268EC70E0EE
:102B000080E090E00E94280888E090E00E94E212B5
:102B100083E090E00E94E21268EC70E080E090E0D8
:102B20000E94280883E090E00E94DB1264E670E0D7
:102B300080E090E00E94280881E090E00E94DB1293
:102B400041E050E062E882E090E00E942E1464E1EF
:102B500070E080E090E00E94280821966ECF89E026
:102B600090E00E94E21282E090E00E94271468EC5C
:102B700070E080E090E00E94280889E090E00E94E8
:102B8000DB128EE090E00E94E21268EE73E080E0DB
:102B900090E00E9428088FE090E00E94E21281E01D
:102BA0008093C70F8FE293E00E94CC1289CFDF9110
:102BB000CF911F910F9108950F931F93CF93DF93A0
:102BC000EC018B01E881F981E930F105A8F488274F
:102BD000E351FA4E8F4F0C94354AF61518161B1612
:102BE0001E162116241627162A162D1669EF72E0D6
:102BF00082E890E10E94B414BE016E5F7F4F82E8CC
:102C000090E10E94AE046FEE72E082E890E10E94D3
:102C10007A05B80182E890E10E94B3120E9475051E
:102C20000E947505DF91CF911F910F910C9475054E
:102C300060E073E0DDCF66E073E0DACF6BE073E075
:102C4000D7CF61E173E0D4CF68E173E0D1CF6DE11C
:102C500073E0CECF63E273E0CBCF69E273E0C8CF1D
:102C60000F931F93CF93DF938C01EB01FC018081C5
:102C700091810097E1F06881798161157105A9F072
:102C8000428153812C813D814217530770F00E948D
:102C90006C4C8C819D81F801958384831D821C82FC
:102CA000DF91CF911F910F9108950E94F44A88817E
:102CB0009981F801918380838A819B8193838283A8
:102CC0008C819D8195838483198218821B821A824C
:102CD000E5CFCF93DF93DC011496ED91FC916E1755
:102CE0007F0710F59F01261B370B4217530708F487
:102CF0009A01DB01EC0188819981E21BF30BFD83D2
:102D0000EC83AF01461B570B260F371FBC01620F28
:102D1000731F8A0F9B1F0E94814CE881F9818C816F
:102D20009D81E80FF91F1082DF91CF9108950E94D5
:102D30005E4CFB0144815581FC01248135812417BF
:102D4000350778F080819181009759F0FB0160810F
:102D500071816115710529F00E94734C21E0892B66
:102D600009F020E0822F08950F931F93CF93DF93F4
:102D7000EC0188819981009759F02A813B812617BF
:102D8000370730F081E0DF91CF911F910F910895C7
:102D90008B016F5F7F4F0E947D4B009759F09983A5
:102DA00088831B830A832C813D81232B59F7FC01E7
:102DB0001082E8CF80E0E7CFEF92FF920F931F934E
:102DC000CF93DF93EC01FB01E080F180E114F1048B
:102DD00011F10481158101151105A9F08C819D81E6
:102DE000080F191FB801CE010E94B416882399F06C
:102DF000288139818C819D81B701820F931F0E94A8
:102E00006C4C1D830C83CE01DF91CF911F910F91EC
:102E1000FF90EF900895CE010E944510F4CFEF92FD
:102E2000FF920F931F93CF93DF93EC017B018A01F5
:102E3000BA010E94B41681110BC0CE010E94451048
:102E4000CE01DF91CF911F910F91FF90EF900895E8
:102E50001D830C83B701888199810E946C4CF0CF4F
:102E6000FB0101900020E9F73197AF01461B570B9A
:102E70000C940F170F931F93CF93DF9300D000D0C4
:102E800000D0CDB7DEB78C01862FF80111821082F9
:102E900013821282158214824AE0BE016F5F7F4F57
:102EA00090E00E94B347BE016F5F7F4FC8010E9450
:102EB000301729960FB6F894DEBF0FBECDBFDF9155
:102EC000CF911F910F9108950F931F93CF93DF938D
:102ED000CDB7DEB762970FB6F894DEBF0FBECDBF99
:102EE0008C01CB01F80111821082138212821582AB
:102EF00014824AE0BE016F5F7F4F0E94A847BE0167
:102F00006F5F7F4FC8010E94301762960FB6F8942A
:102F1000DEBF0FBECDBFDF91CF911F910F910895FE
:102F2000CF93DF93EC01FB018617970749F060818F
:102F300071816115710541F0448155810E940F171F
:102F4000CE01DF91CF9108950E944510F9CFFC0189
:102F5000118210821382128215821482FB01019069
:102F60000020E9F73197AF01461B570B0C940F1760
:102F7000EF92FF920F931F93CF93DF931F921F92B5
:102F8000CDB7DEB78C016EE872E00E94A7170E94F1
:102F9000670897FD1EC089831A82F801E480F580D6
:102FA000FFEFEF1AFF0AB701C8010E94B416882389
:102FB00071F3F8012081318184819581BE016F5FB9
:102FC0007F4F820F931F0E946C4CF801F582E482C0
:102FD000DECFC8010F900F90DF91CF911F910F911D
:102FE000FF90EF9008956F927F928F929F92AF9291
:102FF000BF92CF92DF92EF92FF920F931F93CF93E6
:10300000DF93CDB7DEB7A6970FB6F894DEBF0FBE3D
:10301000CDBF8C013B01DC011E961D921D921D92BD
:103020001C9251976C01B8E0CB0ED11C6EE872E097
:10303000C6010E9430176AEE72E082E890E10E94B9
:103040007A05D801ED91FC91E930F105A8F48827C3
:10305000E35DF74E8F4F0C94354A3618D418D718C5
:10306000DA18DD18E018E318E618E91869EF72E0DD
:1030700082E890E10E94B414B8016E5F7F4F82E84D
:1030800090E10E94AE0465EE72E082E890E10E9459
:103090007A050E9475050E9475050E94750588ECE9
:1030A00090E0A0E0B0E08093861090938710A0930A
:1030B0008810B0938910FE0131965F01F12CE12C4C
:1030C0004F010E94670897FD0AC0D5018D935D01ED
:1030D000BFEFEB1AFB0AE0E2EE16F10491F7F40100
:1030E000EE0DFF1D8EE892E08083B401CE01819643
:1030F0000E94A717BE016F5D7F4FC6010E94301668
:10310000CE0181960E94571063E473E0CE01819650
:103110000E94A717BE016F5D7F4FC6010E949916DE
:10312000F82ECE0181960E945710FF2009F454C05A
:10313000D8011C964D915C911D971E9690E080E001
:1031400001968417950740F4F80120853185F9012F
:10315000E80FF91F232B21F410928008E0E8F8E033
:1031600020812D938430910559F7F8018685978544
:10317000A089B189B7FD56C0F30191838083A696DB
:103180000FB6F894DEBF0FBECDBFDF91CF911F9178
:103190000F91FF90EF90DF90CF90BF90AF909F90F6
:1031A0008F907F906F90089560E073E061CF66E04C
:1031B00073E05ECF6BE073E05BCF61E173E058CF0B
:1031C00068E173E055CF6DE173E052CF63E273E0E5
:1031D0004FCF69E273E04CCF0E945B086B017C012A
:1031E00060EC72E08FE191E10E947A050E945B0839
:1031F0006C197D098E099F09683E73408105910510
:1032000008F0B3CF82E890E10E94E604892B71F3C5
:1032100082E890E10E94C404BC018FE191E10E9428
:10322000B312E4CF0E945B086B017C016CE972E091
:103230008FE191E10E947A050E945B086C197D097B
:103240008E099F09683E73408105910508F097CF6C
:1032500082E890E10E94E604892B71F382E890E114
:103260000E94C404BC018FE191E10E94B312E4CF3B
:1032700068E072E083E79FE00E94F31763E172E089
:1032800081E69FE00E94F31766E072E08FE49FE022
:103290000E94F31761E172E08DE39FE00E94F31753
:1032A0006EE072E08BE29FE00E94F31764E072E050
:1032B00089E19FE00E94F31762E072E087E09FE0FF
:1032C0000E94F3176CE072E085EF9EE00E94F31716
:1032D00060E072E081ED9EE00E94F3176AE072E028
:1032E00083EE9EE00E94F3178091080290910902FC
:1032F0008115944009F4BCCF80911302909114027F
:103300008115944009F4B4CF809106029091070290
:103310008115944009F4ACCF809111029091120272
:103320008115944009F4A4CF80910E0290910F0270
:103330008115944009F49CCF80910402909105027C
:103340008115944009F494CF809102029091030278
:103350008115944009F48CCF80910C0290910D025C
:103360008115944009F484CF80910002909101026C
:103370008115944009F47CCF80910A0290910B0250
:103380008115944009F474CF0895CF93DF93EC0135
:10339000798368831B821A821D821C821F821E828F
:1033A000BA0102960E94901728966EE872E0CE014C
:1033B0000E94A7176EE872E0CE01DF91CF910C94C6
:1033C0003017CF93DF9300D000D0CDB7DEB7019791
:1033D00009F0B7C665E473E0CE0101960E94A71715
:1033E000AE014F5F5F4F70E060E083E79FE00E94B7
:1033F000C519CE0101960E94571069E473E0CE0111
:1034000001960E94A717AE014F5F5F4F70E060E02A
:1034100081E69FE00E94C519CE0101960E945710D7
:103420006DE473E0CE0101960E94A717AE014F5FD5
:103430005F4F70E060E08FE49FE00E94C519CE010D
:1034400001960E94571061E573E0CE0101960E943B
:10345000A717AE014F5F5F4F70E060E08DE39FE024
:103460000E94C519CE0101960E94571065E573E0D0
:10347000CE0101960E94A717AE014F5F5F4F70E02B
:1034800060E08BE29FE00E94C519CE0101960E9488
:10349000571069E573E0CE0101960E94A717AE01AF
:1034A0004F5F5F4F70E060E089E19FE00E94C519C7
:1034B000CE0101960E9457106DE573E0CE01019692
:1034C0000E94A717AE014F5F5F4F70E060E087E09A
:1034D0009FE00E94C519CE0101960E94571061E637
:1034E00073E0CE0101960E94A717AE014F5F5F4FB8
:1034F00070E060E085EF9EE00E94C519CE01019664
:103500000E94571065E673E0CE0101960E94A7174E
:10351000AE014F5F5F4F70E060E083EE9EE00E947F
:10352000C519CE0101960E94571069E673E0CE01DD
:1035300001960E94A717AE014F5F5F4F70E060E0F9
:1035400081ED9EE00E94C519CE0101960E945710A0
:103550006FE673E0CE0101960E94A717AE014F5FA0
:103560005F4F70E060E08FEB9EE00E94C519CE01D6
:1035700001960E9457106BE773E0CE0101960E94FE
:10358000A717AE014F5F5F4F70E060E08DEA9EE0ED
:103590000E94C519CE0101960E94571061E873E0A0
:1035A000CE0101960E94A717AE014F5F5F4F70E0FA
:1035B00060E08BE99EE00E94C519CE0101960E9451
:1035C00057106AE873E0CE0101960E94A717AE017A
:1035D0004F5F5F4F70E060E089E89EE00E94C51990
:1035E000CE0101960E94571061E973E0CE01019669
:1035F0000E94A717AE014F5F5F4F70E060E087E762
:103600009EE00E94C519CE0101960E94571069E9FB
:1036100073E0CE0101960E94A717AE014F5F5F4F86
:1036200070E060E08EE99FE00E94C519CE0101962E
:103630000E94571063EA73E0CE0101960E94A7171B
:10364000AE014F5F5F4F70E060E085E69EE00E9454
:10365000C519CE0101960E9457106BEA73E0CE01A6
:1036600001960E94A717AE014F5F5F4F70E060E0C8
:1036700081EB9FE00E94C519CE0101960E94571070
:1036800062EB73E0CE0101960E94A717AE014F5F77
:103690005F4F70E060E083E59EE00E94C519CE01B7
:1036A00001960E9457106AEB73E0CE0101960E94CA
:1036B000A717AE014F5F5F4F61E070E081E49EE0CD
:1036C0000E94C519CE0101960E94571062EC73E06A
:1036D000CE0101960E94A717AE014F5F5F4F61E0D8
:1036E00070E08FE29EE00E94C519CE0101960E9413
:1036F000571069EC73E0CE0101960E94A717AE0146
:103700004F5F5F4F62E070E08DE19EE00E94C5195F
:10371000CE0101960E94571065ED73E0CE0101962F
:103720000E94A717AE014F5F5F4F62E070E08BE031
:103730009EE00E94C519CE0101960E94571061EECD
:1037400073E0CE0101960E94A717AE014F5F5F4F55
:1037500062E070E089EF9DE00E94C519CE010196FC
:103760000E9457106DEE73E0CE0101960E94A717DC
:10377000AE014F5F5F4F62E070E087EE9DE00E9418
:10378000C519CE0101960E94571069EF73E0CE0172
:1037900001960E94A717AE014F5F5F4F62E070E095
:1037A00085ED9DE00E94C519CE0101960E9457103B
:1037B00068E074E0CE0101960E94A717AE014F5F4A
:1037C0005F4F62E070E083EC9DE00E94C519CE017E
:1037D00001960E94571063E174E0CE0101960E94A9
:1037E000A717AE014F5F5F4F62E070E081EB9DE095
:1037F0000E94C519CE0101960E9457106EE174E037
:10380000CE0101960E94A717AE014F5F5F4F62E0A5
:1038100070E08FE99DE00E94C519CE0101960E94DB
:10382000571069E274E0CE0101960E94A717AE011D
:103830004F5F5F4F62E070E08DE89DE00E94C51928
:10384000CE0101960E94571064E374E0CE01019608
:103850000E94A717AE014F5F5F4F62E070E08BE7F9
:103860009DE00E94C519CE0101960E9457106FE39A
:1038700074E0CE0101960E94A717AE014F5F5F4F23
:1038800062E070E089E69DE00E94C519CE010196D4
:103890000E9457106AE474E0CE0101960E94A717B7
:1038A000AE014F5F5F4F62E070E087E59DE00E94F0
:1038B000C519CE0101960E94571065E574E0CE014E
:1038C00001960E94A717AE014F5F5F4F62E070E064
:1038D00085E49DE00E94C519CE0101960E94571013
:1038E00060E674E0CE0101960E94A717AE014F5F1B
:1038F0005F4F62E070E083E39DE00E94C519CE0156
:1039000001960E94571064E674E0CE0101960E9471
:10391000A717AE014F5F5F4F62E070E081E29DE06C
:103920000E94C519CE0101960E94571068E674E006
:10393000CE0101960E94A717AE014F5F5F4F62E074
:1039400070E08FE09DE00E94C519CE0101960E94B3
:10395000571062E774E0CE0101960E94A717AE01EE
:103960004F5F5F4F62E070E08DEF9CE00E94C519F1
:10397000CE0101960E9457106DE774E0CE010196CA
:103980000E94A717AE014F5F5F4F62E070E08BE8C7
:103990009FE00E94C519CE0101960E94571060E673
:1039A00074E0CE0101960E94A717AE014F5F5F4FF2
:1039B00063E070E08BEE9CE00E94C519CE01019699
:1039C0000E94571064E674E0CE0101960E94A7178A
:1039D000AE014F5F5F4F63E070E089ED9CE00E94B5
:1039E000C519CE0101960E94571064E874E0CE011B
:1039F00001960E94A717AE014F5F5F4F63E070E032
:103A000087EC9CE00E94C519CE0101960E945710D8
:103A100068E874E0CE0101960E94A717AE014F5FDF
:103A20005F4F63E070E085EB9CE00E94C519CE011A
:103A300001960E9457106CE874E0CE0101960E9436
:103A4000A717AE014F5F5F4F63E070E083EA9CE031
:103A50000E94C519CE0101960E94571060E974E0DA
:103A6000CE0101960E94A717AE014F5F5F4F63E042
:103A700070E081E99CE00E94C519CE0101960E9488
:103A8000571064E974E0CE0101960E94A717AE01B9
:103A90004F5F5F4F63E070E08FE79CE00E94C519C5
:103AA000CE0101960E94571068E974E0CE0101969C
:103AB0000E94A717AE014F5F5F4F63E070E08DE695
:103AC0009CE00E94C519CE0101960E9457106CE936
:103AD00074E0CE0101960E94A717AE014F5F5F4FC1
:103AE00063E070E08BE59CE00E94C519CE01019671
:103AF0000E94571060EA74E0CE0101960E94A71759
:103B0000AE014F5F5F4F63E070E089E49CE00E948C
:103B1000C519CE0101960E94571065EA74E0CE01E6
:103B200001960E94A717AE014F5F5F4F63E070E000
:103B300087E39CE00E94C519CE0101960E945710B0
:103B40006AEA74E0CE0101960E94A717AE014F5FAA
:103B50005F4F63E070E085E29CE00E94C519CE01F2
:103B600001960E9457106FEA74E0CE0101960E9400
:103B7000A717AE014F5F5F4F63E070E083E19CE009
:103B80000E94C519CE0101960E94571064EB74E0A3
:103B9000CE0101960E94A717AE014F5F5F4F63E011
:103BA00070E081E09CE00E94C519CE0101960E9460
:103BB000571069EB74E0CE0101960E94A717AE0181
:103BC0004F5F5F4F63E070E08FEE9BE00E94C5198E
:103BD000CE0101960E9457106EEB74E0CE01019663
:103BE0000E94A717AE014F5F5F4F63E070E08DED5D
:103BF0009BE00E94C519CE0101960E94571063EC0C
:103C000074E0CE0101960E94A717AE014F5F5F4F8F
:103C100063E070E08BEC9BE00E94C519CE01019639
:103C20000E94571068EC74E0CE0101960E94A7171D
:103C3000AE014F5F5F4F63E070E089EB9BE00E9455
:103C4000C519CE0101960E9457106DEC74E0CE01AB
:103C500001960E94A717AE014F5F5F4F63E070E0CF
:103C600087EA9BE00E94C519CE0101960E94571079
:103C700062ED74E0CE0101960E94A717AE014F5F7E
:103C80005F4F63E070E085E99BE00E94C519CE01BB
:103C900001960E94571067ED74E0CE0101960E94D4
:103CA000A717AE014F5F5F4F63E070E083E89BE0D2
:103CB0000E94C519CE0101960E9457106CED74E068
:103CC000CE0101960E94A717AE014F5F5F4F63E0E0
:103CD00070E081E79BE00E94C519CE0101960E9429
:103CE000571061EE74E0CE0101960E94A717AE0155
:103CF0004F5F5F4F63E070E08FE59BE00E94C51966
:103D0000CE0101960E94571066EE74E0CE01019636
:103D10000E94A717AE014F5F5F4F63E070E08DE434
:103D20009BE00E94C519CE0101960E9457106BEED0
:103D300074E0CE0101960E94A717AE014F5F5F4F5E
:103D400063E070E08BE39BE00E94C519CE01019611
:103D50000E94571060EF74E0CE0101960E94A717F1
:103D6000AE014F5F5F4F63E070E089E29BE00E942D
:103D7000C519CE0101960E94571065EF74E0CE017F
:103D800001960E94A717AE014F5F5F4F63E070E09E
:103D900087E19BE00E94C519CE0101960E94571051
:103DA0006AEF74E0CE0101960E94A717AE014F5F43
:103DB0005F4F63E070E085E09BE00E94C519CE0193
:103DC00001960E9457106FEF74E0CE0101960E9499
:103DD000A717AE014F5F5F4F63E070E083EF9AE09B
:103DE0000E94C519CE0101960E94571064E075E04B
:103DF000CE0101960E94A717AE014F5F5F4F69E0A9
:103E000070E081EE9AE00E94C519CE0101960E94F1
:103E100057106DE075E0CE0101960E94A717AE0124
:103E20004F5F5F4F69E070E08FEC9AE00E94C51928
:103E3000CE0101960E94571066E175E0CE01019611
:103E40000E94A717AE014F5F5F4F69E070E08DEBF6
:103E50009AE00E94C519CE0101960E9457106FE1A9
:103E600075E0CE0101960E94A717AE014F5F5F4F2C
:103E700069E070E08BEA9AE00E94C519CE010196D4
:103E80000E94571068E275E0CE0101960E94A717C4
:103E9000AE014F5F5F4F69E070E089E99AE00E94F0
:103EA000C519CE0101960E94571061E375E0CE015D
:103EB00001960E94A717AE014F5F5F4F69E070E067
:103EC00087E89AE00E94C519CE0101960E9457101A
:103ED0006AE375E0CE0101960E94A717AE014F5F1D
:103EE0005F4F69E070E085E79AE00E94C519CE0156
:103EF00001960E94571063E475E0CE0101960E947E
:103F0000A717AE014F5F5F4F69E070E083E69AE06C
:103F10000E94C519CE0101960E9457106CE475E00D
:103F2000CE0101960E94A717AE014F5F5F4F69E077
:103F300070E081E59AE00E94C519CE0101960E94C9
:103F4000571065E575E0CE0101960E94A717AE01F6
:103F50004F5F5F4F69E070E08FE39AE00E94C51900
:103F6000CE0101960E9457106FE575E0CE010196D3
:103F70000E94A717AE014F5F5F4F69E070E08DE2CE
:103F80009AE00E94C519CE0101960E94571069E679
:103F900075E0CE0101960E94A717AE014F5F5F4FFB
:103FA00069E070E08BE19AE00E94C519CE010196AC
:103FB0000E94571063E775E0CE0101960E94A71793
:103FC000AE014F5F5F4F69E070E089E09AE00E94C8
:103FD000C519CE0101960E9457106DE775E0CE011C
:103FE00001960E94A717AE014F5F5F4F69E070E036
:103FF00087EF99E00E94C519CE0101960E945710E3
:1040000067E875E0CE0101960E94A717AE014F5FE9
:104010005F4F69E070E085EE99E00E94C519CE011E
:1040200001960E94571061E975E0CE0101960E9449
:10403000A717AE014F5F5F4F69E070E083ED99E035
:104040000E94C519CE0101960E94571060E674E0E7
:10405000CE0101960E94A717AE014F5F5F4F67E048
:1040600070E081EC99E00E94C519CE0101960E9492
:10407000571064E674E0CE0101960E94A717AE01C6
:104080004F5F5F4F67E070E08FEA99E00E94C519CB
:10409000CE0101960E94571064E874E0CE010196AB
:1040A0000E94A717AE014F5F5F4F67E070E08DE998
:1040B00099E00E94C519CE0101960E94571068E848
:1040C00074E0CE0101960E94A717AE014F5F5F4FCB
:1040D00067E070E08BE899E00E94C519CE01019677
:1040E0000E9457106CE874E0CE0101960E94A71759
:1040F000AE014F5F5F4F67E070E089E799E00E9493
:10410000C519CE0101960E94571060E974E0CE01F6
:1041100001960E94A717AE014F5F5F4F67E070E006
:1041200087E699E00E94C519CE0101960E945710BA
:1041300026960FB6F894DEBF0FBECDBFDF91CF91AC
:10414000089587E699E00E945F1089E799E00E9450
:104150005F108BE899E00E945F108DE999E00E9462
:104160005F108FEA99E00E945F1081EC99E00E9455
:104170005F1083ED99E00E945F1085EE99E00E9448
:104180005F1087EF99E00E945F1089E09AE00E943B
:104190005F108BE19AE00E945F108DE29AE00E942E
:1041A0005F108FE39AE00E945F1081E59AE00E9421
:1041B0005F1083E69AE00E945F1085E79AE00E9414
:1041C0005F1087E89AE00E945F1089E99AE00E94F8
:1041D0005F108BEA9AE00E945F108DEB9AE00E94DC
:1041E0005F108FEC9AE00E945F1081EE9AE00E94CF
:1041F0005F1083EF9AE00E945F1085E09BE00E94D1
:104200005F1087E19BE00E945F1089E29BE00E94C3
:104210005F108BE39BE00E945F108DE49BE00E94A7
:104220005F108FE59BE00E945F1081E79BE00E949A
:104230005F1083E89BE00E945F1085E99BE00E948D
:104240005F1087EA9BE00E945F1089EB9BE00E9471
:104250005F108BEC9BE00E945F108DED9BE00E9455
:104260005F108FEE9BE00E945F1081E09CE00E9457
:104270005F1083E19CE00E945F1085E29CE00E9459
:104280005F1087E39CE00E945F1089E49CE00E943D
:104290005F108BE59CE00E945F108DE69CE00E9421
:1042A0005F108FE79CE00E945F1081E99CE00E9414
:1042B0005F1083EA9CE00E945F1085EB9CE00E9407
:1042C0005F1087EC9CE00E945F1089ED9CE00E94EB
:1042D0005F108BEE9CE00E945F108BE89FE00E94D5
:1042E0005F108DEF9CE00E945F108FE09DE00E94C8
:1042F0005F1081E29DE00E945F1083E39DE00E94D9
:104300005F1085E49DE00E945F1087E59DE00E94BC
:104310005F1089E69DE00E945F108BE79DE00E94A0
:104320005F108DE89DE00E945F108FE99DE00E9484
:104330005F1081EB9DE00E945F1083EC9DE00E9486
:104340005F1085ED9DE00E945F1087EE9DE00E946A
:104350005F1089EF9DE00E945F108BE09EE00E945D
:104360005F108DE19EE00E945F108FE29EE00E9450
:104370005F1081E49EE00E945F1083E59EE00E9452
:104380005F1081EB9FE00E945F1085E69EE00E9437
:104390005F108EE99FE00E945F1087E79EE00E9419
:1043A0005F1089E89EE00E945F108BE99EE00E940A
:1043B0005F108DEA9EE00E945F108FEB9EE00E94EE
:1043C0005F1081ED9EE00E945F1083EE9EE00E94F0
:1043D0005F1085EF9EE00E945F1087E09FE00E94E3
:1043E0005F1089E19FE00E945F108BE29FE00E94D6
:1043F0005F108DE39FE00E945F108FE49FE00E94BA
:104400005F1081E69FE00E945F1083E79FE00E94BB
:104410005F108ECE6F927F928F929F92AF92BF92DB
:10442000CF92DF92EF92FF920F931F93CF93DF9380
:10443000CDB7DEB7A6970FB6F894DEBF0FBECDBFDF
:104440008C013B01DC011E961D921D921D921C9257
:1044500051976C01B8E0CB0ED11C6EE872E0C6013A
:104460000E94301767E972E082E890E10E947A05C5
:10447000D801ED91FC91E930F105A8F48827EC5BB7
:10448000FD4D8F4F0C94354A4D22F422F722FA222B
:10449000FD22002303230623092369EF72E082E84B
:1044A00090E10E94B414B8016E5F7F4F82E890E102
:1044B0000E94AE0462E972E082E890E10E947A050F
:1044C0000E9475050E9475050E94750586E990E0B9
:1044D000A0E0B0E08093861090938710A09388109E
:1044E000B0938910FE0131965F01F12CE12C4F0150
:1044F0000E94670897FD0AC0D5018D935D01BFEF4B
:10450000EB1AFB0AE0E2EE16F10491F7F401EE0D6E
:10451000FF1D8EE892E08083B401CE0181960E9457
:10452000A717BE016F5D7F4FC6010E943016CE01F6
:1045300081960E94571063E473E0CE0181960E9439
:10454000A717BE016F5D7F4FC6010E949916F82E16
:10455000CE0181960E945710FF20E9F0D8011C96E9
:104560004D915C911D971E9690E080E00196841716
:10457000950740F4F80120853185F901E80FF91F0E
:10458000232B21F410928008E0E8F8E020812D939D
:104590008430910559F7D8011E964D915D916D912A
:1045A0007C9151974230510561057105ACF581E070
:1045B000452B462B472B09F480E0F3018083A69618
:1045C0000FB6F894DEBF0FBECDBFDF91CF911F9124
:1045D0000F91FF90EF90DF90CF90BF90AF909F90A2
:1045E0008F907F906F90089560E073E058CF66E001
:1045F00073E055CF6BE073E052CF61E173E04FCFD2
:1046000068E173E04CCF6DE173E049CF63E273E0A2
:1046100046CF69E273E043CF0E945B086B017C01E7
:104620006CE672E08FE191E10E947A050E945B08DE
:104630006C197D098E099F09683E734081059105BB
:1046400008F0BDCF82E890E10E94E604892B71F367
:1046500082E890E10E94C404BC018FE191E10E94D4
:10466000B312E4CF80916509909166098536910572
:1046700049F463E679E08FE29EE00E940A2280918D
:104680006309089580E00895CF92DF92EF92FF9240
:10469000CF93DF930E945B086093FD087093FE0840
:1046A0008093FF08909300098091C70F811157C034
:1046B0008091C60F811153C08091B00F81114FC0FE
:1046C000CAEFD0E00E94170CF62E60939D0F6AE0AF
:1046D00074E08FE191E10E947A058F2D0E946312B0
:1046E00089E30E94E8079093860F8093850F2091BD
:1046F0009D0F8091890F90918A0F281719060CF44D
:1047000058C083E090E00E94271481E090E00E946E
:10471000271487E090E00E94271488E090E00E9430
:10472000271484E090E00E94271481E08093B00F6A
:1047300060919D0F70E08BE89FE00E94DC1581E0A6
:1047400090E00E94271483E090E00E94271487E005
:1047500090E00E94271488E090E00E9427140E94B5
:104760005B08C090FD08D090FE08E090FF08F09034
:1047700000099B01AC012C193D094E095F09690133
:104780007A01C092F308D092F408E092F508F09212
:10479000F60867ED73E08FE191E10E947A05C701A9
:1047A000B601DF91CF91FF90EF90DF90CF900C9406
:1047B0009B128091B00F811107C050E040E06FEF75
:1047C00083E090E00E942E1460919D0F70E090E0D5
:1047D00080E00E94E4476B017C016091890F709139
:1047E0008A0F072E000C880B990B0E94E44723E3E5
:1047F00033E343E75FE30E9443489B01AC01C701F9
:10480000B6010E940C4A87FD08C088E090E00E9433
:10481000271487E090E00E94271460919D0F70E0BC
:1048200090E080E00E94E4476B017C016091890F79
:1048300070918A0F072E000C880B990B0E94E44799
:1048400023E333E343E75FE30E9443489B01AC016A
:10485000C701B6010E94DD4787FF12C08091B00FEB
:1048600081110EC050E040E06FEF88E090E00E94C0
:104870002E1441E050E06CE887E090E00E942E1496
:104880002091850F3091860F809111029091120234
:104890008217930794F08091B00F81110EC050E001
:1048A00040E06FEF81E090E00E942E1441E050E084
:1048B0006CE887E090E00E942E142091850F3091E3
:1048C000860F80911102909112028217930744F48F
:1048D00081E090E00E94271487E090E00E94271476
:1048E000219791F48EEE93E00E94F91181E080937C
:1048F000C70F25E040E060E08FEF0E94AE0F0E94FE
:104900002B100E94E9121BCF63E679E08FE29EE054
:104910000E940A2280916309882309F4D3CE81E0A2
:104920008093C60F2AE040E060E08FEF0E94AE0F58
:104930008FE29EE00E94B61402CFCF92DF92EF92F8
:10494000FF921F93CF93DF938091C70F8111C7C14F
:104950008091C60F8111C3C10E94170CC62F6093AE
:104960009D0F66EC73E08FE191E10E947A058C2F38
:104970000E94631220919D0F8091890F90918A0F60
:10498000281719060CF058C08091B00F811154C03F
:10499000C1E0D0E089E30E94E8079093860F8093FE
:1049A000850F40919D0F2091890F30918A0F4217FA
:1049B00013060CF47DC083E090E00E94271481E090
:1049C00090E00E94271487E090E00E94271488E07E
:1049D00090E00E94271484E090E00E94271481E078
:1049E0008093B00F60919D0F70E08BE89FE00E9474
:1049F000DC156BE975E08FE191E10E94B4148091C0
:104A00009D0F0E94631263EB75E08FE191E10E94BC
:104A1000B414CE010E94BD1281E090E00E942714E0
:104A200083E090E00E94271487E090E00E94271422
:104A300088E090E00E9427148091C70F81114FC138
:104A400020919D0F8091890F90918A0F2817190648
:104A50002CF48091B00F813009F041C183E090E0E7
:104A60000E94E21284E090E00E94E21281E090E075
:104A70000E94E21287E090E00E94DB12D0E0C0E0EA
:104A80008EE30E94E807893592400CF0EAC062E3A9
:104A900070E080E090E00E94280887E090E0DF91DD
:104AA000CF911F91FF90EF90DF90CF900C94E21286
:104AB00020911102309112022817390794F0809149
:104AC000B00F81110EC050E040E06FEF81E090E048
:104AD0000E942E1441E050E06CE887E090E00E94D4
:104AE0002E142091850F3091860F809111029091A4
:104AF00012028217930744F481E090E00E94271489
:104B000087E090E00E94271420919D0F8091890FEB
:104B100090918A0F281719065CF48091B00F8111CB
:104B200007C050E040E06FEF83E090E00E942E1459
:104B300060919D0F70E090E080E00E94E4476B017F
:104B40007C016091890F70918A0F072E000C880BF1
:104B5000990B0E94E44723E333E343E75FE30E94BA
:104B600043489B01AC01C701B6010E940C4A87FD76
:104B700008C088E090E00E94271487E090E00E943F
:104B8000271460919D0F70E090E080E00E94E44760
:104B90006B017C016091890F70918A0F072E000CC8
:104BA000880B990B0E94E44723E333E343E75FE379
:104BB0000E9443489B01AC01C701B6010E94DD473A
:104BC00087FF12C08091B00F81110EC050E040E00D
:104BD0006FEF88E090E00E942E1441E050E06CE816
:104BE00087E090E00E942E14CA3FD10591F489E934
:104BF00093E00E94F91181E08093C70F25E040E027
:104C000060E08FEF0E94AE0F0E942B100E94E9120D
:104C100003CF63E679E08FE29EE00E940A22809152
:104C20006309882371F081E08093C60F2AE040E099
:104C300060E08FEF0E94AE0F8FE29EE00E94B614FC
:104C4000EBCE21960E94170C162F60939D0F65EBFB
:104C500073E08FE191E10E947A05812F0E94631237
:104C600099CEC83E83E0D807A1F481E08093C70FB6
:104C70000E942B100E94E91260E773E08FE191E13E
:104C8000DF91CF911F91FF90EF90DF90CF900C9428
:104C90007A0563E679E08FE29EE00E940A2221967F
:104CA000809163098823A1F081E08093C60F2AE0F8
:104CB00040E060E08FEF0E94AE0F8FE29EE0DF9158
:104CC000CF911F91FF90EF90DF90CF900C94B6148E
:104CD00061E070E080E090E00E942808D1CEDF9192
:104CE000CF911F91FF90EF90DF90CF9008958F921A
:104CF0009F92AF92BF92FF920F931F93CF93DF9338
:104D0000CDB7DEB72C970FB6F894DEBF0FBECDBF80
:104D10008091C70F81113DC18091C60F811139C1AA
:104D20008AE30E94E8078935924074F083E090E0BE
:104D30000E94DB1284E090E00E94DB1268E572E0E2
:104D400080E090E00E94280801E010E0FF24F39446
:104D50000E94170C60939D0F89E30E94E8079093CF
:104D6000860F8093850F209111023091120228172F
:104D7000390794F08091B00F81110EC050E040E0EF
:104D80006FEF81E090E00E942E1441E050E06CE86B
:104D900087E090E00E942E142091850F3091860FBD
:104DA00080911102909112028217930744F481E0DE
:104DB00090E00E94271487E090E00E942714209141
:104DC0009D0F8091890F90918A0F281719060CF476
:104DD00040C08091B00F81113CC083E090E00E9400
:104DE000271481E090E00E94271487E090E00E9461
:104DF000271488E090E00E9427146AE070E080E0C9
:104E000090E00E942808F092B00F60919D0F70E032
:104E10008BE89FE00E94DC1560919D0FCE01079604
:104E20000E943A1761ED75E0CE0101960E94A71726
:104E3000BE01695F7F4FCE0101960E94DC160E9481
:104E40000812CE0101960E945710CE0107960E94CB
:104E5000571020919D0F8091890F90918A0F2817EC
:104E600019065CF48091B00F811107C050E040E05A
:104E70006FEF83E090E00E942E1460919D0F70E030
:104E800090E080E00E94E4474B015C016091890F53
:104E900070918A0F072E000C880B990B0E94E44733
:104EA00026E636E646E65FE30E9443489B01AC01F6
:104EB000C501B4010E94DD4718165CF08091B00F67
:104EC000811107C050E040E06FEF88E090E00E9461
:104ED0002E1460919D0F70E090E080E00E94E44706
:104EE0004B015C016091890F70918A0F072E000CB5
:104EF000880B990B0E94E44723E333E343E75FE326
:104F00000E9443489B01AC01C501B4010E940C4AB8
:104F100087FD04C088E090E00E942714013011054D
:104F200009F047C041E050E06FEF82E090E00E945E
:104F30002E148FE090E00E94DB1284E090E00A30B3
:104F4000110509F047C00E94271464E670E080E074
:104F500090E00E9428080F5F1F4F0531110509F0EE
:104F6000F7CE81E090E00E94271483E090E00E9459
:104F7000271487E090E00E94271488E090E00E94C8
:104F8000271482E090E00E94271485E090E00E94C0
:104F900027142C960FB6F894DEBF0FBECDBFDF915D
:104FA000CF911F910F91FF90BF90AF909F908F90E6
:104FB00008950230110539F48FE090E00E94E2126A
:104FC00081E090E0B8CF0330110561F48FE090E00C
:104FD0000E94DB120F301105C1F48EE090E00E94B8
:104FE000DB12B3CF04301105F1F481E190E00E94AF
:104FF000DB128FE30E94E807C3973CF450E040E0E7
:105000006FEF85E090E00E942E140031110509F544
:1050100081E190E00E94E21282E090E00E94E212C0
:1050200082E090E090CF0930110509F086CF82E050
:1050300090E00E94DB1250E040E064EB84E090E0FE
:105040000E942E140331110509F07FCF83E090E018
:10505000C6CF01311105B1F783E090E00E94E21262
:1050600074CF8F929F92AF92BF92CF92DF92FF92B6
:105070000F931F93CF93DF93CDB7DEB72C970FB667
:10508000F894DEBF0FBECDBF8091C70F811192C0D3
:105090008091C60F81118EC081E08093B00F01E036
:1050A00010E0FF24F394083011050CF495C00E9421
:1050B000170C60939D0F8DE30E94E8076C0190939D
:1050C00014098093130989E30E94E8079093860FDF
:1050D0008093850F20910E0230910F02C216D306E5
:1050E0000CF485C08CE090E00E94E2128AE090E02F
:1050F0000E94E21260910C0270910D02072E000CCA
:10510000880B990B0E94280884E090E00E942714E5
:1051100083E090E00E94271481E090E00E94271431
:1051200087E090E00E94271488E090E00E94271416
:1051300082E090E00E94271482E090E00E94E21258
:105140006FEE75E08FE191E10E94B414B8018FE138
:1051500091E10E94B3126FE378E08FE191E10E9448
:10516000B41480911309909114090E94BD1281E03A
:105170008093120981E090E00E94271483E090E080
:105180000E94271487E090E00E94271488E090E0B6
:105190000E94271484E090E00E94271482E090E0AF
:1051A0000E94271480911209813021F482E190E05D
:1051B0000E94DB122C960FB6F894DEBF0FBECDBF57
:1051C000DF91CF911F910F91FF90DF90CF90BF9013
:1051D000AF909F908F9008950730110509F46BCF21
:1051E00062E870E080E090E00E94280864CF20919F
:1051F0001102309112022817390794F08091B00FF4
:1052000081110EC050E040E06FEF81E090E00E941D
:105210002E1441E050E06CE887E090E00E942E14EC
:105220002091850F3091860F80911102909112028A
:105230008217930744F481E090E00E94271487E0EE
:1052400090E00E94271420919D0F8091890F9091EA
:105250008A0F28171906ECF18091B00F811139C01F
:1052600008301105B4F183E090E00E94271481E03A
:1052700090E00E94271487E090E00E94271488E0C5
:1052800090E00E942714F092B00F60919D0FCE0124
:1052900007960E943A176AE076E0CE0101960E94D6
:1052A000A717BE01695F7F4FCE0101960E94DC16F1
:1052B0000E940812CE0101960E945710CE01079657
:1052C0000E94571060919D0F70E08BE89FE00E9454
:1052D000DC1520919D0F8091890F90918A0F2817DE
:1052E000190674F48091B00F81110AC008301105BD
:1052F0003CF050E040E06FEF83E090E00E942E141D
:1053000060919D0F70E090E080E00E94E4474B01C7
:105310005C016091890F70918A0F072E000C880B39
:10532000990B0E94E44726E636E646E65FE30E94D4
:1053300043489B01AC01C501B4010E94DD4787FFD2
:1053400015C08091B00F811111C00830110574F0A3
:1053500050E040E06FEF88E090E00E942E1441E0C2
:1053600050E06CE887E090E00E942E1460919D0F61
:1053700070E090E080E00E94E4474B015C016091A6
:10538000890F70918A0F072E000C880B990B0E94D1
:10539000E44723E333E343E75FE30E9443489B0191
:1053A000AC01C501B4010E940C4A87FD17C008304A
:1053B0001105A4F088E090E00E94271487E090E0B7
:1053C0000E9427140330110509F06EC041E050E03F
:1053D0006FEF82E090E00E942E145EC00130110554
:1053E00009F052C083E090E00E94DB1284E090E07C
:1053F0000E94DB1287E090E00E94E21241E050E060
:105400006FEF84E090E00E942E148AE090E00E940A
:10541000DB128CE090E00E94DB120A301105E1F50E
:1054200081E090E00E94DB1282E090E00E94E212B4
:105430000233110509F047C081E090E00E94271473
:1054400083E090E00E94271487E090E00E942714F8
:1054500088E090E00E94271484E090E00E942714E6
:1054600082E090E00E9427148CE396E00E94CC1228
:105470000E94E91281E08093C70F25E040E060E0E0
:105480008FEF0E94AE0F76CE0230110509F09ACF51
:1054900082E090E00E94DB1282E090E00D30110586
:1054A00051F40E94DB120FC00430110579F482E040
:1054B00090E00E94E2120F30110509F060C081E017
:1054C00090E00E94E2120F5F1F4FEDCD07301105F3
:1054D00009F0A3CF82E090E00E94DB121092B00F9F
:1054E00082E00E94DF0B0631110509F0A1CF89EEA1
:1054F000C82E83E0D82E8DE30E94E807909314090C
:105500008093130920910E0230910F0282179307A6
:10551000ECF18CE090E00E94E2128AE090E00E94C0
:10552000E21260910C0270910D02072E000C880BA4
:10553000990B0E94280884E090E00E94271483E0E1
:1055400090E00E94271481E090E00E94271487E0F9
:1055500090E00E94271488E090E00E94271482E0E7
:1055600090E00E94271482E090E00E94E212F09204
:10557000120980911209813009F0A5CFFBCD0431C9
:10558000110509F0B0CF81E090E08BCF81E0C81A1F
:10559000D10839F489E296E00E94CC12F092C70F4C
:1055A000E8CF61E070E080E090E00E942808A3CF9F
:1055B0004F925F926F927F929F92AF92BF92CF92E3
:1055C000DF92EF92FF920F931F93CF93DF93CDB7AC
:1055D000DEB72C970FB6F894DEBF0FBECDBF0E948A
:1055E0005B086B017C0181E40E94E8078C329140EA
:1055F0000CF4C9C387E30E94E807853893400CF098
:10560000C2C383E40E94E8078B3892400CF0BBC30E
:105610008091C70F813019F51092C70F0E942B108F
:105620000E94E91260919D0F70E08BE89FE00E945C
:10563000DC152C960FB6F894DEBF0FBECDBFDF9100
:10564000CF911F910F91FF90EF90DF90CF90BF907F
:10565000AF909F907F906F905F904F9008956FE113
:1056600077E08FE191E10E947A0581E00E94631268
:105670000E945C130E943223813051F481E08093B8
:10568000C60F2AE040E060E08FEF0E94AE0FCACF65
:105690000E949D2467E077E08FE191E10E947A0506
:1056A0000E945B08AB01BC014C195D096E097F09C2
:1056B0002AE08FE191E10E9417120E94F3110E94EB
:1056C0005B086B017C010E9432238130B9F20E9499
:1056D00031280E943223813089F28091C70F8111D5
:1056E00090C08091C60F81118CC050E040E06FEFF8
:1056F00085E090E00E942E1460919D0F70E090E094
:1057000080E00E94E4472B013C016091890F709179
:105710008A0F072E000C880B990B0E94E44723E3A5
:1057200033E343E35FE30E9443489B01AC01C301C1
:10573000B2010E94DD4787FF15C050E040E06FEFE7
:1057400083E090E00E942E1450E040E06FEF88E08C
:1057500090E00E942E1441E050E06CE887E090E079
:105760000E942E1483E190E00E94E21282E090E019
:105770000E94E21281E090E00E94E21283E090E059
:105780000E94E21284E090E00E94E21268EC70E075
:1057900080E090E00E9428088DE090E00E94DB12FB
:1057A00005EF11E088E30E94E807843F91400CF088
:1057B00032C264E670E080E090E00E94280882E156
:1057C00090E00E94E21264E670E080E090E00E94C7
:1057D000280883E090E00E94DB1284E090E00E94C1
:1057E000DB1285E090E00E94271483E090E00E94A5
:1057F000271487E090E00E94271488E090E00E9440
:1058000027140E943223813009F438CF0E94772672
:105810000E943223813009F431CF0E9406150E9484
:105820003223813009F42ACF8091C70F811140C003
:105830008091C60F81113CC010E000E00E94CA11A7
:10584000682F70E07093880F6093870FCE010796E2
:105850000E9464176AE576E0CE0101960E94A717C0
:10586000BE01695F7F4FCE0101960E94DC160E9447
:105870000812CE0101960E945710CE0107960E9491
:1058800057108091870F9091880F49970CF4D9C1D8
:1058900082E090E00E94271486E090E00E94DB12F4
:1058A00089E090E00E94E21282E090E00E94DB1228
:1058B0000E943223813009F4E1CE8091C70F81111B
:1058C0005CC18091C60F811158C10E94170C01E084
:1058D00010E09924939483E0A82EB12C0E94170C19
:1058E00060939D0F8091890F90918A0F6817190618
:1058F000B4F08091B00F811112C083E090E00E945B
:10590000271481E090E00E94271487E090E00E9435
:10591000271488E090E00E9427149092B00F209105
:105920009D0F8091890F90918A0F281719065CF4BA
:105930008091B00F811107C050E040E06FEF83E02D
:1059400090E00E942E1460919D0F70E090E080E046
:105950000E94E4472B013C016091890F70918A0FEE
:10596000072E000C880B990B0E94E44723E333E3D6
:1059700043E75FE30E9443489B01AC01C301B201CE
:105980000E940C4A87FD04C088E090E00E94271422
:1059900060919D0F70E090E080E00E94E4472B0151
:1059A0003C016091890F70918A0F072E000C880BC3
:1059B000990B0E94E44726E636E646E65FE30E943E
:1059C00043489B01AC01C301B2010E94DD47181698
:1059D0005CF08091B00F811107C050E040E06FEFA4
:1059E00088E090E00E942E1481E0A81AB10809F026
:1059F00075CF89E30E94E8079093860F8093850F07
:105A00000E94CA1190E09093880F8093870F209195
:105A1000850F3091860F80911102909112028217AA
:105A2000930794F08091B00F81110EC050E040E0D8
:105A30006FEF81E090E00E942E1441E050E06CE8AE
:105A400087E090E00E942E142091850F3091860F00
:105A500080911102909112028217930744F481E021
:105A600090E00E94271487E090E00E9427148FE3C3
:105A70000E94E8078FE30E94E8078536910524F02D
:105A800085E090E00E942714063011050CF4F7C061
:105A90008091870F9091880F49970CF030C181E079
:105AA0008093C70F23E040E060E08FEF0E94AE0FCD
:105AB00081E090E00E94E21282E090E00E94E21217
:105AC00085E090E00E94E21283E090E00E94E21202
:105AD00084E090E00E94E2128091B00F813021F5C5
