:100000000C94D8020C9409030C9409030C94090372
:100010000C9409030C9409030C9409030C94090330
:100020000C9409030C9409030C9409030C94090320
:100030000C9409030C9409030C9409030C94090310
:100040000C9409030C9409030C9409030C94090300
:100050000C9409030C9409030C9409030C949B3F22
:100060000C9409030C94713F0C94473F0C940903C2
:100070000C9409030C9409030C9409030C940903D0
:100080000C9409030C9409030C9409030C940903C0
:100090000C941D3F0C94F33E0C9409030C94E53F23
:1000A0000C9409030C9409030C9409030C940903A0
:1000B0000C9409030C9409030C9409030C94090390
:1000C0000C9409030C9409030C9409030C94090380
:1000D0000C9409030C9409030C94C93E0C949F3EA4
:1000E0000C9409030C946B060C942D040C944A0692
:1000F0000C94D3030C9460030C94F60E0C9424051A
:100100000C94BF030C94CF140C943C050C949906EA
:100110000C944A050C9409410C9457060C94D00693
:100120000C9461060C942E050C944E0A0C94130545
:100130000C9420050C945D030C9417050C947D061B
:100140000C940F050C9485060C940B050C94E40696
:100150000C94DA060C94D60D0C9432050C947506AA
:100160000C94A40A0C94A3060C941A050C948F0604
:100170000C9445050C9438050C9440050C945D0ACC
:100180000C94B2060C943E410C94E1030C942A05A5
:100190000C94C6060C94770A0C94DB0D0C94BC06E8
:1001A0000C9452060C94D30A0C94370E0C946303EF
:1001B0000C94700A0C9461030C94750B0C94050557
:1001C0000C949E040C94B0030C94D90D0C94F20E74
:1001D0000C9446050C94EF0E0C944D0A2E76616C2F
:1001E000002E00676574200046696C7472652047B4
:1001F00072697065722069C3A765726973696E65FB
:1002000020766572696C656D6564692E2E2E2100FD
:1002100046696C747265204772697065722069C3A3
:10022000A765726973696E6520766572696C646929
:1002300000546865726520697320612074696D657A
:100240006F7574206572726F7220696E20506973C9
:10025000746F6E20372E2E2E21002D2D6D6561734B
:1002600075726520746F626163636F2074696D6578
:100270006F75742D2D004D65617375726564205620
:10028000616C75653A20004D656173757265642017
:1002900056616C75653A2000546F706C616D206317
:1002A00079636C65207375726573693A20004669DD
:1002B0006E616C206379636C652073757265736918
:1002C0003A2000416C6C2050726F63657373206933
:1002D0007320446F6E65200054C3BC74C3BC6E2091
:1002E0006265736C656E656D6564692E2E200052C3
:1002F0006F6C6C6572206B61676964692079616BF2
:10030000616C6179616D6164692E2E2E0046696CA5
:1003100074726520766572696C6D65646900466902
:100320006C747265204772697065722069C3A76535
:10033000726973696E6520766572696C6469004DD7
:10034000656173757265642056616C75653A20004D
:100350004D656173757265642056616C75653A20F0
:1003600000416C6C2050726F636573733A200054C7
:100370006F626163636F206379636C65207375726C
:100380006573693A20002D2D6D6561737572652066
:10039000746F626163636F2074696D656F75742D2E
:1003A0002D004D656173757265642056616C7565CD
:1003B0003A200000002100240027002A002D0030F0
:1003C00000330001010000040107010A01000022BE
:1003D00000250028002B002E00310034000201000F
:1003E00000050108010B012D2D2D2D2D2D2D2D2D5D
:1003F0002D2D2D2D2D2D2D2D2D2D2D2D2D2D2D2D2D
:100400002D2D2D2D2D2D2D2D2D2D2D2D2D2D2D2D1C
:100410002D2D2D2D2D2D2D2D2D2D2D0054484520EC
:100420004E554D424552204F462043494741524583
:100430005454453A20004D656173757265642056C9
:10044000616C75653A20002D2D2D2D2D2D2D2D2D16
:100450002D2D2D2D2D2D2D2D2D2D2D2D2D2D2D2DCC
:100460002D2D2D2D2D2D2D2D2D2D2D2D2D2D2D2DBC
:100470002D2D2D2D2D2D2D2D2D2D2D004369676119
:1004800072657474652054696D653A200046696C24
:10049000746572202B20546F626163636F207469EE
:1004A0006D653A2000544845204E554D4245522036
:1004B0004F46204349474152455454453A20000095
:1004C0000020002300260029002C002F003200000D
:1004D00001000003010601090105050505070508DE
:1004E000080808020202020A0A08080404040401B7
:1004F00001010101010101030303030303030304D9
:100500000707070C0C0C0C0C0C0C0C020202020668
:10051000060606060606060B0B0B0B0B0B0B0B0158
:100520000210202008081020401020408002010204
:1005300001080402010102040810204080804020CC
:100540001008040201800402018040201008040207
:100550000108040201010204081020408001020485
:10056000081020408000000A0B02090C0D0E08073D
:100570000304010000000000000000000000000073
:10058000000000000000000000000000000000006B
:100590000012111000000000000000000000000028
:1005A0000000000000000000000000003E41094182
:1005B00011241FBECFEFD1E2DEBFCDBF00E00CBFE4
:1005C0001BE0A0E0B2E0ECE6F0EB00E00BBF02C005
:1005D00007900D92A238B107D9F727E1A2E8BBE056
:1005E00001C01D92A13FB207E1F712E0C7EDD2E0D2
:1005F00000E006C021970109802FFE010E94AF553F
:10060000C63DD10780E00807A9F70E948F420C94ED
:1006100024580C940000CF93DF93EC019A01AB01B6
:10062000E889F98982E08083211581EE3807410548
:10063000510581F160E079E08DE390E00E94AD54D6
:10064000215031094109510956954795379527950C
:10065000EC85FD851082EE85FF852083188EEC8960
:10066000FD8986E08083EA89FB89808180618083BF
:10067000EA89FB89808188608083EA89FB8980819F
:1006800080688083EA89FB8980818F7D8083DF9108
:10069000CF910895E889F989108220E1D9CFE4E764
:1006A000F5E1DC012D913D914C91219331934193E2
:1006B000B5E1E03BFB07A9F7089580E991E00895D3
:1006C000089508950895AF92BF92CF92DF92EF926E
:1006D000FF920F931F93CF93DF936C017B018B01EC
:1006E000040F151FEB015E01AE18BF08C017D1073C
:1006F00059F06991D601ED91FC910190F081E02DC6
:10070000C6011995892B79F7C501DF91CF911F910A
:100710000F91FF90EF90DF90CF90BF90AF90089532
:10072000FB0144815581608171810C946303FC015C
:10073000A089B1898C91A689B78982FD0FC09C914F
:10074000818D8F5F8F73228D821749F0A18DAE0F3F
:10075000BF2FB11D5D969C93818F08958C91089554
:10076000FC01538D448D252F30E0842F90E0821BB7
:10077000930B541710F0CF96089501970895FC013C
:10078000918D828D981761F0A28DAE0FBF2FB11D94
:100790005D968C91928D9F5F9F73928F90E00895EC
:1007A0008FEF9FEF0895FC01918D828D981731F0A6
:1007B000828DE80FF11D858D90E008958FEF9FEFFA
:1007C0000895FC01918D228D892F90E0805C9F4FD0
:1007D000821B91098F73992708958CEB95E10E94F4
:1007E000E10321E0892B09F420E0822F089589E5B7
:1007F00096E10E94E10321E0892B09F420E0822F99
:10080000089586EF96E10E94E10321E0892B09F427
:1008100020E0822F0895FC01A48DA80FB92FB11DEF
:10082000A35ABF4F2C91848D90E001968F73992726
:10083000848FA689B7892C93A089B1898C91837004
:1008400080648C93938D848D981306C00288F389FD
:10085000E02D80818F7D80830895EF92FF920F932A
:100860001F93CF93DF93EC0181E0888F9B8D8C8D5C
:1008700098131AC0E889F989808185FF15C09FB750
:10088000F894EE89FF896083E889F9898081837013
:10089000806480839FBF81E090E0DF91CF911F91C2
:1008A0000F91FF90EF900895F62E0B8D10E00F5FE3
:1008B0001F4F0F731127E02E8C8D8E110CC00FB6B9
:1008C00007FCFACFE889F989808185FFF5CFCE0151
:1008D0000E940B04F1CFEB8DEC0FFD2FF11DE35ABD
:1008E000FF4FF0829FB7F8940B8FEA89FB898081D4
:1008F0008062CFCF6FEF8CEB95E10C942D04EF92DB
:10090000FF920F931F93CF93DF938C017B01D0E075
:10091000C0E0F701EC0FFD1F6491662339F0C801B8
:100920000E942D04892B11F02196F3CFCE01DF9187
:10093000CF911F910F91FF90EF900895CF93DF9388
:10094000EC01888D8823B9F0AA89BB89E889F989E7
:100950008C9185FD03C0808186FD0DC00FB607FC1C
:10096000F7CF8C9185FFF2CF808185FFEDCFCE014F
:100970000E940B04E9CFDF91CF91089580E090E0D1
:10098000892B29F00E94010481110E94000080E05F
:1009900090E0892B29F00E94F70381110E9400004A
:1009A00080E090E0892B49F080E090E0892B29F0ED
:1009B0000E94000081110E94000080E090E0892BDD
:1009C00029F00E94ED0381110C94000008958150DC
:1009D000823108F05AC0E82FF0E08827ED50FB4F35
:1009E0008F4F0C94AF551305170505050B050F0523
:1009F00045051A05200524052A052E05320538056A
:100A00003C054505400546054A05809180008F77E5
:100A1000809380000895809180008F7DF9CF809130
:100A20008000877FF5CF84B58F7784BD089584B526
:100A30008F7DFBCF8091B0008F778093B0000895B9
:100A40008091B0008F7DF9CF809190008F77809357
:100A500090000895809190008F7DF9CF8091900053
:100A6000877FF5CF8091A0008F778093A0000895B5
:100A70008091A0008F7DF9CF8091A000877FF5CF76
:100A8000809120018F77809320010895809120012B
:100A90008F7DF9CF80912001877FF5CFCF93DF93B2
:100AA000E5E9F5E08491EFE4F5E0D491E9E0F5E0E3
:100AB000C491CC23A1F081110E94E704EC2FF0E057
:100AC000EE0FFF1FE154FB4FA591B491EC91ED2384
:100AD00081E090E009F480E0DF91CF91089580E01B
:100AE00090E0FACF1F93CF93DF93282F30E0F901E6
:100AF000EB59FA4F8491F901E15EFA4FD491F90173
:100B0000E752FB4FC491CC23A9F0162F81110E940C
:100B1000E704EC2FF0E0EE0FFF1FE353FC4FA5912D
:100B2000B4918FB7F894EC91111108C0D095DE23E1
:100B3000DC938FBFDF91CF911F910895DE2BF8CF0B
:100B4000CF92DF92EF92FF92CF930E944E050197D2
:100B5000E1F761E080E30E94720560E085E30E94B6
:100B600072050E944E05892BE1F7C8E1C12CD12CFA
:100B7000760161E085E30E947205CC0CDD1CEE1C61
:100B8000FF1C60E085E30E9472050E944E05892BE0
:100B900029F02FEFC21AD20AE20AF20AC15049F72D
:100BA00061E085E30E94720560E085E30E947205C2
:100BB000C701B6018058CF91FF90EF90DF90CF90A2
:100BC0000895CF93DF9390E0FC01E15EFA4F24910A
:100BD00087529B4FFC0184918823D1F090E0880FCD
:100BE000991FFC01ED54FC4FA591B491FC01E35316
:100BF000FC4FC591D49161110EC09FB7F8948C91B0
:100C0000E22FE0958E238C932881E223E8839FBF17
:100C1000DF91CF9108958FB7F894EC91E22BEC938C
:100C20008FBFF6CF1F93CF93DF93182FEB0161E0B7
:100C30000E94E105209739F460E0812FDF91CF9188
:100C40001F910C947205CF3FD10511F461E0F5CFEF
:100C5000E12FF0E0EB59FA4FE491E150E23108F076
:100C6000B3C0F0E08827E85CF94F8F4F0C94AF5584
:100C70004A065206570661066B06E40675067D06AF
:100C800085068F069906A306B206BC06E406C606CC
:100C9000D006DA0684B5806884BDC7BDDF91CF91E8
:100CA0001F91089584B5806284BDC8BDF7CF80913F
:100CB0008000806880938000D0938900C093880072
:100CC000EDCF80918000806280938000D0938B0074
:100CD000C0938A00E3CF8091800088608093800079
:100CE000D0938D00C0938C00D9CF8091B0008068E4
:100CF0008093B000C093B300D1CF8091B0008062E8
:100D00008093B000C093B400C9CF809190008068F8
:100D100080939000D0939900C0939800BFCF8091AA
:100D20009000806280939000D0939B00C0939A00C3
:100D3000B5CF80919000886080939000D0939D0003
:100D4000C0939C00ABCF8091A00080688093A000EE
:100D50008091A0008F7B8093A000D093A900C093C6
:100D6000A8009CCF8091A00080628093A000D093C7
:100D7000AB00C093AA0092CF8091A00088608093BE
:100D8000A000D093AD00C093AC0088CF809120012B
:100D9000806880932001D0932901C09328017ECFE1
:100DA00080912001806280932001D0932B01C09319
:100DB0002A0174CF80912001886080932001D09314
:100DC0002D01C0932C016ACFC038D1050CF03ECF65
:100DD00033CF865320917B00982F987F277F922BCB
:100DE00090937B008770806480937C0080917A0070
:100DF000806480937A0080917A0086FDFCCF809198
:100E000078009091790008953FB7F8948091E10BB4
:100E10009091E20BA091E30BB091E40B26B5A89B57
:100E200005C02F3F19F00196A11DB11D3FBFBA2F7C
:100E3000A92F982F8827BC01CD01620F711D811D3C
:100E4000911D42E0660F771F881F991F4A95D1F7C1
:100E500008958F929F92AF92BF92CF92DF92EF92BE
:100E6000FF926B017C010E9404074B015C01C114DD
:100E7000D104E104F104B9F00E940407681979096A
:100E80008A099B09683E73408105910580F321E042
:100E9000C21AD108E108F10888EE880E83E0981E96
:100EA000A11CB11CE4CFFF90EF90DF90CF90BF90DA
:100EB000AF909F908F9008952FB7F8946091DD0BBD
:100EC0007091DE0B8091DF0B9091E00B2FBF0895A6
:100ED0000F931F93CF93DF93EC010E945C07688709
:100EE00079878A879B87CE010E94BF0397FF15C031
:100EF0000E945C07088519852A853B85601B710B5C
:100F0000820B930B0C811D812E813F81601771072D
:100F10008207930740F38FEF9FEFDF91CF911F91EF
:100F20000F9108954F925F926F927F929F92AF922E
:100F3000BF92CF92DF92EF92FF920F931F93CF93C6
:100F4000DF9300D0CDB7DEB7D0909317809196177E
:100F500090919717A0919817B0919917892B8A2B88
:100F60008B2BD9F00E9404070091B8151091B91588
:100F70002091BA153091BB15601B710B820B930B3E
:100F80000091961710919717209198173091991703
:100F90006017710782079307C8F20E9404076093E5
:100FA000B8157093B9158093BA159093BB15E0915D
:100FB0009E17F0919F17309759F040919A175091D2
:100FC0009B1760919C1770919D178D2D1995D82EA8
:100FD000E090B615F090B7154D2C512C712C612C6A
:100FE000E114F10409F459C0D7011C96CC901C9768
:100FF00080919417909195178436910510F41C9662
:101000001C92D701ED91FC91A280B38019821A82C3
:101010001B82DD2079F1F701369610E000E0219186
:10102000222319F19280992001F130E050E040E054
:101030002F5F3F4F4F4F5F4FC301B2010E948B554F
:101040009B01AC01892D90E0B0E0A0E0BC01CD0196
:101050006F5F7F4F8F4F9F4F0E948B55A1E0B0E095
:10106000AC0FBD1FA00FB11F8C930F5F1F4F03303C
:101070001105A9F609811A812B81F701458556854D
:1010800062817381C701F5011995D7011C96CC9235
:101090001C971496ED90FC90A3CF8091B41590917D
:1010A000B5158C010F5F1F4F1093B5150093B41544
:1010B0004997B4F10E945C07C090B015D090B1156B
:1010C000E090B215F090B3159B01AC012C193D09CD
:1010D0004E095F0921F421E030E040E050E088EE65
:1010E00093E0089FB001099F700D189F700D1124A7
:1010F000072E000C880B990B0E94AD543093951766
:10110000209394171092B5151092B4150E945C07A5
:101110006093B0157093B1158093B2159093B31589
:101120000F900F900F90DF91CF911F910F91FF9033
:10113000EF90DF90CF90BF90AF909F907F906F9097
:101140005F904F9008952091B90B260F3327331FDE
:1011500021323105ECF420914A15FC0190E080E049
:10116000243069F082E00895A091B90B2191AC017F
:101170004756544FA40FB52FB11D2C9301968617D7
:1011800098F38091B90B680F6093B90B80E00895D4
:1011900081E0089510924A1581E0809349151092DC
:1011A000241561E084E10E94720561E085E10E94FE
:1011B0007205E9EBF0E080818E7F808380818D7FF6
:1011C000808388E48093B80085E48093BC00089510
:1011D000CF93DF9391E09093980B8823B9F0C0915F
:1011E000B800D091BA008091BC008A7B8093BC008B
:1011F00060E084E10E94720560E085E10E94720572
:101200000E94CA08D093BA00C093B800DF91CF9172
:1012100008958F929F92AF92BF92CF92DF92EF92FA
:10122000FF920F931F93CF93DF93D0917315D13219
:1012300008F0D7C0182FC09172150E9404076B01E7
:101240007C0180914A1581116BC082E080934A1520
:10125000109349158FEF8093481510924715D0933E
:101260004615A2E5B5E1E6E2F5E180E0D81391C0CC
:101270001092251580912515CC0FC82BC0932515EC
:1012800080912415813009F088C0109224150E94A5
:1012900004076B017C01809125158093BB00809130
:1012A0004C1590914D15A0914E15B0914F15892B6D
:1012B0008A2B8B2BA1F00E94040700914C151091F2
:1012C0004D1520914E1530914F156C197D098E09E1
:1012D0009F09061717072807390708F442C08091AD
:1012E000BC0083FDD8CF85EC8093BC000E9404072E
:1012F0006B017C0180914A15823009F450C08091C5
:1013000048158F3F09F46FC080914815803209F469
:101310006CC080914815803309F469C084E026C010
:1013200080914C1590914D15A0914E15B0914F158F
:10133000892B8A2B8B2B09F484CF0E940407809081
:101340004C1590904D15A0904E15B0904F156C19FE
:101350007D098E099F0986169706A806B90608F02A
:1013600070CF80914B150E94E80885E010925115CE
:101370001092731510925015DF91CF911F910F911C
:10138000FF90EF90DF90CF90BF90AF909F908F90A5
:1013900008959D9191938F5F69CF85EEA5CF809140
:1013A0004C1590914D15A0914E15B0914F15892B6C
:1013B0008A2B8B2B09F49ECF0E94040700914C15B9
:1013C00010914D1520914E1530914F156C197D09D6
:1013D0008E099F09061717072807390708F08ACFD3
:1013E000C0CF81E0C3CF80E0C1CF82E0BFCF83E038
:1013F000BDCFCF93DF93EA01DC0111968D919C91D3
:10140000DC01ED91FC910280F381E02D1995C81764
:10141000D90729F481E00E94090991E0811190E047
:10142000892FDF91CF910895CF93DF93EC018B81CA
:101430008823A1F0888191E09093501580937215D4
:10144000109251151092731581E00E94090991E0E4
:10145000811190E0892FDF91CF91089510920315AB
:101460001092021510925115109273150E94CA081D
:1014700080E693E09093E60B8093E50B81E693E0A2
:101480009093E80B8093E70B81E08B83CE010E9461
:10149000140A982F8111CECFDDCF0895E091031566
:1014A00080910215E81730F4F0E0EC5FFA4E80818D
:1014B00090E008958FEF9FEF08959091031580912C
:1014C00002152FEF3FEF981748F4E92FF0E0EC5F9B
:1014D000FA4E208130E09F5F90930315C901089573
:1014E0008091021590910315891B990B0895CF9255
:1014F000DF92EF92FF920F931F93CF93DF937C01C4
:10150000CB018A0120915015222389F0EB016B0158
:10151000C40ED51ECC15DD0569F06991D701ED919A
:10152000FC910190F081E02DC7011995F3CF642F54
:101530000E94A308C801DF91CF911F910F91FF90E6
:10154000EF90DF90CF900895CF93DF931F92CDB7A8
:10155000DEB76983209150152223F9F0209173158D
:10156000203258F021E030E0FC013383228390E008
:1015700080E00F90DF91CF91089580915115E82F71
:10158000F0E0EE5AFA4E998190838F5F8093511567
:101590008093731581E090E0ECCF61E0CE0101967D
:1015A0000E94A308F7CF90E080E00895CF92DF92E9
:1015B000EF92FF920F931F93CF93DF93C82FC12C0D
:1015C000D12C7601D0E003E210E00E94A005C60E07
:1015D000D71EE81EF91EC8010197F1F7DF5FCD1392
:1015E000F4CF2C2F30E050E040E0C701B6010E945C
:1015F0007B54CA01B9010E945E536093940B7093AF
:10160000950B8093960B9093970BDF91CF911F9141
:101610000F91FF90EF90DF90CF900895CF92DF92DF
:10162000EF92FF926091940B7091950B8091960BC5
:101630009091970B0E9450556B017C010E94A00570
:101640006C197D098E099F090E945E532DEC3CECBC
:101650004CE251E40E94DE540E94505597FF03C0B3
:1016600060E070E0CB01FF90EF90DF90CF900895A5
:101670000F931F93CF93DF932091930B2F5F322F04
:1016800037703093930B20FF2BC020E831FD20648E
:10169000347009F02062205FFC01EC01239600E029
:1016A00011E06485662329F070E0C8010E949B5513
:1016B0006F5F6187322F369F030E30E0311D11249A
:1016C000311110C01682662311F061506187319686
:1016D000EC17FD0731F7DF91CF911F910F9108951E
:1016E00020E0D4CF31503683EECF4F925F927F927D
:1016F0008F929F92AF92BF92CF92DF92EF92FF9222
:101700000F931F93CF93DF932C01EB010E940407EB
:10171000F20127853089621B730B6A307105B0F3C3
:10172000F8948A819B81181619060CF0CDC1E881C6
:10173000F98164B3862E689485F834B33F7D34BB59
:10174000D9848E812D2D281B822F2E834F85042E28
:10175000000C550BAA81BB817C85FD84EE847F5FE4
:10176000F394E3949F819884BA84AB841081C12C54
:101770006C2D0C2D2C2D2081112788942111280FE0
:1017800008F42FEF8195889470FD120F17958894B7
:1017900071FD120F1795889472FD120F179588949A
:1017A00073FD120F1795889474FD120F1795889486
:1017B00075FD120F1795889476FD120F1795889472
:1017C00077FD120F17958894622F7111612F8D0D7F
:1017D000162F002C84BA00C017FF34BB2181662766
:1017E000889400C000C0002C34BB2111290F00C018
:1017F000002C84BA00C016FF34BB08F42FEF91957B
:10180000889400C000C0002C34BBF0FC620F00C004
:10181000002C84BA00C015FF34BB67958894F1FC96
:10182000620F00C000C0002C34BB6795889400C0D4
:10183000002C84BA00C014FF34BBF2FC620F679521
:10184000889400C000C0002C34BBF3FC620F00C0C1
:10185000002C84BA00C013FF34BB67958894F4FC55
:10186000620F00C000C0002C34BB6795889400C094
:10187000002C84BA00C012FF34BBF5FC620F6795E0
:10188000889400C000C0002C34BBF6FC620F00C07E
:10189000002C84BA00C011FF34BB67958894F7FC14
:1018A000620F00C000C0002C34BB6795889400C054
:1018B000002C84BA00C010FF34BB122FF110162F79
:1018C0009B0D00C000C0002C34BB00C000C0002C29
:1018D00084BA00C017FF34BB22816627889400C0F9
:1018E00000C0002C34BB2111290D00C0002C84BA8B
:1018F00000C016FF34BB08F42FEFE40FF51F00C043
:1019000000C0002C34BBE0FC620F00C0002C84BA85
:1019100000C015FF34BB67958894E1FC620F00C0DE
:1019200000C0002C34BB6795889400C0002C84BA9A
:1019300000C014FF34BBE2FC620F6795889400C0BE
:1019400000C0002C34BBE3FC620F00C0002C84BA42
:1019500000C013FF34BB67958894E4FC620F00C09D
:1019600000C0002C34BB6795889400C0002C84BA5A
:1019700000C012FF34BBE5FC620F6795889400C07D
:1019800000C0002C34BBE6FC620F00C0002C84BAFF
:1019900000C011FF34BB67958894E7FC620F00C05C
:1019A00000C0002C34BB6795889400C0002C84BA1A
:1019B00000C010FF34BB122FE110162F919400C00D
:1019C00000C0002C34BB9A0C00C000C084BA00C018
:1019D00017FF34BB20816627889400C000C0002C0C
:1019E00034BB2111280F00C0002C84BA00C016FFA0
:1019F00034BB08F42FEF8195889400C000C0002C00
:101A000034BB70FD620F00C0002C84BA00C015FF0B
:101A100034BB6795889471FD620F00C000C0002C34
:101A200034BB6795889400C0002C84BA00C014FFB2
:101A300034BB72FD620F6795889400C000C0002C13
:101A400034BB73FD620F00C0002C84BA00C013FFCA
:101A500034BB6795889474FD620F00C000C0002CF1
:101A600034BB6795889400C0002C84BA00C012FF74
:101A700034BB75FD620F6795889400C000C0002CD0
:101A800034BB76FD620F00C0002C84BA00C011FF89
:101A900034BB6795889477FD620F00C000C0002CAE
:101AA00034BB6795889400C0002C84BA00C010FF36
:101AB00034BB122F7111162F8D0D00C000C0002CE9
:101AC00034BB119709F086CE4A815B8120EE31E06C
:101AD000DA010E94B755DC01CB01F4E0B695A79579
:101AE00097958795FA95D1F730E020E0B901EAE9BA
:101AF0004E9F040E611D5E9F600D711D1124650FC8
:101B0000711D860F971FA11DB11D893E43E09407EB
:101B1000A105B10508F434C0885E9340A109B1095C
:101B200042E0B695A795979587954A95D1F747E0F6
:101B3000849F080E211D949F200D311D1124290F13
:101B4000311D6091920B70E0860F971F820F931FDB
:101B50004091DD0B5091DE0B6091DF0B7091E00B3B
:101B6000292F3327420F531F611D711D4093DD0B39
:101B70005093DE0B6093DF0B7093E00B8093920B1E
:101B800078940E940407F201708B6787DF91CF91F0
:101B90001F910F91FF90EF90DF90CF90BF90AF908B
:101BA0009F908F907F905F904F90089581E090E09C
:101BB00008959D9A08956F927F928F92CF92DF92AF
:101BC000EF92FF920F931F93CF93DF93CDB7DEB7C2
:101BD00062970FB6F894DEBF0FBECDBF6C017A01DD
:101BE0003801822EDC011C962C91CA0157FF04C0DB
:101BF00088279927841B950B7A8369839C838B8321
:101C00009E838D836D867E868F86213049F5CE0139
:101C100001960E94380B83E0888B1A8A198AF7FE96
:101C200002C08DEF888BD601ED91FC910684F7857B
:101C3000E02DBE016F5F7F4FC601199562960FB60A
:101C4000F894DEBF0FBECDBFDF91CF911F910F91F2
:101C5000FF90EF90DF90CF908F907F906F900895DE
:101C60001C861B861A86198618861F82D4CFEF928F
:101C7000FF920F931F93CF93DF93CDB7DEB7629799
:101C80000FB6F894DEBF0FBECDBF7C01DC011C9601
:101C90008C917A8369835C834B835E834D830D874C
:101CA0001E872F878130F9F4CE0101960E94380BF0
:101CB000188A1A8A198AD701ED91FC910684F78552
:101CC000E02DBE016F5F7F4FC701199562960FB679
:101CD000F894DEBF0FBECDBFDF91CF911F910F9162
:101CE000FF90EF9008951C861B861A861986188629
:101CF0001F82DECFCF93DF9300D0CDB7DEB719823E
:101D00001A821B82CE0101960E944F030E94920705
:101D10000F900F900F90DF91CF910895CF93DF93A5
:101D200000D0CDB7DEB769838A834B83CE0101969D
:101D30000E944F030E9492070F900F900F90DF9127
:101D4000CF910895BF92CF92DF92EF92FF920F93BF
:101D50001F93CF93DF9300D0CDB7DEB7C82EB62E3A
:101D6000D42EE22E19821A821B82CE0101960E9485
:101D70004F030E94920710E000E0F12C0E151F05A2
:101D80000CF5B982CA82DB82CE0101960E944F0314
:101D90000E94920764E670E080E090E00E942907CC
:101DA00019821A821B82CE0101960E944F030E9463
:101DB000920764E670E080E090E00E9429070F5FE0
:101DC0001F4FDCCF0F900F900F90DF91CF911F919D
:101DD0000F91FF90EF90DF90CF90BF90089590E02B
:101DE00080E00895FC018585968508950F931F93E3
:101DF000CF93DF9300D0CDB7DEB7AB0119821A8243
:101E00001B82DC01ED91FC910190F081E02D00E05E
:101E100010E020E0BE016F5F7F4F19950F900F908B
:101E20000F90DF91CF911F910F910895109201159E
:101E3000109200151092E6141092040C0895CF939E
:101E4000DF93C8E3D2E060E089910E94720582E0EE
:101E5000C134D807C1F7DF91CF910895BC018CEB55
:101E600095E10E9490030E947A040E947A040C94E7
:101E70007A04CF93DF93EC0188819981009711F068
:101E80000E946E56198218821D821C821B821A8241
:101E9000DF91CF910895FC0180819181009711F02D
:101EA0000C946E560895CF93DF93EC010C960E942C
:101EB0004B0FCE0106960E944B0FCE01DF91CF91C2
:101EC0000C944B0FCF93DF9300D0CDB7DEB799833F
:101ED0008A836B838091E8179091E917FC01248134
:101EE00035812330310588F0208131E03093501561
:101EF00020937215109251151092731543E050E023
:101F0000BE016F5F7F4F0E94F9090F900F900F90F5
:101F1000DF91CF9108953F924F925F926F927F929F
:101F20008F929F92AF92BF92CF92DF92EF92FF92E9
:101F30000F931F93CF93DF931F921F92CDB7DEB7FE
:101F400019828A838091E8179091E917DC01149631
:101F50002D913C9115972230310588F02C9131E07C
:101F600030935015209372151092511510927315DD
:101F700042E050E0BE016F5F7F4F0E94F909E090A0
:101F8000E817F090E917DD24D394AA24AA9485EEEB
:101F9000C82E95ECB92E01E0F70184819581892B3B
:101FA00009F400E0802E912CD7013C900E94040798
:101FB0002B013C0180914A15811164C0102FD092F1
:101FC0004A1500934915A0924815109247158FEFB6
:101FD000800F80934615D092251580912515330CDE
:101FE000382A3092251580912415813009F08CC053
:101FF000109224150E9404072B013C0180912515A5
:102000008093BB0080914C1590914D15A0914E1579
:10201000B0914F15892B8A2B8B2BA1F00E940407BE
:1020200020914C1530914D1540914E1550914F1502
:10203000641975098609970926173707480759074C
:1020400008F441C08091BC0083FDD8CFB092BC00A1
:102050000E9404072B013C0180914A15813009F44C
:1020600056C080914715801710F410914715E6E28D
:10207000F5E1A4E0B5E180E0811751F191919D93E4
:102080008F5FFACF80914C1590914D15A0914E1510
:10209000B0914F15892B8A2B8B2B09F48BCF0E9483
:1020A000040720914C1530914D1540914E155091DB
:1020B0004F156419750986099709261737074807C8
:1020C000590708F077CF80914B150E94E80810E07F
:1020D0001092031510930215012F10E00815190531
:1020E000D9F590E080E08017910798F5F70181819C
:1020F0009281DC01ED91FC910284F385E02D19952C
:10210000898381E090E0EFCFC092BC00A1CF8091A5
:102110004C1590914D15A0914E15B0914F15892BEE
:102120008A2B8B2B09F498CF0E94040720914C1521
:1021300030914D1540914E1550914F156419750908
:1021400086099709261737074807590708F084CFEB
:10215000BACF012B09F41FCF89810F900F90DF9127
:10216000CF911F910F91FF90EF90DF90CF90BF9094
:10217000AF909F908F907F906F905F904F903F9027
:102180000895CF938DE490E00E948B0F80FFFACFEB
:1021900061E088E190E00E94620F8FE490E00E948D
:1021A0008B0F82FFFACF82E690E00E948B0FC82F40
:1021B00067E085E190E00E94620F8C2FCF91089537
:1021C000FC0101900020E9F73197AF01481B590B42
:1021D000BC0186EF96E10C9463038F929F92AF92BD
:1021E000BF920F931F93CF93DF93CDB7DEB7A19725
:1021F0000FB6F894DEBF0FBECDBF19A2423008F46F
:102200004AE08E010F5D1F4F842E912CB12CA12C22
:10221000A50194010E94AD54E62FB901CA01EA302C
:10222000F4F4E05DD801EE938D01232B242B252BB4
:1022300079F790E080E0109719F0CD010E94E0104E
:10224000A1960FB6F894DEBF0FBECDBFDF91CF9140
:102250001F910F91BF90AF909F908F900895E95C70
:10226000E1CFCF92DF92EF92FF92CF93DF936B019A
:102270007C016DE286EF96E10E942D04EC01662759
:102280007727CB016C197D098E099F094AE00E94CE
:10229000ED108C0F9D1FDF91CF91FF90EF90DF909D
:1022A000CF900895BC01990F880B990B97FD0C9462
:1022B00031114AE00C94ED100C94E010CF93DF93B1
:1022C0004AE00E94ED10EC018FE992E00E94E010DC
:1022D0008C0F9D1FDF91CF910895CF93DF93BC01A9
:1022E00086EF96E10E949003EC018FE992E00E9454
:1022F000E0108C0F9D1FDF91CF910895CF93DF9356
:102300000E94E010EC018FE992E00E94E0108C0F37
:102310009D1FDF91CF910895CF93DF93EC01FC01D6
:10232000E05CFD4F61E080810E947205639719F4C3
:1023300081E08093830BDF91CF910895CF93DF935A
:10234000EC01FC01E05CFD4F60E080810E947205C1
:10235000639711F41092830BDF91CF910895CF937F
:10236000DF93C1E0D0E0CE010E949E112196C531DD
:10237000D105C9F7DF91CF910895CF93DF93809175
:10238000011581115CC080910015811158C08FE347
:102390000E94E9068536910524F083E190E00E94D1
:1023A0009E1182E090E00E949E1183E090E00E94E6
:1023B0009E1184E090E00E949E1168EC70E080E045
:1023C00090E00E9429078DE090E00E948C11C5EFFB
:1023D000D1E088E30E94E906843F9140D4F464E6AA
:1023E00070E080E090E00E94290782E190E00E9486
:1023F0009E1164E670E080E090E00E94290783E08F
:1024000090E00E948C1184E090E0DF91CF910C94D9
:102410008C11219769F481E0809301150E941F0FB0
:102420000E94AF1182EA92E0DF91CF910C947E116D
:1024300061E070E080E090E00E942907CACFDF9160
:10244000CF910895895C9D4F60E0FC0180810C94E0
:1024500072051F93CF93DF93C62FD0E00197FC0145
:10246000E85CFD4F10818630910538F4642F8E5C56
:102470009D4FFC0180810E947205BE01812FDF917A
:10248000CF911F910C94120680910115811166C0A5
:1024900080910015811162C088E090E00E948C114B
:1024A0006AEF70E080E090E00E94290741E050E090
:1024B0006FEF82E090E00E94291282E090E00E949B
:1024C0008C1181E090E00E948C116DE770E080E05B
:1024D00090E00E94290785E090E00E949E116DE740
:1024E00070E080E090E00E94290782E090E00E9486
:1024F000221288E090E00E949E1182E090E00E940B
:102500009E1181E090E00E949E118091E61481303E
:1025100029F583E090E00E949E1184E090E00E9403
:102520009E1181E090E00E949E1187E090E00E9461
:102530008C116CEB72E080E090E00E94290787E04C
:1025400090E00E949E1168EE73E080E090E00E94AF
:10255000290782E00E94D60A1092E6140895CF93CC
:10256000DF93682F70E090E080E04AE00E94ED1079
:10257000EC018FE992E00E94E0108C0F9D1FDF912B
:10258000CF910895CF93DF930E945211EC018FE910
:1025900092E00E94E0108C0F9D1FDF91CF91089573
:1025A0000F931F93CF93DF93809101158111C6C0C4
:1025B000809100158111C2C050E040E06FEF85E0CE
:1025C00090E00E942912C1E0D0E002E310E08DE328
:1025D0000E94E9069093180C8093170C8B3F91058D
:1025E000F4F56091000270910102809102029091D5
:1025F00003020E9429078FE090E00E949E1182E072
:1026000090E00E94221264E670E080E090E00E9478
:1026100029078EE090E00E949E1160E971E080E061
:1026200090E00E94290785E090E00E948C1160E90B
:1026300071E080E090E00E9429078EE69AE00E9417
:102640005C118091170C9091180C0E94C21285E0C9
:1026500090E0DF91CF911F910F910C942212CA3F0D
:10266000D10509F443C0CE01B8010E949B55892BC6
:1026700071F588E090E00E948C1182E090E00E9469
:10268000221281E090E00E949E1168EC70E080E0F0
:1026900090E00E94290788E090E00E949E1183E06C
:1026A00090E00E949E1168EC70E080E090E00E9453
:1026B000290783E090E00E948C1164E670E080E0DE
:1026C00090E00E94290781E090E00E948C1141E097
:1026D00050E062E882E090E00E94291264E170E03C
:1026E00080E090E00E942907219671CF89E090E078
:1026F0000E949E1182E090E00E94221268EC70E03D
:1027000080E090E00E94290789E090E00E948C110F
:102710008EE090E00E949E1168EE73E080E090E011
:102720000E9429078FE090E00E949E1181E0809333
:10273000011582ED92E00E947E1189CFDF91CF9149
:102740001F910F910895CF93DF93BC0186EF96E11F
:102750000E947F04EC018FE992E00E94E0108C0F50
:102760009D1FDF91CF910895CF93DF938091011545
:102770008111D0C0809100158111CCC088E30E94E6
:10278000E906843F91400CF0BFC08DE090E00E94CC
:102790009E1182E190E00E949E118FE30E94E90663
:1027A000853691050CF49DC08091830B813051F4E6
:1027B00083E190E00E949E1168E077E080E090E085
:1027C0000E94290783E190E00E948C1166E970E085
:1027D00080E090E00E94290783E190E00E949E1132
:1027E0006AEF70E080E090E00E94290783E190E0CA
:1027F0000E948C11C5EFD1E088E30E94E906853F75
:10280000914064F080E192E00E94A31368EC70E0D4
:1028100080E090E0DF91CF910C942907219709F097
:1028200059C088EE91E00E94A31381E080930115C6
:1028300040E060E08FEF0E948E0E83E190E00E9406
:102840009E118DE090E00E948C1168EE73E080E0B4
:1028500090E00E9429078BE090E00E948C1164EFC9
:1028600071E080E090E00E9429078DE090E00E94F6
:102870009E118BE090E00E949E1164EF71E080E079
:1028800090E00E9429078DE090E00E948C118BE07F
:1028900090E00E948C1164EF71E080E090E00E9473
:1028A00029078BE090E00E949E1164EF71E080E0C8
:1028B00090E00E9429078DE090E00E949E114FEF6A
:1028C0006FEF8FEF0E948E0E0E941F0FDF91CF914E
:1028D0000C94AF1161E070E080E090E00E94290765
:1028E0008BCF86EE92E00E947E1181E080930115ED
:1028F0000E941F0F0E94AF1123E040E060E08FEFC5
:10290000DF91CF910C94A20E8FEF92E0DF91CF91E7
:102910000C947E11DF91CF910895CF93DF9397FFB1
:102920000CC00E943111EC018FE992E00E94E0108E
:102930008C0F9D1FDF91CF9108954AE00E94ED100A
:10294000F2CFCF93DF93DC011496ED91FC916E17DB
:102950007F0710F59F01261B370B4217530708F41A
:102960009A01DB01EC0188819981E21BF30BFD8365
:10297000EC83AF01461B570B260F371FBC01620FBC
:10298000731F8A0F9B1F0E94FB57E881F9818C817E
:102990009D81E80FF91F1082DF91CF9108950E9469
:1029A000D857CF93DF93FC01248135814217530719
:1029B00088F4C081D181FB0160817181CE01840FD7
:1029C000951F0E940A58009729F08C1B9D0BDF91E0
:1029D000CF9108958FEF9FEFFACFFB01448155818E
:1029E000FC01248135812417350778F0808191819D
:1029F000009759F0FB01608171816115710529F023
:102A00000E94ED5721E0892B09F020E0822F0895E4
:102A10000F931F93CF93DF938C01EB01FC01808117
:102A200091810097E1F06881798161157105A9F0C4
:102A3000428153812C813D814217530770F00E94DF
:102A4000E6578C819D81F801958384831D821C82C9
:102A5000DF91CF911F910F9108950E946E5688814A
:102A60009981F801918380838A819B8193838283FA
:102A70008C819D8195838483198218821B821A829E
:102A8000E5CF0F931F93CF93DF93EC01888199815A
:102A9000009759F02A813B812617370730F081E0F3
:102AA000DF91CF911F910F9108958B016F5F7F4F41
:102AB0000E94F756009759F0998388831B830A83F5
:102AC0002C813D81232B59F7FC011082E8CF80E057
:102AD000E7CFEF92FF920F931F93CF93DF93611590
:102AE000710541F480E0DF91CF911F910F91FF902C
:102AF000EF90089541155105B1F07B01EC010C8177
:102B00001D81040F151FB8010E944115882351F340
:102B1000288139818C819D81B701820F931F0E948A
:102B2000E6571D830C8381E0DECFCF93DF93EC016A
:102B3000FB0101900020E9F73197AF01461B570BCD
:102B40000E946915811103C0CE010E94390FCE0188
:102B5000DF91CF910895CF93DF93EC01FB01448186
:102B60005581608171810E946915811103C0CE0178
:102B70000E94390FCE01DF91CF910895EF92FF921D
:102B80000F931F93CF93DF93EC017B018A01BA016E
:102B90000E94411581110BC0CE010E94390FCE0158
:102BA000DF91CF911F910F91FF90EF9008951D83BA
:102BB0000C83B701888199810E94E657F0CFFB0111
:102BC00001900020E9F73197AF01461B570B0C9499
:102BD000BE150F931F93CF93DF93CDB7DEB7A197A9
:102BE0000FB6F894DEBF0FBECDBF8C01CB01BA018A
:102BF000F8011182108213821282158214822AE057
:102C0000AE014F5F5F4F0E940B53BE016F5F7F4F5E
:102C1000C8010E94DF15A1960FB6F894DEBF0FBE63
:102C2000CDBFDF91CF911F910F9108950F931F9307
:102C3000CF93DF93CDB7DEB762970FB6F894DEBFC0
:102C40000FBECDBF8C01CB01F8011182108213821F
:102C50001282158214824AE0BE016F5F7F4F0E948C
:102C60000053BE016F5F7F4FC8010E94DF1562965F
:102C70000FB6F894DEBF0FBECDBFDF91CF911F918D
:102C80000F9108950F931F93CF93DF9300D000D03F
:102C900000D0CDB7DEB78C01862FF80111821082EB
:102CA00013821282158214824AE0BE016F5F7F4F49
:102CB00090E00E942D53BE016F5F7F4FC8010E94BC
:102CC000DF1529960FB6F894DEBF0FBECDBFDF919A
:102CD000CF911F910F910895CF93DF93EC01FB01EA
:102CE0008617970749F0608171816115710541F080
:102CF000448155810E94BE15CE01DF91CF91089588
:102D00000E94390FF9CFFC011182108213821282C6
:102D1000158214820C946C160F931F93CF93DF933C
:102D2000CDB7DEB72C970FB6F894DEBF0FBECDBF80
:102D30008C0140E050E0BA01CE0101960E94E915F5
:102D4000B801CE0107960E94831668E27AE0CE01B0
:102D500007960E949515B8016A5F7F4F0E94AB15D8
:102D600060E273E00E949515BE016F5F7F4F0E9485
:102D7000AB15BC018CEB95E10E949003CE01079648
:102D80000E944B0FCE0101960E944B0F0E947A04C5
:102D90000E947A040E947A042C960FB6F894DEBF43
:102DA0000FBECDBFDF91CF911F910F9108950F936B
:102DB0001F93CF93DF93CDB7DEB72C970FB6F89460
:102DC000DEBF0FBECDBF8C01CE0107960E94161646
:102DD000B801CE0101960E94831668E27AE0CE0126
:102DE00001960E949515B8016A5F7F4F0E94AB154E
:102DF00060E273E00E949515BE01695F7F4F0E94FB
:102E0000AB15BC018CEB95E10E949003CE010196BD
:102E10000E944B0FCE0107960E944B0F0E947A042E
:102E20000E947A040E947A042C960FB6F894DEBFB2
:102E30000FBECDBFDF91CF911F910F910895FC017F
:102E4000118210821382128215821482FB0101907A
:102E50000020E9F73197AF01461B570B0C94BE15C4
:102E6000AF92BF92CF92DF92EF92FF920F931F9398
:102E7000CF93DF936C015B017A0189012417350739
:102E800020F48F2D7901042F182F61EA72E0C6011A
:102E90000E941F17D5011496CD91DC91EC16FD060A
:102EA000E0F40C171D0708F4E801D501ED91FC9141
:102EB0001197EC0FFD1F108110826D917C916E0DAA
:102EC0007F1DC60161157105A1F00E94DF15F50196
:102ED00080819181C80FD91F1883C601DF91CF91DE
:102EE0001F910F91FF90EF90DF90CF90BF90AF9028
:102EF00008950E94390FEBCFCF92DF92EF92FF92AD
:102F00000F931F93CF93DF931F921F92CDB7DEB71E
:102F10008C016B01E42E61EA72E00E941F17C6016A
:102F20000E9468070E2C000CFF0897FD11C0E816E0
:102F3000F90671F089831A8241E050E0BE016F5FAB
:102F40007F4FC8010E946915C6010E946807EDCF36
:102F5000C8010F900F90DF91CF911F910F91FF90BB
:102F6000EF90DF90CF9008956F927F928F929F9213
:102F7000AF92BF92CF92DF92EF92FF920F931F9387
:102F8000CF93DF93CDB7DEB7A6970FB6F894DEBF29
:102F90000FBECDBF8C013B01FC01128A138A148A3B
:102FA000158A6C01FCE0CF0ED11C61EA72E0C6010B
:102FB0000E94DF1563EE71E08CEB95E10E947F04C7
:102FC000B8018CEB95E10E94900361EE71E08CEB0F
:102FD00095E10E947F04B8016A5F7F4F8CEB95E119
:102FE0000E9490036CED71E08CEB95E10E947F04F0
:102FF0000E947A040E947A040E947A0488EC90E08D
:10300000A0E0B0E08093C0159093C115A093C215C5
:10301000B093C315CE0101965C01F12CE12C4C015B
:103020008CEB95E10E94680797FD0AC0F50181933A
:103030005F01FFEFEF1AFF0A20E2E216F10481F7C9
:10304000F401EE0DFF1D81EA92E08083B401CE0110
:1030500081960E941F17BE016F5D7F4FC6010E94BF
:103060000815CE0181960E944B0F66E273E0CE01F7
:1030700081960E941F17BE016F5D7F4FC6010E949F
:10308000ED14F82ECE0181960E944B0FFF20F1F136
:10309000F80140895189D801529690E080E001966C
:1030A0008417950740F4F80124853585F901E80F68
:1030B000F91F232B21F41092820BE2E8FBE0208120
:1030C0002D938430910559F7F80182899389A48959
:1030D000B589B7FD3BC0F30180839183A283B3839D
:1030E00081E0A6960FB6F894DEBF0FBECDBFDF918C
:1030F000CF911F910F91FF90EF90DF90CF90BF90F5
:10310000AF909F908F907F906F9008950E945C0782
:103110006B017C0188E293E00E945C110E945C07D5
:103120006C197D098E099F09683E734081059105E0
:1031300068F58CEB95E10E94E103892B79F38CEB28
:1031400095E10E94BF030E945211E8CF0E945C07E4
:103150006B017C018DE493E00E945C110E945C078E
:103160006C197D098E099F09683E734081059105A0
:1031700068F48CEB95E10E94E103892B79F38CEBE9
:1031800095E10E94BF030E945211E8CF80E0A9CFD1
:1031900064E172E08BE994E10E94B41764E272E0AA
:1031A00085E894E10E94B41760E172E08FE694E153
:1031B0000E94B41760E272E089E594E10E94B417BE
:1031C0006CE172E083E494E10E94B4176CE072E079
:1031D0008DE294E10E94B41768E072E087E194E127
:1031E0000E94B41768E172E081E094E10E94B41794
:1031F00064E072E085ED93E10E94B41760E072E054
:103200008BEE93E10E94B417809114029091150205
:10321000A0911602B091170281159440A105B10545
:1032200009F4B6CF8091240290912502A091260244
:10323000B091270281159440A105B10509F4A8CFEA
:103240008091100290911102A0911202B09113028C
:1032500081159440A105B10509F49ACF809120020F
:1032600090912102A0912202B091230281159440F5
:10327000A105B10509F48CCF80911C0290911D022B
:10328000A0911E02B0911F0281159440A105B105C5
:1032900009F47ECF80910C0290910D02A0910E0254
:1032A000B0910F0281159440A105B10509F470CFCA
:1032B0008091080290910902A0910A02B0910B023C
:1032C00081159440A105B10509F462CF80911802DF
:1032D00090911902A0911A02B0911B02811594409D
:1032E000A105B10509F454CF809104029091050223
:1032F000A0910602B091070281159440A105B10585
:1033000009F446CF8091000290910102A09102023F
:10331000B091030281159440A105B10509F438CF9D
:1033200008950F931F93CF93DF93EC018A010E94BE
:103330008316B801CE0106960E9483162C9661EA88
:1033400072E0CE010E941F1761EA72E0CE01DF91A8
:10335000CF911F910F910C94DF15CF93DF93CDB7D1
:10336000DEB72C970FB6F894DEBF0FBECDBF019726
:1033700011F00C945E2561E773E0CE0101960E9486
:103380001F1765E773E0CE0107960E941F17AE0175
:103390004F5F5F4FBE01695F7F4F8BE994E10E94F1
:1033A0009119CE0107960E944B0FCE0101960E9403
:1033B0004B0F6BE773E0CE0101960E941F1765E784
:1033C00073E0CE0107960E941F17AE014F5F5F4F5B
:1033D000BE01695F7F4F85E894E10E949119CE019B
:1033E00007960E944B0FCE0101960E944B0F6FE78C
:1033F00073E0CE0101960E941F1765E773E0CE01CE
:1034000007960E941F17AE014F5F5F4FBE01695FB5
:103410007F4F8FE694E10E949119CE0107960E949A
:103420004B0FCE0101960E944B0F63E873E0CE0173
:1034300001960E941F1765E773E0CE0107960E9470
:103440001F17AE014F5F5F4FBE01695F7F4F89E578
:1034500094E10E949119CE0107960E944B0FCE0174
:1034600001960E944B0F67E873E0CE0101960E941F
:103470001F1765E773E0CE0107960E941F17AE0184
:103480004F5F5F4FBE01695F7F4F83E494E10E940D
:103490009119CE0107960E944B0FCE0101960E9412
:1034A0004B0F6BE873E0CE0101960E941F1765E792
:1034B00073E0CE0107960E941F17AE014F5F5F4F6A
:1034C000BE01695F7F4F8DE294E10E949119CE01A8
:1034D00007960E944B0FCE0101960E944B0F6FE89A
:1034E00073E0CE0101960E941F1765E773E0CE01DD
:1034F00007960E941F17AE014F5F5F4FBE01695FC5
:103500007F4F87E194E10E949119CE0107960E94B6
:103510004B0FCE0101960E944B0F63E973E0CE0181
:1035200001960E941F1765E773E0CE0107960E947F
:103530001F17AE014F5F5F4FBE01695F7F4F81E094
:1035400094E10E949119CE0107960E944B0FCE0183
:1035500001960E944B0F67E973E0CE0101960E942D
:103560001F1765E773E0CE0107960E941F17AE0193
:103570004F5F5F4FBE01695F7F4F8BEE93E10E940B
:103580009119CE0107960E944B0FCE0101960E9421
:103590004B0F6BE973E0CE0101960E941F1765E7A0
:1035A00073E0CE0107960E941F17AE014F5F5F4F79
:1035B000BE01695F7F4F85ED93E10E949119CE01B5
:1035C00007960E944B0FCE0101960E944B0F61EAB5
:1035D00073E0CE0101960E941F1765E773E0CE01EC
:1035E00007960E941F17AE014F5F5F4FBE01695FD4
:1035F0007F4F8FEB93E10E949119CE0107960E94B5
:103600004B0FCE0101960E944B0F6DEA73E0CE0185
:1036100001960E941F1765E773E0CE0107960E948E
:103620001F17AE014F5F5F4FBE01695F7F4F89EA91
:1036300093E10E949119CE0107960E944B0FCE0193
:1036400001960E944B0F63EB73E0CE0101960E943E
:103650001F1765E773E0CE0107960E941F17AE01A2
:103660004F5F5F4FBE01695F7F4F83E993E10E9427
:103670009119CE0107960E944B0FCE0101960E9430
:103680004B0F6CEB73E0CE0101960E941F1765E7AC
:1036900073E0CE0107960E941F17AE014F5F5F4F88
:1036A000BE01695F7F4F8DE793E10E949119CE01C2
:1036B00007960E944B0FCE0101960E944B0F63ECC0
:1036C00073E0CE0101960E941F1765E773E0CE01FB
:1036D00007960E941F17AE014F5F5F4FBE01695FE3
:1036E0007F4F87E693E10E949119CE0107960E94D1
:1036F0004B0FCE0101960E944B0F6BEC73E0CE0195
:1037000001960E941F1765E773E0CE0107960E949D
:103710001F17AE014F5F5F4FBE01695F7F4F80EDA6
:1037200094E10E949119CE0107960E944B0FCE01A1
:1037300001960E944B0F65ED73E0CE0101960E9449
:103740001F1765E773E0CE0107960E941F17AE01B1
:103750004F5F5F4FBE01695F7F4F81E593E10E943C
:103760009119CE0107960E944B0FCE0101960E943F
:103770004B0F6DED73E0CE0101960E941F1765E7B8
:1037800073E0CE0107960E941F17AE014F5F5F4F97
:10379000BE01695F7F4F87EE94E10E949119CE01CF
:1037A00007960E944B0FCE0101960E944B0F64EECC
:1037B00073E0CE0101960E941F1765E773E0CE010A
:1037C00007960E941F17AE014F5F5F4FBE01695FF2
:1037D0007F4F8BE393E10E949119CE0107960E94DF
:1037E0004B0FCE0101960E944B0F6CEE73E0CE01A1
:1037F00001960E941F1766EC79E0CE0107960E94A1
:103800001F17AE014F5F5F4FBE01695F7F4F85E2BB
:1038100093E10E949119CE0107960E944B0FCE01B1
:1038200001960E944B0F64EF73E0CE0101960E9457
:103830001F1766EC79E0CE0107960E941F17AE01B4
:103840004F5F5F4FBE01695F7F4F8FE093E10E9442
:103850009119CE0107960E944B0FCE0101960E944E
:103860004B0F6BEF73E0CE0101960E941F1760EDC6
:1038700079E0CE0107960E941F17AE014F5F5F4FA0
:10388000BE01695F7F4F89EF92E10E949119CE01DD
:1038900007960E944B0FCE0101960E944B0F67E0E6
:1038A00074E0CE0101960E941F1760ED79E0CE0111
:1038B00007960E941F17AE014F5F5F4FBE01695F01
:1038C0007F4F83EE92E10E949119CE0107960E94EC
:1038D0004B0FCE0101960E944B0F63E174E0CE01C5
:1038E00001960E941F1760ED79E0CE0107960E94B5
:1038F0001F17AE014F5F5F4FBE01695F7F4F8DECB9
:1039000092E10E949119CE0107960E944B0FCE01C1
:1039100001960E944B0F6FE174E0CE0101960E9468
:103920001F1760ED79E0CE0107960E941F17AE01C8
:103930004F5F5F4FBE01695F7F4F87EB92E10E944F
:103940009119CE0107960E944B0FCE0101960E945D
:103950004B0F6BE274E0CE0101960E941F1760EDE1
:1039600079E0CE0107960E941F17AE014F5F5F4FAF
:10397000BE01695F7F4F81EA92E10E949119CE01F9
:1039800007960E944B0FCE0101960E944B0F6AE3EF
:1039900074E0CE0101960E941F1760ED79E0CE0120
:1039A00007960E941F17AE014F5F5F4FBE01695F10
:1039B0007F4F8BE892E10E949119CE0107960E94F9
:1039C0004B0FCE0101960E944B0F65E474E0CE01CF
:1039D00001960E941F1760ED79E0CE0107960E94C4
:1039E0001F17AE014F5F5F4FBE01695F7F4F85E7D5
:1039F00092E10E949119CE0107960E944B0FCE01D1
:103A000001960E944B0F60E574E0CE0101960E9482
:103A10001F1760ED79E0CE0107960E941F17AE01D7
:103A20004F5F5F4FBE01695F7F4F8FE592E10E945C
:103A30009119CE0107960E944B0FCE0101960E946C
:103A40004B0F6BE574E0CE0101960E941F1760EDED
:103A500079E0CE0107960E941F17AE014F5F5F4FBE
:103A6000BE01695F7F4F89E492E10E949119CE0106
:103A700007960E944B0FCE0101960E944B0F66E6FF
:103A800074E0CE0101960E941F1760ED79E0CE012F
:103A900007960E941F17AE014F5F5F4FBE01695F1F
:103AA0007F4F83E392E10E949119CE0107960E9415
:103AB0004B0FCE0101960E944B0F61E774E0CE01DF
:103AC00001960E941F1760ED79E0CE0107960E94D3
:103AD0001F17AE014F5F5F4FBE01695F7F4F8DE1E2
:103AE00092E10E949119CE0107960E944B0FCE01E0
:103AF00001960E944B0F6CE774E0CE0101960E9484
:103B00001F1760ED79E0CE0107960E941F17AE01E6
:103B10004F5F5F4FBE01695F7F4F87E092E10E9478
:103B20009119CE0107960E944B0FCE0101960E947B
:103B30004B0F67E874E0CE0101960E941F1760EDFD
:103B400079E0CE0107960E941F17AE014F5F5F4FCD
:103B5000BE01695F7F4F81EF91E10E949119CE0113
:103B600007960E944B0FCE0101960E944B0F62E90F
:103B700074E0CE0101960E941F1760ED79E0CE013E
:103B800007960E941F17AE014F5F5F4FBE01695F2E
:103B90007F4F8BED91E10E949119CE0107960E9413
:103BA0004B0FCE0101960E944B0F6DE974E0CE01E0
:103BB00001960E941F1760ED79E0CE0107960E94E2
:103BC0001F17AE014F5F5F4FBE01695F7F4F85ECEE
:103BD00091E10E949119CE0107960E944B0FCE01F0
:103BE00001960E944B0F64EF73E0CE0101960E9494
:103BF0001F1760ED79E0CE0107960E941F17AE01F6
:103C00004F5F5F4FBE01695F7F4F8FEA91E10E9476
:103C10009119CE0107960E944B0FCE0101960E948A
:103C20004B0F68EA74E0CE0101960E941F1760ED09
:103C300079E0CE0107960E941F17AE014F5F5F4FDC
:103C4000BE01695F7F4F89E991E10E949119CE0120
:103C500007960E944B0FCE0101960E944B0F62EB1C
:103C600074E0CE0101960E941F1760ED79E0CE014D
:103C700007960E941F17AE014F5F5F4FBE01695F3D
:103C80007F4F83E891E10E949119CE0107960E942F
:103C90004B0FCE0101960E944B0F6DEB74E0CE01ED
:103CA00001960E941F1760ED79E0CE0107960E94F1
:103CB0001F17AE014F5F5F4FBE01695F7F4F89EBFA
:103CC00094E10E949119CE0107960E944B0FCE01FC
:103CD00001960E944B0F64EC74E0CE0101960E94A5
:103CE0001F1769ED79E0CE0107960E941F17AE01FC
:103CF0004F5F5F4FBE01695F7F4F8DE691E10E948C
:103D00009119CE0107960E944B0FCE0101960E9499
:103D10004B0F68EC74E0CE0101960E941F1769ED0D
:103D200079E0CE0107960E941F17AE014F5F5F4FEB
:103D3000BE01695F7F4F87E591E10E949119CE0135
:103D400007960E944B0FCE0101960E944B0F6CEC20
:103D500074E0CE0101960E941F1769ED79E0CE0153
:103D600007960E941F17AE014F5F5F4FBE01695F4C
:103D70007F4F81E491E10E949119CE0107960E9444
:103D80004B0FCE0101960E944B0F60ED74E0CE0107
:103D900001960E941F1769ED79E0CE0107960E94F7
:103DA0001F17AE014F5F5F4FBE01695F7F4F8BE210
:103DB00091E10E949119CE0107960E944B0FCE010E
:103DC00001960E944B0F64ED74E0CE0101960E94B3
:103DD0001F1769ED79E0CE0107960E941F17AE010B
:103DE0004F5F5F4FBE01695F7F4F85E191E10E94A8
:103DF0009119CE0107960E944B0FCE0101960E94A9
:103E00004B0F68ED74E0CE0101960E941F1769ED1B
:103E100079E0CE0107960E941F17AE014F5F5F4FFA
:103E2000BE01695F7F4F8FEF90E10E949119CE0133
:103E300007960E944B0FCE0101960E944B0F6CED2E
:103E400074E0CE0101960E941F1769ED79E0CE0162
:103E500007960E941F17AE014F5F5F4FBE01695F5B
:103E60007F4F89EE90E10E949119CE0107960E9442
:103E70004B0FCE0101960E944B0F60EE74E0CE0115
:103E800001960E941F1769ED79E0CE0107960E9406
:103E90001F17AE014F5F5F4FBE01695F7F4F83ED1C
:103EA00090E10E949119CE0107960E944B0FCE011E
:103EB00001960E944B0F64EE74E0CE0101960E94C1
:103EC0001F1769ED79E0CE0107960E941F17AE011A
:103ED0004F5F5F4FBE01695F7F4F8DEB90E10E94A6
:103EE0009119CE0107960E944B0FCE0101960E94B8
:103EF0004B0F68EE74E0CE0101960E941F1769ED2A
:103F000079E0CE0107960E941F17AE014F5F5F4F09
:103F1000BE01695F7F4F87EA90E10E949119CE014F
:103F200007960E944B0FCE0101960E944B0F6DEE3B
:103F300074E0CE0101960E941F1769ED79E0CE0171
:103F400007960E941F17AE014F5F5F4FBE01695F6A
:103F50007F4F81E990E10E949119CE0107960E945E
:103F60004B0FCE0101960E944B0F62EF74E0CE0121
:103F700001960E941F1769ED79E0CE0107960E9415
:103F80001F17AE014F5F5F4FBE01695F7F4F8BE729
:103F900090E10E949119CE0107960E944B0FCE012D
:103FA00001960E944B0F67EF74E0CE0101960E94CC
:103FB0001F1769ED79E0CE0107960E941F17AE0129
:103FC0004F5F5F4FBE01695F7F4F85E690E10E94C2
:103FD0009119CE0107960E944B0FCE0101960E94C7
:103FE0004B0F6CEF74E0CE0101960E941F1769ED34
:103FF00079E0CE0107960E941F17AE014F5F5F4F19
:10400000BE01695F7F4F8FE490E10E949119CE015C
:1040100007960E944B0FCE0101960E944B0F61E064
:1040200075E0CE0101960E941F1769ED79E0CE017F
:1040300007960E941F17AE014F5F5F4FBE01695F79
:104040007F4F89E390E10E949119CE0107960E946B
:104050004B0FCE0101960E944B0F66E075E0CE013A
:1040600001960E941F1769ED79E0CE0107960E9424
:104070001F17AE014F5F5F4FBE01695F7F4F83E245
:1040800090E10E949119CE0107960E944B0FCE013C
:1040900001960E944B0F6BE075E0CE0101960E94E5
:1040A0001F1769ED79E0CE0107960E941F17AE0138
:1040B0004F5F5F4FBE01695F7F4F8DE090E10E94CF
:1040C0009119CE0107960E944B0FCE0101960E94D6
:1040D0004B0F60E175E0CE0101960E941F1769ED5C
:1040E00079E0CE0107960E941F17AE014F5F5F4F28
:1040F000BE01695F7F4F87EF9FE00E949119CE015B
:1041000007960E944B0FCE0101960E944B0F65E16E
:1041100075E0CE0101960E941F1769ED79E0CE018E
:1041200007960E941F17AE014F5F5F4FBE01695F88
:104130007F4F81EE9FE00E949119CE0107960E9469
:104140004B0FCE0101960E944B0F6AE175E0CE0144
:1041500001960E941F1769ED79E0CE0107960E9433
:104160001F17AE014F5F5F4FBE01695F7F4F8BEC42
:104170009FE00E949119CE0107960E944B0FCE013D
:1041800001960E944B0F6FE175E0CE0101960E94EF
:104190001F1769ED79E0CE0107960E941F17AE0147
:1041A0004F5F5F4FBE01695F7F4F85EB9FE00E94CD
:1041B0009119CE0107960E944B0FCE0101960E94E5
:1041C0004B0F64E275E0CE0101960E941F1769ED66
:1041D00079E0CE0107960E941F17AE014F5F5F4F37
:1041E000BE01695F7F4F8FE99FE00E949119CE0168
:1041F00007960E944B0FCE0101960E944B0F69E279
:1042000075E0CE0101960E941F1769ED79E0CE019D
:1042100007960E941F17AE014F5F5F4FBE01695F97
:104220007F4F89E89FE00E949119CE0107960E9476
:104230004B0FCE0101960E944B0F6EE275E0CE014E
:1042400001960E941F1769ED79E0CE0107960E9442
:104250001F17AE014F5F5F4FBE01695F7F4F83E75E
:104260009FE00E949119CE0107960E944B0FCE014C
:1042700001960E944B0F63E375E0CE0101960E9408
:104280001F1769ED79E0CE0107960E941F17AE0156
:104290004F5F5F4FBE01695F7F4F8DE59FE00E94DA
:1042A0009119CE0107960E944B0FCE0101960E94F4
:1042B0004B0F68E375E0CE0101960E941F1769ED70
:1042C00079E0CE0107960E941F17AE014F5F5F4F46
:1042D000BE01695F7F4F87E49FE00E949119CE0184
:1042E00007960E944B0FCE0101960E944B0F6DE383
:1042F00075E0CE0101960E941F1769ED79E0CE01AD
:1043000007960E941F17AE014F5F5F4FBE01695FA6
:104310007F4F81E39FE00E949119CE0107960E9492
:104320004B0FCE0101960E944B0F62E475E0CE0167
:1043300001960E941F1769ED79E0CE0107960E9451
:104340001F17AE014F5F5F4FBE01695F7F4F8BE16B
:104350009FE00E949119CE0107960E944B0FCE015B
:1043600001960E944B0F67E475E0CE0101960E9412
:104370001F1769ED79E0CE0107960E941F17AE0165
:104380004F5F5F4FBE01695F7F4F85E09FE00E94F6
:104390009119CE0107960E944B0FCE0101960E9403
:1043A0004B0F64EF73E0CE0101960E941F1769ED79
:1043B00079E0CE0107960E941F17AE014F5F5F4F55
:1043C000BE01695F7F4F8FEE9EE00E949119CE0182
:1043D00007960E944B0FCE0101960E944B0F6CE492
:1043E00075E0CE0101960E941F1763EE79E0CE01C1
:1043F00007960E941F17AE014F5F5F4FBE01695FB6
:104400007F4F89ED9EE00E949119CE0107960E9490
:104410004B0FCE0101960E944B0F65E575E0CE0172
:1044200001960E941F1763EE79E0CE0107960E9465
:104430001F17AE014F5F5F4FBE01695F7F4F83EC77
:104440009EE00E949119CE0107960E944B0FCE016B
:1044500001960E944B0F6EE575E0CE0101960E9419
:104460001F1763EE79E0CE0107960E941F17AE0179
:104470004F5F5F4FBE01695F7F4F8DEA9EE00E94F4
:104480009119CE0107960E944B0FCE0101960E9412
:104490004B0F67E675E0CE0101960E941F1763EE91
:1044A00079E0CE0107960E941F17AE014F5F5F4F64
:1044B000BE01695F7F4F87E99EE00E949119CE019E
:1044C00007960E944B0FCE0101960E944B0F60E7AA
:1044D00075E0CE0101960E941F1763EE79E0CE01D0
:1044E00007960E941F17AE014F5F5F4FBE01695FC5
:1044F0007F4F81E89EE00E949119CE0107960E94AD
:104500004B0FCE0101960E944B0F69E775E0CE017B
:1045100001960E941F1763EE79E0CE0107960E9474
:104520001F17AE014F5F5F4FBE01695F7F4F8BE684
:104530009EE00E949119CE0107960E944B0FCE017A
:1045400001960E944B0F62E875E0CE0101960E9431
:104550001F1763EE79E0CE0107960E941F17AE0188
:104560004F5F5F4FBE01695F7F4F85E59EE00E9410
:104570009119CE0107960E944B0FCE0101960E9421
:104580004B0F6BE875E0CE0101960E941F1763EE9A
:1045900079E0CE0107960E941F17AE014F5F5F4F73
:1045A000BE01695F7F4F8FE39EE00E949119CE01AB
:1045B00007960E944B0FCE0101960E944B0F64E9B3
:1045C00075E0CE0101960E941F1763EE79E0CE01DF
:1045D00007960E941F17AE014F5F5F4FBE01695FD4
:1045E0007F4F89E29EE00E949119CE0107960E94BA
:1045F0004B0FCE0101960E944B0F6DE975E0CE0185
:1046000001960E941F1763EE79E0CE0107960E9483
:104610001F17AE014F5F5F4FBE01695F7F4F83E1A0
:104620009EE00E949119CE0107960E944B0FCE0189
:1046300001960E944B0F67EA75E0CE0101960E9439
:104640001F1763EE79E0CE0107960E941F17AE0197
:104650004F5F5F4FBE01695F7F4F8DEF9DE00E940E
:104660009119CE0107960E944B0FCE0101960E9430
:104670004B0F61EB75E0CE0101960E941F1763EEB0
:1046800079E0CE0107960E941F17AE014F5F5F4F82
:10469000BE01695F7F4F87EE9DE00E949119CE01B8
:1046A00007960E944B0FCE0101960E944B0F6BEBB9
:1046B00075E0CE0101960E941F1763EE79E0CE01EE
:1046C00007960E941F17AE014F5F5F4FBE01695FE3
:1046D0007F4F81ED9DE00E949119CE0107960E94C7
:1046E0004B0FCE0101960E944B0F65EC75E0CE0199
:1046F00001960E941F1763EE79E0CE0107960E9493
:104700001F17AE014F5F5F4FBE01695F7F4F8BEB9D
:104710009DE00E949119CE0107960E944B0FCE0199
:1047200001960E944B0F6FEC75E0CE0101960E943E
:104730001F1763EE79E0CE0107960E941F17AE01A6
:104740004F5F5F4FBE01695F7F4F85EA9DE00E942A
:104750009119CE0107960E944B0FCE0101960E943F
:104760004B0F69ED75E0CE0101960E941F1763EEB5
:1047700079E0CE0107960E941F17AE014F5F5F4F91
:10478000BE01695F7F4F8FE89DE00E949119CE01C5
:1047900007960E944B0FCE0101960E944B0F63EECD
:1047A00075E0CE0101960E941F176FEE75E0CE01F5
:1047B00007960E941F17AE014F5F5F4FBE01695FF2
:1047C0007F4F89E79DE00E949119CE0107960E94D4
:1047D0004B0FCE0101960E944B0F65EF75E0CE01A5
:1047E00001960E941F1767EF79E0CE0107960E949D
:1047F0001F17AE014F5F5F4FBE01695F7F4F83E6BA
:104800009DE00E949119CE0107960E944B0FCE01A8
:1048100001960E944B0F6EEF75E0CE0101960E944B
:104820001F1767EF79E0CE0107960E941F17AE01B0
:104830004F5F5F4FBE01695F7F4F8DE49DE00E9437
:104840009119CE0107960E944B0FCE0101960E944E
:104850004B0F67E076E0CE0101960E941F1767EFCD
:1048600079E0CE0107960E941F17AE014F5F5F4FA0
:10487000BE01695F7F4F87E39DE00E949119CE01E1
:1048800007960E944B0FCE0101960E944B0F60E1EC
:1048900076E0CE0101960E941F1767EF79E0CE0106
:1048A00007960E941F17AE014F5F5F4FBE01695F01
:1048B0007F4F81E29DE00E949119CE0107960E94F0
:1048C0004B0FCE0101960E944B0F69E176E0CE01BD
:1048D00001960E941F1767EF79E0CE0107960E94AC
:1048E0001F17AE014F5F5F4FBE01695F7F4F8BE0C7
:1048F0009DE00E949119CE0107960E944B0FCE01B8
:1049000001960E944B0F62E276E0CE0101960E9472
:104910001F1767EF79E0CE0107960E941F17AE01BF
:104920004F5F5F4FBE01695F7F4F85EF9CE00E9444
:104930009119CE0107960E944B0FCE0101960E945D
:104940004B0F64EC74E0CE0101960E941F1767EFD5
:1049500079E0CE0107960E941F17AE014F5F5F4FAF
:10496000BE01695F7F4F8FED9CE00E949119CE01DF
:1049700007960E944B0FCE0101960E944B0F68ECE8
:1049800074E0CE0101960E941F1767EF79E0CE0117
:1049900007960E941F17AE014F5F5F4FBE01695F10
:1049A0007F4F89EC9CE00E949119CE0107960E94EE
:1049B0004B0FCE0101960E944B0F6CEC74E0CE01C0
:1049C00001960E941F1767EF79E0CE0107960E94BB
:1049D0001F17AE014F5F5F4FBE01695F7F4F83EBD3
:1049E0009CE00E949119CE0107960E944B0FCE01C8
:1049F00001960E944B0F60ED74E0CE0101960E947B
:104A00001F1767EF79E0CE0107960E941F17AE01CE
:104A10004F5F5F4FBE01695F7F4F8DE99CE00E9451
:104A20009119CE0107960E944B0FCE0101960E946C
:104A30004B0F64ED74E0CE0101960E941F1767EFE3
:104A400079E0CE0107960E941F17AE014F5F5F4FBE
:104A5000BE01695F7F4F87E89CE00E949119CE01FB
:104A600007960E944B0FCE0101960E944B0F68EDF6
:104A700074E0CE0101960E941F1767EF79E0CE0126
:104A800007960E941F17AE014F5F5F4FBE01695F1F
:104A90007F4F81E79CE00E949119CE0107960E940A
:104AA0004B0FCE0101960E944B0F2C960FB6F89437
:104AB000DEBF0FBECDBFDF91CF91089581E79CE0AF
:104AC0000E94530F87E89CE00E94530F8DE99CE001
:104AD0000E94530F83EB9CE00E94530F89EC9CE0F3
:104AE0000E94530F8FED9CE00E94530F85EF9CE0D6
:104AF0000E94530F8BE09DE00E94530F81E29DE0E6
:104B00000E94530F87E39DE00E94530F8DE49DE0C8
:104B10000E94530F83E69DE00E94530F89E79DE0BA
:104B20000E94530F8FE89DE00E94530F85EA9DE09D
:104B30000E94530F8BEB9DE00E94530F81ED9DE08F
:104B40000E94530F87EE9DE00E94530F8DEF9DE072
:104B50000E94530F83E19EE00E94530F89E29EE082
:104B60000E94530F8FE39EE00E94530F85E59EE065
:104B70000E94530F8BE69EE00E94530F81E89EE057
:104B80000E94530F87E99EE00E94530F8DEA9EE03A
:104B90000E94530F83EC9EE00E94530F89ED9EE02C
:104BA0000E94530F8FEE9EE00E94530F85E09FE01E
:104BB0000E94530F8BE19FE00E94530F81E39FE01F
:104BC0000E94530F87E49FE00E94530F8DE59FE002
:104BD0000E94530F83E79FE00E94530F89E89FE0F4
:104BE0000E94530F8FE99FE00E94530F85EB9FE0D7
:104BF0000E94530F8BEC9FE00E94530F81EE9FE0C9
:104C00000E94530F87EF9FE00E94530F8DE090E1C9
:104C10000E94530F83E290E10E94530F89E390E1D9
:104C20000E94530F8FE490E10E94530F85E690E1BC
:104C30000E94530F8BE790E10E94530F81E990E1AE
:104C40000E94530F87EA90E10E94530F8DEB90E191
:104C50000E94530F83ED90E10E94530F89EE90E183
:104C60000E94530F8FEF90E10E94530F85E191E175
:104C70000E94530F8BE291E10E94530F81E491E176
:104C80000E94530F87E591E10E94530F8DE691E159
:104C90000E94530F89EB94E10E94530F83E891E146
:104CA0000E94530F89E991E10E94530F8FEA91E12D
:104CB0000E94530F85EC91E10E94530F8BED91E11F
:104CC0000E94530F81EF91E10E94530F87E092E120
:104CD0000E94530F8DE192E10E94530F83E392E112
:104CE0000E94530F89E492E10E94530F8FE592E1F5
:104CF0000E94530F85E792E10E94530F8BE892E1E7
:104D00000E94530F81EA92E10E94530F87EB92E1D8
:104D10000E94530F8DEC92E10E94530F83EE92E1BB
:104D20000E94530F89EF92E10E94530F8FE093E1AD
:104D30000E94530F85E293E10E94530F8BE393E1AE
:104D40000E94530F87EE94E10E94530F81E593E197
:104D50000E94530F80ED94E10E94530F87E693E188
:104D60000E94530F8DE793E10E94530F83E993E173
:104D70000E94530F89EA93E10E94530F8FEB93E156
:104D80000E94530F85ED93E10E94530F8BEE93E148
:104D90000E94530F81E094E10E94530F87E194E158
:104DA0000E94530F8DE294E10E94530F83E494E13B
:104DB0000E94530F89E594E10E94530F8FE694E11E
:104DC0000E94530F85E894E10E94530F8BE994E110
:104DD0000E94530F6ACE8F929F92AF92BF92FF9222
:104DE0000F931F93CF93DF93CDB7DEB72C970FB6FA
:104DF000F894DEBF0FBECDBF80910115811163C154
:104E00008091001581115FC18AE30E94E90689350E
:104E1000924074F083E090E00E948C1184E090E076
:104E20000E948C1168E572E080E090E00E94290702
:104E300001E010E0FF24F3940E940E0B6093CF1466
:104E400089E30E94E9069093B2148093B114092E6D
:104E5000000CAA0BBB0B40912002509121026091E3
:104E6000220270912302481759076A077B0790F0C6
:104E70008091E61481110EC050E040E06FEF81E0B8
:104E800090E00E94291241E050E06CE887E090E059
:104E90000E9429128091B1149091B214092E000C35
:104EA000AA0BBB0B4091200250912102609122027B
:104EB00070912302481759076A077B0740F481E085
:104EC00090E00E94221287E090E00E9422128091DE
:104ED000CF1490E0B0E0A0E04091B5145091B6142A
:104EE0006091B7147091B81484179507A607B70797
:104EF00008F440C08091E61481113CC083E090E04A
:104F00000E94221281E090E00E94221287E090E04D
:104F10000E94221288E090E00E9422126AE070E073
:104F200080E090E00E942907F092E6146091CF148F
:104F300070E089EB94E10E94D7166091CF14CE0106
:104F400007960E9442166BE276E0CE0101960E941F
:104F50001F17BE01695F7F4FCE0101960E94AB15FE
:104F60000E946D11CE0101960E944B0FCE01079653
:104F70000E944B0F8091CF1490E0B0E0A0E04091F0
:104F8000B5145091B6146091B7147091B814841789
:104F90009507A607B70758F48091E614811107C05A
:104FA00050E040E06FEF83E090E00E9429126091B2
:104FB000CF1470E090E080E00E945E534B015C01F2
:104FC0006091B5147091B6148091B7149091B81493
:104FD0000E945C5326E636E646E65FE30E94BD5338
:104FE0009B01AC01C501B4010E94575318165CF037
:104FF0008091E614811107C050E040E06FEF88E037
:1050000090E00E9429126091CF1470E090E080E05F
:105010000E945E534B015C016091B5147091B6140F
:105020008091B7149091B8140E945C5323E333E34A
:1050300043E75FE30E94BD539B01AC01C501B4018E
:105040000E94865587FD04C088E090E00E942212ED
:105050000130110509F047C041E050E06FEF82E0F8
:1050600090E00E9429128FE090E00E948C1184E071
:1050700090E00A30110509F047C00E94221264E650
:1050800070E080E090E00E9429070F5F1F4F05311C
:10509000110509F0D1CE81E090E00E94221283E058
:1050A00090E00E94221287E090E00E94221288E0A5
:1050B00090E00E94221282E090E00E94221285E09D
:1050C00090E00E9422122C960FB6F894DEBF0FBE1D
:1050D000CDBFDF91CF911F910F91FF90BF90AF9007
:1050E0009F908F9008950230110539F48FE090E081
:1050F0000E949E1181E090E0B8CF0330110561F469
:105100008FE090E00E948C110F301105C1F48EE009
:1051100090E00E948C11B3CF04301105F1F481E1CD
:1051200090E00E948C118FE30E94E906C3973CF443
:1051300050E040E06FEF85E090E00E9429120031DE
:10514000110509F581E190E00E949E1182E090E056
:105150000E949E1182E090E090CF0930110509F085
:1051600086CF82E090E00E948C1150E040E064EB3A
:1051700084E090E00E9429120331110509F07FCFED
:1051800083E090E0C6CF01311105B1F783E090E0F4
:105190000E949E1174CF8F929F92AF92BF92DF9226
:1051A000EF92FF920F931F93CF93DF93CDB7DEB7AC
:1051B0002C970FB6F894DEBF0FBECDBF80910115BE
:1051C000811196C080910015811192C081E0809379
:1051D000E61401E010E0DD24D394083011050CF44E
:1051E00099C00E940E0B6093CF148DE30E94E906D4
:1051F0007C019093180C8093170C89E30E94E906B8
:105200009093B2148093B114A701FF0C660B770B37
:1052100080901C0290901D02A0901E02B0901F0270
:10522000481559056A057B0508F47FC08CE090E0BD
:105230000E949E118AE090E00E949E1160911802E7
:105240007091190280911A0290911B020E94290705
:1052500084E090E00E94221283E090E00E942212FB
:1052600081E090E00E94221287E090E00E942212EA
:1052700088E090E00E94221282E090E00E942212D8
:1052800082E090E00E949E1189E496E00E945C1109
:10529000C8010E9452118AE69AE00E945C11809136
:1052A000170C9091180C0E94C21281E08093160C8A
:1052B00081E090E00E94221283E090E00E9422129E
:1052C00087E090E00E94221288E090E00E94221283
:1052D00084E090E00E94221282E090E00E9422127C
:1052E0008091160C813021F482E190E00E948C11B3
:1052F0002C960FB6F894DEBF0FBECDBFDF91CF91D5
:105300001F910F91FF90EF90DF90BF90AF909F9013
:105310008F9008950730110509F467CF62E870E0B7
:1053200080E090E00E94290760CF092E000CAA0BB4
:10533000BB0B40912002509121026091220270919A
:105340002302481759076A077B0790F08091E614FB
:1053500081110EC050E040E06FEF81E090E00E94CC
:10536000291241E050E06CE887E090E00E942912A9
:105370008091B1149091B214092E000CAA0BBB0BB2
:1053800040912002509121026091220270912302EB
:10539000481759076A077B0740F481E090E00E94B4
:1053A000221287E090E00E9422128091CF1490E0B8
:1053B000B0E0A0E04091B5145091B6146091B714DC
:1053C0007091B81484179507A607B707E8F1809184
:1053D000E614811139C008301105B4F183E090E082
:1053E0000E94221281E090E00E94221287E090E069
:1053F0000E94221288E090E00E942212D092E614CD
:105400006091CF14CE0107960E94421664E676E0C2
:10541000CE0101960E941F17BE01695F7F4FCE012A
:1054200001960E94AB150E946D11CE0101960E945B
:105430004B0FCE0107960E944B0F6091CF1470E086
:1054400089EB94E10E94D7168091CF1490E0B0E0F0
:10545000A0E04091B5145091B6146091B7147091CA
:10546000B81484179507A607B70770F48091E6145F
:1054700081110AC0083011053CF050E040E06FEFA8
:1054800083E090E00E9429126091CF1470E090E0D8
:1054900080E00E945E534B015C016091B5147091F5
:1054A000B6148091B7149091B8140E945C5326E60C
:1054B00036E646E65FE30E94BD539B01AC01C501A1
:1054C000B4010E94575387FF15C08091E6148111E3
:1054D00011C00830110574F050E040E06FEF88E033
:1054E00090E00E94291241E050E06CE887E090E0F3
:1054F0000E9429126091CF1470E090E080E00E9439
:105500005E534B015C016091B5147091B6148091AB
:10551000B7149091B8140E945C5323E333E343E73C
:105520005FE30E94BD539B01AC01C501B4010E9421
:10553000865587FD17C008301105A4F088E090E07B
:105540000E94221287E090E00E942212033011058F
:1055500009F06EC041E050E06FEF82E090E00E9401
:1055600029125EC00130110509F052C083E090E0BD
:105570000E948C1184E090E00E948C1187E090E002
:105580000E949E1141E050E06FEF84E090E00E94A5
:1055900029128AE090E00E948C118CE090E00E9439
:1055A0008C110A301105E1F581E090E00E948C1128
:1055B00082E090E00E949E110233110509F047C07D
:1055C00081E090E00E94221283E090E00E9422128B
:1055D00087E090E00E94221288E090E00E94221270
:1055E00084E090E00E94221282E090E00E94221269
:1055F00086E996E00E947E110E94AF1181E08093BF
:10560000011525E040E060E08FEF0E94A20E50CE31
:105610000230110509F09ACF82E090E00E948C11CF
:1056200082E090E00D30110551F40E948C110FC002
:105630000430110579F482E090E00E949E110F3051
:10564000110509F06AC081E090E00E949E110F5F91
:105650001F4FC3CD0730110509F0A3CF82E090E0C2
:105660000E948C111092E61482E00E94D60A063144
:10567000110509F0A1CF89EEE82E83E0F82E8DE325
:105680000E94E9069093180C8093170C092E000CC9
:10569000AA0BBB0B40911C0250911D0260911E028F
:1056A00070911F0284179507A607B707E8F18CE0F1
:1056B00090E00E949E118AE090E00E949E1160910D
:1056C00018027091190280911A0290911B020E9497
:1056D000290784E090E00E94221283E090E00E947B
:1056E000221281E090E00E94221287E090E00E9466
:1056F000221288E090E00E94221282E090E00E9454
:10570000221282E090E00E949E11D092160C8091AD
:10571000160C813009F09BCFCBCD0431110509F077
:10572000A6CF81E090E081CF81E0E81AF10839F45A
:1057300083E896E00E947E11D0920115E8CF61E0E7
:1057400070E080E090E00E94290799CF6F927F92ED
:105750008F929F92AF92BF92CF92DF92EF92FF9281
:105760000F931F93CF93DF93CDB7DEB762970FB63A
:10577000F894DEBF0FBECDBF7C018B016AEC76E0F2
:10578000CE0101960E941F17BE016F5F7F4FC801B7
:105790000E94ED14D82ECE0101960E944B0FDD2001
:1057A00009F4B2C06FEB79E0CE0101960E941F1799
:1057B00050E040E0BE016F5F7F4FC8010E94D114EE
:1057C0003C01CE0101960E944B0F6FEB79E0CE01B8
:1057D00001960E941F17A3014F5F5F4FBE016F5FCD
:1057E0007F4FC8010E94D1144C01CE0101960E9446
:1057F0004B0F54018FEFA81AB80A6FEB79E0CE0176
:1058000001960E941F17A501BE016F5F7F4FC8015F
:105810000E94D1146C01CE0101960E944B0F6720AB
:10582000609409F45AC08920809409F456C08FEF1F
:10583000C816D80609F451C09601A501B801CE01D9
:1058400007960E943017F80124813581A6014F5F29
:105850005F4FB801CE0101960E94301764EB76E0ED
:10586000CE010D960E941F17BE01695F7F4FCE01CA
:105870000D960E94AB156FEB79E00E949515BE0165
:105880006F5F7F4F0E94AB150E946D11CE010D9688
:105890000E944B0F6AE277E0C7010E941F17CE01FA
:1058A00001960E944B0FCE0107960E944B0FC70135
:1058B00062960FB6F894DEBF0FBECDBFDF91CF91D9
:1058C0001F910F91FF90EF90DF90CF90BF90AF901E
:1058D0009F908F907F906F90089562ED76E0CE015B
:1058E00001960E941F17B801CE0101960E94AB15C8
:1058F0000E946D11CE0101960E944B0F6AE277E083
:10590000C7010E941F17D3CF62E077E0CE01019656
:105910000E941F17BE016F5F7F4FC8010E94ED14E8
:10592000D82ECE0101960E944B0FDD2009F499C0BC
:105930006FEB79E0CE0101960E941F1750E040E026
:10594000BE016F5F7F4FC8010E94D1143C01CE01A0
:1059500001960E944B0F6FEB79E0CE0101960E94F9
:105960001F17A3014F5F5F4FBE016F5F7F4FC801DD
:105970000E94D1144C01CE0101960E944B0F54019C
:10598000FFEFAF1ABF0A6FEB79E0CE0101960E94DC
:105990001F17A501BE016F5F7F4FC8010E94D11480
:1059A0006C01CE0101960E944B0F6720609409F4B0
:1059B00044C08920809409F440C0FFEFCF16DF0671
:1059C000E1F19601A501B801CE0107960E943017BA
:1059D000F80124813581A6014F5F5F4FB801CE01E8
:1059E00001960E9430176CEE76E0CE010D960E9473
:1059F0001F17BE01695F7F4FCE010D960E94AB1548
:105A00006FEB79E00E949515BE016F5F7F4F0E949A
:105A1000AB150E946D11CE010D960E944B0FF70140
:105A2000118210821382128215821482BE016F5F6E
:105A30007F4FC7010E94081532CF6AE077E0CE01A0
:105A400001960E941F17B801CE0101960E94AB1566
:105A50000E946D11CE0101960E944B0F69E277E022
:105A60004FCF6CE277E0EBCFCF92DF92EF92FF92D5
:105A7000CF93DF93CDB7DEB768970FB6F894DEBF4C
:105A80000FBECDBF7C0170E0CE0107960E941616B6
:105A90006DEC76E0CE0101960E941F17B701CE0192
:105AA00001960E94AB156FEB79E00E949515BE013F
:105AB000695F7F4F0E94AB1560EA72E00E94951506
:105AC000BC01CE0143960E948316CE0101960E942E
:105AD0004B0FCE0107960E944B0FBE016D5E7F4FAC
