:100000000C946E010C949F010C949F010C949F0121
:100010000C949F010C949F010C949F010C949F01E0
:100020000C949F010C949F010C949F010C949F01D0
:100030000C949F010C949F010C949F010C949F01C0
:100040000C949F010C949F010C949F010C949F01B0
:100050000C949F010C949F010C949F010C946331AC
:100060000C949F010C9439310C940F310C949F0126
:100070000C949F010C949F010C949F010C949F0180
:100080000C949F010C949F010C949F010C949F0170
:100090000C94E5300C94BB300C949F010C94AD3162
:1000A0000C949F010C949F010C949F010C949F0150
:1000B0000C949F010C949F010C949F010C949F0140
:1000C0000C949F010C949F010C949F010C949F0130
:1000D0000C949F010C949F010C9491300C94673008
:1000E0000C949F010C9499030C9495030C94780C38
:1000F0000C9431050C9413030C94C9040C9445051D
:100100000C9463050C941C0C0C94F7010C94FC04E7
:100110000C94E30C0C94AD030C94F3010C940405C3
:100120000C94D6040C94EA040C948C030C94A7034E
:100130000C9467020C941A0C0C94BA030C944402AD
:100140000C9453020C94170C0C9422050C949F03EE
:100150000C94FA320C94F4100C944F050C94E60CA9
:100160000C9488030C9480030C9459050C9475022C
:100170000C94BF030C94BB030C9418050C94C1029F
:100180000C94B6090C94F4040C948F030C94CD32A7
:100190000C94D1040C947A030C9484030C94A30360
:1001A0000C943B050C94EA0C0C94B1030C940E05D2
:1001B0000C94B5030C94E0040000210024002700F7
:1001C0002A002D0030003300010100000401070166
:1001D0000A0100002200250028002B002E0031001B
:1001E000340002010000050108010B01000020009D
:1001F0002300260029002C002F00320000010000FF
:100200000301060109010505050507050808080899
:10021000020202020A0A080804040404010101019E
:100220000101010103030303030303030407070799
:100230000C0C0C0C0C0C0C0C02020202060606063E
:10024000060606060B0B0B0B0B0B0B0B010210200B
:1002500020080810204010204080020102010804FC
:100260000201010204081020408080402010080490
:1002700002018004020180402010080402010804E9
:10028000020101020408102040800102040810202D
:10029000408000000A0B02090C0D0E080703040140
:1002A000000000000000000000000000000000004E
:1002B000000000000000000000000000000012111B
:1002C000100000000000000000000000000000001E
:1002D0000000000000000000FA32CD3211241FBEE1
:1002E000CFEFD1E2DEBFCDBF00E00CBF1AE0A0E04F
:1002F000B2E0E6E5F2E900E00BBF02C007900D9224
:10030000A037B107D9F726E1A0E7BAE001C01D92F6
:10031000A33AB207E1F711E0CDE6D1E000E006C074
:1003200021970109802FFE010E949B46CC36D10700
:1003300080E00807A9F70E9433340C9419490C9403
:100340000000CF93DF93EC019A01AB01E889F989B2
:1003500082E08083211581EE38074105510581F146
:1003600060E079E08DE390E00E942C452150310956
:10037000410951095695479537952795EC85FD8597
:100380001082EE85FF852083188EEC89FD8986E03A
:100390008083EA89FB89808180618083EA89FB8987
:1003A000808188608083EA89FB898081806880837E
:1003B000EA89FB8980818F7D8083DF91CF910895C9
:1003C000E889F989108220E1D9CFEEE3F4E1DC017C
:1003D0002D913D914C91219331934193B4E1EA37B2
:1003E000FB07A9F7089580E991E008950895AF9279
:1003F000BF92CF92DF92EF92FF920F931F93CF9312
:10040000DF936C017B018B01040F151FEB015E0173
:10041000AE18BF08C017D10759F06991D601ED9108
:10042000FC910190F081E02DC6011995892B79F797
:10043000C501DF91CF911F910F91FF90EF90DF9059
:10044000CF90BF90AF900895FB01448155816081AA
:1004500071810C94F701FC01A089B1898C91A68966
:10046000B78982FD0FC09C91818D8F5F8F73228D24
:10047000821749F0A18DAE0FBF2FB11D5D969C93E1
:10048000818F08958C910895FC01538D448D252F03
:1004900030E0842F90E0821B930B541710F0CF961E
:1004A000089501970895FC01918D828D981761F050
:1004B000A28DAE0FBF2FB11D5D968C91928D9F5F67
:1004C0009F73928F90E008958FEF9FEF0895FC0146
:1004D000918D828D981731F0828DE80FF11D858DF9
:1004E00090E008958FEF9FEF0895FC01918D228D8C
:1004F000892F90E0805C9F4F821B91098F73992711
:10050000089586E894E10E94750221E0892B09F4A0
:1005100020E0822F089583E295E10E94750221E098
:10052000892B09F420E0822F089580EC95E10E9448
:10053000750221E0892B09F420E0822F0895FC0147
:10054000A48DA80FB92FB11DA35ABF4F2C91848D34
:1005500090E001968F739927848FA689B7892C9391
:10056000A089B1898C91837080648C93938D848DE4
:10057000981306C00288F389E02D80818F7D8083E7
:100580000895EF92FF920F931F93CF93DF93EC01A7
:1005900081E0888F9B8D8C8D98131AC0E889F9892A
:1005A000808185FF15C09FB7F894EE89FF8960832D
:1005B000E889F98980818370806480839FBF81E0AE
:1005C00090E0DF91CF911F910F91FF90EF900895F0
:1005D000F62E0B8D10E00F5F1F4F0F731127E02ECB
:1005E0008C8D8E110CC00FB607FCFACFE889F98903
:1005F000808185FFF5CFCE010E949F02F1CFEB8D68
:10060000EC0FFD2FF11DE35AFF4FF0829FB7F894D6
:100610000B8FEA89FB8980818062CFCF6FEF86E8FC
:1006200094E10C94C102CF93DF93EC01888D882371
:10063000B9F0AA89BB89E889F9898C9185FD03C045
:10064000808186FD0DC00FB607FCF7CF8C9185FF2A
:10065000F2CF808185FFEDCFCE010E949F02E9CFCE
:10066000DF91CF91089580E090E0892B29F00E94DE
:10067000950281110E94000080E090E0892B29F012
:100680000E948B0281110E94000080E090E0892B83
:1006900049F080E090E0892B29F00E940000811150
:1006A0000E94000080E090E0892B29F00E948102E6
:1006B00081110C94000008958150823108F05AC0D5
:1006C000E82FF0E08827E859FC4F8F4F0C949B46A9
:1006D00088038C037A0380038403BA038F03950392
:1006E00099039F03A303A703AD03B103BA03B503A3
:1006F000BB03BF03809180008F77809380000895B3
:10070000809180008F7DF9CF80918000877FF5CF29
:1007100084B58F7784BD089584B58F7DFBCF80919C
:10072000B0008F778093B00008958091B0008F7DE6
:10073000F9CF809190008F778093900008958091F9
:1007400090008F7DF9CF80919000877FF5CF8091C9
:10075000A0008F778093A00008958091A0008F7DE6
:10076000F9CF8091A000877FF5CF809120018F770E
:10077000809320010895809120018F7DF9CF809191
:100780002001877FF5CFCF93DF93282F30E0F90149
:10079000EE56FD4F8491F901E45BFD4FD491F901D0
:1007A000EA5FFD4FC491CC23A1F081110E945C034C
:1007B000EC2FF0E0EE0FFF1FE451FE4FA591B49136
:1007C000EC91ED2381E090E009F480E0DF91CF919E
:1007D000089580E090E0FACF1F93CF93DF93282F06
:1007E00030E0F901EE56FD4F8491F901E45BFD4FD5
:1007F000D491F901EA5FFD4FC491CC23A9F0162FE3
:1008000081110E945C03EC2FF0E0EE0FFF1FEE520F
:10081000FE4FA591B4918FB7F894EC91111108C0D7
:10082000D095DE23DC938FBFDF91CF911F91089588
:10083000DE2BF8CFCF92DF92EF92FF92CF9380E33F
:100840000E94C3030197D9F761E080E30E94EC03A3
:1008500060E085E30E94EC0380E30E94C303892BE0
:10086000D9F7C8E1C12CD12C760161E085E30E9463
:10087000EC03CC0CDD1CEE1CFF1C60E085E30E9449
:10088000EC0380E30E94C303892B29F02FEFC21AE7
:10089000D20AE20AF20AC15041F761E085E30E9400
:1008A000EC0360E085E30E94EC03C701B6018058C9
:1008B0000E94DD43CF91FF90EF90DF90CF9008959D
:1008C000CF93DF9390E0FC01E45BFD4F24918A5FBE
:1008D0009D4FFC0184918823D1F090E0880F991FEF
:1008E000FC01E854FE4FA591B491FC01EE52FE4F7D
:1008F000C591D49161110EC09FB7F8948C91E22FED
:10090000E0958E238C932881E223E8839FBFDF91BB
:10091000CF9108958FB7F894EC91E22BEC938FBFB1
:10092000F6CF1F93CF93DF93182FEB0161E00E9466
:100930006004209739F460E0812FDF91CF911F91FF
:100940000C94EC03CF3FD10511F461E0F5CFE12F1A
:10095000F0E0EE56FD4FE491E150E23108F0B3C013
:10096000F0E08827E954FB4F8F4F0C949B46C90455
:10097000D104D604E004EA046305F404FC0404058D
:100980000E051805220531053B05630545054F0594
:10099000590584B5806884BDC7BDDF91CF911F9193
:1009A000089584B5806284BDC8BDF7CF8091800072
:1009B000806880938000D0938900C0938800EDCF39
:1009C00080918000806280938000D0938B00C093E0
:1009D0008A00E3CF80918000886080938000D0936C
:1009E0008D00C0938C00D9CF8091B0008068809337
:1009F000B000C093B300D1CF8091B00080628093EB
:100A0000B000C093B400C9CF8091900080688093FB
:100A10009000D0939900C0939800BFCF8091900030
:100A2000806280939000D0939B00C0939A00B5CFD2
:100A300080919000886080939000D0939D00C09337
:100A40009C00ABCF8091A00080688093A000809133
:100A5000A0008F7B8093A000D093A900C093A80032
:100A60009CCF8091A00080628093A000D093AB00C7
:100A7000C093AA0092CF8091A00088608093A000CC
:100A8000D093AD00C093AC0088CF809120018068E6
:100A900080932001D0932901C09328017ECF8091BB
:100AA0002001806280932001D0932B01C0932A0102
:100AB00074CF80912001886080932001D0932D0114
:100AC000C0932C016ACFC038D1050CF03ECF33CF94
:100AD000865320917B00982F987F277F922B9093AD
:100AE0007B008770806480937C0080917A008064B2
:100AF00080937A0080917A0086FDFCCF8091780007
:100B00009091790008953FB7F8948091C60A90912A
:100B1000C70AA091C80AB091C90A26B5A89B05C00A
:100B20002F3F19F00196A11DB11D3FBFBA2FA92F6C
:100B3000982F8827BC01CD01620F711D811D911D69
:100B400042E0660F771F881F991F4A95D1F70895D5
:100B50008F929F92AF92BF92CF92DF92EF92FF92CD
:100B60006B017C010E9483054B015C01C114D1041F
:100B7000E104F104B9F00E948305681979098A0932
:100B80009B09683E73408105910580F321E0C21AFC
:100B9000D108E108F10888EE880E83E0981EA11CB8
:100BA000B11CE4CFFF90EF90DF90CF90BF90AF905B
:100BB0009F908F9008952FB7F8946091C20A70911A
:100BC000C30A8091C40A9091C50A2FBF08950F935C
:100BD0001F93CF93DF93EC010E94DB056887798731
:100BE0008A879B87CE010E94530297FF15C00E94FF
:100BF000DB05088519852A853B85601B710B820BF7
:100C0000930B0C811D812E813F8160177107820734
:100C1000930740F38FEF9FEFDF91CF911F910F91DB
:100C200008954F925F926F927F929F92AF92BF9280
:100C3000CF92DF92EF92FF920F931F93CF93DF93A8
:100C400000D0CDB7DEB7D0905D1680916016909140
:100C50006116A0916216B0916316892B8A2B8B2B9B
:100C6000D9F00E9483050091821410918314209181
:100C7000841430918514601B710B820B930B0091CF
:100C800060161091611620916216309163166017FC
:100C9000710782079307C8F20E948305609382144C
:100CA000709383148093841490938514E091681654
:100CB000F0916916309759F040916416509165167D
:100CC00060916616709167168D2D1995D82EE0905B
:100CD0008014F09081144D2C512C712C612CE11456
:100CE000F10409F459C0D7011C96CC901C9780914F
:100CF0005E1690915F168436910510F41C961C9236
:100D0000D701ED91FC91A280B38019821A821B82D7
:100D1000DD2079F1F701369610E000E021912223E1
:100D200019F19280992001F130E050E040E02F5F0E
:100D30003F4F4F4F5F4FC301B2010E9477469B0167
:100D4000AC01892D90E0B0E0A0E0BC01CD016F5F67
:100D50007F4F8F4F9F4F0E947746A1E0B0E0AC0FCE
:100D6000BD1FA00FB11F8C930F5F1F4F03301105E4
:100D7000A9F609811A812B81F70145855685628183
:100D80007381C701F5011995D7011C96CC921C9768
:100D90001496ED90FC90A3CF80917E1490917F14D7
:100DA0008C010F5F1F4F10937F1400937E1449979F
:100DB000B4F10E94DB05C0907A14D0907B14E090CF
:100DC0007C14F0907D149B01AC012C193D094E0957
:100DD0005F0921F421E030E040E050E088EE93E04C
:100DE000089FB001099F700D189F700D1124072EE8
:100DF000000C880B990B0E942C4530935F162093B2
:100E00005E1610927F1410927E140E94DB05609390
:100E10007A1470937B1480937C1490937D140F90BC
:100E20000F900F90DF91CF911F910F91FF90EF9056
:100E3000DF90CF90BF90AF909F907F906F905F902A
:100E40004F900895DF92EF92FF920F931F93CF93ED
:100E5000DF9300D0CDB7DEB7E82E19821A821B824D
:100E6000CE0101960E94E5010E94110610E000E00B
:100E7000F12CDD24DA940E151F050CF51982DA82A7
:100E80001B82CE0101960E94E5010E94110664E6D4
:100E900070E080E090E00E94A80519821A821B820F
:100EA000CE0101960E94E5010E94110664E670E001
:100EB00080E090E00E94A8050F5F1F4FDCCF0F90ED
:100EC0000F900F90DF91CF911F910F91FF90EF90B6
:100ED000DF9008951F93CF93DF93C1E0C0937D0A05
:100EE000882399F1D091B8001091BA008091BC008C
:100EF0008A7B8093BC0060E084E10E94EC0360E0A8
:100F000085E10E94EC0310921414C0931314109204
:100F1000EE1361E084E10E94EC0361E085E10E9450
:100F2000EC038091B9008E7F8093B9008091B90065
:100F30008D7F8093B90088E48093B80085E4809326
:100F4000BC001093BA00D093B800DF91CF911F91ED
:100F50000895CF92DF92EF92FF920F931F93CF935A
:100F6000DF93EA01DC0111968D919C91DC01ED91FA
:100F7000FC910280F381E02D1995C817D90709F07B
:100F8000AAC0D0913D1491E0D13208F09CC0C0912C
:100F90003C140E9483056B017C0180911414811123
:100FA0006CC082E08093141481E0809313148FEF5F
:100FB0008093121410921114D0931014ACE1B4E188
:100FC000E0EFF3E180E0D81390C01092EF1380912E
:100FD000EF13CC0FC82BC093EF138091EE13813029
:100FE00009F087C01092EE130E9483056B017C010B
:100FF0008091EF138093BB00809116149091171489
:10100000A0911814B0911914892B8A2B8B2BA1F065
:101010000E94830500911614109117142091181442
:10102000309119146C197D098E099F09061717074D
:101030002807390708F442C08091BC0083FDD8CF4F
:1010400085EC8093BC000E9483056B017C0180913C
:101050001414823009F44FC08091121490E08F3F35
:1010600091F18091121492E0803269F18091121412
:1010700094E0803341F593E026C08091161490915E
:101080001714A0911814B0911914892B8A2B8B2B4B
:1010900009F483CF0E948305009116141091171450
:1010A00020911814309119146C197D098E099F092B
:1010B000061717072807390708F06FCF8091151416
:1010C0000E946A0795E010921B1410923D14109232
:1010D0001A1481E0911180E0DF91CF911F910F915F
:1010E000FF90EF90DF90CF9008959D9191938F5F47
:1010F0006ACF85EEA6CF8091161490911714A09117
:101100001814B0911914892B8A2B8B2B09F49FCFBB
:101110000E94830500911614109117142091181441
:10112000309119146C197D098E099F09061717074C
:101130002807390708F08BCFC1CF20919E0A260FD0
:101140003327331F21323105ECF420911414FC01B4
:1011500090E080E0243069F082E00895A0919E0A3A
:101160002191AC014258554FA40FB52FB11D2C93BE
:101170000196861798F380919E0A680F60939E0AE5
:1011800080E0089581E008950895E091CD13809165
:10119000CC13E81730F4F0E0E253FC4E808190E08D
:1011A00008958FEF9FEF08959091CD138091CC1308
:1011B0002FEF3FEF981748F4E92FF0E0E253FC4E91
:1011C000208130E09F5F9093CD13C90108958091F5
:1011D000CC139091CD13891B990B0895CF92DF9278
:1011E000EF92FF920F931F93CF93DF937C01CB017C
:1011F0008A0120911A14222389F0EB016B01C40E9D
:10120000D51ECC15DD0569F06991D701ED91FC91F2
:101210000190F081E02DC7011995F3CF642F0E9452
:101220009D08C801DF91CF911F910F91FF90EF9022
:10123000DF90CF900895CF93DF931F92CDB7DEB7A5
:10124000698320911A142223F9F020913D14203251
:1012500058F021E030E0FC013383228390E080E00D
:101260000F90DF91CF91089580911B14E82FF0E04B
:10127000E45EFB4E998190838F5F80931B14809373
:101280003D1481E090E0ECCF61E0CE0101960E9438
:101290009D08F7CF90E080E00895CF92DF92EF9223
:1012A000FF926091790A70917A0A80917B0A9091FD
:1012B0007C0A0E943C466B017C010E941A040E9439
:1012C0003C466C197D098E099F090E94DD432DEC77
:1012D0003CEC4CE251E40E94CA450E943C4697FF18
:1012E00003C060E070E0CB01FF90EF90DF90CF9003
:1012F00008950F931F93CF93DF932091780A2F5F68
:10130000322F37703093780A20FF2BC020E831FD50
:101310002064347009F02062205FFC01EC01239608
:1013200000E011E06485662329F070E0C8010E94A6
:1013300087466F5F6187322F369F030E30E0311D85
:101340001124311110C01682662311F0615061879B
:101350003196EC17FD0731F7DF91CF911F910F9177
:10136000089520E0D4CF31503683EECF4F925F9274
:101370007F928F929F92AF92BF92CF92DF92EF9225
:10138000FF920F931F93CF93DF932C01EB010E94E9
:101390008305F20127853089621B730B6A30710562
:1013A000B0F3F8948A819B81181619060CF0CDC110
:1013B000E881F98164B3862E689485F834B33F7D63
:1013C00034BBD9848E812D2D281B822F2E834F85EF
:1013D000042E000C550BAA81BB817C85FD84EE8414
:1013E0007F5FF394E3949F819884BA84AB841081E7
:1013F000C12C6C2D0C2D2C2D2081112788942111AE
:10140000280F08F42FEF8195889470FD120F17951F
:10141000889471FD120F1795889472FD120F17951D
:10142000889473FD120F1795889474FD120F179509
:10143000889475FD120F1795889476FD120F1795F5
:10144000889477FD120F17958894622F7111612F80
:101450008D0D162F002C84BA00C017FF34BB2181DC
:101460006627889400C000C0002C34BB2111290FCE
:1014700000C0002C84BA00C016FF34BB08F42FEF64
:101480009195889400C000C0002C34BBF0FC620F22
:1014900000C0002C84BA00C015FF34BB6795889447
:1014A000F1FC620F00C000C0002C34BB679588942B
:1014B00000C0002C84BA00C014FF34BBF2FC620FE1
:1014C0006795889400C000C0002C34BBF3FC620F09
:1014D00000C0002C84BA00C013FF34BB6795889409
:1014E000F4FC620F00C000C0002C34BB67958894E8
:1014F00000C0002C84BA00C012FF34BBF5FC620FA0
:101500006795889400C000C0002C34BBF6FC620FC5
:1015100000C0002C84BA00C011FF34BB67958894CA
:10152000F7FC620F00C000C0002C34BB67958894A4
:1015300000C0002C84BA00C010FF34BB122FF11081
:10154000162F9B0D00C000C0002C34BB00C000C093
:10155000002C84BA00C017FF34BB22816627889410
:1015600000C000C0002C34BB2111290D00C0002C8C
:1015700084BA00C016FF34BB08F42FEFE40FF51F48
:1015800000C000C0002C34BBE0FC620F00C0002C87
:1015900084BA00C015FF34BB67958894E1FC620FE4
:1015A00000C000C0002C34BB6795889400C0002C9C
:1015B00084BA00C014FF34BBE2FC620F67958894C4
:1015C00000C000C0002C34BBE3FC620F00C0002C44
:1015D00084BA00C013FF34BB67958894E4FC620FA3
:1015E00000C000C0002C34BB6795889400C0002C5C
:1015F00084BA00C012FF34BBE5FC620F6795889483
:1016000000C000C0002C34BBE6FC620F00C0002C00
:1016100084BA00C011FF34BB67958894E7FC620F61
:1016200000C000C0002C34BB6795889400C0002C1B
:1016300084BA00C010FF34BB122FE110162F919412
:1016400000C000C0002C34BB9A0C00C000C084BA9B
:1016500000C017FF34BB20816627889400C000C0FB
:10166000002C34BB2111280F00C0002C84BA00C00C
:1016700016FF34BB08F42FEF8195889400C000C09A
:10168000002C34BB70FD620F00C0002C84BA00C077
:1016900015FF34BB6795889471FD620F00C000C0D0
:1016A000002C34BB6795889400C0002C84BA00C01D
:1016B00014FF34BB72FD620F6795889400C000C0B0
:1016C000002C34BB73FD620F00C0002C84BA00C034
:1016D00013FF34BB6795889474FD620F00C000C08F
:1016E000002C34BB6795889400C0002C84BA00C0DD
:1016F00012FF34BB75FD620F6795889400C000C06F
:10170000002C34BB76FD620F00C0002C84BA00C0F0
:1017100011FF34BB6795889477FD620F00C000C04D
:10172000002C34BB6795889400C0002C84BA00C09C
:1017300010FF34BB122F7111162F8D0D00C000C089
:10174000002C34BB119709F086CE4A815B8120EED4
:1017500031E0DA010E94A346DC01CB01F4E0B6954A
:10176000A79597958795FA95D1F730E020E0B901D4
:10177000EAE94E9F040E611D5E9F600D711D1124EC
:10178000650F711D860F971FA11DB11D893E43E096
:101790009407A105B10508F434C0885E9340A109FF
:1017A000B10942E0B695A795979587954A95D1F7E7
:1017B00047E0849F080E211D949F200D311D1124A8
:1017C000290F311D6091770A70E0860F971F820FF5
:1017D000931F4091C20A5091C30A6091C40A70914C
:1017E000C50A292F3327420F531F611D711D4093D6
:1017F000C20A5093C30A6093C40A7093C50A8093C7
:10180000770A78940E948305F201708B6787DF91D5
:10181000CF911F910F91FF90EF90DF90CF90BF90ED
:10182000AF909F908F907F905F904F90089581E050
:1018300090E008959D9A08956F927F928F92CF9233
:10184000DF92EF92FF920F931F93CF93DF93CDB769
:10185000DEB762970FB6F894DEBF0FBECDBF6C0146
:101860007A013801822EDC011C962C91CA0157FFA7
:1018700004C088279927841B950B7A8369839C83EE
:101880008B839E838D836D867E868F86213049F57E
:10189000CE0101960E94790983E0888B1A8A198A01
:1018A000F7FE02C08DEF888BD601ED91FC91068486
:1018B000F785E02DBE016F5F7F4FC60119956296D7
:1018C0000FB6F894DEBF0FBECDBFDF91CF911F9151
:1018D0000F91FF90EF90DF90CF908F907F906F905F
:1018E00008951C861B861A86198618861F82D4CFF7
:1018F000EF92FF920F931F93CF93DF93CDB7DEB795
:1019000062970FB6F894DEBF0FBECDBF7C01DC013D
:101910001C968C917A8369835C834B835E834D83B1
:101920000D871E872F878130F9F4CE0101960E9422
:101930007909188A1A8A198AD701ED91FC910684CF
:10194000F785E02DBE016F5F7F4FC7011995629645
:101950000FB6F894DEBF0FBECDBFDF91CF911F91C0
:101960000F91FF90EF9008951C861B861A861986AA
:1019700018861F82DECFCF93DF9300D0CDB7DEB7BE
:1019800019821A821B82CE0101960E94E5010E94F3
:1019900011060F900F900F90DF91CF910895CF9384
:1019A000DF9300D0CDB7DEB769838A834B83CE0146
:1019B00001960E94E5010E9411060F900F900F9072
:1019C000DF91CF91089590E080E00895FC01858536
:1019D000968508950F931F93CF93DF9300D0CDB7D3
:1019E000DEB7AB0119821A821B82DC01ED91FC91FA
:1019F0000190F081E02D00E010E020E0BE016F5F7B
:101A00007F4F19950F900F900F90DF91CF911F91FD
:101A10000F9108951092FB0A1092FA0A0895CF933D
:101A2000DF93CBE2D2E060E089910E94EC0382E098
:101A3000CF33D807C1F7DF91CF910895CF93DF93CC
:101A4000C2E2D2E060E089910E94EC0382E0CB32F6
:101A5000D807C1F7DF91CF910895BC0186E894E1E2
:101A60000E9424020E940E030E940E030C940E0397
:101A7000CF93DF93EC0188819981009711F00E9448
:101A80005A47198218821D821C821B821A82DF919A
:101A9000CF910895FC0180819181009711F00C9401
:101AA0005A470895CF93DF93EC010C960E944A0D9C
:101AB000CE0106960E944A0DCE01DF91CF910C9483
:101AC0004A0DCF93DF9300D0CDB7DEB719828A835A
:101AD0006B8380919A1690919B16FC01248135812D
:101AE0002330310588F0208131E030931A1420939F
:101AF0003C1410921B1410923D1443E050E0BE01C0
:101B00006F5F7F4F0E94A9070F900F900F90DF919A
:101B1000CF9108953F924F925F926F927F928F92F2
:101B20009F92AF92BF92CF92DF92EF92FF920F936C
:101B30001F93CF93DF931F921F92CDB7DEB7198209
:101B40008A8380919A1690919B16DC0114962D91B0
:101B50003C9115972230310588F02C9131E030937B
:101B60001A1420933C1410921B1410923D1442E05E
:101B700050E0BE016F5F7F4F0E94A907E0909A1668
:101B8000F0909B16DD24D394AA24AA9485EEC82E47
:101B900095ECB92E01E0F70184819581892B09F438
:101BA00000E0802E912CD7013C900E9483052B01F0
:101BB0003C0180911414811164C0102FD092141430
:101BC00000931314A0921214109211148FEF800F2F
:101BD00080931014D092EF138091EF13330C382AB6
:101BE0003092EF138091EE13813009F08CC0109287
:101BF000EE130E9483052B013C018091EF1380932B
:101C0000BB008091161490911714A0911814B091F4
:101C10001914892B8A2B8B2BA1F00E94830520910C
:101C20001614309117144091181450911914641916
:101C3000750986099709261737074807590708F4D1
:101C400041C08091BC0083FDD8CFB092BC000E94FF
:101C500083052B013C0180911414813009F456C096
:101C600080911114801710F410911114E0EFF3E13A
:101C7000AEECB3E180E0811751F191919D938F5FBC
:101C8000FACF8091161490911714A0911814B09166
:101C90001914892B8A2B8B2B09F48BCF0E94830577
:101CA0002091161430911714409118145091191462
:101CB00064197509860997092617370748075907D0
:101CC00008F077CF809115140E946A0710E01092F7
:101CD000CD131093CC13012F10E008151905D9F579
:101CE00090E080E08017910798F5F701818192815B
:101CF000DC01ED91FC910284F385E02D1995898337
:101D000081E090E0EFCFC092BC00A1CF809116148B
:101D100090911714A0911814B0911914892B8A2B43
:101D20008B2B09F498CF0E948305209116143091D3
:101D300017144091181450911914641975098609E3
:101D40009709261737074807590708F084CFBACFF5
:101D5000012B09F41FCF89810F900F90DF91CF9154
:101D60001F910F91FF90EF90DF90CF90BF90AF90B9
:101D70009F908F907F906F905F904F903F900895CD
:101D8000CF938DE490E00E948A0D80FFFACF61E04E
:101D900088E190E00E94610D8FE490E00E948A0D3E
:101DA00082FFFACF82E690E00E948A0DC82F67E09A
:101DB00085E190E00E94610D8C2FCF9108958F9264
:101DC0009F92AF92BF92CF92DF92EF92FF92CF930A
:101DD000DF93C82FC12CD12C7601D0E00E941A04C9
:101DE0004B015C01C701B6010E94DD43A5019401CE
:101DF0000E945E450E943C466B017C01DF5FCD1373
:101E0000EDCF2C2F30E050E040E00E94FA44CA01B0
:101E1000B9010E94DD436093790A70937A0A809336
:101E20007B0A90937C0ADF91CF91FF90EF90DF9037
:101E3000CF90BF90AF909F908F900895FC0101903C
:101E40000020E9F73197AF01481B590BBC0180EC2A
:101E500095E10C94F7018F929F92AF92BF920F93EE
:101E60001F93CF93DF93CDB7DEB7A1970FB6F8944A
:101E7000DEBF0FBECDBF19A2423008F44AE08E018A
:101E80000F5D1F4F842E912CB12CA12CA501940124
:101E90000E942C45E62FB901CA01EA30F4F4E05D56
:101EA000D801EE938D01232B242B252B79F790E07D
:101EB00080E0109719F0CD010E941E0FA1960FB679
:101EC000F894DEBF0FBECDBFDF91CF911F910F9170
:101ED000BF90AF909F908F900895E95CE1CFCF9233
:101EE000DF92EF92FF92CF93DF936C01990FEE0890
:101EF000FF08F7FE19C06DE280EC95E10E94C10277
:101F0000EC0166277727CB016C197D098E099F09A3
:101F10004AE00E942B0F8C0F9D1FDF91CF91FF9005
:101F2000EF90DF90CF9008954AE0C701B601DF91AE
:101F3000CF91FF90EF90DF90CF900C942B0F0C94EB
:101F40001E0FCF93DF93682F70E090E080E04AE0AF
:101F50000E942B0FEC0187E792E00E941E0F8C0F6E
:101F60009D1FDF91CF910895CF93DF93BC0180EC4B
:101F700095E10E942402EC0187E792E00E941E0F87
:101F80008C0F9D1FDF91CF910895CF93DF930E9417
:101F90001E0FEC0187E792E00E941E0F8C0F9D1F21
:101FA000DF91CF910895865D9D4F61E0FC018081B6
:101FB0000C94EC03865D9D4F60E0FC0180810C94E5
:101FC000EC038F5D9D4F60E0FC0180810C94EC037D
:101FD0001F93CF93DF93C62FD0E00197FC01EE5DF6
:101FE000FD4F10818630910538F4642F845E9D4F3B
:101FF000FC0180810E94EC03BE01812FDF91CF9113
:102000001F910C949104CF93DF930E946F0FEC010A
:1020100087E792E00E941E0F8C0F9D1FDF91CF91EA
:1020200008950F931F93CF93DF938091FB0A811143
:10203000A8C08091FA0A8111A4C064E670E080E033
:1020400090E00E94A805C1E0D0E000E510E08DE33B
:102050000E9468059093F70A8093F60A8AE792E057
:102060000E949F0F8091F60A9091F70A0E94031038
:102070008091F60A9091F70A8139914064F58FE0DA
:1020800090E00E94DA0F81E090E00E94E10F8EE084
:1020900090E00E94DA0F64EF71E080E090E00E942F
:1020A000A80585E090E00E94D30F60E971E080E030
:1020B00090E00E94A80589E090E00E94D30F8DE097
:1020C00090E00E94DA0F85E090E0DF91CF911F91C0
:1020D0000F910C94E10FCE01B8010E948746892B25
:1020E000F1F481E090E00E94E10F64E670E080E0AE
:1020F00090E00E94A8058DE090E00E94D30F64EF6D
:1021000071E080E090E00E94A8058DE090E00E94E0
:10211000DA0F6CE271E080E090E00E94A805CA3F0F
:10212000D10531F581E090E00E94E10F68EC70E0AC
:1021300080E090E00E94A8058FE090E00E94D30F1D
:1021400068EC70E080E090E00E94A8058EE090E0EE
:102150000E94DA0F6CE271E080E090E00E94A80536
:102160008FE090E00E94DA0F81E08093FB0AABCF12
:1021700050E040E062E881E090E00E94E80F2196A4
:1021800066CFDF91CF911F910F910895CF93DF9389
:10219000DC011496ED91FC916E177F0710F59F01FD
:1021A000261B370B4217530708F49A01DB01EC0199
:1021B00088819981E21BF30BFD83EC83AF01461B01
:1021C000570B260F371FBC01620F731F8A0F9B1F0F
:1021D0000E94F048E881F9818C819D81E80FF91F08
:1021E0001082DF91CF9108950E94C448CF93DF936E
:1021F000FC01248135814217530788F4C081D181C5
:10220000FB0160817181CE01840F951F0E94FF4800
:10221000009729F08C1B9D0BDF91CF9108958FEFD4
:102220009FEFFACFFB0144815581FC012481358168
:102230002417350778F080819181009759F0FB01D0
:10224000608171816115710529F00E94E24821E0E9
:10225000892B09F020E0822F08950F931F93CF93CD
:10226000DF938C01EB01FC01808191810097E1F00B
:102270006881798161157105A9F0428153812C81B2
:102280003D814217530770F00E94DB488C819D818D
:10229000F801958384831D821C82DF91CF911F9169
:1022A0000F9108950E945A4788819981F80191837E
:1022B00080838A819B81938382838C819D81958396
:1022C0008483198218821B821A82E5CF0F931F9391
:1022D000CF93DF93EC0188819981009759F02A818F
:1022E0003B812617370730F081E0DF91CF911F91B6
:1022F0000F9108958B016F5F7F4F0E94E347009716
:1023000059F0998388831B830A832C813D81232B79
:1023100059F7FC011082E8CF80E0E7CFEF92FF92FF
:102320000F931F93CF93DF936115710541F480E004
:10233000DF91CF911F910F91FF90EF90089541157C
:102340005105B1F07B01EC010C811D81040F151FBB
:10235000B8010E946611882351F3288139818C814C
:102360009D81B701820F931F0E94DB481D830C8360
:1023700081E0DECFCF93DF93EC01FB0101900020E1
:10238000E9F73197AF01461B570B0E948E1181115F
:1023900003C0CE010E94380DCE01DF91CF91089588
:1023A000CF93DF93EC01FB01448155816081718102
:1023B0000E948E11811103C0CE010E94380DCE0102
:1023C000DF91CF910895EF92FF920F931F93CF93D8
:1023D000DF93EC017B018A01BA010E946611811131
:1023E0000BC0CE010E94380DCE01DF91CF911F911D
:1023F0000F91FF90EF9008951D830C83B7018881A2
:1024000099810E94DB48F0CFFB0101900020E9F7A1
:102410003197AF01461B570B0C94E3110F931F9399
:10242000CF93DF93CDB7DEB762970FB6F894DEBFD8
:102430000FBECDBF8C01CB01F80111821082138237
:102440001282158214824AE0BE016F5F7F4F0E94A4
:10245000A143BE016F5F7F4FC8010E9404126296C4
:102460000FB6F894DEBF0FBECDBFDF91CF911F91A5
:102470000F910895CF93DF93EC01FB018617970727
:1024800049F0608171816115710541F04481558188
:102490000E94E311CE01DF91CF9108950E94380D83
:1024A000F9CFFC01118210821382128215821482EC
:1024B0000C943A120F931F93CF93DF93CDB7DEB7EF
:1024C0002C970FB6F894DEBF0FBECDBF8C01CE01A6
:1024D00007960E940E12B801CE0101960E94511279
:1024E00061E972E0CE0101960E94BA11B8016A5FFB
:1024F0007F4F0E94D01163E972E00E94BA11BE01C1
:10250000695F7F4F0E94D011BC0186E894E10E9470
:102510002402CE0101960E944A0DCE0107960E9428
:102520004A0D0E940E030E940E030E940E032C9679
:102530000FB6F894DEBF0FBECDBFDF91CF911F91D4
:102540000F9108950F931F93CF93DF93CDB7DEB70D
:102550002C970FB6F894DEBF0FBECDBF8C0170E094
:10256000CE0107960E940E12B801CE0101960E947C
:10257000511261E972E0CE0101960E94BA11B801D0
:102580006A5F7F4F0E94D01163E972E00E94BA1126
:10259000BE01695F7F4F0E94D011BC0186E894E1C3
:1025A0000E942402CE0101960E944A0DCE01079698
:1025B0000E944A0D0E940E030E940E030E940E0309
:1025C0002C960FB6F894DEBF0FBECDBFDF91CF9132
:1025D0001F910F910895FC011182108213821282C3
:1025E00015821482FB0101900020E9F73197AF01B9
:1025F000461B570B0C94E311AF92BF92CF92DF9220
:10260000EF92FF920F931F93CF93DF936C015B01C7
:102610007A0189012417350720F48F2D7901042FC1
:10262000182F69E772E0C6010E94EB12D5011496DB
:10263000CD91DC91EC16FD06E0F40C171D0708F4B3
:10264000E801D501ED91FC911197EC0FFD1F108170
:1026500010826D917C916E0D7F1DC6016115710513
:10266000A1F00E940412F50180819181C80FD91F49
:102670001883C601DF91CF911F910F91FF90EF90CA
:10268000DF90CF90BF90AF9008950E94380DEBCFB0
:10269000CF92DF92EF92FF920F931F93CF93DF932E
:1026A0001F921F92CDB7DEB78C016B01E42E69E754
:1026B00072E00E94EB12C6010E94E7050E2C000C8E
:1026C000FF0897FD11C0E816F90671F089831A8298
:1026D00041E050E0BE016F5F7F4FC8010E948E1144
:1026E000C6010E94E705EDCFC8010F900F90DF9162
:1026F000CF911F910F91FF90EF90DF90CF900895B1
:10270000CF92DF92EF92FF92CF93DF93CDB7DEB7F8
:1027100062970FB6F894DEBF0FBECDBF69E772E0D7
:10272000CE0107960E94EB1269E972E0CE010D9688
:102730000E94EB12BE01635F7F4F86E894E10E9426
:1027400024020E940E030E940E030E940E030E94A8
:10275000DB056B017C010E94DB056C197D098E098C
:102760009F09693E734081059105A0F586E894E1D3
:102770000E947502892BF1F04DEA52E066E874E19F
:10278000CE0101960E944813BE016F5F7F4FCE01BC
:1027900007960E942D11CE0101960E944A0D86E8EF
:1027A00094E10E947502892BA9F086E894E10E94C9
:1027B0005302F5CF0E94DB056C197D098E099F0934
:1027C000683E73408105910530F28FEA92E00E94E5
:1027D000C50FC1CF41E050E070E060E0CE01079648
:1027E0000E94C6106B857C85635071094FEF5FEFC7
:1027F000CE0107960E94C610BE01695F7F4F86EC2E
:1028000093E10E943A1263EC72E0CE010D960E94B1
:102810000412BE01635F7F4F86E894E10E942402A8
:102820000E940E030E940E030E940E030E94DB050D
:102830006B017C010E94DB056C197D098E099F09E3
:10284000693E734081059105A0F586E894E10E94F8
:102850007502892BF1F04DEA52E066E874E1CE0191
:1028600001960E944813BE016F5F7F4FCE0107960D
:102870000E942D11CE0101960E944A0D86E894E136
:102880000E947502892BA9F086E894E10E94530208
:10289000F5CF0E94DB056C197D098E099F09683E02
:1028A00073408105910530F28FEA92E00E94C50FD6
:1028B000C1CF41E050E070E060E0CE0107960E9499
:1028C000C6106B857C85635071094FEF5FEFCE01B9
:1028D00007960E94C610BE01695F7F4F80EC93E1AE
:1028E0000E943A12CE010D960E944A0DCE01079623
:1028F0000E944A0D62960FB6F894DEBF0FBECDBFA0
:10290000DF91CF91FF90EF90DF90CF9008950F93DC
:102910001F93CF93DF93EC018A010E945112B801FB
:10292000CE0106960E9451122C9669E772E0CE0104
:102930000E94EB1269E772E0CE01DF91CF911F9107
:102940000F910C940412CF93DF93CDB7DEB72C9781
:102950000FB6F894DEBF0FBECDBF019711F00C94F7
:10296000422069E772E086EC93E10E94EB1269E78E
:1029700072E080EC93E10E94EB1267ED72E0CE0111
:1029800001960E94EB126BED72E0CE0107960E9459
:10299000EB12AE014F5F5F4FBE01695F7F4F8AEA66
:1029A00093E10E948714CE0107960E944A0DCE0142
:1029B00001960E944A0D61EE72E0CE0101960E94DE
:1029C000EB126BED72E0CE0107960E94EB12AE01A6
:1029D0004F5F5F4FBE01695F7F4F84E993E10E94C3
:1029E0008714CE0107960E944A0DCE0101960E94DF
:1029F0004A0D65EE72E0CE0101960E94EB126BED7E
:102A000072E0CE0107960E94EB12AE014F5F5F4F5E
:102A1000BE01695F7F4F8EE793E10E948714CE016C
:102A200007960E944A0DCE0101960E944A0D69EE5A
:102A300072E0CE0101960E94EB126BED72E0CE01C6
:102A400007960E94EB12AE014F5F5F4FBE01695FB8
:102A50007F4F88E693E10E948714CE0107960E947B
:102A60004A0DCE0101960E944A0D6DEE72E0CE0134
:102A700001960E94EB126BED72E0CE0107960E9468
:102A8000EB12AE014F5F5F4FBE01695F7F4F82E582
:102A900093E10E948714CE0107960E944A0DCE0151
:102AA00001960E944A0D61EF72E0CE0101960E94EC
:102AB000EB126BED72E0CE0107960E94EB12AE01B5
:102AC0004F5F5F4FBE01695F7F4F8CE393E10E94D0
:102AD0008714CE0107960E944A0DCE0101960E94EE
:102AE0004A0D65EF72E0CE0101960E94EB126BED8C
:102AF00072E0CE0107960E94EB12AE014F5F5F4F6E
:102B0000BE01695F7F4F86E293E10E948714CE0188
:102B100007960E944A0DCE0101960E944A0D69EF68
:102B200072E0CE0101960E94EB126BED72E0CE01D5
:102B300007960E94EB12AE014F5F5F4FBE01695FC7
:102B40007F4F80E193E10E948714CE0107960E9497
:102B50004A0DCE0101960E944A0D6DEF72E0CE0142
:102B600001960E94EB126BED72E0CE0107960E9477
:102B7000EB12AE014F5F5F4FBE01695F7F4F8AEF7F
:102B800092E10E948714CE0107960E944A0DCE0161
:102B900001960E944A0D63E073E0CE0101960E9407
:102BA000EB126BED72E0CE0107960E94EB12AE01C4
:102BB0004F5F5F4FBE01695F7F4F84EE92E10E94DD
:102BC0008714CE0107960E944A0DCE0101960E94FD
:102BD0004A0D6FE073E0CE0101960E94EB126BED9F
:102BE00072E0CE0107960E94EB12AE014F5F5F4F7D
:102BF000BE01695F7F4F8EEC92E10E948714CE0187
:102C000007960E944A0DCE0101960E944A0D65E189
:102C100073E0CE0101960E94EB126BED72E0CE01E3
:102C200007960E94EB12AE014F5F5F4FBE01695FD6
:102C30007F4F88EB92E10E948714CE0107960E9495
:102C40004A0DCE0101960E944A0D6EE173E0CE015D
:102C500001960E94EB126BED72E0CE0107960E9486
:102C6000EB12AE014F5F5F4FBE01695F7F4F82EA9B
:102C700092E10E948714CE0107960E944A0DCE0170
:102C800001960E944A0D65E273E0CE0101960E9412
:102C9000EB126BED72E0CE0107960E94EB12AE01D3
:102CA0004F5F5F4FBE01695F7F4F8CE892E10E94EA
:102CB0008714CE0107960E944A0DCE0101960E940C
:102CC0004A0D6DE273E0CE0101960E94EB126BEDAE
:102CD00072E0CE0107960E94EB12AE014F5F5F4F8C
:102CE000BE01695F7F4F86E792E10E948714CE01A3
:102CF00007960E944A0DCE0101960E944A0D67E395
:102D000073E0CE0101960E94EB126BED72E0CE01F2
:102D100007960E94EB12AE014F5F5F4FBE01695FE5
:102D20007F4F80E692E10E948714CE0107960E94B1
:102D30004A0DCE0101960E944A0D6FE373E0CE0169
:102D400001960E94EB126BED72E0CE0107960E9495
:102D5000EB12AE014F5F5F4FBE01695F7F4F8AE4A8
:102D600092E10E948714CE0107960E944A0DCE017F
:102D700001960E944A0D66E473E0CE0101960E941E
:102D8000EB126BED72E0CE0107960E94EB12AE01E2
:102D90004F5F5F4FBE01695F7F4F84E392E10E9406
:102DA0008714CE0107960E944A0DCE0101960E941B
:102DB0004A0D6EE473E0CE0101960E94EB1261E5CC
:102DC00078E0CE0107960E94EB12AE014F5F5F4F95
:102DD000BE01695F7F4F8EE192E10E948714CE01B0
:102DE00007960E944A0DCE0101960E944A0D66E5A3
:102DF00073E0CE0101960E94EB1261E578E0CE010E
:102E000007960E94EB12AE014F5F5F4FBE01695FF4
:102E10007F4F88E092E10E948714CE0107960E94BE
:102E20004A0DCE0101960E944A0D6DE573E0CE0178
:102E300001960E94EB126BE578E0CE0107960E94A6
:102E4000EB12AE014F5F5F4FBE01695F7F4F82EFB4
:102E500091E10E948714CE0107960E944A0DCE018F
:102E600001960E944A0D69E673E0CE0101960E9428
:102E7000EB126BE578E0CE0107960E94EB12AE01F3
:102E80004F5F5F4FBE01695F7F4F8CED91E10E9404
:102E90008714CE0107960E944A0DCE0101960E942A
:102EA0004A0D65E773E0CE0101960E94EB126BE5D7
:102EB00078E0CE0107960E94EB12AE014F5F5F4FA4
:102EC000BE01695F7F4F86EC91E10E948714CE01BD
:102ED00007960E944A0DCE0101960E944A0D61E8B4
:102EE00073E0CE0101960E94EB126BE578E0CE0113
:102EF00007960E94EB12AE014F5F5F4FBE01695F04
:102F00007F4F80EB91E10E948714CE0107960E94CB
:102F10004A0DCE0101960E944A0D6DE873E0CE0184
:102F200001960E94EB126BE578E0CE0107960E94B5
:102F3000EB12AE014F5F5F4FBE01695F7F4F8AE9C1
:102F400091E10E948714CE0107960E944A0DCE019E
:102F500001960E944A0D6CE973E0CE0101960E9431
:102F6000EB126BE578E0CE0107960E94EB12AE0102
:102F70004F5F5F4FBE01695F7F4F84E891E10E9420
:102F80008714CE0107960E944A0DCE0101960E9439
:102F90004A0D67EA73E0CE0101960E94EB126BE5E1
:102FA00078E0CE0107960E94EB12AE014F5F5F4FB3
:102FB000BE01695F7F4F8EE691E10E948714CE01CA
:102FC00007960E944A0DCE0101960E944A0D62EBBF
:102FD00073E0CE0101960E94EB126BE578E0CE0122
:102FE00007960E94EB12AE014F5F5F4FBE01695F13
:102FF0007F4F88E591E10E948714CE0107960E94D9
:103000004A0DCE0101960E944A0D6DEB73E0CE0190
:1030100001960E94EB126BE578E0CE0107960E94C4
:10302000EB12AE014F5F5F4FBE01695F7F4F82E4DD
:1030300091E10E948714CE0107960E944A0DCE01AD
:1030400001960E944A0D68EC73E0CE0101960E9441
:10305000EB126BE578E0CE0107960E94EB12AE0111
:103060004F5F5F4FBE01695F7F4F8CE291E10E942D
:103070008714CE0107960E944A0DCE0101960E9448
:103080004A0D63ED73E0CE0101960E94EB126BE5F1
:1030900078E0CE0107960E94EB12AE014F5F5F4FC2
:1030A000BE01695F7F4F86E191E10E948714CE01E6
:1030B00007960E944A0DCE0101960E944A0D6EEDC0
:1030C00073E0CE0101960E94EB126BE578E0CE0131
:1030D00007960E94EB12AE014F5F5F4FBE01695F22
:1030E0007F4F80E091E10E948714CE0107960E94F5
:1030F0004A0DCE0101960E944A0D69EE73E0CE01A1
:1031000001960E94EB126BE578E0CE0107960E94D3
:10311000EB12AE014F5F5F4FBE01695F7F4F8AEEDA
:1031200090E10E948714CE0107960E944A0DCE01BD
:1031300001960E944A0D64EF73E0CE0101960E9451
:10314000EB126BE578E0CE0107960E94EB12AE0120
:103150004F5F5F4FBE01695F7F4F84ED90E10E943A
:103160008714CE0107960E944A0DCE0101960E9457
:103170004A0D6FEF73E0CE0101960E94EB126BE5F2
:1031800078E0CE0107960E94EB12AE014F5F5F4FD1
:10319000BE01695F7F4F8EEB90E10E948714CE01E4
:1031A00007960E944A0DCE0101960E944A0D66E5DF
:1031B00073E0CE0101960E94EB126BE578E0CE0140
:1031C00007960E94EB12AE014F5F5F4FBE01695F31
:1031D0007F4F88EA90E10E948714CE0107960E94F3
:1031E0004A0DCE0101960E944A0D6AE074E0CE01BC
:1031F00001960E94EB126BE578E0CE0107960E94E3
:10320000EB12AE014F5F5F4FBE01695F7F4F82E9F6
:1032100090E10E948714CE0107960E944A0DCE01CC
:1032200001960E944A0D64E174E0CE0101960E946D
:10323000EB126BE578E0CE0107960E94EB12AE012F
:103240004F5F5F4FBE01695F7F4F8CE790E10E9447
:103250008714CE0107960E944A0DCE0101960E9466
:103260004A0D6FE174E0CE0101960E94EB126BE50E
:1032700078E0CE0107960E94EB12AE014F5F5F4FE0
:10328000BE01695F7F4F86E690E10E948714CE0100
:1032900007960E944A0DCE0101960E944A0D66E2F1
:1032A00074E0CE0101960E94EB1264E678E0CE0154
:1032B00007960E94EB12AE014F5F5F4FBE01695F40
:1032C0007F4F80E590E10E948714CE0107960E940F
:1032D0004A0DCE0101960E944A0D6AE274E0CE01C9
:1032E00001960E94EB1264E678E0CE0107960E94F8
:1032F000EB12AE014F5F5F4FBE01695F7F4F8AE304
:1033000090E10E948714CE0107960E944A0DCE01DB
:1033100001960E944A0D6EE274E0CE0101960E9471
:10332000EB1264E678E0CE0107960E94EB12AE0144
:103330004F5F5F4FBE01695F7F4F84E290E10E9463
:103340008714CE0107960E944A0DCE0101960E9475
:103350004A0D62E374E0CE0101960E94EB1264E62E
:1033600078E0CE0107960E94EB12AE014F5F5F4FEF
:10337000BE01695F7F4F8EE090E10E948714CE010D
:1033800007960E944A0DCE0101960E944A0D66E3FF
:1033900074E0CE0101960E94EB1264E678E0CE0163
:1033A00007960E94EB12AE014F5F5F4FBE01695F4F
:1033B0007F4F88EF9FE00E948714CE0107960E94FE
:1033C0004A0DCE0101960E944A0D6AE374E0CE01D7
:1033D00001960E94EB1264E678E0CE0107960E9407
:1033E000EB12AE014F5F5F4FBE01695F7F4F82EE10
:1033F0009FE00E948714CE0107960E944A0DCE01DD
:1034000001960E944A0D6EE374E0CE0101960E947F
:10341000EB1264E678E0CE0107960E94EB12AE0153
:103420004F5F5F4FBE01695F7F4F8CEC9FE00E9452
:103430008714CE0107960E944A0DCE0101960E9484
:103440004A0D62E474E0CE0101960E94EB1264E63C
:1034500078E0CE0107960E94EB12AE014F5F5F4FFE
:10346000BE01695F7F4F86EB9FE00E948714CE010B
:1034700007960E944A0DCE0101960E944A0D66E40D
:1034800074E0CE0101960E94EB1264E678E0CE0172
:1034900007960E94EB12AE014F5F5F4FBE01695F5E
:1034A0007F4F80EA9FE00E948714CE0107960E941A
:1034B0004A0DCE0101960E944A0D6AE474E0CE01E5
:1034C00001960E94EB1264E678E0CE0107960E9416
:1034D000EB12AE014F5F5F4FBE01695F7F4F8AE81D
:1034E0009FE00E948714CE0107960E944A0DCE01EC
:1034F00001960E944A0D6FE474E0CE0101960E948D
:10350000EB1264E678E0CE0107960E94EB12AE0162
:103510004F5F5F4FBE01695F7F4F84E79FE00E946E
:103520008714CE0107960E944A0DCE0101960E9493
:103530004A0D64E574E0CE0101960E94EB1264E648
:1035400078E0CE0107960E94EB12AE014F5F5F4F0D
:10355000BE01695F7F4F8EE59FE00E948714CE0118
:1035600007960E944A0DCE0101960E944A0D69E518
:1035700074E0CE0101960E94EB1264E678E0CE0181
:1035800007960E94EB12AE014F5F5F4FBE01695F6D
:103590007F4F88E49FE00E948714CE0107960E9427
:1035A0004A0DCE0101960E944A0D6EE574E0CE01EF
:1035B00001960E94EB1264E678E0CE0107960E9425
:1035C000EB12AE014F5F5F4FBE01695F7F4F82E339
:1035D0009FE00E948714CE0107960E944A0DCE01FB
:1035E00001960E944A0D63E674E0CE0101960E94A6
:1035F000EB1264E678E0CE0107960E94EB12AE0172
:103600004F5F5F4FBE01695F7F4F8CE19FE00E947B
:103610008714CE0107960E944A0DCE0101960E94A2
:103620004A0D68E674E0CE0101960E94EB1264E652
:1036300078E0CE0107960E94EB12AE014F5F5F4F1C
:10364000BE01695F7F4F86E09FE00E948714CE0134
:1036500007960E944A0DCE0101960E944A0D6DE622
:1036600074E0CE0101960E94EB1264E678E0CE0190
:1036700007960E94EB12AE014F5F5F4FBE01695F7C
:103680007F4F80EF9EE00E948714CE0107960E9434
:103690004A0DCE0101960E944A0D62E774E0CE0108
:1036A00001960E94EB1264E678E0CE0107960E9434
:1036B000EB12AE014F5F5F4FBE01695F7F4F8AED36
:1036C0009EE00E948714CE0107960E944A0DCE010B
:1036D00001960E944A0D67E774E0CE0101960E94B0
:1036E000EB1264E678E0CE0107960E94EB12AE0181
:1036F0004F5F5F4FBE01695F7F4F84EC9EE00E9489
:103700008714CE0107960E944A0DCE0101960E94B1
:103710004A0D6CE774E0CE0101960E94EB1264E65C
:1037200078E0CE0107960E94EB12AE014F5F5F4F2B
:10373000BE01695F7F4F8EEA9EE00E948714CE0132
:1037400007960E944A0DCE0101960E944A0D61E83B
:1037500074E0CE0101960E94EB1264E678E0CE019F
:1037600007960E94EB12AE014F5F5F4FBE01695F8B
:103770007F4F88E99EE00E948714CE0107960E9441
:103780004A0DCE0101960E944A0D66E874E0CE0112
:1037900001960E94EB1264E678E0CE0107960E9443
:1037A000EB12AE014F5F5F4FBE01695F7F4F82E852
:1037B0009EE00E948714CE0107960E944A0DCE011A
:1037C00001960E944A0D6BE874E0CE0101960E94BA
:1037D000EB1264E678E0CE0107960E94EB12AE0190
:1037E0004F5F5F4FBE01695F7F4F8CE69EE00E9496
:1037F0008714CE0107960E944A0DCE0101960E94C1
:103800004A0D60E974E0CE0101960E94EB1264E675
:1038100078E0CE0107960E94EB12AE014F5F5F4F3A
:10382000BE01695F7F4F86E59EE00E948714CE014E
:1038300007960E944A0DCE0101960E944A0D65E945
:1038400074E0CE0101960E94EB1264E678E0CE01AE
:1038500007960E94EB12AE014F5F5F4FBE01695F9A
:103860007F4F80E49EE00E948714CE0107960E945D
:103870004A0DCE0101960E944A0D6AE974E0CE011C
:1038800001960E94EB1264E678E0CE0107960E9452
:10389000EB12AE014F5F5F4FBE01695F7F4F8AE25F
:1038A0009EE00E948714CE0107960E944A0DCE0129
:1038B00001960E944A0D6FE974E0CE0101960E94C4
:1038C000EB1264E678E0CE0107960E94EB12AE019F
:1038D0004F5F5F4FBE01695F7F4F84E19EE00E94B2
:1038E0008714CE0107960E944A0DCE0101960E94D0
:1038F0004A0D64EA74E0CE0101960E94EB1264E680
:1039000078E0CE0107960E94EB12AE014F5F5F4F49
:10391000BE01695F7F4F8EEF9DE00E948714CE014C
:1039200007960E944A0DCE0101960E944A0D69EA4F
:1039300074E0CE0101960E94EB1264E678E0CE01BD
:1039400007960E94EB12AE014F5F5F4FBE01695FA9
:103950007F4F88EE9DE00E948714CE0107960E945B
:103960004A0DCE0101960E944A0D66E573E0CE0134
:1039700001960E94EB1264E678E0CE0107960E9461
:10398000EB12AE014F5F5F4FBE01695F7F4F82ED6B
:103990009DE00E948714CE0107960E944A0DCE0139
:1039A00001960E944A0D6EEA74E0CE0101960E94D3
:1039B000EB126EE678E0CE0107960E94EB12AE01A4
:1039C0004F5F5F4FBE01695F7F4F8CEB9DE00E94B0
:1039D0008714CE0107960E944A0DCE0101960E94DF
:1039E0004A0D67EB74E0CE0101960E94EB126EE681
:1039F00078E0CE0107960E94EB12AE014F5F5F4F59
:103A0000BE01695F7F4F86EA9DE00E948714CE0168
:103A100007960E944A0DCE0101960E944A0D60EC65
:103A200074E0CE0101960E94EB126EE678E0CE01C2
:103A300007960E94EB12AE014F5F5F4FBE01695FB8
:103A40007F4F80E99DE00E948714CE0107960E9477
:103A50004A0DCE0101960E944A0D69EC74E0CE0138
:103A600001960E94EB126EE678E0CE0107960E9466
:103A7000EB12AE014F5F5F4FBE01695F7F4F8AE778
:103A80009DE00E948714CE0107960E944A0DCE0148
:103A900001960E944A0D62ED74E0CE0101960E94EB
:103AA000EB126EE678E0CE0107960E94EB12AE01B3
:103AB0004F5F5F4FBE01695F7F4F84E69DE00E94CC
:103AC0008714CE0107960E944A0DCE0101960E94EE
:103AD0004A0D6BED74E0CE0101960E94EB126EE68A
:103AE00078E0CE0107960E94EB12AE014F5F5F4F68
:103AF000BE01695F7F4F8EE49DE00E948714CE0176
:103B000007960E944A0DCE0101960E944A0D64EE6E
:103B100074E0CE0101960E94EB126EE678E0CE01D1
:103B200007960E94EB12AE014F5F5F4FBE01695FC7
:103B30007F4F88E39DE00E948714CE0107960E9484
:103B40004A0DCE0101960E944A0D6DEE74E0CE0141
:103B500001960E94EB126EE678E0CE0107960E9475
:103B6000EB12AE014F5F5F4FBE01695F7F4F82E294
:103B70009DE00E948714CE0107960E944A0DCE0157
:103B800001960E944A0D66EF74E0CE0101960E94F4
:103B9000EB126EE678E0CE0107960E94EB12AE01C2
:103BA0004F5F5F4FBE01695F7F4F8CE09DE00E94D9
:103BB0008714CE0107960E944A0DCE0101960E94FD
:103BC0004A0D6FEF74E0CE0101960E94EB126EE693
:103BD00078E0CE0107960E94EB12AE014F5F5F4F77
:103BE000BE01695F7F4F86EF9CE00E948714CE0183
:103BF00007960E944A0DCE0101960E944A0D69E087
:103C000075E0CE0101960E94EB126EE678E0CE01DF
:103C100007960E94EB12AE014F5F5F4FBE01695FD6
:103C20007F4F80EE9CE00E948714CE0107960E9491
:103C30004A0DCE0101960E944A0D63E175E0CE0166
:103C400001960E94EB126EE678E0CE0107960E9484
:103C5000EB12AE014F5F5F4FBE01695F7F4F8AEC91
:103C60009CE00E948714CE0107960E944A0DCE0167
:103C700001960E944A0D6DE175E0CE0101960E9409
:103C8000EB126EE678E0CE0107960E94EB12AE01D1
:103C90004F5F5F4FBE01695F7F4F84EB9CE00E94E6
:103CA0008714CE0107960E944A0DCE0101960E940C
:103CB0004A0D67E275E0CE0101960E94EB126EE6B6
:103CC00078E0CE0107960E94EB12AE014F5F5F4F86
:103CD000BE01695F7F4F8EE99CE00E948714CE0190
:103CE00007960E944A0DCE0101960E944A0D61E39B
:103CF00075E0CE0101960E94EB126EE678E0CE01EF
:103D000007960E94EB12AE014F5F5F4FBE01695FE5
:103D10007F4F88E89CE00E948714CE0107960E949E
:103D20004A0DCE0101960E944A0D6BE375E0CE016B
:103D300001960E94EB126EE678E0CE0107960E9493
:103D4000EB12AE014F5F5F4FBE01695F7F4F82E7AD
:103D50009CE00E948714CE0107960E944A0DCE0176
:103D600001960E944A0D65E475E0CE0101960E941D
:103D7000EB1261E575E0CE0107960E94EB12AE01F1
:103D80004F5F5F4FBE01695F7F4F8CE59CE00E94F3
:103D90008714CE0107960E944A0DCE0101960E941B
:103DA0004A0D67E575E0CE0101960E94EB1262E8CC
:103DB00078E0CE0107960E94EB12AE014F5F5F4F95
:103DC000BE01695F7F4F86E49CE00E948714CE01AC
:103DD00007960E944A0DCE0101960E944A0D60E6A8
:103DE00075E0CE0101960E94EB1262E878E0CE0108
:103DF00007960E94EB12AE014F5F5F4FBE01695FF5
:103E00007F4F80E39CE00E948714CE0107960E94BA
:103E10004A0DCE0101960E944A0D69E675E0CE0179
:103E200001960E94EB1262E878E0CE0107960E94AC
:103E3000EB12AE014F5F5F4FBE01695F7F4F8AE1BA
:103E40009CE00E948714CE0107960E944A0DCE0185
:103E500001960E944A0D62E775E0CE0101960E942C
:103E6000EB1262E878E0CE0107960E94EB12AE01F9
:103E70004F5F5F4FBE01695F7F4F84E09CE00E940F
:103E80008714CE0107960E944A0DCE0101960E942A
:103E90004A0D6BE775E0CE0101960E94EB1262E8D5
:103EA00078E0CE0107960E94EB12AE014F5F5F4FA4
:103EB000BE01695F7F4F8EEE9BE00E948714CE01AA
:103EC00007960E944A0DCE0101960E944A0D64E8B1
:103ED00075E0CE0101960E94EB1262E878E0CE0117
:103EE00007960E94EB12AE014F5F5F4FBE01695F04
:103EF0007F4F88ED9BE00E948714CE0107960E94B9
:103F00004A0DCE0101960E944A0D66E274E0CE0190
:103F100001960E94EB1262E878E0CE0107960E94BB
:103F2000EB12AE014F5F5F4FBE01695F7F4F82ECC6
:103F30009BE00E948714CE0107960E944A0DCE0195
:103F400001960E944A0D6AE274E0CE0101960E9439
:103F5000EB1262E878E0CE0107960E94EB12AE0108
:103F60004F5F5F4FBE01695F7F4F8CEA9BE00E940D
:103F70008714CE0107960E944A0DCE0101960E9439
:103F80004A0D6EE274E0CE0101960E94EB1262E8E7
:103F900078E0CE0107960E94EB12AE014F5F5F4FB3
:103FA000BE01695F7F4F86E99BE00E948714CE01C6
:103FB00007960E944A0DCE0101960E944A0D62E3C7
:103FC00074E0CE0101960E94EB1262E878E0CE0127
:103FD00007960E94EB12AE014F5F5F4FBE01695F13
:103FE0007F4F80E89BE00E948714CE0107960E94D5
:103FF0004A0DCE0101960E944A0D66E374E0CE019F
:1040000001960E94EB1262E878E0CE0107960E94CA
:10401000EB12AE014F5F5F4FBE01695F7F4F8AE6D3
:104020009BE00E948714CE0107960E944A0DCE01A4
:1040300001960E944A0D6AE374E0CE0101960E9447
:10404000EB1262E878E0CE0107960E94EB12AE0117
:104050004F5F5F4FBE01695F7F4F84E59BE00E9429
:104060008714CE0107960E944A0DCE0101960E9448
:104070004A0D2C960FB6F894DEBF0FBECDBFDF9170
:10408000CF91089584E59BE00E94520D8AE69BE063
:104090000E94520D80E89BE00E94520D86E99BE051
:1040A0000E94520D8CEA9BE00E94520D82EC9BE034
:1040B0000E94520D88ED9BE00E94520D8EEE9BE017
:1040C0000E94520D84E09CE00E94520D8AE19CE027
:1040D0000E94520D80E39CE00E94520D86E49CE019
:1040E0000E94520D8CE59CE00E94520D82E79CE0FC
:1040F0000E94520D88E89CE00E94520D8EE99CE0DF
:104100000E94520D84EB9CE00E94520D8AEC9CE0D0
:104110000E94520D80EE9CE00E94520D86EF9CE0C2
:104120000E94520D8CE09DE00E94520D82E29DE0C3
:104130000E94520D88E39DE00E94520D8EE49DE0A6
:104140000E94520D84E69DE00E94520D8AE79DE098
:104150000E94520D80E99DE00E94520D86EA9DE08A
:104160000E94520D8CEB9DE00E94520D82ED9DE06D
:104170000E94520D88EE9DE00E94520D8EEF9DE050
:104180000E94520D84E19EE00E94520D8AE29EE060
:104190000E94520D80E49EE00E94520D86E59EE052
:1041A0000E94520D8CE69EE00E94520D82E89EE035
:1041B0000E94520D88E99EE00E94520D8EEA9EE018
:1041C0000E94520D84EC9EE00E94520D8AED9EE00A
:1041D0000E94520D80EF9EE00E94520D86E09FE00B
:1041E0000E94520D8CE19FE00E94520D82E39FE0FD
:1041F0000E94520D88E49FE00E94520D8EE59FE0E0
:104200000E94520D84E79FE00E94520D8AE89FE0D1
:104210000E94520D80EA9FE00E94520D86EB9FE0C3
:104220000E94520D8CEC9FE00E94520D82EE9FE0A6
:104230000E94520D88EF9FE00E94520D8EE090E1A7
:104240000E94520D84E290E10E94520D8AE390E1B7
:104250000E94520D80E590E10E94520D86E690E1A9
:104260000E94520D8CE790E10E94520D82E990E18C
:104270000E94520D88EA90E10E94520D8EEB90E16F
:104280000E94520D84ED90E10E94520D8AEE90E161
:104290000E94520D80E091E10E94520D86E191E171
:1042A0000E94520D8CE291E10E94520D82E491E154
:1042B0000E94520D88E591E10E94520D8EE691E137
:1042C0000E94520D84E891E10E94520D8AE991E129
:1042D0000E94520D80EB91E10E94520D86EC91E11B
:1042E0000E94520D8CED91E10E94520D82EF91E1FE
:1042F0000E94520D88E092E10E94520D8EE192E1FF
:104300000E94520D84E392E10E94520D8AE492E1F0
:104310000E94520D80E692E10E94520D86E792E1E2
:104320000E94520D8CE892E10E94520D82EA92E1C5
:104330000E94520D88EB92E10E94520D8EEC92E1A8
:104340000E94520D84EE92E10E94520D8AEF92E19A
:104350000E94520D80E193E10E94520D86E293E1AA
:104360000E94520D8CE393E10E94520D82E593E18D
:104370000E94520D88E693E10E94520D8EE793E170
:104380000E94520D84E993E10E94520D8AEA93E162
:104390000E94520D80EC93E10E944A0D86EC93E15D
:1043A00066CE0F931F93CF93DF93CDB7DEB72C97D5
:1043B0000FB6F894DEBF0FBECDBF8091FB0A81110E
:1043C00054C08091FA0A811150C010E000E00E94B0
:1043D000C00E682F70E07093730A6093720ACE016A
:1043E00007960E940E126DE875E0CE0101960E94BC
:1043F000EB12BE01695F7F4FCE0101960E94D01182
:104400000E94B40FCE0101960E944A0DCE0107967C
:104410000E944A0D8091720A9091730A499784F123
:1044200081E090E00E94E10F64E670E080E090E0BF
:104430000E94A8050E94C00E90E09093730A80939A
:10444000720A4997ECF086E090E00E94D30F89E071
:1044500090E00E94DA0F8CE995E00E949F0F809116
:10446000720A9091730A0E9403102C960FB6F8946A
:10447000DEBF0FBECDBFDF91CF911F910F91089589
:1044800050E040E068EC81E090E00E94E80F68E2D4
:1044900070E080E090E00E94A80581E090E00E943A
:1044A000E10F60E570E080E090E00E94A8050F5FFA
:1044B0001F4F0932110509F08ACFD7CF6F927F9233
:1044C0008F929F92AF92BF92CF92DF92EF92FF9224
:1044D0000F931F93CF93DF93CDB7DEB762970FB6DD
:1044E000F894DEBF0FBECDBF7C018B0166EC75E09A
:1044F000CE0101960E94EB12BE016F5F7F4FC80193
:104500000E941211D82ECE0101960E944A0DDD2084
:1045100009F4B2C06AE478E0CE0101960E94EB1281
:1045200050E040E0BE016F5F7F4FC8010E94F6106F
:104530003C01CE0101960E944A0D6AE478E0CE016A
:1045400001960E94EB12A3014F5F5F4FBE016F5FA8
:104550007F4FC8010E94F6104C01CE0101960E94C7
:104560004A0D54018FEFA81AB80A6AE478E0CE0128
:1045700001960E94EB12A501BE016F5F7F4FC8013B
:104580000E94F6106C01CE0101960E944A0D672030
:10459000609409F45AC08920809409F456C08FEFC2
:1045A000C816D80609F451C09601A501B801CE017C
:1045B00007960E94FC12F80124813581A6014F5F05
:1045C0005F4FB801CE0101960E94FC1260EB75E0CE
:1045D000CE010D960E94EB12BE01695F7F4FCE01A6
:1045E0000D960E94D0116AE478E00E94BA11BE01D3
:1045F0006F5F7F4F0E94D0110E94B40FCE010D96C5
:104600000E944A0D66E276E0C7010E94EB12CE01DD
:1046100001960E944A0DCE0107960E944A0DC701DD
:1046200062960FB6F894DEBF0FBECDBFDF91CF917B
:104630001F910F91FF90EF90DF90CF90BF90AF90C0
:104640009F908F907F906F9008956EEC75E0CE01F3
:1046500001960E94EB12B801CE0101960E94D01182
:104660000E94B40FCE0101960E944A0D66E276E0E8
:10467000C7010E94EB12D3CF6EEF75E0CE01019619
:104680000E94EB12BE016F5F7F4FC8010E941211A2
:10469000D82ECE0101960E944A0DDD2009F499C062
:1046A0006AE478E0CE0101960E94EB1250E040E00F
:1046B000BE016F5F7F4FC8010E94F6103C01CE0122
:1046C00001960E944A0D6AE478E0CE0101960E94AC
:1046D000EB12A3014F5F5F4FBE016F5F7F4FC801B9
:1046E0000E94F6104C01CE0101960E944A0D540121
:1046F000FFEFAF1ABF0A6AE478E0CE0101960E948C
:10470000EB12A501BE016F5F7F4FC8010E94F6103A
:104710006C01CE0101960E944A0D6720609409F455
:1047200044C08920809409F440C0FFEFCF16DF0613
:10473000E1F19601A501B801CE0107960E94FC1295
:10474000F80124813581A6014F5F5F4FB801CE018A
:1047500001960E94FC1268EE75E0CE010D960E9453
:10476000EB12BE01695F7F4FCE010D960E94D01102
:104770006AE478E00E94BA11BE016F5F7F4F0E9429
:10478000D0110E94B40FCE010D960E944A0DF70180
:10479000118210821382128215821482BE016F5F11
:1047A0007F4FC7010E942D1132CF66E076E0CE0127
:1047B00001960E94EB12B801CE0101960E94D01121
:1047C0000E94B40FCE0101960E944A0D65E276E088
:1047D0004FCF68E276E0EBCFCF92DF92EF92FF927D
:1047E000CF93DF93CDB7DEB768970FB6F894DEBFEF
:1047F0000FBECDBF7C0170E0CE0107960E940E1265
:1048000069EC75E0CE0101960E94EB12B701CE0172
:1048100001960E94D0116AE478E00E94BA11BE01AC
:10482000695F7F4F0E94D01168E772E00E94BA1161
:10483000BC01CE0143960E945112CE0101960E9406
:104840004A0DCE0107960E944A0DBE016D5E7F4F54
:1048500083E295E10E94240262E476E0CE010196B3
:104860000E94EB12BE016D5E7F4FCE0101960E9449
:10487000D0110E94B40FCE0101960E944A0D0E94F1
:10488000DB056B017C010E94DB056C197D098E093B
:104890009F09603D77408105910508F04CC069E7AC
:1048A00072E0CE0101960E94EB1283E295E10E9434
:1048B0007502892B09F450C04AE063E275E1CE012C
:1048C00007960E944813BE01695F7F4FCE01019693
:1048D0000E942D11CE0107960E944A0D64E576E0F4
:1048E000CE0107960E94EB12BE016F5F7F4FCE0193
:1048F00007960E94D0110E94B40FCE0107960E9425
:104900004A0DBE016F5F7F4FCE0107960E94511284
:10491000BE01695F7F4FCE010D960E945E22CE01DF
:104920000D960E944A0DCE0107960E944A0DCE01B7
:1049300001960E944A0DCE0143960E944A0D689648
:104940000FB6F894DEBF0FBECDBFDF91CF91FF90C1
:10495000EF90DF90CF900895CE0101960E944A0D0E
:1049600092CFCF92DF92EF92FF92CF93DF93CDB7AA
:10497000DEB768970FB6F894DEBF0FBECDBF7C01DF
:10498000CE0107960E940E1269EC75E0CE010196E9
:104990000E94EB12B701CE0101960E94D0116AE489
:1049A00078E00E94BA11BE01695F7F4F0E94D0116A
:1049B00068E772E00E94BA11BC01CE0143960E94E2
:1049C0005112CE0101960E944A0DCE0107960E9417
:1049D0004A0DBE016D5E7F4F83E295E10E94240285
:1049E00062E476E0CE0101960E94EB12BE016D5E9C
:1049F0007F4FCE0101960E94D0110E94B40FCE01CC
:104A000001960E944A0D0E94DB056B017C010E9409
:104A1000DB056C197D098E099F09603D7740810592
:104A2000910508F04CC069E772E0CE0101960E9442
:104A3000EB1283E295E10E947502892B09F450C0C4
:104A40004AE063E275E1CE0107960E944813BE0179
:104A5000695F7F4FCE0101960E942D11CE0107960E
:104A60000E944A0D64E576E0CE0107960E94EB12A3
:104A7000BE016F5F7F4FCE0107960E94D0110E944A
:104A8000B40FCE0107960E944A0DBE016F5F7F4FA3
:104A9000CE0107960E945112BE01695F7F4FCE0181
:104AA0000D960E945E22CE010D960E944A0DCE0107
:104AB00007960E944A0DCE0101960E944A0DCE0132
:104AC00043960E944A0D68960FB6F894DEBF0FBE5B
:104AD000CDBFDF91CF91FF90EF90DF90CF90089501
:104AE000CE0101960E944A0D92CF8F929F92AF9273
:104AF000BF92CF92DF92EF92FF920F931F93CF93CB
:104B0000DF93CDB7DEB7A6970FB6F894DEBF0FBE22
:104B1000CDBF8C016B01FC01128A138A148A158A9D
:104B20005C01FCE0AF0EB11C69E772E0C5010E94B8
:104B3000041267E676E0CE0101960E94EB12B801FE
:104B4000CE0101960E94D01161E972E00E94BA1173
:104B5000B8016A5F7F4F0E94D0116CE676E00E9438
:104B6000BA11BC0186E894E10E942402CE010196AC
:104B70000E944A0D0E940E030E940E030E940E0323
:104B800088EC90E0A0E0B0E080938A1490938B14BE
:104B9000A0938C14B0938D14CE0101964C01F12C8E
:104BA000E12C86E894E10E94E70597FD0AC0F40134
:104BB00081934F01FFEFEF1AFF0A20E2E216F104A2
:104BC00081F7E1E0F0E0EC0FFD1FEE0DFF1D89E73E
:104BD00092E08083BE016F5F7F4FCE0181960E947D
:104BE000EB12BE016F5D7F4FC5010E942D11CE01FA
:104BF00081960E944A0D61E776E0CE0181960E947F
:104C0000EB12BE016F5D7F4FC5010E941211F82E9D
:104C1000CE0181960E944A0DFF20D1F1F801408912
:104C20005189D801529690E080E00196841795074B
:104C300040F4F80124853585F901E80FF91F232B8D
:104C400021F41092700AE0E7FAE020812D9384307D
:104C5000910559F7F80182899389A489B589B7FD2F
:104C600037C0F6019183808381E0A6960FB6F89451
:104C7000DEBF0FBECDBFDF91CF911F910F91FF908F
:104C8000EF90DF90CF90BF90AF909F908F9008955E
:104C90000E94DB056B017C0183E796E00E949F0F79
:104CA0000E94DB056C197D098E099F09683E7340DF
:104CB0008105910568F586E894E10E947502892BCB
:104CC00079F386E894E10E9453020E946F0FE8CFC7
:104CD0000E94DB056B017C0188E996E00E949F0F32
:104CE0000E94DB056C197D098E099F09683E73409F
:104CF0008105910568F486E894E10E947502892B8C
:104D000079F386E894E10E9453020E946F0FE8CF86
:104D100080E0ABCF6CE072E08AEA93E10E947525F7
:104D20006AE072E084E993E10E94752568E072E030
:104D30008EE793E10E94752566E072E088E693E1D4
:104D40000E9475256EE072E082E593E10E94752570
:104D500064E072E08CE393E10E94752562E072E00A
:104D600086E293E10E94752560E072E080E193E1C4
:104D70000E94752560E172E08AEF92E10E9475253C
:104D800080910C0290910D028115944019F280914E
:104D90000A0290910B028115944009F4BBCF8091D7
:104DA0000802909109028115944009F4B3CF8091D3
:104DB0000602909107028115944009F4ABCF8091CF
:104DC0000E0290910F028115944009F4A3CF8091B7
:104DD0000402909105028115944009F49BCF8091C3
:104DE0000202909103028115944009F493CF8091BF
:104DF0000002909101028115944009F48BCF8091BB
:104E00001002909111028115944009F483CF089506
:104E10008F929F92AF92BF92FF920F931F93CF9367
:104E2000DF93CDB7DEB72C970FB6F894DEBF0FBE79
:104E3000CDBF8091FB0A81117EC18091FA0A811158
:104E40007AC10E944D096093760A70E086E690E18F
:104E50000E945A126AE47BE084E392E10E94752585
:104E600001E010E0FF24F3940E944D096093760A5C
:104E700070E086E690E10E945A1289E30E9468057C
:104E80009093750A8093740A8132934094F48091D0
:104E9000460B81110EC041E050E06FEF82E090E0E0
:104EA0000E94E80F41E050E06CE887E090E00E944B
:104EB000E80F8091740A9091750A8132934044F012
:104EC00082E090E00E94E10F87E090E00E94E10F15
:104ED0008FE30E9468058FE30E946805C39724F062
:104EE00085E090E00E94E10F2091760A80914A0BC4
:104EF00090914B0B28171906BCF18091460B81113C
:104F00003EC083E090E00E94E10F82E090E00E94CA
:104F1000E10F87E090E00E94E10F88E090E00E94BE
:104F2000E10F0E944D096093760A70E080914A0B70
:104F300090914B0B68177907BCF0F092460B86E610
:104F400090E10E945A128CEB96E00E949F0F809194
:104F5000760A0E94A10F2091760A80914A0B9091C7
:104F60004B0B281719065CF48091460B811107C082
:104F700050E040E06FEF83E090E00E94E80F609126
:104F8000760A70E090E080E00E94DD434B015C0116
:104F900060914A0B70914B0B072E000C880B990BFC
:104FA0000E94DD4326E636E646E65FE30E943C4487
:104FB0009B01AC01C501B4010E94724687FD04C08B
:104FC00088E090E00E94E10F6091760A70E090E046
:104FD00080E00E94DD434B015C0160914A0B7091BF
:104FE0004B0B072E000C880B990B0E94DD4326E625
:104FF00036E646E65FE30E943C449B01AC01C501F6
:10500000B4010E94D64318165CF08091460B8111C2
:1050100007C050E040E06FEF88E090E00E94E80FAA
:105020000130110591F486E090E00E94DA0F03311F
:105030001105A9F482E090E00E94DA0F81E090E08F
:105040000E94E10F85E090E08CC003301105A1F4CF
:1050500050E040E06CED81E090E00E94E80F043108
:10506000110509F080C083E090E00E94DA0F84E02F
:1050700090E00E94DA0F3FC082E090E00830110516
:1050800009F46FC00B30110594F20E94C00E682F16
:1050900070E07093730A6093720ACE0107960E94C3
:1050A0000E1265ED76E0CE0101960E94EB12BE0174
:1050B000695F7F4FCE0101960E94D0110E94B40F0C
:1050C000CE0101960E944A0DCE0107960E944A0D1C
:1050D0008091720A9091730A4A97ECF581E080936F
:1050E000FB0A62E370E080E090E00E94A8050E9465
:1050F0001E0D0E940F0D82E090E00E94E10F83E000
:1051000090E00E94E10F87E090E00E94E10F88E0CC
:1051100090E00E94E10F81E090E00E94E10F85E0C5
:1051200090E00E94E10F8EEE96E00E94C50F89E7A5
:1051300092E00E94C50F2C960FB6F894DEBF0FBE0A
:10514000CDBFDF91CF911F910F91FF90BF90AF9096
:105150009F908F90089581E090E00231110509F051
:1051600066CF0E94DA0F68E770E080E090E00E946E
:10517000A8050F5F1F4F78CECF92DF92EF92FF927C
:105180001F93CF93DF938091FB0A81119AC1809185
:10519000FA0A811196C16AE47BE084E392E10E94FD
:1051A00075258AE30E9468058935924074F083E092
:1051B00090E00E94D30F84E090E00E94D30F68E556
:1051C00072E080E090E00E94A805C1E0D0E011E02C
:1051D0000E944D096093760A70E086E690E10E9495
:1051E0005A1289E30E9468059093750A8093740AA5
:1051F0008132934094F48091460B81110EC041E0BE
:1052000050E06FEF82E090E00E94E80F41E050E054
:105210006CE887E090E00E94E80F8091740A90911A
:10522000750A8132934044F082E090E00E94E10FE1
:1052300087E090E00E94E10F2091760A80914A0B6E
:1052400090914B0B28171906ECF18091460B8111B8
:1052500044C083E090E00E94E10F82E090E00E9471
:10526000E10F87E090E00E94E10F88E090E00E946B
:10527000E10F6AE070E080E090E00E94A8050E94E3
:105280004D096093760A70E080914A0B90914B0B28
:1052900068177907BCF01093460B86E690E10E94F0
:1052A0005A128CEB96E00E949F0F8091760A0E9422
:1052B000A10F2091760A80914A0B90914B0B2817F1
:1052C00019065CF48091460B811107C050E040E064
:1052D0006FEF83E090E00E94E80F6091760A70E043
:1052E00090E080E00E94DD436B017C0160914A0BFD
:1052F00070914B0B072E000C880B990B0E94DD431D
:1053000026E636E646E65FE30E943C449B01AC019C
:10531000C701B6010E94D64318165CF08091460B77
:10532000811107C050E040E06FEF88E090E00E94FC
:10533000E80F6091760A70E090E080E00E94DD4323
:105340006B017C0160914A0B70914B0B072E000C96
:10535000880B990B0E94DD4326E636E646E65FE3BE
:105360000E943C449B01AC01C701B6010E947246F9
:1053700087FD04C088E090E00E94E10FC130D105B4
:10538000F9F450E040E06FEF81E090E00E94E80F18
:1053900082E090E00E94D30F8FE090E00E94D30F54
:1053A000CB30D105E1F481E090E00E94E10F84E090
:1053B00090E00E94E10F81E190E00E94DA0F53C07B
:1053C000C230D10529F48FE090E00E94DA0FE8CFD7
:1053D000C330D105B1F48FE090E00E94D30FCC3000
:1053E000D10511F581E090E00E94DA0F82E090E0B3
:1053F0000E94DA0F89E090E00E94DA0F83E090E0EB
:10540000DCCFC430D105E1F481E190E00E94D30FFC
:105410008FE30E946805C3973CF450E040E06FEFD3
:1054200085E090E00E94E80FCE30D105E1F483E002
:1054300090E00E94D30F84E090E00E94D30F13C04D
:10544000CA30D10509F0ACCF8EE090E00E94D30FB6
:1054500089E090E00E94D30F50E040E064EB84E0EC
:1054600090E00E94E80F64E670E080E090E00E9427
:10547000A8052196C031D10509F0AACE82E090E0BE
:105480000E94E10F83E090E00E94E10F87E090E04E
:105490000E94E10F88E090E00E94E10F81E090E03F
:1054A0000E94E10F85E090E00E94E10F89E792E021
:1054B000DF91CF911F91FF90EF90DF90CF900C94F0
:1054C000C50FDF91CF911F91FF90EF90DF90CF90AC
:1054D0000895CF92DF92EF92FF921F93CF93DF93C5
:1054E0008091FB0A8111B4C18091FA0A8111B0C187
:1054F00083E090E00E94D30F84E090E00E94D30FFD
:1055000064E670E080E090E00E94A8056AE47BE039
:1055100084E392E10E947525C1E0D0E011E00E9491
:105520004D096093760A89E197E00E949F0FCE01B2
:105530000E946F0F8DE30E9468059093F70A809395
:10554000F60A8AE792E00E949F0F8091F60A9091F6
:10555000F70A0E94031089E30E9468059093750A78
:105560008093740A41E050E06FEF84E090E00E9485
:10557000E80F8AE090E00E94D30F8DE090E00E9457
:10558000D30F2091F60A3091F70A80910E02909184
:105590000F02281739070CF454C08DE090E00E94E8
:1055A000DA0F8AE090E00E94DA0F609100027091B9
:1055B0000102072E000C880B990B0E94A80584E0BD
:1055C00090E00E94E10F83E090E00E94E10F82E012
:1055D00090E00E94E10F87E090E00E94E10F88E0F8
:1055E00090E00E94E10F81E090E00E94E10F82E0F4
:1055F00090E00E94DA0F82E090E00E94E10F83E0E9
:1056000090E00E94E10F87E090E00E94E10F88E0C7
:1056100090E00E94E10F84E090E00E94E10F81E0C1
:1056200090E00E94E10F6091760A70E086E690E1DA
:10563000DF91CF911F91FF90EF90DF90CF900C946E
:105640005A128091740A9091750A8132934094F4B1
:105650008091460B81110EC041E050E06FEF82E077
:1056600090E00E94E80F41E050E06CE887E090E0B5
:105670000E94E80F8091740A9091750A81329340DC
:1056800044F082E090E00E94E10F87E090E00E9409
:10569000E10F2091760A80914A0B90914B0B2817CD
:1056A0001906B4F08091460B811112C083E090E09E
:1056B0000E94E10F82E090E00E94E10F87E090E01D
:1056C0000E94E10F88E090E00E94E10F1093460BEA
:1056D0002091760A80914A0B90914B0B281719065E
:1056E0005CF48091460B811107C050E040E06FEF01
:1056F00083E090E00E94E80F6091760A70E090E00D
:1057000080E00E94DD436B017C0160914A0B709147
:105710004B0B072E000C880B990B0E94DD4326E6ED
:1057200036E646E65FE30E943C449B01AC01C701BC
:10573000B6010E94D64318165CF08091460B811189
:1057400007C050E040E06FEF88E090E00E94E80F73
:105750006091760A70E090E080E00E94DD436B018A
:105760007C0160914A0B70914B0B072E000C880B4B
:10577000990B0E94DD4326E636E646E65FE30E948B
:105780003C449B01AC01C701B6010E94724687FDF3
:1057900004C088E090E00E94E10FC130D10569F4B7
:1057A00082E090E00E94D30FCF30D105C1F481E0B8
:1057B00090E00E94DA0F2196B2CEC230D10541F4BA
:1057C00050E040E06FEF81E090E00E94E80FECCF06
:1057D000C330D10541F482E090E00E94DA0FC43179
:1057E000D10589F107C0C730D10549F582E090E0C5
:1057F0000E94D30FC233D105F1F682E090E00E94FF
:10580000E10F83E090E00E94E10F87E090E00E94CA
:10581000E10F88E090E00E94E10F84E090E00E94B8
:10582000E10F81E090E00E94E10F84E397E00E94A5
:10583000C50F0E940F0D81E08093FB0ADCCECA30B9
:10584000D10509F0B1CF81E090E00E94D30FB3CF32
:10585000DF91CF911F91FF90EF90DF90CF9008954F
:105860008F929F92AF92BF92CF92DF92EF92FF9270
:105870000F931F93CF93DF93CDB7DEB7A6970FB6E5
:10588000F894DEBF0FBECDBF8C016B01FC01128A04
:10589000138A148A158A5C01FCE0AF0EB11C69E71B
:1058A00072E0C5010E94041267E676E0CE0101961F
:1058B0000E94EB12B801CE0101960E94D01161E95D
:1058C00072E00E94BA11B8016A5F7F4F0E94D01146
:1058D0006CE676E00E94BA11BC0186E894E10E9471
:1058E0002402CE0101960E944A0D0E940E030E94DE
:1058F0000E030E940E0386E990E0A0E0B0E08093E2
:105900008A1490938B14A0938C14B0938D14CE01B1
:1059100001964C01F12CE12C86E894E10E94E70508
:1059200097FD0AC0F40181934F01FFEFEF1AFF0AC0
:1059300020E2E216F10481F7E1E0F0E0EC0FFD1F58
:10594000EE0DFF1D89E792E08083BE016F5F7F4F00
:10595000CE0181960E94EB12BE016F5D7F4FC501A3
:105960000E942D11CE0181960E944A0D61E776E0DA
:10597000CE0181960E94EB12BE016F5D7F4FC50183
:105980000E941211F82ECE0181960E944A0DFF202E
:10599000E1F0F80140895189D801529690E080E009
:1059A00001968417950740F4F80124853585F9019F
:1059B000E80FF91F232B21F41092700AE0E7FAE0B8
:1059C00020812D938430910559F7F801428953893C
:1059D000648975894230510561057105E4F481E0FF
:1059E000452B462B472B09F480E0F601808381E0AC
:1059F000A6960FB6F894DEBF0FBECDBFDF91CF9154
:105A00001F910F91FF90EF90DF90CF90BF90AF90DC
:105A10009F908F9008950E94DB056B017C0182E5C9
:105A200097E00E949F0F0E94DB056C197D098E098B
:105A30009F09683E73408105910568F486E894E10A
:105A40000E947502892B79F386E894E10E94530243
:105A50000E946F0FE8CF80E0CBCF8091520B9091E6
:105A6000530B8536910549F46EE47BE088E092E1C2
:105A70000E94302C80914E0B08958636910529F4B2
:105A800069E37BE088EA90E1F3CF8736910529F45A
:105A90006BE17BE082ED9DE0EBCF80E00895CF925B
:105AA000DF92EF92FF92CF93DF938091FB0A8111F7
:105AB00082C18091FA0A81117EC10E944D096093D2
:105AC000760A70E086E690E10E945A126AE47BE072
:105AD00084E392E10E9475252091760A80914A0B19
